:100000000C94F8060C9429070C9429070C942907E2
:100010000C9429070C9429070C9429070C942907A0
:100020000C9429070C94A3500C94A3500C94A35047
:100030000C9429070C94444E0C9429070C9429071E
:100040000C9429070C9475500C9429070C942907DB
:100050000C9429070C9429070C9429070C94FA4D49
:100060000C9429070C94D04D0C94A64D0C942907A0
:100070000C9429070C9429070C9429070C94290740
:100080000C9447500C9429070C9429070C942907C9
:100090000C947C4D0C94524D0C9429070C94C74E33
:1000A0000C9429070C9429070C9419500C942907D7
:1000B0000C9429070C9429070C9429070C94EB4FF6
:1000C0000C9429070C9429070C9429070C94284DAB
:1000D0000C94FE4C0C9429070C94D44C0C94AA4C10
:1000E0000C9429070C948F080C94520A0C94CC227F
:1000F0000C9406090C9496300C941A3A0C948D07C3
:100100000C94D4300C94FD260C94EB260C94EB301C
:100110000C943F070C9432270C9494170C940527E9
:100120000C945D070C94360A0C94EC3F0C94582FF9
:100130000C94480A0C943C310C9467530C94DD12D7
:100140000C94230A0C94F1070C9434360C94490750
:100150000C94451F0C94F2070C94F41D0C94171585
:100160000C9469270C9482220C9493220C94F80826
:100170000C94C0160C9488220C946C250C94F310EB
:100180000C9468220C942F400C947A0C0C941F0A47
:100190000C9446270C9464260C94DC0D0C94E126F8
:1001A0000C94AE090C940E350C94510A0C94A417BF
:1001B0000C94B43A0C9470070C945A2F0C94562F4C
:1001C0000C9488080C94C71D0C94C1270C945307F9
:1001D0000C94CD260C949B220C94D7260C947B0C6B
:1001E0000C944C0A0C9435070C94A7300C940930ED
:1001F0000C94560A0C9444310C9424180C94670700
:100200000C9485220C94F5260C9423270C940F272C
:100210000C9456110C943A0A0C947C210C94B41D45
:100220000C94542F0C947B070C9450270C9441246D
:100230000C94ED5D0C94B0170C94D5080C949E2290
:100240000C9419270C9405310C9448160C94300A20
:100250000C94D20E0C94693A0C94230E0C94082240
:100260000C94BC170C94E4080C94A51D0C942B075B
:100270000C94260A0C945C090C94110A0C94972295
:100280000C943E0A0C948B220C943C270C945A2715
:100290000C9453350C9464270C94DD160C94BF30E9
:1002A0000C941B0A0C94F0210C94F0070C949421EC
:1002B0000C94D2260C94170A0C9499370C94C935D7
:1002C0000C9499250C94BC220C94930D0C942C0A3C
:1002D0000C9453310C948F220C94440A0C94E9151D
:1002E000DB40A4A62EAFDA0281DA1281DA02818F16
:1002F0002000A1C8D300408DAED580A800006000CA
:1003000000000000000000000000000000E000000D
:10031000000000000000000000000001E0000000FC
:100320000000000000000000000001F000000000DC
:1003300000000000000000000003F00000000000CA
:10034000000000000000000007F0000000000000B6
:100350000000000000000007F8000000000000009E
:100360000000000000000FF800000003C0007E0045
:100370000001E0007F0FF800000003C000FE000055
:1003800001E000FFEFF800000003C000FE000001E4
:10039000E000FFFFF800000003C000F00000000FC5
:1003A000007FFE7FC0000003C000F00000000F00CF
:1003B0003FFE7FF83FF1FBCFFCFEF3BC3DEFE01FBB
:1003C000FE7FFF7FFBFFDFFEFEFFBC3DEFE01FC6B1
:1003D000FFFF7FFBFFDFFEFEFFBC3DEFE00FE3C74B
:1003E000FE787BC3DE1EF0FFBC3DEF0007FF87FCFD
:1003F000787BC3DE1EF0F83C3DEF0001FFFFF0000C
:100400007BC3C01EF0F03C3DEF0001F37FE03FFBFB
:10041000C3CFFEF0F03C3DEF0003E33F807FFBC322
:10042000DFFEF0F03C3DEF0007E73C00787BC3DEE9
:100430001EF0F03C3DEF0007FFBE00787BC3DE1EE0
:10044000F0F03C3DEF0007FFFE00787BC3DE1EF0BE
:10045000F03C3DEF000FFFFE007FFBFFDFFEF0F002
:100460003FFDEFE00FFFFF007FFBFFDFFEF0F03FFF
:10047000FDEFE00FF9FF003E79F9CF9EF0F01F3D50
:10048000E7E01FF1FF000000000000000000000096
:10049000001F80FF007FFFFFFFFFFFFFFFFFFFE068
:1004A0001C007F007FFFFFFFFEB46D888D18E00009
:1004B000001F007FFFFFFFFE95AD7DB577E00000D8
:1004C0000F007FFFFFFFFEA5AD9D8D19E000000628
:1004D000007FFFFFFFFEB5ADEDB57EE00000000040
:1004E0000001800000000000000000000380000008
:1004F0000000000000000007C00000000000000035
:10050000000007C00000000000000000000FC00055
:1005100000000000000000001FE0000000000000DC
:100520000000001FE00000000000000000003FE0AD
:100530000000000000000000003FF000000000008C
:10054000000000007FF0000000000000001FF87FA6
:10055000F0000000000000003FFE7FF000000000FF
:100560000000003FFF7FF0000000000000001FFFC0
:10057000FBE0000000000000000FFFF9FFC00000DA
:10058000000000000FFFF9FFF80000000000000766
:10059000FFF1FFFF00000000000003FC73FFFF807D
:1005A000000000000001FE3FFFFF8000000000008F
:1005B00000FF1E0FFF000000000000007FFE1FFC78
:1005C000000000000000003FFFFFF80000000000F6
:1005D00000000FDFFFE0000000000000001F19FF17
:1005E000C0000000000000003F3CFF0000000000D1
:1005F0000000007E7CF800000000000000007FFE8C
:100600007C0000000000000000FFFFFC0000000074
:1006100000000000FFFFFE0000000000000000FFDF
:10062000FFFE0000000000000001FFEFFE000000E0
:100630000000000001FFCFFE0000000000000003EA
:10064000FF07FE0000000000000003FC07FE0000A2
:10065000000000000003F003FE00000000000000A6
:10066000018000FE000000000000000000007E008D
:100670000000000000000000003E0000000000003C
:10068000000000000C000000000000078000FC00DB
:100690000003C0000000078001FC000003C0000050
:1006A00000078001FC000003C0000000078001E09B
:1006B0000000001E000000078001E00000001E0096
:1006C0007FE3F79FF9FDE7787BDFC0FFF7FFBFFD12
:1006D000FDFF787BDFC0FFF7FFBFFDFDFF787BDF0D
:1006E000C0F0F787BC3DE1FF787BDE00F0F787BC08
:1006F0003DE1F0787BDE0000F787803DE1E0787B2C
:10070000DE007FF7879FFDE1E0787BDE00FFF78763
:10071000BFFDE1E0787BDE00F0F787BC3DE1E078EB
:100720007BDE00F0F787BC3DE1E0787BDE00F0F790
:1007300087BC3DE1E0787BDE00FFF7FFBFFDE1E035
:100740007FFBDFC0FFF7FFBFFDE1E07FFBDFC07C89
:10075000F3F39F3DE1E03E7BCFC0000000000000CE
:100760000000000000FFFFFFFFFFFFFFFFFFFFC0D3
:10077000FFFFFFFFFD68DB111A31C0FFFFFFFFFD28
:100780002B5AFB6AEFC0FFFFFFFFFD4B5B3B1A33A9
:10079000C0FFFFFFFFFD6B5BDB6AFDC0005EBCE2DC
:1007A000613FDD83C29C7E20A3FD1F41009D23BECF
:1007B00046DB65F88C11AF32CA57E97400000000BF
:1007C000003E5B4F5B3E3E6B4F6B3E1C3E7C3E1CD7
:1007D000183C7E3C181C577D571C1C5E7F5E1C001D
:1007E000183C1800FFE7C3E7FF0018241800FFE7D4
:1007F000DBE7FF30483A060E2629792926407F0597
:100800000507407F05253F5A3CE73C5A7F3E1C1CAC
:1008100008081C1C3E7F14227F22145F5F005F5F6C
:1008200006097F017F006689956A60606060609458
:10083000A2FFA29408047E040810207E201008085D
:100840002A1C08081C2A08081E101010100C1E0C68
:100850001E0C30383E3830060E3E0E0600000000FA
:100860000000005F00000007000700147F147F14E1
:10087000242A7F2A12231308646236495620500026
:1008800008070300001C2241000041221C002A1C12
:100890007F1C2A08083E08080080703000080808FD
:1008A0000808000060600020100804023E5149451D
:1008B0003E00427F400072494949462141494D333B
:1008C0001814127F1027454545393C4A49493141A2
:1008D000211109073649494936464949291E000070
:1008E00014000000403400000008142241141414C5
:1008F0001414004122140802015909063E415D59B1
:100900004E7C1211127C7F494949363E41414122B9
:100910007F4141413E7F494949417F090909013EE3
:10092000414151737F0808087F00417F410020400A
:10093000413F017F081422417F404040407F021C1C
:10094000027F7F0408107F3E4141413E7F09090933
:10095000063E4151215E7F091929462649494932FF
:1009600003017F01033F4040403F1F2040201F3FC5
:100970004038403F6314081463030478040361594A
:10098000494D43007F41414102040810200041418C
:10099000417F040201020440404040400003070838
:1009A0000020545478407F28444438384444442834
:1009B000384444287F385454541800087E090218DB
:1009C000A4A49C787F0804047800447D4000204063
:1009D000403D007F1028440000417F40007C0478A7
:1009E00004787C080404783844444438FC182424EF
:1009F0001818242418FC7C0804040848545454246F
:100A000004043F44243C4040207C1C2040201C3CEB
:100A10004030403C44281028444C9090907C4464E2
:100A2000544C440008364100000077000000413675
:100A3000080002010204023C2623263C1EA1A161FB
:100A4000123A4040207A385454555921555579412D
:100A50002254547842215554784020545579400C02
:100A60001E527212395555555939545454593955E5
:100A70005454580000457C410002457D4200014528
:100A80007C407D1211127DF0282528F07C545545BC
:100A9000002054547C547C0A097F49324949493228
:100AA0003A4444443A324A4848303A4141217A3A39
:100AB00042402078009DA0A07D3D4242423D3D4005
:100AC00040403D3C24FF2424487E4943662B2FFCB4
:100AD0002F2BFF0929F620C0887E09032054547962
:100AE000410000447D413048484A32384040227A33
:100AF000007A0A0A727D0D19317D2629292F2826B0
:100B00002929292630484D402038080808080808B7
:100B10000808382F10C8ACBA2F102834FA00007B10
:100B2000000008142A142222142A14085500550023
:100B300055AA55AA55AAFF55FF55FF000000FF0012
:100B4000101010FF00141414FF001010FF00FF100D
:100B500010F010F0141414FC001414F700FF00003F
:100B6000FF00FF1414F404FC141417101F10101FBE
:100B7000101F1414141F00101010F0000000001FAC
:100B8000101010101F10101010F010000000FF10B7
:100B90001010101010101010FF10000000FF1400B3
:100BA00000FF00FF00001F10170000FC04F41414E5
:100BB0001710171414F404F40000FF00F7141414B1
:100BC00014141414F700F7141414171410101F1031
:100BD0001F141414F4141010F010F000001F101F54
:100BE0000000001F14000000FC140000F010F010C2
:100BF00010FF10FF141414FF141010101F00000039
:100C000000F010FFFFFFFFFFF0F0F0F0F0FFFFFF3C
:100C10000000000000FFFF0F0F0F0F0F3844443893
:100C200044FC4A4A4A347E02020606027E027E02E2
:100C300063554941633844443C04407E201E2006ED
:100C4000027E020299A5E7A5991C2A492A1C4C722A
:100C500001724C304A4D4D303048784830BC625AB1
:100C6000463D3E494949007E0101017E2A2A2A2A41
:100C70002A44445F444440514A444040444A51401D
:100C80000000FF0103E080FF000008086B6B0836DE
:100C900012362436060F090F06000018180000004F
:100CA0001010003040FF0101001F01011E00191D3E
:100CB0001712003C3C3C3C00000000000001030710
:100CC0000F1F3F7F0080C0E0F0F8FCFE0000210015
:100CD000240027002A002D0030003300010100000D
:100CE000040107010A0100000A0B02090C0D0E089D
:100CF00007030401000000000000000000000000E5
:100D000000000000000000000000000000000000E3
:100D100000001211100000000000000000000000A0
:100D200000000000000000000000000000002000A3
:100D30002300260029002C002F00320000010000B3
:100D400003010601090101021020200808102040BB
:100D5000102040800201020108040201010204087F
:100D6000102040808040201008040201800402010D
:100D70008040201008040201080402010102040856
:100D80001020408001020408102040800000220052
:100D9000250028002B002E00310034000201000045
:100DA000050108010B0105050505070508080808E8
:100DB000020202020A0A08080404040401010101F3
:100DC00001010101030303030303030304070707EE
:100DD0000C0C0C0C0C0C0C0C020202020606060693
:100DE000060606060B0B0B0B0B0B0B0B6753ED5D8F
:100DF00011241FBECFEFD1E2DEBFCDBF00E00CBF9C
:100E000014E0A0E0B2E0EEEBF6EC00E00BBF02C0B5
:100E100007900D92A83AB107D9F72DE0A8EAB4E0FF
:100E200001C01D92A439B207E1F716E0C7EFD6E082
:100E300000E006C021970109802FFE010E94F760A3
:100E4000C63FD10780E00807A9F70E9440560C94DE
:100E50004D630C940000862FE091CC05F091CD05F8
:100E6000309711F0BA0119940895862FE091CA05C0
:100E7000F091CB05309711F0BA0119940895862F9F
:100E8000E091C805F091C905309711F0BA011994A5
:100E90000895862FE091C605F091C705309711F0AF
:100EA000BA0119940895862FE091C405F091C50503
:100EB000309711F0BA0119940895862FE091C20578
:100EC000F091C305309711F0BA0119940895CB0140
:100ED000E091D205F091D305309709F01994089567
:100EE000862F642FE091CE05F091CF05309711F059
:100EF000A90119940895E091D005F091D10530979A
:100F000009F01994089591E090930D0680932F06AF
:100F100010920E061092300608958091F50590917A
:100F2000F605891B990B0895A091240AB091250A12
:100F3000ED91FC9111970190F081E02D682FCD018A
:100F400019941F93CF93DF93182FEB018091EB0936
:100F50009091EC096817790760F48091E909909104
:100F6000EA09C80FD91F188380E0DF91CF911F9144
:100F70000895E091180AF091190A309711F481E070
:100F8000F4CF81E08093E8098091040A9091050AEA
:100F900019958091EB099091EC09C817D90778F75A
:100FA000DCCFCF93DF93EC01FB0130E020E0C901FF
:100FB000880F991F8C179D0778F44081DB014D93B2
:100FC000BD0111979181979599279795942B9C93A3
:100FD0002F5F3F4F3296EBCFC901DF91CF9108953C
:100FE000089508950895CF92DF92EF92FF92CF93E4
:100FF000DF93EC016A017B01E889F98982E0808353
:10100000C11481EED806E104F104A1F060E079E0BA
:101010008DE390E0A70196010E94875F215031097E
:10102000410951095695479537952795211580E136
:10103000380798F0E889F989108260E874E88EE151
:1010400090E0A70196010E94875F21503109410974
:1010500051095695479537952795EC85FD85308341
:10106000EE85FF852083188EEC89FD8986E08083DC
:10107000EA89FB89808180618083EA89FB8980819C
:1010800088608083EA89FB89808180688083EA891F
:10109000FB8980818F7D8083DF91CF91FF90EF90DE
:1010A000DF90CF900895CF93DF93FC01A081B181B1
:1010B000109701F1EC01ED91FC9111970190F081F5
:1010C000E02D69EFCD01199588819981DC01ED91C1
:1010D000FC910190F081E02D62E019958881998161
:1010E000DC01ED91FC910190F081E02D65E0DF9154
:1010F000CF911994DF91CF9108958230910538F006
:10110000880F991F880F991F05970197F1F7089588
:10111000009721F0805C9F4F0C9453080895AF9284
:10112000BF92CF92DF92EF92FF920F931F93CF93D4
:10113000DF936C017B018B01040F151FEB015E0136
:10114000AE18BF08C017D10759F06991D601ED91CB
:10115000FC910190F081E02DC6011995892B79F75A
:10116000C501DF91CF911F910F91FF90EF90DF901C
:10117000CF90BF90AF900895FC01A089B1898C9168
:10118000A689B78982FD0FC09C91818D8F5F8F7377
:10119000228D821749F0A18DAE0FBF2FB11D5D9634
:1011A0009C93818F08958C910895FC01538D448DFB
:1011B000252F30E0842F90E0821B930B541710F002
:1011C000CF96089501970895FC01918D828D98170F
:1011D00061F0A28DAE0FBF2FB11D5D968C91928DE7
:1011E0009F5F9F73928F90E008958FEF9FEF089518
:1011F000FC01918D828D981731F0828DE80FF11DE1
:10120000858D90E008958FEF9FEF0895FC01918DFB
:10121000228D892F90E0805C9F4F821B91098F73F4
:101220009927089582E397E00E94060921E0892B1F
:1012300009F420E0822F08958FEC97E00E940609C0
:1012400021E0892B09F420E0822F08958CE698E0B4
:101250000E94060921E0892B09F420E0822F0895DD
:1012600089E099E00E94060921E0892B09F420E039
:10127000822F0895FC01A48DA80FB92FB11DA35A88
:10128000BF4F2C91848D90E001968F739927848FA6
:10129000A689B7892C93A089B1898C9183708064C9
:1012A0008C93938D848D981306C00288F389E02D6A
:1012B00080818F7D80830895EF92FF920F931F931B
:1012C000CF93DF93EC0181E0888F9B8D8C8D9813F9
:1012D0001AC0E889F989808185FF15C09FB7F89405
:1012E000EE89FF896083E889F98980818370806451
:1012F00080839FBF81E090E0DF91CF911F910F919C
:10130000FF90EF900895F62E0B8D10E00F5F1F4FAA
:101310000F731127E02E8C8D8E110CC00FB607FCB9
:10132000FACFE889F989808185FFF5CFCE010E9447
:101330003A09F1CFEB8DEC0FFD2FF11DE35AFF4F72
:10134000F0829FB7F8940B8FEA89FB8980818062D5
:10135000CFCF682F89E099E00C945C09CF93DF939D
:10136000EC01888D8823B9F0AA89BB89E889F989BD
:101370008C9185FD03C0808186FD0DC00FB607FCF2
:10138000F7CF8C9185FFF2CF808185FFEDCFCE0125
:101390000E943A09E9CFDF91CF91089580E090E073
:1013A000892B29F00E94300981110E94000080E001
:1013B00090E0892B29F00E94260981110E940000EB
:1013C00080E090E0892B29F00E941C0981110E9485
:1013D000000080E090E0892B29F00E941209811121
:1013E0000C94000008958150823108F05AC0E82F13
:1013F000F0E08827E150F64F8F4F0C94F7601F0AFA
:10140000230A110A170A1B0A510A260A2C0A300A53
:10141000360A3A0A3E0A440A480A510A4C0A520A53
:10142000560A809180008F77809380000895809184
:1014300080008F7DF9CF80918000877FF5CF84B5C4
:101440008F7784BD089584B58F7DFBCF8091B000E8
:101450008F778093B00008958091B0008F7DF9CF91
:10146000809190008F7780939000089580919000F4
:101470008F7DF9CF80919000877FF5CF8091A0007C
:101480008F778093A00008958091A0008F7DF9CF81
:101490008091A000877FF5CF809120018F77809386
:1014A00020010895809120018F7DF9CF8091200146
:1014B000877FF5CFCF93DF93282F30E0F901EA51F2
:1014C000F34F8491F901EA5BF24FD491F901EA55A7
:1014D000F24FC491CC23A1F081110E94F309EC2FAB
:1014E000F0E0EE0FFF1FE45DF24FA591B491EC9197
:1014F000ED2381E090E009F480E0DF91CF91089541
:1015000080E090E0FACF1F93CF93DF93282F30E055
:10151000F901EA51F34F8491F901EA5BF24FD4915A
:10152000F901EA55F24FC491CC23A9F0162F81118D
:101530000E94F309EC2FF0E0EE0FFF1FE457F24F8B
:10154000A591B4918FB7F894EC91111108C0D09582
:10155000DE23DC938FBFDF91CF911F910895DE2BA7
:10156000F8CFCF93DF9390E0FC01EA5BF24F249138
:101570008A55924FFC0184918823C9F090E0880F2E
:10158000991FFC01E453F34FA591B491FC01E4577A
:10159000F24FC591D49161110DC09FB7F8948C9111
:1015A000209582238C938881282328839FBFDF91F5
:1015B000CF910895623051F49FB7F8943C91822FF7
:1015C000809583238C93E8812E2BEFCF8FB7F894EF
:1015D000EC912E2B2C938FBFEACFCF93EEE7F6E062
:1015E000AFEF90E0208187FF05C027FF47C0AF3FE6
:1015F00041F406C0821709F441C0AF3F11F427FD42
:10160000A92F9F5F3996943169F787FD3AC0AF3FA4
:1016100009F437C0C82F89E0A802D0011124A258CC
:10162000B94FCC9320917D0611962C9311978C2F56
:101630000C2E000C990BFC01EA55F24FE491F0E0FE
:10164000EE0FFF1FE457F24F4591549113965C93B0
:101650004E931297FC01EA5BF24FE4911496EC93DF
:10166000149715966C9360E0211161E08C2F0E9415
:10167000830A61E08C2FCF910C94B10A658387FDBA
:10168000BCCFCF910895863308F0865320917B001C
:10169000982F9870277F922B90937B00877080649F
:1016A00080937C0080917A00806480937A0080919E
:1016B0007A0086FDFCCF80917800909179000895A2
:1016C0003FB7F8948091BE059091BF05A091C005E9
:1016D000B091C10526B5A89B05C02F3F19F0019612
:1016E000A11DB11D3FBFBA2FA92F982F8827BC017C
:1016F000CD01620F711D811D911D42E0660F771FA4
:10170000881F991F4A95D1F708958F929F92AF92A3
:10171000BF92CF92DF92EF92FF926B017C010E9409
:10172000600B4B015C01C114D104E104F104B9F078
:101730000E94600B681979098A099B09683E734009
:101740008105910580F321E0C21AD108E108F10872
:1017500088EE880E83E0981EA11CB11CE4CFFF9098
:10176000EF90DF90CF90BF90AF909F908F900895B3
:101770002FB7F8946091BA057091BB058091BC05B4
:101780009091BD052FBF0895AF92BF92CF92DF9287
:10179000EF92FF920F931F93CF93DF93EC01888119
:1017A0009981892B89F06EBD0DB407FEFDCFBEB4C3
:1017B0008B2DDF91CF911F910F91FF90EF90DF90D4
:1017C000CF90BF90AF9008958885998511E0892BBF
:1017D00009F010E8AA24A394862F812309F0A12CF4
:1017E000062F2C813D814E815F8160E271EA87E0A6
:1017F00090E00E94875FF22EB02EE12CC22ED12CF9
:10180000FF2019F0C6010E947D088A85877F09F0B4
:1018100042C08D858F3F89F0902F912381E009F49C
:1018200080E08A1551F0EF85F8898F89992369F155
:101830009081892B8083AA24A394E989FA898081E5
:10184000998D892B8083FF2019F0C6010E947D08A5
:101850008E858F3F39F0EB89FC898081988D8923B3
:1018600009F0E12AE989FA899081898D8095892397
:1018700080838E858F3F09F0BE2C88859985892BC2
:10188000B9F5110F1111BCCF93CF908180958923A9
:101890008083A12CD2CFE989FA898081998D892B07
:1018A0008083FF2019F0C6010E947D088D858F3F3F
:1018B00049F0EF85F8898F89902F9123A9F09081C5
:1018C000892B8083E989FA899081898D8095892384
:1018D00080838E858F3F69F2EB89FC898081988DAA
:1018E000892339F2E12AC5CF908180958923E9CFF8
:1018F0001695C8CF08950895EF92FF920F931F9306
:10190000CF93DF93EC01EC80FD806E157F050CF02A
:1019100070C057FF04C0240F351F50E040E08E8197
:101920009F81FA01E20FF31F8E179F071CF49C01A1
:10193000241B350B121613060CF05BC0922F842F5C
:101940008695869586958E9DD0018F9DB00D11242C
:101950006A0F7B1FAF8DB8A1A60FB71F477049F163
:1019600088E0841B482F682F70E0FB01EC53F34F95
:10197000E491281708F063C0621B71092FEF30E073
:1019800002C0359527956A95E2F7E22301301105EB
:1019900039F0B0F10230110561F58C91E82702C0F1
:1019A0008C91E82BEC93941720F12C813D81A20FB0
:1019B000B31FE92FE41BE83078F00230110521F560
:1019C0008E2F9C9190959C932C813D81A20FB31FEB
:1019D00088508830B0F7E770EE2359F0F0E0E45417
:1019E000F34FE49101301105F9F010F102301105C7
:1019F00019F1DF91CF911F910F91FF90EF90089512
:101A0000E0958C91E823CECF81E00115110509F412
:101A100080E081959E2F8C932C813D81A20FB31F76
:101A200098509830C0F7D7CF8C91E82BEC93E1CF4A
:101A3000E0958C91E823FACF8C91E827F7CF01301D
:101A4000110509F4ADCFE0F20230110509F4A5CF7C
:101A5000AE0DBF1DAECF0F931F93CF93DF9377FFD4
:101A600004C0260F371F70E060E0DC011496CD91B2
:101A7000DC91FB01E20FF31FCE17DF071CF49E0180
:101A8000261B370B121613064CF5FA0157FD379635
:101A9000A3E0F595E795AA95E1F7EC9FD001ED9FBE
:101AA000B00DFC9FB00D11246A0F7B1FDC015F9607
:101AB000ED91FC91E60FF71F4770552781E090E00C
:101AC00001C0880F4A95EAF7482F0130110559F0F7
:101AD000A8F02E0F3F1F02301105E1F0DF91CF91EA
:101AE0001F910F9108952E0F3F1FE217F307B1F3D7
:101AF0008191DF011197842B8C93F7CF80952E0F66
:101B00003F1FE217F30751F39191DF0111979823DB
:101B10009C93F7CFE217F30709F38191DF01119747
:101B200084278C93F7CF0F931F93FA01DC0156960D
:101B30004C9156974230E9F04330A1F1413061F5C4
:101B400014964D915C91DA01AE1BBF0BFD01E21BB7
:101B5000F30B77FD0BC0DC0116964D915C91641779
:101B6000750724F4AB01BF010E942B0D1F910F914B
:101B7000089514964D915C91DA01A61BB70BBD0137
:101B800061507109DC0116964D915C91DA01AE1B32
:101B9000BF0BFD01E21BF30B77FDE8CFAF010E9405
:101BA0007C0CE4CF16964D915C91DA01A61BB70B25
:101BB000BD0161507109CDCF0F931F93FA01DC0174
:101BC00056964C9156974230A9F0433091F14130EE
:101BD00019F514964D915C91DA01AE1BBF0BFD0116
:101BE0003197F7FD04C0AB01BF010E947C0C1F912F
:101BF0000F91089514964D915C91DA01A61BB70BD5
:101C0000BD01DC0116964D915C91DA01AE1BBF0B54
:101C1000FD013197621B730BF7FDE9CFDC011696CE
:101C20004D915C91E417F50714F7AF010E942B0D5D
:101C3000DECF16964D915C91DA01A61BB70BBD0164
:101C4000621B730BCECFFC0177FD64C0808591854C
:101C5000681779070CF05EC057FD5CC082859385DC
:101C6000481759070CF056C086898230B1F083308E
:101C700029F1813041F484819581841B950BAB015E
:101C8000BC01615071092130310509F108F443C0EC
:101C90002230310509F463C0089584819581DC0107
:101CA000A61BB70BBD016150710986819781DC01CC
:101CB000A41BB50BAD0141505109E5CF8681978139
:101CC000861B970BBA01AC0141505109DCCFCA0108
:101CD00057FD0796A3E095958795AA95E1F7A4810E
:101CE000B5818A9F90018B9F300D9A9F300D1124F2
:101CF000620F731F078CF0A1E02DE60FF71F4770EE
:101D0000552721E030E001C0220F4A95EAF7808193
:101D1000822B80830895CA0157FD079633E095957D
:101D200087953A95E1F7A481B5818A9F90018B9FB1
:101D3000300D9A9F300D1124620F731F078CF0A194
:101D4000E02DE60FF71F4770552781E090E001C0B6
:101D5000880F4A95EAF7809590818923DACFCA01E6
:101D600057FD079623E0959587952A95E1F7A4817D
:101D7000B5818A9F90018B9F300D9A9F300D112461
:101D8000620F731F078CF0A1E02DE60FF71F47705D
:101D9000552721E030E001C0220F4A95EAF7808103
:101DA0008227B7CFBC016E5F7F4FDC01ED91FC91C4
:101DB0000190F081E02D40E0199591E0811190E0D3
:101DC000892F0895CF93CFB7F8948091B8058111EA
:101DD00027C0EBEDFDE08491EBE7FDE09491E82F67
:101DE000F0E0EE0FFF1FE453F34FA591B491EC9197
:101DF000E92321F461E085E30E94830A61E085E341
:101E00000E94B10A8CB580618CBD8CB580648CBD9C
:101E100061E084E30E94B10A61E083E30E94B10AB9
:101E20008091B8058F5F8093B805CFBFCF9108959B
:101E300008958EBD00000DB407FEFDCF8EB5089548
:101E40008CBD9DBD0895DF92EF92FF920F931F937B
:101E5000CF93DF937C01062FD42E152F83E590E0DE
:101E60000E94200F60E0F70186850E94830A82E1CC
:101E70000E94190FCD2DD12F0C0F1D2F111DC01732
:101E8000D10721F089910E94190FF9CF61E0F70184
:101E90008685DF91CF911F910F91FF90EF90DF909A
:101EA0000C94830A1F93CF93DF93EC01162F83E5E5
:101EB00090E00E94200F60E08E850E94830A812FAF
:101EC00080680E94190F80E00E94190F182F61E0AE
:101ED0008E850E94830A812FDF91CF911F910895F3
:101EE0000F931F93CF93DF93EC01062F142F83E5FD
:101EF00090E00E94200F60E08E850E94830A802F70
:101F00000E94190F812F0E94190F61E08E85DF91C9
:101F1000CF911F910F910C94830ACF92DF92EF9291
:101F2000FF920F931F93CF93DF93EC016B01142F5C
:101F3000790140E062E00E94700F44E06AE0CE0167
:101F40000E94700F40E864E1CE010E94700FA6016C
:101F5000612FCE010E94230F43E062E0CE010E9478
:101F6000700F08E813E16AE0CE010E94520F82FF71
:101F70001BC040E062E0CE010E94700F64E4CE011D
:101F80000E94520FF701808362E4CE010E94520F3B
:101F9000F701818380E0DF91CF911F910F91FF9036
:101FA000EF90DF90CF90089501501109E1F683E0A2
:101FB000F2CF3F924F925F926F927F928F929F9259
:101FC000AF92BF92CF92DF92EF92FF920F931F9347
:101FD000CF93DF931F921F92CDB7DEB74C012B0139
:101FE000D42E390180E0E114F10411F0F701808171
:101FF000BC2CB29490EFB922B80E40E062E0C4016C
:102000000E94700F4FE768E0C4010E94700F40E823
:1020100064E1C4010E94700FA2016D2DC4010E94F1
:10202000230F4B2D6AE1C4010E94700F4CE062E067
:10203000C4010E94700F6AE1C4010E94520F482F30
:1020400040686AE1C4010E94700F20ED422E27E033
:10205000522E68E0C4010E94520F982F907309F02D
:10206000B6C080FD04C0F1E04F1A510891F783E03B
:1020700094C06114710409F46DC00115110509F4CF
:1020800069C064E1C4010E94520FB82EF80180813A
:102090008B1508F496C0B082BB20E1F183E590E097
:1020A0000E94200F60E0F40186850E94830ABA94A2
:1020B00082E90E94190FCC20B1F08FEF90E09C01D3
:1020C00002C0220F331FCA94E2F7690182E90E941D
:1020D000190F9C2D9095F301208192238C21982B30
:1020E0009083CC24C39423014C0C511CCB1440F49A
:1020F00082E90E94190FF20181932F01C394F6CF58
:1021000080E00E94190FF201808361E0F40186856E
:102110000E94830A68E1C4010E94520F8770E11493
:10212000F10411F0F701808333FC4DC06114710498
:1021300009F44BC00115110509F447C0AA2009F4A0
:1021400044C0F8014081413039F4843009F049C07D
:102150008FEF23C080E0E8CF423008F442C0811105
:1021600040C042509E012F5F3F4FB301C4010E9407
:102170008D0F811112C0F8019081690E711CF3015D
:1021800032972081998129132CC0F1E06F1A7108D0
:10219000F30120819A81291324C00F900F90DF91C1
:1021A000CF911F910F91FF90EF90DF90CF90BF9054
:1021B000AF909F908F907F906F905F904F903F90E7
:1021C000089584E0EACF82E0E8CF80E0E6CF6CE0DB
:1021D000C4010E94520F382E837109F44ACF81E066
:1021E000DCCF87E0DACF8F929F92AF92CF92EF92BF
:1021F000FF920F931F93CF93DF9300D01F921F92F4
:10220000CDB7DEB74C0182E08D8340E064E2C401CB
:102210000E94700F40E066E2C4010E94700F46E227
:1022200068E4C4010E94700F86E28B838D81823046
:10223000D8F16CE1C4010E94520F482F4F776CE136
:10224000C4010E94700F87E08C83A12CC12CCE01A9
:1022500004967C018E010B5F1F4F9E012F5F3F4F45
:1022600041E0BE016D5F7F4FC4010E94D90F982FDE
:10227000811117C08D818230B9F48C81811114C015
:1022800081E00F900F900F900F900F90DF91CF9102
:102290001F910F91FF90EF90CF90AF909F908F90F4
:1022A000089581E0923069F380E0EBCF2F923F9266
:1022B0004F925F926F927F928F929F92AF92BF9256
:1022C000CF92DF92EF92FF920F931F93CF93DF9302
:1022D000CDB7DEB72D970FB6F894DEBF0FBECDBFDA
:1022E00016E0413508F04AC1342E3B014C016CE147
:1022F0000E94520F482F4F776CE1C4010E94700F6B
:1023000083E98983332029F081E0F30190819530BE
:1023100008F480E022242394B12C9B2D990F990F6F
:10232000990FD32CD91AD7FCD12C32E0882319F07D
:1023300098E89B8333E021E09D2D977009F420E01D
:102340009D2D959595959595290FC9F094E081114E
:1023500093E0291708F4922FEB2DF0E03196E60D6B
:10236000F71D232F4191A1E0B0E0AC0FBD1FA20FDC
:10237000B11D4C932F5F422F431B491798F38823BD
:1023800011F0F8E0DF0E8FE18D150CF082C090E7C0
:102390009A838B819C8189279D8189279E818927AA
:1023A0008F839E01285F3F4F47E0BE016F5F7F4FE5
:1023B000C4010E948D0F182F8111E0C01A86E3E03E
:1023C000EB87DC86CE0107962C0199E09D87CA84B5
:1023D0004C2D4295407F4C0D6AE1C4010E94700F64
:1023E000A12CCE010A967C018E01055F1F4F920140
:1023F0004D85BE016F5F7F4FC4010E94D90F182F1A
:10240000823009F065C06CE1C4010E94520F85FD65
:10241000B5C08F7109F480E2282F30E04D2DDD0C1E
:10242000550B421753070CF09DC0D82EE82FE595A9
:10243000E595E595EF5F982F977081E009F480E0CE
:10244000E80F81E090E08C0F9D1F8E0F911DFC0125
:10245000215031092770332781E090E002C0880FB6
:10246000991F2A95E2F79C018081822B80838BCF74
:1024700085E98983332031F081E0F3019081983040
:1024800008F04BCF80E049CF87E9898326E0B22E60
:10249000F9CF9D2D97709A878D2D8595859585957A
:1024A0008E5F282F2295207F290F2A8321E091110A
:1024B00001C020E0280F2D8744244394512C4C0E5A
:1024C0005D1E480E511CE9E0E81BEB87DC867FCFE0
:1024D000811154C080E2D82E9C8590320CF457CFE5
:1024E0008B81883809F040C083E093E0EB2DF0E069
:1024F0003196E60DF71D980FA1E0B0E0AC0FBD1FBF
:10250000A80FB11D2C9121938F5F8913F5CFBB8448
:10251000E3E0BE124DC08A8581114AC09E012D5F45
:102520003F4F41E0B201C4010E948D0F182F81116D
:1025300025C09B81F201818198133CC09C818281DE
:10254000981338C0808182FF12C02394F2E02F16C6
:1025500009F48ECF83E0281609F496CF91E029166E
:1025600009F4CECE15E00AC082E094E0BFCFF301BB
:102570008387822D880F820D8F5F8083812F2D9618
:102580000FB6F894DEBF0FBECDBFDF91CF911F9184
:102590000F91FF90EF90DF90CF90BF90AF909F9002
:1025A0008F907F906F905F904F903F902F90089505
:1025B00011E0E4CF17E0E2CF0895FC016370668B71
:1025C0008481958126813781613039F0633029F02B
:1025D0009187808733872287089531872087938763
:1025E000828708952F923F924F925F926F927F92CF
:1025F0008F929F92AF92BF92CF92DF92EF92FF9213
:102600000F931F93CF93DF93CDB7DEB76A970FB6C3
:10261000F894DEBF0FBECDBF9A8F898F7A8369830E
:102620004A01D22E18870F833701BC2CDC01599642
:102630002D913C915A972115310509F015C1189635
:102640008D919C911997681779070CF0D7C11A964C
:102650008D919C91481759070CF0D0C14C2C512CEE
:10266000B6E0CB9E600D711D11247C876B8716161A
:1026700017060CF0C3C1EA2DF0E0FA87E98793E072
:10268000EE0FFF1F9A95E1F7F88BEF87CF01840FCC
:10269000951F181619060CF0B1C1A98DBA8D589660
:1026A0008C91811104C0BFEABD1508F4D394A98DA3
:1026B000BA8DED91FC9111970284F385E02DCD0147
:1026C0001995B5E0DB9EC0011124E981FA81FC83F4
:1026D000EB83312C212C9C012454384F388F2F8BC5
:1026E0004A2D50E05E8B4D8BEF89F88DE20DF31D86
:1026F00044919E828D82D12CC12C69817A81620D98
:10270000731D7A8B698B842F90E09C8B8B8BE98D6A
:10271000FA8DA081B18140FF82C0F1E0BF126FC08D
:10272000AF126DC01C96ED91FC912F813885A401EC
:102730004C0D5D1D69897A89898D9A8D1995EB8972
:10274000FC89F595E7954E2F5FEFC51AD50A6D8187
:102750007E818D899E89680F791F7E836D8398E0C5
:10276000C916D10481F6AFEF2A1A3A0AEB81FC812F
:10277000E40DF51DFC83EB83F5E02F16310409F021
:10278000B3CF2F81388526153705B9F0A98DBA8DBD
:10279000ED91FC91B1E0BB1257C0AB1255C06981FD
:1027A0007A816B5F7F4F0088F189E02D830128E0FB
:1027B00030E0A401898D9A8D1995A98DBA8DED917E
:1027C000FC9111970688F789E02DCD016A960FB626
:1027D000F894DEBF0FBECDBFDF91CF911F910F9157
:1027E000FF90EF90DF90CF90BF90AF909F908F9031
:1027F0007F906F905F904F903F902F9019941E960E
:10280000ED91FC91EF80F88409851A8592014D8144
:102810005E816B817C81898D9A8D199590CF2F81F6
:1028200038852615370509F48ACF31E0B31207C081
:10283000A31205C01C96ED91FC91930178CF1E96D2
:10284000ED91FC917301E0CF6B857C85641975096E
:102850000684F785E02D73010F8518899201A40184
:10286000898D9A8D1995A9CFF90134969491329753
:1028700045915491D91AB7E0DB9E400D511D1124AA
:10288000F901259134913C8B2B8BFA0125903490E2
:10289000FA013296749031963491398B3296649065
:1028A0003196449041E04C1518F04A1508F07FC06D
:1028B000662D062C000C770B7C836B83842D042CF7
:1028C000000C990B9E838D83A98DBA8DED91FC919F
:1028D00011970284F385E02DCD011995512CD12C4F
:1028E000C12CEA2DF0E0FA87E9872B2D30E03C87F8
:1028F0002B87A401440D511D47FC5A95588F4F8BCF
:1029000069817A81660D711D67FC7A957E876D8776
:102910007989C71608F051CF2C2D30E04D815E81AA
:10292000420F531FA985BA854A9FC0014B9F900D46
:102930005A9F900D1124FC01E80DF91DF88BEF87CB
:10294000852D612C4F89588D420F531F5E8B4D8B07
:10295000671408F050C044244394480E877041F433
:10296000C1010196EB89FC89E20DF31DD4901C0195
:10297000D7FE19C0A98DBA8DED91FC91662D70E03E
:10298000B1E0BB1219C0AB1217C02D853E85620F96
:10299000731F0484F585E02D2F8138854D895E896C
:1029A000898D9A8D1995DD0C6394842DD1CF1E826B
:1029B0001D821C821B8288CF4B815C81640F751F36
:1029C000AB85BC856A9FC0016B9F900D7A9F900D6F
:1029D000112469817A81680F791F0684F785E02DBB
:1029E000EF80F88409851A859D014F855889898D66
:1029F0009A8D1995D8CF570CC3948ACF6A960FB683
:102A0000F894DEBF0FBECDBFDF91CF911F910F9124
:102A1000FF90EF90DF90CF90BF90AF909F908F90FE
:102A20007F906F905F904F903F902F9008958F927E
:102A30009F92AF92CF92EF92FF920F931F93CF93FB
:102A4000DF93EC01262F898D9A8D009709F051C0F4
:102A50006A30D1F41D861C868D8948E0849F9001E0
:102A600011248E859F85820F931F9F878E8781E01B
:102A700090E0DF91CF911F910F91FF90EF90CF9059
:102A8000AF909F908F9008956D3089F3CC88AD887A
:102A90008F898823C1F08C859D8536E0C39E800D8B
:102AA000911D1124488559854817590764F44E85AE
:102AB0005F851D861C8638E0A39EC0011124840F0B
:102AC000951F9F878E87EA88FB88088919894E851C
:102AD0005F856C857D85CE010E94F2122C898C85E4
:102AE0009D8546E0249F800D911D11249D878C8734
:102AF000BECF6A3069F41D861C86FC013696E491CF
:102B00002D898E859F85E29F800D911D1124ADCF6B
:102B10006D3009F4ACCFFC0134963491631708F49E
:102B2000A6CF3196E491E61708F4A1CFFC013296C6
:102B300085909490462F431B342F47E0349F800CA0
:102B4000911C1124F401329634913196E49133238F
:102B5000A9F1EE2399F1CC88F4013596E491AD8882
:102B60004F89442301F10E2E000CFF0BE30FF11DE2
:102B7000CE9EA001CF9E500D11246C857D85460F01
:102B8000571F68857985641775076CF44E855F85D6
:102B90001D861C86FC013696E491AE9E400D511DAB
:102BA00011245F874E87EA88FB88088919894E853A
:102BB0005F856C857D85CE010E94F212F40134960A
:102BC000E4912C898C859D85E29F800D911D1124B7
:102BD0008DCF6F927F928F929F92AF92BF92CF9242
:102BE000DF92EF92FF920F931F93CF93DF93EC014D
:102BF0006B015A0139014801E881F9810284F385AA
:102C0000E02D1995E881F9810288F389E02D87018B
:102C10009301A501B601CE011995A501480D591DD5
:102C200041505109E881F9810288F389E02D93012F
:102C3000B601CE011995E881F9810088F189E02D6E
:102C40009401A501B601CE011995C60CD71CB60199
:102C500061507109E881F9810088F189E02D9401C2
:102C6000A501CE011995E881F9810688F789E02D43
:102C7000CE01DF91CF911F910F91FF90EF90DF90E8
:102C8000CF90BF90AF909F908F907F906F9019944E
:102C90006F927F928F929F92AF92BF92CF92DF926C
:102CA000EF92FF920F931F93CF93DF935C01EB01A1
:102CB0006A01490138018701DC01ED91FC9162173D
:102CC000730719F5641675062CF0962D872D3A01B9
:102CD000C92ED82E9601261937092F5F3F4F048C35
:102CE000F58DE02DA301BE01C5011995DF91CF91AE
:102CF0001F910F91FF90EF90DF90CF90BF90AF901A
:102D00009F908F907F906F9008954615570591F48E
:102D10002617370724F0892D4B01C22FD82F9E018B
:102D2000281939092F5F3F4F068CF78DE02DA6013A
:102D3000B401DACF0284F385E02D1995D501ED9128
:102D4000FC910488F589E02D83019401A601BE0160
:102D5000C5011995D501ED91FC910688F789E02D03
:102D6000C501DF91CF911F910F91FF90EF90DF9000
:102D7000CF90BF90AF909F908F907F906F9019945D
:102D8000EF92FF920F931F93DC011A960D911C9105
:102D90001B9718962D913C911997ED91FC9100A0ED
:102DA000F1A1E02D7B0150E040E070E060E019957A
:102DB0001F910F91FF90EF9008954F925F926F9245
:102DC0007F928F929F92AF92BF92CF92DF92EF92BB
:102DD000FF920F931F93CF93DF936C012B015A0146
:102DE00039014801DC01ED91FC910284F385E02D6D
:102DF0001995E201640C751CD601ED91FC91C61584
:102E0000D7055CF40088F189E02D87019401A501C4
:102E1000BE01C60119952196EFCF0688F789E02DEE
:102E2000C601DF91CF911F910F91FF90EF90DF903E
:102E3000CF90BF90AF909F908F907F906F905F905A
:102E40004F9019948F929F92AF92BF92CF92DF9240
:102E5000EF92FF920F931F93CF93DF93EC015B01EF
:102E60004A016901E881F9810284F385E02D199511
:102E700095012C0D3D1D21503109E881F98104880F
:102E8000F589E02D78018401A401B501CE011995E1
:102E9000E881F9810688F789E02DCE01DF91CF9195
:102EA0001F910F91FF90EF90DF90CF90BF90AF9068
:102EB0009F908F9019948F929F92AF92BF92CF92D2
:102EC000DF92EF92FF920F931F93CF93DF93EC016A
:102ED0005B014A0169017801E881F9810284F38587
:102EE000E02D1995C80CD91C860101501109E88103
:102EF000F9810488F589E02D9501A401B501CE0181
:102F00001995E881F9810688F789E02DCE01DF91D6
:102F1000CF911F910F91FF90EF90DF90CF90BF90D6
:102F2000AF909F908F901994EF92FF920F931F9301
:102F3000DC01ED91FC9100A0F1A1E02D19951F910C
:102F40000F91FF90EF9008950F931F93DC01ED9187
:102F5000FC91068CF78DE02D19951F910F91089526
:102F60000F931F93DC01ED91FC91048CF58DE02D06
:102F700019951F910F910895DC01ED91FC9100844A
:102F8000F185E02D19943F924F925F926F927F925C
:102F90008F929F92AF92BF92CF92DF92EF92FF9269
:102FA0000F931F93CF93DF935C017B014A0169016B
:102FB000390187E0680E711C93E0759467949A95C7
:102FC000E1F72B01400E511E10E000E0312CD0E063
:102FD000C0E0CE0187709927330C892B59F4FE018C
:102FE00083E0F595E7958A95E1F7E00FF11FE80D8D
:102FF000F91D349037FE0AC021E030E0A701B50189
:103000006C0F7D1F88EA9CE00E94BC172196CC16AD
:10301000DD06F9F68FEFE81AF80A060D171DE4141D
:10302000F504A9F6DF91CF911F910F91FF90EF90DA
:10303000DF90CF90BF90AF909F908F907F906F90D8
:103040005F904F903F9008952F923F924F925F92E2
:103050006F927F928F929F92AF92BF92CF92DF92A8
:10306000EF92FF920F931F93CF93DF9300D000D086
:10307000CDB7DEB73C016A013E832D83FC82EB8233
:103080005801A41AB50AB7FE03C0B194A194B108BF
:103090008D809E80861A970A97FE03C09194819432
:1030A00091088A149B045CF0902F812F0D811E8162
:1030B0009D838E839C2D8D2D6B01692F782F0C1590
:1030C0001D055CF09D818E817E836D83692F782F35
:1030D000902F812F8601C92ED82E1601201A310A71
:1030E0002B012D813E81421A530A57FE03C0519491
:1030F00041945108710137FE03C03FEFE31AF30A10
:10310000F594E7948D819E81861797075CF5A1E081
:10311000B0E0BA83A983C016D1064CF1D301ED917A
:10312000FC910484F585E02D2B813C81A8016D8103
:103130007E818A149B041CF04D815E81B801C3011D
:103140001995E418F508F7FE0AC02D813E818981A2
:103150009A81280F391F3E832D83E20CF31C0F5FE9
:103160001F4FD9CF2FEF3FEF3A832983D4CF269635
:103170000FB6F894DEBF0FBECDBFDF91CF911F9188
:103180000F91FF90EF90DF90CF90BF90AF909F9006
:103190008F907F906F905F904F903F902F90089509
:1031A000CF92DF92EF92FF920F931F93CF93DF9313
:1031B00000D000D000D0CDB7DEB78C01DC0119966D
:1031C0008D919C91892B09F465C00E94600BF801D8
:1031D000C784D088E188F2886C197D098E099F091F
:1031E0006C3271408105910580F3F894D8011496F2
:1031F0008D919C9115979A8389831996ED91FC91F5
:103200007F01BFEFEB1AFB0A80818987F80190816B
:103210000388F489E02DD80155968C91992309F4FF
:1032200048C09081982B98879081809589238F83BF
:103230008F818C8388E08B8358856F8149853B81A2
:103240002C8189819A81D701508347FD252F3A959A
:103250002083262F39F0441F00C000006083000047
:1032600000C0F2CF38E04D9160830000019761F714
:10327000D8015496FC93EE93539749873B832C8354
:103280009A83898378940E94600BF8016787708B1A
:10329000818B928B29960FB6F894DEBF0FBECDBFFF
:1032A000DF91CF911F910F91FF90EF90DF90CF9022
:1032B00008959081982B98879081809589238F839A
:1032C0008F818E8388E08D8358856F8149853D810C
:1032D0002E8189819A81D701508347FD252F00C017
:1032E00000C0208300C000C000C000C000C06083D8
:1032F0000000262F3A9541F0441F000000C000C096
:1033000000C000C000C0E8CF38E04D9100C060832D
:1033100000C0019709F7D8015496FC93EE93539798
:1033200049873D832E83ACCFDC0180E0615090F073
:103330009D919827E92FEF70F0E0E456F84F249123
:10334000E92FE295EF70F0E0E455F84FE491822F19
:103350008E27ECCF0895DC012C911196ED91FC9114
:10336000F8948181822B81839281322F309593232F
:10337000928387E090E00197F1F781818323818335
:1033800083E290E00197F1F790817894EFECF0E020
:103390003197F1F7922381E009F480E00895FC0170
:1033A00090810180F281E02D292F209560FF14C0CB
:1033B000F8948281822382838181892B8183A3E295
:1033C000B0E01197F1F78281982B9283789487ED82
:1033D00090E00197F1F70895F89482818223828327
:1033E0008181892B8183AFEFB0E01197F1F7828162
:1033F000982B928378948FE090E0EBCFDF92EF925E
:10340000FF920F931F93CF93DF93EC01D62EE42E00
:1034100008E010E0FF24F39461E08D2D8F2109F482
:1034200060E0CE010E94CF19FF0C01501109A1F7F5
:10343000E11010C0F894E981FA819181888180952A
:1034400089238183E981FA8192818881809589230A
:1034500082837894DF91CF911F910F91FF90EF902D
:10346000DF900895FC0190810180F281E02DF894B5
:103470008181292F20958223818378943DE743E041
:1034800050E0315029F1DA011197F1F78081892359
:10349000C1F3F8948281822382838181892B818385
:1034A0007894ABE7B7E01197F1F7F8948181822324
:1034B0008183A3E1B1E01197F1F78081982381E046
:1034C00009F080E07894E3E6F6E03197F1F70895AB
:1034D00080E0089520919505260F3327331F213270
:1034E0003105ECF420917706FC0190E080E0243077
:1034F00069F082E00895A09195052191AC014B58A7
:103500005A4FA40FB52FB11D2C930196861798F32F
:1035100080919505680F6093950580E0089581E09E
:1035200008951092770681E0809356061092510616
:1035300061E084E10E94830A61E085E10E94830AE0
:10354000E9EBF0E080818E7F808380818D7F8083B6
:1035500088E48093B80085E48093BC0008951092BD
:10356000F6051092F50510920E06109230060E9494
:10357000911A80EF97E09093F4058093F30581EF23
:1035800097E09093F2058093F1050895CF93DF9330
:1035900091E0909374058823B9F0C091B800D09160
:1035A000BA008091BC008A7B8093BC0060E084E11B
:1035B0000E94830A60E085E10E94830A0E94911ABA
:1035C000D093BA00C093B800DF91CF9108958F9245
:1035D0009F92AF92BF92CF92DF92EF92FF920F93A2
:1035E0001F93CF93DF93D82FC62F142F613208F08B
:1035F0009CC00E94600B6B017C0180917706811159
:103600006FC081E080937706109356069FEF9093EA
:103610005506109254069C0F9093530680935206C1
:1036200080915206DD0FD82BD0935206809151061F
:10363000813009F07CC0109251060E94600B6B0132
:103640007C01809152068093BB0080917906909115
:103650007A06A0917B06B0917C06892B8A2B8B2B56
:10366000A1F00E94600B0091790610917A062091DA
:103670007B0630917C066C197D098E099F0906171F
:1036800017072807390708F44CC08091BC0083FD58
:10369000D8CF85EC8093BC000E94600B6B017C014D
:1036A00080917706813009F444C0809154068C17CC
:1036B00010F4C0915406E1E3F6E0A7E5B6E080E03F
:1036C0008C1359C08C2FDF91CF911F910F91FF90D8
:1036D000EF90DF90CF90BF90AF909F908F90089524
:1036E0008091790690917A06A0917B06B0917C0634
:1036F000892B8A2B8B2B09F480CF0E94600B809042
:10370000790690907A06A0907B06B0907C066C19A2
:103710007D098E099F0986169706A806B90608F046
:103720006CCF809178060E94C61AC0E0CBCF85EEA0
:10373000B1CF8091790690917A06A0917B06B091E5
:103740007C06892B8A2B8B2B09F4AACF0E94600B55
:103750000091790610917A0620917B0630917C06C3
:103760006C197D098E099F09061717072807390765
:1037700008F096CFD6CF91919D938F5FA1CF8F9276
:103780009F92AF92BF92CF92DF92EF92FF920F93F0
:103790001F93CF93DF93D0913006D13208F0D7C07A
:1037A000182FC0912F060E94600B6B017C01809145
:1037B000770681116BC082E08093770610935606DE
:1037C0008FEF8093550610925406D0935306AFE0C6
:1037D000B6E0E1E3F6E080E0D81391C01092520623
:1037E00080915206CC0FC82BC0935206809151068F
:1037F000813009F088C0109251060E94600B6B0165
:103800007C01809152068093BB0080917906909153
:103810007A06A0917B06B0917C06892B8A2B8B2B94
:10382000A1F00E94600B0091790610917A06209118
:103830007B0630917C066C197D098E099F0906175D
:1038400017072807390708F442C08091BC0083FDA0
:10385000D8CF85EC8093BC000E94600B6B017C018B
:1038600080917706823009F450C0809155068F3FD1
:1038700009F46FC080915506803209F46CC08091C4
:103880005506803309F469C084E026C0809179062A
:1038900090917A06A0917B06B0917C06892B8A2BA9
:1038A0008B2B09F484CF0E94600B80907906909056
:1038B0007A06A0907B06B0907C066C197D098E0973
:1038C0009F0986169706A806B90608F070CF809162
:1038D00078060E94C61A85E010920E0610923006F5
:1038E00010920D06DF91CF911F910F91FF90EF90F5
:1038F000DF90CF90BF90AF909F908F9008959D9153
:1039000091938F5F69CF85EEA5CF809179069091D5
:103910007A06A0917B06B0917C06892B8A2B8B2B93
:1039200009F49ECF0E94600B0091790610917A06EF
:1039300020917B0630917C066C197D098E099F09C8
:10394000061717072807390708F08ACFC0CF81E08C
:10395000C3CF80E0C1CF82E0BFCF83E0BDCF1F9354
:10396000CF93DF93EA01122FDC0111968D919C9188
:10397000DC01ED91FC910280F381E02D1995C817CF
:10398000D90729F4812F0E94BF1B91E0811190E09B
:10399000892FDF91CF911F9108956F927F928F921F
:1039A0009F92AF92BF92CF92DF92EF92FF920F93CE
:1039B0001F93CF93DF931F921F92CDB7DEB7FC0109
:1039C000211101C020852530D8F54787508B618BA8
:1039D000728B90E080E0022F10E080179107B4F422
:1039E000228521110BC0DF01A80FB91F1B964C9334
:1039F000452F562F672F77270196EFCFD801A81BA9
:103A0000B90BAE0FBF1F1A964C93F2CF6F018BE02C
:103A1000C80ED11C8681978189839A83A080B1804A
:103A2000A114B10409F43FC0E184F12C9701200FE7
:103A3000311FD50114968D919C918217930710F434
:103A400080E00DC0F50180810E948307E114F1043C
:103A5000B9F421E0A801B601C5010E94AF1C0F9086
:103A60000F90DF91CF911F910F91FF90EF90DF901A
:103A7000CF90BF90AF909F908F907F906F90089560
:103A8000D50111968D919C91DC01ED91FC91028004
:103A9000F381E02DA701BE016F5F7F4F1995E816F6
:103AA000F90671F6D6CFE280F380E114F10441F219
:103AB000248135812115310571F58F7789836184E2
:103AC000712CF70180819181892B39F00280F3817B
:103AD000E02D808191810E94200F60E0D7011B962C
:103AE0008C910E94830AFE0131964F015F01C5014E
:103AF0008819990986159705C8F05601C5018C19D2
:103B00009D0980179107C8F4F50161915F01C70114
:103B10000E94C40BF3CF2230310511F48068CECF60
:103B20002130310561F68F778064C8CFD5016D9162
:103B30005D01C7010E94C40BDACF61E0D7011B967B
:103B40008C910E94830A81E08ACFE091F6058091F2
:103B5000F505E81730F4F0E0E95AF94F808190E07C
:103B600008958FEF9FEF08959091F6058091F505E8
:103B70002FEF3FEF981748F4E92FF0E0E95AF94F9B
:103B8000208130E09F5F9093F605C9010895CF92A0
:103B9000DF92EF92FF920F931F93CF93DF937C01FD
:103BA000CB018A0120910D06222389F0EB016B01E4
:103BB000C40ED51ECC15DD0569F06991D701ED91D4
:103BC000FC910190F081E02DC7011995F3CF642F8E
:103BD0000E946A1AC801DF91CF911F910F91FF9047
:103BE000EF90DF90CF900895CF93DF931F92CDB7E2
:103BF000DEB7698320910D062223F9F0209130066B
:103C0000203258F021E030E0FC013383228390E041
:103C100080E00F90DF91CF91089580910E06E82FFC
:103C2000F0E0E15FF94F998190838F5F80930E06FA
:103C30008093300681E090E0ECCF61E0CE01019608
:103C40000E946A1AF7CF81E00C94BF1BFF920F937A
:103C50001F93CF93DF93F82ED92FC62F8091C50CD9
:103C60009091C60C892B09F447C08091C90C0E9421
:103C700083078091C50C9091C60CDC01ED91FC91FD
:103C80000190F081E02D60E019950F2D1D2FD1E0FE
:103C9000C1508091C50C9091C60CCF3F31F1D0320C
:103CA00098F00E94231E8091C90C0E948307809186
:103CB000C50C9091C60CDC01ED91FC910190F08156
:103CC000E02D60E01995D1E08091C50C9091C60C73
:103CD000F8016491DC01ED91FC910190F081E02DFF
:103CE0001995DF5F0F5F1F4FD3CFDF91CF911F91EA
:103CF0000F91FF900C94231EE091D50CF091D60CFF
:103D000090818091DB0C8095892380830F2D1D2F5E
:103D1000C15008F438C0F80184912091C30C30914F
:103D2000C40C232B29F00E94190F0F5F1F4FF0CFF7
:103D300028E030E040E8E091D10CF091D20C909175
:103D4000D90C582F5423D9F05081952B9083E091B2
:103D5000D30CF091D40C90815091DA0C952B908378
:103D6000E091D30CF091D40C50819091DA0C9095A5
:103D700095239083469521503109E9F6D6CF50819D
:103D800090959523E3CFDF91CF911F910F91FF90F5
:103D90000895CF93DF93EC018B81882371F08881A4
:103DA0000E94830789819A810E94231E91E08111DC
:103DB00090E0892FDF91CF9108950E94AF1A81E0A2
:103DC0008B83CE010E94C91E982F8111E8CFF1CFBD
:103DD0001F93CF93DF93EC018D8D9E8D892BF9F08E
:103DE000162F89A10E9483078D8D9E8DDC01ED9198
:103DF000FC910190F081E02D60E019958D8D9E8DF4
:103E0000DC01ED91FC910190F081E02D612F19957D
:103E10008D8D9E8DDF91CF911F910C94231EADA5AA
:103E2000BEA59C918BA9809589238C938B8D9C8DAD
:103E3000892B31F0862FDF91CF911F910C94190FB0
:103E400028E030E080E8A9A5BAA599A9462F482323
:103E5000C1F04C91942B9C93ABA5BCA59C914AA915
:103E6000942B9C93ABA5BCA54C919AA990959423B7
:103E70009C9386952150310931F7DF91CF911F91A5
:103E800008954C9190959423E6CF1F93CF93DF93A1
:103E9000EC01162F8D8D9E8D892BB1F12FA938AD98
:103EA00049AD5AAD60E074E284EF90E00E94875F14
:103EB0002051310941095109569547953795279564
:103EC0002093B80066EA111167EACE010E94E81E4D
:103ED0008D8D9E8D892B41F12BAD3CAD4DAD5EADF1
:103EE00060E074E284EF90E00E94875F2051310926
:103EF0004109510956954795379527952093B80064
:103F0000DF91CF911F9108958B8D9C8D892B21F08E
:103F10008DA99EA90E94200FEFA5F8A990818CA9D8
:103F2000809589238083CECFEFA5F8A980819CA9B5
:103F3000892B8083E5CFCF92DF92EF92FF92CF93D0
:103F4000DF93EC01603282E07807CCF5653B7105C8
:103F500014F064EB70E0898128E830E0281B310917
:103F600087FD3395220F331F220F331F6901330F53
:103F7000EE08FF088A8128E532E0281B310987FD19
:103F80003395220F331F220F331F032E000C440BD7
:103F9000550B2C193D094E095F09DB0177FF02C063
:103FA000B0E0A0E00E947F5F24EB30E040E050E012
:103FB0000E94555FC20ED31EE41EF51EB601E881B5
:103FC000E03370F5298188E890E0821B910927FD94
:103FD0009395880F991F880F991F681779077CF0B0
:103FE0002A8188E592E0821B910927FD9395880F2D
:103FF000991F880F991F681779070CF4CB01029756
:10400000880F991F4FB7F8942E2F30E0F901EE0F6B
:10401000FF1FE20FF31FE450F54F928381834FBFE0
:10402000DF91CF91FF90EF90DF90CF900895DF92D6
:10403000EF92FF920F931F93CF93DF93EC01D62E55
:104040007A0189018881803308F067C061E08D2D95
:104050000E94B10A8881282F30E0F901EE0FFF1F7E
:10406000E20FF31FE450F54F9D2D9F736081607C3C
:10407000692B608320E232E02E193F0937FF02C02E
:104080002D5F3F4F3595279535952795298320E658
:1040900039E0201B310B37FF02C02D5F3F4F3595B4
:1040A0002795359527952A832CE0622F0E94D760AB
:1040B000829FB001112430E020E0AB01420F531F7A
:1040C000FA01EE0FFF1FE40FF51FE450F54F90814A
:1040D00096FD16C02F5F3F4F2C30310571F78130B0
:1040E00029F51092800082E0809381001092850073
:1040F00010928400B19A80916F00826080936F006B
:10410000E8818E2F90E0FC01EE0FFF1FE80FF91FF2
:10411000E450F54F8081806480838881DF91CF9166
:104120001F910F91FF90EF90DF900895823061F41E
:10413000109290008093910010929500109294003C
:1041400088BB80937100DCCF833069F41092A000AB
:1041500082E08093A1001092A5001092A40089BB78
:1041600080937200CDCF8111CBCF1092200182E0DD
:104170008093210110922501109224018ABB809323
:104180007300BECFAF92BF92CF92DF92EF92FF92B9
:104190000F931F93CF93DF936B017A01EC01C0590A
:1041A000DA4F28813CE0389F8001399F100D11249F
:1041B000A0908C0BB12C27FF1FC0FB011182108235
:1041C00088818F5F888388819801280F311D87FD42
:1041D0003A95F6012A153B051CF488818C30C4F110
:1041E00080819181049680349C4908F473C0F60163
:1041F00080819181049670C088819801280F311DBB
:1042000087FD3A952A153B05DCF68881A801480F01
:10421000511D87FD5A95FA01EE0FFF1FE40FF51FA0
:10422000E450F54F808186FFCBCF8881F801E80FFD
:10423000F11D87FDFA95CF01EE0FFF1FE80FF91F63
:10424000E450F54F808160E08F730E94830AB8CFFD
:10425000808191812881A801420F511D27FD5A9527
:104260009A01FA01EE0FFF1FE20FF31FE450F54F22
:1042700021813281820F931FF7019183808388818E
:104280009801280F311D87FD3A95F901EE0FFF1FA8
:10429000E20FF31FE450F54F808186FF22C0888132
:1042A000080F111D87FD1A95F801EE0FFF1FE00F93
:1042B000F11FE450F54F808161E08F73DF91CF9162
:1042C0001F910F91FF90EF90DF90CF90BF90AF9034
:1042D0000C94830A80E49CE9F701918380838FEF3B
:1042E0008883DF91CF911F910F91FF90EF90DF9026
:1042F000CF90BF90AF9008952091E9053091EA05E5
:104300002817390771F490916F0580916E05981701
:1043100041F0E0916F05F0E0E25DFA4F808190E0BE
:1043200008958FEF9FEF0895EF92FF920F931F93E1
:10433000CF93DF93DC015C96ED90FC905D97E114E8
:10434000F10479F481E090E013969C938E93129798
:1043500090E080E0DF91CF911F910F91FF90EF905F
:1043600008955196ED91FC91529750968C915097EB
:10437000982F90950FB75E962C915E97122F127022
:1043800021FD6095F8942081112319F1282B2083B9
:10439000E7012197F1F728E0462F50E0308160FFD8
:1043A0001AC0382B3083E7012197F1F7BA017595D0
:1043B0006795215089F7112381F0808189238083BB
:1043C0000FBF5C968D919C910197F1F781E090E091
:1043D000C1CF2923DCCF3923E5CF9081892BEFCFC3
:1043E0002091E9053091EA052817390771F4809189
:1043F0006E0520916F0590E0805C9F4F821B9109B4
:1044000060E470E00E94E360089590E080E0089529
:104410002091E9053091EA0528173907B9F4909100
:104420006F0580916E05981789F0E0916F05F0E0B7
:10443000E25DFA4F808120916F0530E02F5F3F4FA2
:104440002F73332720936F0590E008958FEF9FEF30
:104450000895E091E905F091EA05E817F90769F494
:10446000A389B4899C918589809589238C93109226
:10447000EA051092E90581E0089580E00895CF9360
:10448000DF93EC018A8D9B8D892B01F18091E905E9
:104490009091EA058C179D07C9F0009711F00E94D2
:1044A00029228E8D8E7F8E8F10926E0510926F0551
:1044B000D093EA05C093E905EB89FC8980819D8949
:1044C000892B808381E0DF91CF91089580E0FBCF3D
:1044D00090E080E00895DC0161506B3060F5E62FDC
:1044E000F0E08827E958FD4D8F4F0C94F760822249
:1044F000852288229B229B229B229B228B228F2219
:10450000932297228CE698E008958FEC97E0089527
:1045100082E397E0089593968D919C9108959596E6
:104520008D919C91089597968D919C91089599965F
:104530008D919C91089590E080E00895CF9382EF53
:10454000860F8630B8F4C62F8AE00E94940782E076
:10455000C33169F083E0C23151F084E0C13139F0F8
:1045600085E0C03121F087E0CF3009F486E0CF91BB
:104570000C949407CF9108954A30510559F4E62FD1
:10458000F0E0E75DF54F80818F3711F08AE080839E
:1045900081E0089580E0089508955F926F927F9280
:1045A0008F929F92AF92BF92CF92DF92EF92FF9243
:1045B0000F931F93CF93DF935C016901DA015C9045
:1045C000232B19F4CC24CA94DC2C8A013A01660E00
:1045D000771ED0E0C0E0F12CE12C87E0882E912CF2
:1045E000F50180819181D8016C910C2E01C0660F7C
:1045F0000A94EAF765296F77DC01ED91FC9101904F
:10460000F081E02D1995BFEFEB1AFB0AF8016081EC
:1046100070E0C4018C1B9D0B02C0759567958A954F
:10462000E2F7562E2196C730D10558F1CE14DF049B
:1046300041F1D5018D919C91652D6F77DC01ED9154
:10464000FC910190F081E02D1995BFEFEB1AFB0A68
:10465000551C5524551C2797E6CFEC14FD0408F48F
:10466000BFCFDF91CF911F910F91FF90EF90DF901F
:10467000CF90BF90AF909F908F907F906F905F9002
:1046800008950F5F1F4F6016710639F7209749F3A1
:10469000EC14FD0430F7F5018081918161E070E058
:1046A00001C0660FCA95EAF761506521DC01ED9102
:1046B000FC910190F081E02DDF91CF911F910F913E
:1046C000FF90EF90DF90CF90BF90AF909F908F9032
:1046D0007F906F905F9019941F93CF93DF931F92F9
:1046E0001F92CDB7DEB7182F7A8369838091E609D0
:1046F0009091E7090097C9F0DC01ED91FC910190E0
:10470000F081E02D1031B8F461157044A0F4612FF0
:10471000606E199522E030E0AE014F5F5F4F62E0BE
:1047200070E086EE99E00E94CD220F900F90DF910D
:10473000CF911F91089560EF19958091E6099091AE
:10474000E709DC01ED91FC910190F081E02D6FE62D
:1047500019958091E6099091E709DC01ED91FC91B2
:104760000190F081E02D612F199522E030E0AE013B
:104770004F5F5F4F62E070E086EE99E00E94CD22CD
:104780008091E6099091E709DC01ED91FC9101909F
:10479000F081E02D67EF1995C8CFCF92DF92EF92AD
:1047A000FF920F931F93CF93DF93FC01E058FF4FCD
:1047B000E080EE2009F45CC0EC01C05CDF4FA88112
:1047C000B981109709F454C0FC01EF57FF4FC08026
:1047D000D180F60111810081ED91FC91119701903A
:1047E000F081E02D60EFCD01199588819981DC0180
:1047F000ED91FC910190F081E02D69E71995888198
:104800009981DC01ED91FC910190F081E02D602F08
:10481000199588819981DC01ED91FC910190F081DD
:10482000E02D612F1995F12C01E010E00F5F1F4F73
:10483000E016F10659F030E020E0A601400F511FCC
:1048400061E070E0CE010E94CD22F0CF8881998195
:10485000DC01ED91FC910190F081E02D67EFDF919B
:10486000CF911F910F91FF90EF90DF90CF9019940F
:10487000DF91CF911F910F91FF90EF90DF90CF903C
:104880000895009711F00C94CD2308951F93CF93B2
:10489000DF93FC012481222369F0162FEC0160E0F4
:1048A00080810E94ED0A612F8A81DF91CF911F9153
:1048B0000C94ED0ADF91CF911F910895CF93DF9370
:1048C000FC012481222351F0EC0180810E94ED0A39
:1048D00060E08A81DF91CF910C94ED0ADF91CF9156
:1048E0000895FC01892B61F0948190786115710520
:1048F00031F0946094837183608381E008959483A0
:1049000080E00895CF93DF93EC0188819981DC01E9
:10491000ED91FC910190F081E02D19952A813B8168
:10492000820F931F9B838A83DF91CF910895DC01CF
:104930008D919C91DC01ED91FC910280F381E02D41
:104940001994EF92FF920F931F93CF93DF93CDB7FC
:10495000DEB766970FB6F894DEBF0FBECDBF8C01F1
:10496000CB01FE0177969F014AE0E42EF12CB701BE
:104970000E94E360805D8293CB010097C1F7A9019B
:104980004E1B5F0BBF01C8010E949724F8012281D2
:104990003381820F931F9383828366960FB6F894B8
:1049A000DEBF0FBECDBFDF91CF911F910F91FF9062
:1049B000EF9008958F929F92AF92BF92CF92DF9225
:1049C000EF92FF920F931F93CF93DF93CDB7DEB794
:1049D00066970FB6F894DEBF0FBECDBF7C018E0187
:1049E000095E1F4F68018AE0882E912CA12CB12C02
:1049F000CB01BA01A50194010E94875F942F852FF6
:104A0000605DF80162938F01A901692F782F41152C
:104A100051056105710561F7A6014E1B5F0BBF01D2
:104A2000C7010E949724F70122813381820F931FCF
:104A30009383828366960FB6F894DEBF0FBECDBF18
:104A4000DF91CF911F910F91FF90EF90DF90CF906A
:104A5000BF90AF909F908F900895EF92FF920F9329
:104A60001F93CF93DF93EC017B0162E20E948224CB
:104A70008701F80161918F01662391F0E9E0F3E08D
:104A8000F280FF2049F0329681816813F9CF6CE5FE
:104A9000CE010E9482246F2DCE010E948224E9CF94
:104AA00062E2CE01DF91CF911F910F91FF90EF90C5
:104AB0000C948224FC01892B69F094819078986091
:104AC0009483CB01B0E0A0E080839183A283B38381
:104AD00081E0089580E00895CF938131B0F421E022
:104AE00030E0082E02C0220F331F0A94E2F74091F3
:104AF000EB055091EC05672B51F42095309524235C
:104B000035233093EC052093EB05CF910895242BAA
:104B1000352B3093EC052093EB05909129059111ED
:104B2000F4CFC82F0E94430BBC018C2FCF910C9463
:104B30006C234F925F926F927F928F929F92AF926F
:104B4000BF92CF92DF92EF92FF920F931F93CF937A
:104B5000DF93893008F0A7C08F5FC82FCC0FCC0F30
:104B6000CC0F4C2EC73410F056E4452ED62F38EF1C
:104B7000532E5C0E852C912CC401880F991F9C012B
:104B80002A55364F5901052DD12CC12C10E0772420
:104B900073940415C8F58EEF800F8434F8F4F60191
:104BA000E80DF91DE75DF54F90819230B8F4872D3F
:104BB0008D2366246394811101C0612C7601EE0C73
:104BC000FF1C913089F4172939ECE30EF11CF50133
:104BD000EE0DFF1D862D90E091838083770C0F5F93
:104BE0008FEFC81AD80AD5CF882371F3F701E7539E
:104BF000FF4FEA0DFB1D80819181019729F362E04F
:104C0000802F0E94B10AE0CF10FF05C06D2F6170A8
:104C1000852D0E94830A11FF06C06D2F627089EFF7
:104C20008C0F0E94830A12FF06C06D2F64708AEFFA
:104C30008C0F0E94830A13FF06C06D2F68708BEFE4
:104C40008C0F0E94830A14FF06C06D2F60718CEFD9
:104C50008C0F0E94830A15FF06C06D2F60728DEFC6
:104C60008C0F0E94830A16FF06C06D2F60748EEFB2
:104C70008C0F0E94830A17FF16C06D2F60788FEF8C
:104C80008C0FDF91CF911F910F91FF90EF90DF90EC
:104C9000CF90BF90AF909F908F907F906F905F90DC
:104CA0004F900C94830ADF91CF911F910F91FF9049
:104CB000EF90DF90CF90BF90AF909F908F907F90BC
:104CC0006F905F904F900895FF920F931F93CF9333
:104CD000DF93863418F5EB01F82E082F10E0F80169
:104CE000E75DF54F80818330F9F08430B9F48EEFC1
:104CF0008F0D843460F4F801E652FB4F808123E08D
:104D0000829FC00111248956944F0E949B1F000F5F
:104D1000111FF801E159F54FD183C083DF91CF9185
:104D20001F910F91FF9008958EEF8F0D8C3020F022
:104D300084ED8F0D833058F761E08F2D0E94B10A0A
:104D4000209729F460E08F2D0E94830AE0CFCF3FA7
:104D5000D10511F461E0F7CFF801EA51F34FE49186
:104D6000E150E23108F0B0C0F0E08827E554F94D99
:104D70008F4F0C94F760CD26D226D726E126EB265E
:104D80006427F526FD2605270F2719272327322715
:104D90003C276427462750275A2784B5806884BD5E
:104DA000C7BDB5CF84B5806284BDC8BDB0CF80918A
:104DB0008000806880938000D0938900C093880031
:104DC000A6CF80918000806280938000D0938B007A
:104DD000C0938A009CCF809180008860809380007F
:104DE000D0938D00C0938C0092CF8091B0008068EA
:104DF0008093B000C093B3008ACF8091B0008062EE
:104E00008093B000C093B40082CF809190008068FE
:104E100080939000D0939900C093980078CF8091B0
:104E20009000806280939000D0939B00C0939A0082
:104E30006ECF80919000886080939000D0939D0009
:104E4000C0939C0064CF8091A00080688093A000F4
:104E50008091A0008F7B8093A000D093A900C09385
:104E6000A80055CF8091A00080628093A000D093CD
:104E7000AB00C093AA004BCF8091A00088608093C4
:104E8000A000D093AD00C093AC0041CF8091200131
:104E9000806880932001D0932901C093280137CFE7
:104EA00080912001806280932001D0932B01C093D8
:104EB0002A012DCF80912001886080932001D0931A
:104EC0002D01C0932C0123CFC038D1050CF042CF67
:104ED00039CF9EEF980F943480F4E82FF0E0DF0193
:104EE000A75DB54F9C91913041F4EE0FFF1FE15942
:104EF000F54F608371830C94830A0895FF920F939A
:104F00001F93CF93DF931F921F92CDB7DEB7082F69
:104F100010E0F801EC52FA4F9081F62EF922005E73
:104F20001A4F411104C0F80190819F1511F12F2DE6
:104F300030E03A832983A091E609B091E709109700
:104F4000B1F0682F6F706069ED91FC91119701903D
:104F5000F081E02DCD01199522E030E0AE014F5FE8
:104F60005F4F62E070E086EE99E00E94CD22F8018A
:104F7000F0820F900F90DF91CF911F910F91FF90D2
:104F800008950F931F93CF93DF93893008F071C07A
:104F9000282F30E0F901E352FA4F6083672B09F4C0
:104FA00068C0082F2C523A4FF9011081D82FDD0F1D
:104FB000DD0FDD0F8EEF8D0F843450F4C12FC170E3
:104FC00010FF07C08D2F0E945A0AC1E0892B09F4F7
:104FD000C0E08FEF8D0F843448F411FF07C081E0EB
:104FE0008D0F0E945A0A892B09F0C26012FF07C078
:104FF00082E08D0F0E945A0A892B09F0C46013FFCA
:1050000007C083E08D0F0E945A0A892B09F0C860FF
:1050100014FF07C084E08D0F0E945A0A892B09F003
:10502000C06115FF07C085E08D0F0E945A0A892BC9
:1050300009F0C062D034A1F016FF07C086E08D0FE2
:105040000E945A0A892B09F0C064DF3349F017FF28
:1050500007C087E08D0F0E945A0A892B09F0C068AB
:1050600041E06C2F802FDF91CF911F910F910C9415
:105070007E27DF91CF911F910F910895A82FB0E067
:10508000A652BB4F9C91292F30E0F901EE0FFF1F74
:10509000E20FF31FE956F44FE0812E2F30E0F901C3
:1050A000EE0FFF1FE20FF31FE450F54F80818F7B5F
:1050B00080838091D804981308C0992319F09150E7
:1050C0009093D8048FEF8C9308958823D9F3E091BF
:1050D000D904EF5FE093D904F0E0E955FB4F9083EA
:1050E000F1CFFC01892B51F0948190789C609483DE
:1050F000408351836283738381E0089580E0089543
:10510000FC012581222339F0F8E02F0290011124BF
:10511000820F931F089590E080E00895CF93DF936E
:10512000DC01EA01EC81FD818A819B810896E81708
:10513000F90730F4F0E0E0E0CF01DF91CF9108957E
:105140003897FD83EC833097A9F31296CD91DC91CB
:105150001397209791F0CF018C1B9D0B23E0959521
:1051600087952A95E1F78D831396FC93EE9312971A
:105170001582148277836683DFCF1196FC93EE93BA
:10518000F3CF7F928F929F92AF92BF92CF92DF9296
:10519000EF92FF920F931F93CF93DF93782E6B01C3
:1051A000842E912CC0E0A42EB12CC81508F05AC052
:1051B000911058C085010C1B11090132110514F022
:1051C00000E210E08091F7050E9483078091F805C6
:1051D0009091F905DC01ED91FC910190F081E02DB9
:1051E0006C2F670D19958091F8059091F9050E9433
:1051F000231E602F013208F060E241E08091F70544
:105200000E94E71A1092F6058093F505F12CE12C27
:105210001127DC2FDE0DE016F10614F58091F8055C
:105220009091F905DC01ED91FC910084F185E02D70
:105230001995892B99F08091F8059091F905DC0179
:10524000ED91FC910284F385E02D1995F601ED0FA7
:10525000F11D8083BFEFEB1AFB0ADBCF99249394F7
:10526000CD2FA3CF8C2FDF91CF911F910F91FF9066
:10527000EF90DF90CF90BF90AF909F908F907F90F6
:105280000895CF93DF931F921F92CDB7DEB742E010
:10529000BE016F5F7F4F0E94C12889819A810F9064
:1052A0000F90DF91CF9108956F927F928F929F928E
:1052B000AF92BF92CF92DF92EF92FF920F931F9324
:1052C000CF93DF934C017B018A01E90184E90E94BD
:1052D00041293C0186E90E9441295C0188E90E943C
:1052E00041296C018AE90E944129F401B182A0821E
:1052F000F701D182C082F80191838083798268822C
:10530000DF91CF911F910F91FF90EF90DF90CF90A1
:10531000BF90AF909F908F907F906F900895CF92A5
:10532000DF92EF92FF921F93CF93DF93CDB7DEB75B
:10533000C150D1400FB6F894DEBF0FBECDBFC12C17
:10534000D12C760141E0BE016F5F7E4F8FEA0E9453
:10535000C128CF5FDE4F9881C150D14080910C06AB
:1053600091FB81F990FB80F980930C0680FF5FC070
:105370006EE170E080E090E00E94850B41E0BE01AC
:105380006F5F7E4F8EEA0E94C128CF5FDE4F48815B
:10539000C150D140BE016F5F7F4F8CEF0E94C1288A
:1053A00029818A81281B330BC90137FF04C0882754
:1053B0009927821B930B0E9714F430E020E08B8129
:1053C0009C81891B990BAC0197FF04C0442755278A
:1053D000481B590B4E3051050CF466C021153105A0
:1053E00041F137FF10C02091FC05211169C02091C7
:1053F000FB052F5F2093FB050097E9F40E94B80B93
:105400006B017C012AC02091FB0521115EC0209117
:10541000FC052F5F2093FC05EFCF8091FD058111E6
:105420004DC08091FE058F5F8093FE0510C010E097
:105430002BC0009791F010E097FFEFCF8091FE0511
:10544000811138C08091FD058F5F8093FD050E941A
:10545000B80B6B017C0111110DC00E94B80B6C19C7
:105460007D098E099F096D3271408105910508F40F
:1054700069CF10E01092FA051092FB051092FC051E
:105480001092FD051092FE05812FCF5FDE4F0FB603
:10549000F894DEBF0FBECDBFDF91CF911F91FF907B
:1054A000EF90DF90CF90089521153105B1F290E093
:1054B00080E097CF13E00E94B80BDCCF14E0FBCF65
:1054C00011E0009709F0B8CFF6CF12E0FACF0C94B4
:1054D0008F290F931F93CF93C82F8B0189E30E94CD
:1054E00083076C2F8CE99CE00E94F41D8CE99CE002
:1054F0000E94231E811115C041E061E089E30E94F2
:10550000E71AC82F1092F6058093F5058091F605ED
:10551000C81761F08CE99CE00E94B41DF8018083FB
:10552000F5CF80E0CF911F910F91089581E0FACFE0
:10553000CF93DF931F92CDB7DEB71982BE016F5FA5
:105540007F4F8CE90E94692A898190E00F90DF915A
:10555000CF9108956F927F928F929F92AF92BF9258
:10556000CF92DF92EF92FF920F931F93CF93DF932F
:105570001F921F92CDB7DEB7FC017B01642E96818E
:10558000878199838A83008111810115110509F4AE
:105590005BC0C184D12CD80114968D919C918C153F
:1055A0009D0598F4D12C8D2D0F900F90DF91CF9108
:1055B0001F910F91FF90EF90DF90CF90BF90AF9031
:1055C0009F908F907F906F900895F80180810E9446
:1055D000830720E0A601BE016F5F7F4FC8010E94D4
:1055E000AF1CD82E8823F1F2862C912CD80114966A
:1055F0008D919C9188159905A8F2662D613208F06D
:1056000060E241E0F80180810E94E71A1092F605FD
:105610008093F5058815190429F65701C5018E19DF
:105620009F098815990508F0BECFD80111968D9174
:105630009C91DC01ED91FC910284F385E02D19959C
:10564000F50181935F01EACF0281138101151105F4
:1056500009F4A8CF248135812115310581F59068A1
:105660009983712CA184B12CD8018D919C911197B3
:10567000892B39F01296ED91FC91808191810E94E5
:10568000200F60E0F80183850E94830ACE01019615
:105690004C016C01C601881999098A159B05C8F04F
:1056A0006701C6018E199F0986159705C8F46FEF2B
:1056B000C8010E94C40BF60181936F01F2CF223022
:1056C000310511F49F77CCCF2130310551F6906C24
:1056D000C7CFD6016D916D01C8010E94C40BDACF0E
:1056E00061E0D8011B968C910E94830ADD24D3943B
:1056F0005ACFCF93DF93EC01BC01655F7F4F4885A4
:105700000E94AA2A882301F1488550E030E020E079
:1057100060E070E0CB0124173507CCF4982F872F79
:10572000762F6627EA85E1110AC0FA01E21BF30B26
:10573000EC0FFD1FE2856E2B2F5F3F4FECCFFE017C
:10574000E20FF31FE385F7CF6FEF7FEFCB01DF9120
:10575000CF9108958F929F92AF92BF92CF92DF9296
:10576000EF92FF920F931F93CF93DF93EC014A01C7
:105770005B01888199810E94792B2A8101E010E0E8
:1057800002C0000F111F2A95E2F701501109012EE6
:10579000000C220B330BAB81680179010A2E04C087
:1057A000CC0CDD1CEE1CFF1C0A94D2F7C094D094E4
:1057B000E094F094C622D722E822F922E881F98108
:1057C000B901A801482159216A217B2104C0440F55
:1057D000551F661F771FAA95D2F74C295D296E29A0
:1057E0007F292085CF01DF91CF911F910F91FF90ED
:1057F000EF90DF90CF90BF90AF909F908F900C94E0
:10580000CD1C0F931F93CF93DF93EC018881998177
:105810000E94792BAB01BC012A8181E090E002C09B
:10582000880F991F2A95E2F70197092E000CAA0B01
:10583000BB0B2B8104C076956795579547952A95A4
:10584000D2F78C019D010423152326233723C90198
:10585000B801DF91CF911F910F910895AF92BF9240
:10586000CF92DF92EF92FF920F931F93CF93DF932C
:10587000CDB7DEB7E8970FB6F894DEBF0FBECDBF49
:105880008C01FC01868D978D1BA21CA21DA21EA25D
:105890009D8B8C8B1F8A1E8AFF24F394FD8E8BE3D5
:1058A00090E09B8F8A8F1E8E8EE08C8F4EE0BE0123
:1058B000695D7F4FCE0144960E94AA2A8FA198A5C8
:1058C000982789279827F80195A784A789A59AA5DD
:1058D00098278927982797A786A78BA59CA59827FF
:1058E0008927982791AB80AB6DA57EA57627672782
:1058F000762773AB62AB8FA598A99827892798273D
:1059000095AB84AB89A99AA998278927982797AB43
:1059100086AB8BA99CA998278927982791AF80AF40
:10592000072E000C880B990B0E94385E20E030E0B7
:105930004AEA53E40E94256028EB3EE142E152E44A
:105940000E94B95FF8016283738384839583868D97
:10595000978D188A198A1A8A1B8A9A8389831C82CE
:105960001B82FA868CE190E098878F831B86F986EC
:10597000CE0101965C019EAB8DAB82E08FAB83E0E4
:1059800088AFCE01C5960E94012CC12CD12CE12CF0
:10599000E5E4FE2E63307105E1F06230710599F0A7
:1059A0006130710509F4D6C0C12CD12CF0E8EF2E7E
:1059B000FFE3FF2E672B69F4C12CD12C50E8E52EB4
:1059C00056E4F52E06C0C12CD12C70E8E72E75E404
:1059D000F72EF80164A575A5072E000C880B990B0E
:1059E0000E94385EA70196010E942560F801668337
:1059F00077838087918766A577A5072E000C880B93
:105A0000990B0E94385EA70196010E942560F8015B
:105A1000628773878487958760A971A9072E000C18
:105A2000880B990B0E94385EA70196010E942560A1
:105A3000F80166877787808B918B868D978D188A82
:105A4000198A1A8A1B8A9A8389831C821B8281E0A5
:105A50008A872BE130E038872F831B868987BEAA8F
:105A6000ADAA82E08FAB83E088AFCE01C5960E94DD
:105A7000012CC12CD12C33E0E32E33E4F32E61153D
:105A8000710519F1C12CD12C23E8E22E22E4F22E6B
:105A900061307105D1F093E3C92EDC2C93E0E92E3F
:105AA00092E4F92E6230710581F0C12CD12C40E8CE
:105AB000E42E4FE3F42E6330710539F483E3C82EEE
:105AC000DC2C83E8E82E81E4F82EF80164A975A99E
:105AD000072E000C880B990B0E94385EA7019601D7
