:100000000C9404070C9435070C9435070C943507B1
:100010000C9435070C9435070C9435070C94350770
:100020000C9435070C94DE450C94DE450C94DE45AB
:100030000C9435070C947F430C9435070C943507CA
:100040000C9435070C94B0450C9435070C94350787
:100050000C9435070C9435070C9435070C943543F4
:100060000C9435070C940B430C94E1420C94350727
:100070000C9435070C9435070C9435070C94350710
:100080000C9482450C9435070C9435070C94350775
:100090000C94B7420C948D420C9435070C94024496
:1000A0000C9435070C9435070C9454450C94350783
:1000B0000C9435070C9435070C9435070C942645A1
:1000C0000C9435070C9435070C9435070C94634257
:1000D0000C9439420C9435070C940F420C94E54172
:1000E0000C9435070C94A62A0C9488160C94F034C2
:1000F0000C94630E0C944F240C94740A0C94120FFD
:100100000C9412540C94F20A0C94491C0C944E0951
:100110000C947F220C94D70A0C94DD0A0C9464187A
:100120000C94F4230C94FC170C944B070C94801E35
:100130000C94E10A0C94D32F0C9422240C94861F67
:100140000C94D30D0C94170B0C94E50A0C94432BD0
:100150000C94522B0C94AC220C94F0170C942C247D
:100160000C9455090C940A0B0C94971F0C94452180
:100170000C9429160C9469070C9436240C94CE2503
:100180000C94891F0C94A21F0C942F350C945E08BC
:100190000C94BE2A0C9433110C941D170C94592402
:1001A0000C9455070C94BE090C94220A0C94EA1A7C
:1001B0000C94C01F0C9457150C94EC0A0C94A24894
:1001C0000C94042B0C94040B0C94FC0A0C94FE234A
:1001D0000C949B090C9408240C9487070C94E52339
:1001E0000C94E90A0C94D01F0C94120B0C94000B85
:1001F0000C9477230C9463240C94952A0C946C1F14
:100200000C94D32A0C9410240C94180B0C947C0797
:100210000C9441070C9467080C9437070C94E4176E
:100220000C94DB1A0C94EA2A0C949F1F0C94981ED1
:100230000C945F070C941C0B0C94931F0C94082ACD
:100240000C946D240C94CC090C94AA090C940E0BFC
:100250000C9418240C94171B0C9465080C949B1F89
:100260000C948F1F0C94EA230C9496110C94452443
:100270000C94F41E0C941C0E0C9438080C941D1352
:100280000C94F60A0C947C240C9400170C9477249C
:100290000C940C1F0C94D4240C94E0230C948C1F0D
:1002A0000C943B2B0C9473070C9466080C94D41795
:1002B000DB40A4A62EAFDA0281DA1281DA02818F46
:1002C0002000A1C8D300408DAED580A800006000FA
:1002D00000000000000000000000000000E000003E
:1002E000000000000000000000000001E00000002D
:1002F0000000000000000000000001F0000000000D
:1003000000000000000000000003F00000000000FA
:10031000000000000000000007F0000000000000E6
:100320000000000000000007F800000000000000CE
:100330000000000000000FF800000003C0007E0075
:100340000001E0007F0FF800000003C000FE000085
:1003500001E000FFEFF800000003C000FE00000114
:10036000E000FFFFF800000003C000F00000000FF5
:10037000007FFE7FC0000003C000F00000000F00FF
:100380003FFE7FF83FF1FBCFFCFEF3BC3DEFE01FEB
:10039000FE7FFF7FFBFFDFFEFEFFBC3DEFE01FC6E1
:1003A000FFFF7FFBFFDFFEFEFFBC3DEFE00FE3C77B
:1003B000FE787BC3DE1EF0FFBC3DEF0007FF87FC2D
:1003C000787BC3DE1EF0F83C3DEF0001FFFFF0003C
:1003D0007BC3C01EF0F03C3DEF0001F37FE03FFB2C
:1003E000C3CFFEF0F03C3DEF0003E33F807FFBC353
:1003F000DFFEF0F03C3DEF0007E73C00787BC3DE1A
:100400001EF0F03C3DEF0007FFBE00787BC3DE1E10
:10041000F0F03C3DEF0007FFFE00787BC3DE1EF0EE
:10042000F03C3DEF000FFFFE007FFBFFDFFEF0F032
:100430003FFDEFE00FFFFF007FFBFFDFFEF0F03F2F
:10044000FDEFE00FF9FF003E79F9CF9EF0F01F3D80
:10045000E7E01FF1FF0000000000000000000000C6
:10046000001F80FF007FFFFFFFFFFFFFFFFFFFE098
:100470001C007F007FFFFFFFFEB46D888D18E00039
:10048000001F007FFFFFFFFE95AD7DB577E0000008
:100490000F007FFFFFFFFEA5AD9D8D19E000000658
:1004A000007FFFFFFFFEB5ADEDB57EE00000000070
:1004B0000001800000000000000000000380000038
:1004C0000000000000000007C00000000000000065
:1004D000000007C00000000000000000000FC00086
:1004E00000000000000000001FE00000000000000D
:1004F0000000001FE00000000000000000003FE0DE
:100500000000000000000000003FF00000000000BC
:10051000000000007FF0000000000000001FF87FD6
:10052000F0000000000000003FFE7FF0000000002F
:100530000000003FFF7FF0000000000000001FFFF0
:10054000FBE0000000000000000FFFF9FFC000000A
:10055000000000000FFFF9FFF80000000000000796
:10056000FFF1FFFF00000000000003FC73FFFF80AD
:10057000000000000001FE3FFFFF800000000000BF
:1005800000FF1E0FFF000000000000007FFE1FFCA8
:10059000000000000000003FFFFFF8000000000026
:1005A00000000FDFFFE0000000000000001F19FF47
:1005B000C0000000000000003F3CFF000000000001
:1005C0000000007E7CF800000000000000007FFEBC
:1005D0007C0000000000000000FFFFFC00000000A5
:1005E00000000000FFFFFE0000000000000000FF10
:1005F000FFFE0000000000000001FFEFFE00000011
:100600000000000001FFCFFE00000000000000031A
:10061000FF07FE0000000000000003FC07FE0000D2
:10062000000000000003F003FE00000000000000D6
:10063000018000FE000000000000000000007E00BD
:100640000000000000000000003E0000000000006C
:10065000000000000C000000000000078000FC000B
:100660000003C0000000078001FC000003C0000080
:1006700000078001FC000003C0000000078001E0CB
:100680000000001E000000078001E00000001E00C6
:100690007FE3F79FF9FDE7787BDFC0FFF7FFBFFD42
:1006A000FDFF787BDFC0FFF7FFBFFDFDFF787BDF3D
:1006B000C0F0F787BC3DE1FF787BDE00F0F787BC38
:1006C0003DE1F0787BDE0000F787803DE1E0787B5C
:1006D000DE007FF7879FFDE1E0787BDE00FFF78794
:1006E000BFFDE1E0787BDE00F0F787BC3DE1E0781C
:1006F0007BDE00F0F787BC3DE1E0787BDE00F0F7C1
:1007000087BC3DE1E0787BDE00FFF7FFBFFDE1E065
:100710007FFBDFC0FFF7FFBFFDE1E07FFBDFC07CB9
:10072000F3F39F3DE1E03E7BCFC0000000000000FE
:100730000000000000FFFFFFFFFFFFFFFFFFFFC003
:10074000FFFFFFFFFD68DB111A31C0FFFFFFFFFD58
:100750002B5AFB6AEFC0FFFFFFFFFD4B5B3B1A33D9
:10076000C0FFFFFFFFFD6B5BDB6AFDC0CDCCCC3D66
:100770000AD7233C17B7D13877CC2B329595E6248E
:100780001FB14F0A0000803FCDCCCC3D6F12833AA1
:1007900095BFD6337D1D9026B3CE010C00002041BD
:1007A0000000C84200401C4620BCBE4CCA1B0E5A6A
:1007B000AEC59D74005EBCE2613FDD83C29C7E20BD
:1007C000A3FD1F41009D23BE46DB65F88C11AF32AF
:1007D000CA57E97400000000003E5B4F5B3E3E6B71
:1007E0004F6B3E1C3E7C3E1C183C7E3C181C577DCB
:1007F000571C1C5E7F5E1C00183C1800FFE7C3E717
:10080000FF0018241800FFE7DBE7FF30483A060E28
:100810002629792926407F050507407F05253F5A6F
:100820003CE73C5A7F3E1C1C08081C1C3E7F1422DF
:100830007F22145F5F005F5F06097F017F0066898A
:10084000956A606060606094A2FFA29408047E04D0
:100850000810207E201008082A1C08081C2A0808F6
:100860001E101010100C1E0C1E0C30383E383006B6
:100870000E3E0E06000000000000005F00000007B2
:10088000000700147F147F14242A7F2A12231308E0
:10089000646236495620500008070300001C2241BC
:1008A000000041221C002A1C7F1C2A08083E080860
:1008B0000080703000080808080800006060002010
:1008C000100804023E5149453E00427F40007249F3
:1008D0004949462141494D331814127F1027454597
:1008E00045393C4A494931412111090736494949AD
:1008F00036464949291E000014000000403400001B
:100900000008142241141414141400412214080283
:10091000015909063E415D594E7C1211127C7F49F6
:100920004949363E414141227F4141413E7F49494B
:1009300049417F090909013E414151737F08080877
:100940007F00417F41002040413F017F0814224148
:100950007F404040407F021C027F7F0408107F3EA2
:100960004141413E7F090909063E4151215E7F090F
:10097000192946264949493203017F01033F404076
:10098000403F1F2040201F3F4038403F6314081461
:100990006303047804036159494D43007F41414199
:1009A0000204081020004141417F0402010204407A
:1009B00040404040000307080020545478407F28FE
:1009C0004444383844444428384444287F385454F4
:1009D000541800087E090218A4A49C787F08040417
:1009E0007800447D40002040403D007F10284400B6
:1009F00000417F40007C047804787C080404783847
:100A000044444438FC1824241818242418FC7C0876
:100A1000040408485454542404043F44243C4040F3
:100A2000207C1C2040201C3C4030403C44281028A6
:100A3000444C9090907C4464544C440008364100EF
:100A40000000770000004136080002010204023C69
:100A50002623263C1EA1A161123A4040207A385438
:100A600054555921555579412254547842215554B1
:100A7000784020545579400C1E5272123955555504
:100A800059395454545939555454580000457C41EF
:100A90000002457D420001457C407D1211127DF02F
:100AA000282528F07C545545002054547C547C0A59
:100AB000097F4932494949323A4444443A324A4822
:100AC00048303A4141217A3A42402078009DA0A026
:100AD0007D3D4242423D3D4040403D3C24FF242478
:100AE000487E4943662B2FFC2F2BFF0929F620C097
:100AF000887E090320545479410000447D413048E8
:100B0000484A32384040227A007A0A0A727D0D192A
:100B1000317D2629292F28262929292630484D408C
:100B200020380808080808080808382F10C8ACBA88
:100B30002F102834FA00007B000008142A14222207
:100B4000142A14085500550055AA55AA55AAFF5550
:100B5000FF55FF000000FF00101010FF00141414D8
:100B6000FF001010FF00FF1010F010F0141414FC20
:100B7000001414F700FF0000FF00FF1414F404FC3D
:100B8000141417101F10101F101F1414141F00101E
:100B90001010F0000000001F101010101F10101097
:100BA00010F010000000FF101010101010101010A6
:100BB000FF10000000FF140000FF00FF00001F10E6
:100BC000170000FC04F414141710171414F404F4A0
:100BD0000000FF00F714141414141414F700F71491
:100BE0001414171410101F101F141414F4141010E0
:100BF000F010F000001F101F0000001F1400000084
:100C0000FC140000F010F01010FF10FF141414FF7B
:100C1000141010101F00000000F010FFFFFFFFFF76
:100C2000F0F0F0F0F0FFFFFF0000000000FFFF0F0A
:100C30000F0F0F0F3844443844FC4A4A4A347E02AE
:100C4000020606027E027E0263554941633844442F
:100C50003C04407E201E2006027E020299A5E7A5E4
:100C6000991C2A492A1C4C7201724C304A4D4D3055
:100C70003048784830BC625A463D3E494949007E7A
:100C80000101017E2A2A2A2A2A44445F4444405111
:100C90004A444040444A51400000FF0103E080FFC5
:100CA000000008086B6B083612362436060F090F51
:100CB00006000018180000001010003040FF01016D
:100CC000001F01011E00191D1712003C3C3C3C0096
:100CD00000000000000103070F1F3F7F0080C0E0FD
:100CE000F0F8FCFE00002100240027002A002D005F
:100CF0003000330001010000040107010A01000077
:100D00000A0B02090C0D0E08070304010000000085
:100D100000000000000000000000000000000000D3
:100D20000000000000000000000012111000000090
:100D300000000000000000000000000000000000B3
:100D400000000000000020002300260029002C00E5
:100D50002F00320000010000030106010901010219
:100D600010202008081020401020408002010201BD
:100D70000804020101020408102040808040201075
:100D800008040201800402018040201008040201CE
:100D90000804020101020408102040800102040836
:100DA0001020408000002200250028002B002E008B
:100DB0003100340002010000050108010B010505A6
:100DC0000505070508080808020202020A0A0808C1
:100DD00004040404010101010101010103030303EF
:100DE00003030303040707070C0C0C0C0C0C0C0C7E
:100DF0000202020206060606060606060B0B0B0B8F
:100E00000B0B0B0BA248125411241FBECFEFD1E2E3
:100E1000DEBFCDBF00E00CBF14E0A0E0B2E0EEE921
:100E2000F2EB00E00BBF02C007900D92AA32B107AF
:100E3000D9F72CE0AAE2B4E001C01D92A63DB207AA
:100E4000E1F717E0C3E0D7E000E006C02197010911
:100E5000802FFE010E94E756C230D10780E00807CC
:100E6000A9F70E94654B0C943D590C940000862F05
:100E7000E0914D05F0914E05309711F0BA011994AB
:100E80000895862FE0914B05F0914C05309711F0B5
:100E9000BA0119940895862FE0914905F0914A0509
:100EA000309711F0BA0119940895862FE091470503
:100EB000F0914805309711F0BA0119940895862FE2
:100EC000E0914505F0914605309711F0BA0119946B
:100ED0000895862FE0914305F0914405309711F075
:100EE000BA0119940895CB01E0915305F09154058E
:100EF000309709F019940895862F642FE0914F05DB
:100F0000F0915005309711F0A90119940895E091DE
:100F10005105F0915205309709F019940895909178
:100F2000F8059111FCCF91E09093F8054093F705F7
:100F30002FEF2093F6051092F505260F2093F40568
:100F40009093F3059091F305880F892B8093F30517
:100F50008091F2058130F9F41092F2058091F30549
:100F60008093BB008091BC0083FDF8CF85EC80931B
:100F7000BC008091F8058130E1F38091F50586177A
:100F800010F46091F505A2EDB5E0E2EBF5E080E04C
:100F9000861303C0089585EEEACF9D9191938F5FEC
:100FA000F7CF982F2091B10581E0213208F043C09E
:100FB0008091F8058111FCCF8091B00532E030932B
:100FC000F8059093F7059FEF9093F6051092F505BD
:100FD0002093F405A0E9B5E0E2EDF5E090E02913F7
:100FE00031C01092F3059091F305880F892B8093FF
:100FF000F3058091F205813049F51092F205809158
:10100000F3058093BB008091BC0083FDF8CF85EC95
:101010008093BC008091F8058230E1F38091F60561
:101020008F3FB1F08091F6058032A1F08091F605F6
:10103000803391F084E010928F051092B1051092E8
:101040008E0508953D9131939F5FC9CF85EEE0CF26
:1010500080E0F1CF82E0EFCF83E0EDCF91E090939D
:101060008E058093B00510928F051092B1050895FA
:1010700090917705809176052FEF3FEF981748F410
:10108000E92FF0E0EE54FA4F208130E09F5F90931B
:101090007705C901089590917705809176052FEF26
:1010A0003FEF981748F4E92FF0E0EE54FA4F208113
:1010B00030E09F5F90937705C90108958091760590
:1010C00090917705891B990B0895089508950895C7
:1010D000CF92DF92EF92FF92CF93DF93EC016A0100
:1010E0007B01E889F98982E08083C11481EED8060A
:1010F000E104F104A1F060E079E08DE390E0A70164
:1011000096010E94775521503109410951095695A0
:10111000479537952795211580E1380798F0E8899C
:10112000F989108260E874E88EE190E0A7019601E9
:101130000E9477552150310941095109569547952B
:1011400037952795EC85FD853083EE85FF852083D7
:10115000188EEC89FD8986E08083EA89FB8980818D
:1011600080618083EA89FB89808188608083EA8945
:10117000FB89808180688083EA89FB8980818F7DFB
:101180008083DF91CF91FF90EF90DF90CF90089513
:10119000A091A009B091A109ED91FC911197019046
:1011A000F081E02D682FCD0119941F93CF93DF9329
:1011B000182FEB01809167099091680968177907EA
:1011C00060F48091650990916609C80FD91F188352
:1011D00080E0DF91CF911F910895E0919409F09103
:1011E0009509309711F481E0F4CF81E08093640990
:1011F000809180099091810919958091670990915A
:101200006809C817D90778F7DCCFCF93DF93EC01D3
:10121000FB0130E020E0C901880F991F8C179D0762
:1012200078F44081DB014D93BD0111979181979531
:1012300099279795942B9C932F5F3F4F3296EBCF36
:10124000C901DF91CF910895CF93DF93FC01A08175
:10125000B181109701F1EC01ED91FC911197019092
:10126000F081E02D69EFCD01199588819981DC012C
:10127000ED91FC910190F081E02D62E0199588815B
:101280009981DC01ED91FC910190F081E02D65E008
:10129000DF91CF911994DF91CF910895009721F0BC
:1012A000805C9F4F0C9424090895AF92BF92CF9217
:1012B000DF92EF92FF920F931F93CF93DF936C0116
:1012C0007B018B01040F151FEB015E01AE18BF08F7
:1012D000C017D10759F06991D601ED91FC910190A9
:1012E000F081E02DC6011995892B79F7C501DF91B1
:1012F000CF911F910F91FF90EF90DF90CF90BF9013
:10130000AF900895FC01A089B1898C91A689B78915
:1013100082FD0FC09C91818D8F5F8F73228D82170C
:1013200049F0A18DAE0FBF2FB11D5D969C93818FAB
:1013300008958C910895FC01538D448D252F30E044
:10134000842F90E0821B930B541710F0CF960895D2
:1013500001970895FC01918D828D981761F0A28DFF
:10136000AE0FBF2FB11D5D968C91928D9F5F9F73C5
:10137000928F90E008958FEF9FEF0895FC01918D7B
:10138000828D981731F0828DE80FF11D858D90E0E8
:1013900008958FEF9FEF0895FC01918D228D892F85
:1013A00090E0805C9F4F821B91098F73992708956D
:1013B0008EEA96E00E94CC0921E0892B09F420E016
:1013C000822F08958BE497E00E94CC0921E0892BBD
:1013D00009F420E0822F089588EE97E00E94CC095E
:1013E00021E0892B09F420E0822F089585E898E018
:1013F0000E94CC0921E0892B09F420E0822F089576
:10140000FC01A48DA80FB92FB11DA35ABF4F2C9179
:10141000848D90E001968F739927848FA689B78970
:101420002C93A089B1898C91837080648C93938D67
:10143000848D981306C00288F389E02D80818F7D0A
:1014400080830895EF92FF920F931F93CF93DF93C2
:10145000EC0181E0888F9B8D8C8D98131AC0E889F0
:10146000F989808185FF15C09FB7F894EE89FF89BF
:101470006083E889F98980818370806480839FBF5D
:1014800081E090E0DF91CF911F910F91FF90EF905D
:101490000895F62E0B8D10E00F5F1F4F0F7311276D
:1014A000E02E8C8D8E110CC00FB607FCFACFE889A8
:1014B000F989808185FFF5CFCE010E94000AF1CF26
:1014C000EB8DEC0FFD2FF11DE35AFF4FF0829FB71C
:1014D000F8940B8FEA89FB8980818062CFCF682FD7
:1014E00085E898E00C94220ACF93DF93EC01888D75
:1014F0008823B9F0AA89BB89E889F9898C9185FD8F
:1015000003C0808186FD0DC00FB607FCF7CF8C911C
:1015100085FFF2CF808185FFEDCFCE010E94000ACA
:10152000E9CFDF91CF91089580E090E0892B29F0F9
:101530000E94F60981110E94000080E090E0892B52
:1015400029F00E94EC0981110E94000080E090E0E7
:10155000892B29F00E94E20981110E94000080E09D
:1015600090E0892B29F00E94D80981110C94000089
:1015700008958150823108F05AC0E82FF0E08827A2
:10158000EB53F54F8F4F0C94E756E50AE90AD70A5B
:10159000DD0AE10A170BEC0AF20AF60AFC0A000B54
:1015A000040B0A0B0E0B170B120B180B1C0B809164
:1015B00080008F77809380000895809180008F7DD8
:1015C000F9CF80918000877FF5CF84B58F7784BD78
:1015D000089584B58F7DFBCF8091B0008F77809385
:1015E000B00008958091B0008F7DF9CF8091900078
:1015F0008F77809390000895809190008F7DF9CF30
:1016000080919000877FF5CF8091A0008F778093A5
:10161000A00008958091A0008F7DF9CF8091A00057
:10162000877FF5CF809120018F77809320010895E7
:10163000809120018F7DF9CF80912001877FF5CFA8
:10164000CF93DF93282F30E0F901E250F34F8491DC
:10165000F901E25AF24FD491F901E254F24FC491E8
:10166000CC23A1F081110E94B90AEC2FF0E0EE0F1B
:10167000FF1FEC5BF24FA591B491EC91ED2381E05B
:1016800090E009F480E0DF91CF91089580E090E050
:10169000FACF1F93CF93DF93282F30E0F901E25068
:1016A000F34F8491F901E25AF24FD491F901E254D7
:1016B000F24FC491CC23A9F0162F81110E94B90AD0
:1016C000EC2FF0E0EE0FFF1FEC55F24FA591B49117
:1016D0008FB7F894EC91111108C0D095DE23DC93FC
:1016E0008FBFDF91CF911F910895DE2BF8CF10921D
:1016F00077051092760510928F051092B105109221
:10170000F80581E08093F7051092F20561E084E12D
:101710000E94490B61E085E10E94490BE9EBF0E092
:1017200080818E7F808380818D7F808388E4809319
:10173000B80085E48093BC0085E698E09093750539
:101740008093740586E698E0909373058093720504
:101750000895CF93DF9390E0FC01E25AF24F249179
:101760008254924FFC0184918823C9F090E0880F45
:10177000991FFC01EC51F34FA591B491FC01EC557C
:10178000F24FC591D49161110DC09FB7F8948C911F
:10179000209582238C938881282328839FBFDF9103
:1017A000CF910895623051F49FB7F8943C91822F05
:1017B000809583238C93E8812E2BEFCF8FB7F894FD
:1017C000EC912E2B2C938FBFEACFCF93EAEFF5E06D
:1017D000AFEF90E0208187FF05C027FF47C0AF3FF4
:1017E00041F406C0821709F441C0AF3F11F427FD50
:1017F000A92F9F5F3996943169F787FD3AC0AF3FB3
:1018000009F437C0C82F89E0A802D0011124A650DE
:10181000BA4FCC932091F90511962C9311978C2FE8
:101820000C2E000C990BFC01E254F24FE491F0E015
:10183000EE0FFF1FEC55F24F4591549113965C93B8
:101840004E931297FC01E25AF24FE4911496EC93F6
:10185000149715966C9360E0211161E08C2F0E9423
:10186000490B61E08C2FCF910C94A90B658387FD08
:10187000BCCFCF910895863308F0865320917B002A
:10188000982F9870277F922B90937B0087708064AD
:1018900080937C0080917A00806480937A008091AC
:1018A0007A0086FDFCCF80917800909179000895B0
:1018B0003FB7F89480913F0590914005A091410574
:1018C000B091420526B5A89B05C02F3F19F001969F
:1018D000A11DB11D3FBFBA2FA92F982F8827BC018A
:1018E000CD01620F711D811D911D42E0660F771FB2
:1018F000881F991F4A95D1F708958F929F92AF92B2
:10190000BF92CF92DF92EF92FF926B017C010E9417
:10191000580C4B015C01C114D104E104F104B9F08D
:101920000E94580C681979098A099B09683E73401E
:101930008105910580F321E0C21AD108E108F10880
:1019400088EE880E83E0981EA11CB11CE4CFFF90A6
:10195000EF90DF90CF90BF90AF909F908F900895C1
:101960002FB7F89460913B0570913C0580913D053F
:1019700090913E052FBF0895EF92FF920F931F9312
:10198000CF93DF93EC01EC80FD806E157F050CF0AA
:1019900070C057FF04C0240F351F50E040E08E8117
:1019A0009F81FA01E20FF31F8E179F071CF49C0121
:1019B000241B350B121613060CF05BC0922F842FDC
:1019C0008695869586958E9DD0018F9DB00D1124AC
:1019D0006A0F7B1FAF8DB8A1A60FB71F477049F1E3
:1019E00088E0841B482F682F70E0FB01E452F34F1E
:1019F000E491281708F063C0621B71092FEF30E0F3
:101A000002C0359527956A95E2F7E223013011056A
:101A100039F0B0F10230110561F58C91E82702C070
:101A20008C91E82BEC93941720F12C813D81A20F2F
:101A3000B31FE92FE41BE83078F00230110521F5DF
:101A40008E2F9C9190959C932C813D81A20FB31F6A
:101A500088508830B0F7E770EE2359F0F0E0EC5290
:101A6000F34FE49101301105F9F010F10230110546
:101A700019F1DF91CF911F910F91FF90EF90089591
:101A8000E0958C91E823CECF81E00115110509F492
:101A900080E081959E2F8C932C813D81A20FB31FF6
:101AA00098509830C0F7D7CF8C91E82BEC93E1CFCA
:101AB000E0958C91E823FACF8C91E827F7CF01309D
:101AC000110509F4ADCFE0F20230110509F4A5CFFC
:101AD000AE0DBF1DAECF0F931F93CF93DF9377FF54
:101AE00004C0260F371F70E060E0DC011496CD9132
:101AF000DC91FB01E20FF31FCE17DF071CF49E0100
:101B0000261B370B121613064CF5FA0157FD3796B4
:101B1000A3E0F595E795AA95E1F7EC9FD001ED9F3D
:101B2000B00DFC9FB00D11246A0F7B1FDC015F9686
:101B3000ED91FC91E60FF71F4770552781E090E08B
:101B400001C0880F4A95EAF7482F0130110559F076
:101B5000A8F02E0F3F1F02301105E1F0DF91CF9169
:101B60001F910F9108952E0F3F1FE217F307B1F356
:101B70008191DF011197842B8C93F7CF80952E0FE5
:101B80003F1FE217F30751F39191DF01119798235B
:101B90009C93F7CFE217F30709F38191DF011197C7
:101BA00084278C93F7CF0F931F93FA01DC0156968D
:101BB0004C9156974230E9F04330A1F1413061F544
:101BC00014964D915C91DA01AE1BBF0BFD01E21B37
:101BD000F30B77FD0BC0DC0116964D915C916417F9
:101BE000750724F4AB01BF010E946B0D1F910F918B
:101BF000089514964D915C91DA01A61BB70BBD01B7
:101C000061507109DC0116964D915C91DA01AE1BB1
:101C1000BF0BFD01E21BF30B77FDE8CFAF010E9484
:101C2000BC0CE4CF16964D915C91DA01A61BB70B64
:101C3000BD0161507109CDCF0F931F93FA01DC01F3
:101C400056964C9156974230A9F0433091F141306D
:101C500019F514964D915C91DA01AE1BBF0BFD0195
:101C60003197F7FD04C0AB01BF010E94BC0C1F916E
:101C70000F91089514964D915C91DA01A61BB70B54
:101C8000BD01DC0116964D915C91DA01AE1BBF0BD4
:101C9000FD013197621B730BF7FDE9CFDC0116964E
:101CA0004D915C91E417F50714F7AF010E946B0D9D
:101CB000DECF16964D915C91DA01A61BB70BBD01E4
:101CC000621B730BCECFFC0177FD64C080859185CC
:101CD000681779070CF05EC057FD5CC0828593855C
:101CE000481759070CF056C086898230B1F083300E
:101CF00029F1813041F484819581841B950BAB01DE
:101D0000BC01615071092130310509F108F443C06B
:101D10002230310509F463C0089584819581DC0186
:101D2000A61BB70BBD016150710986819781DC014B
:101D3000A41BB50BAD0141505109E5CF86819781B8
:101D4000861B970BBA01AC0141505109DCCFCA0187
:101D500057FD0796A3E095958795AA95E1F7A4818D
:101D6000B5818A9F90018B9F300D9A9F300D112471
:101D7000620F731F078CF0A1E02DE60FF71F47706D
:101D8000552721E030E001C0220F4A95EAF7808113
:101D9000822B80830895CA0157FD079633E09595FD
:101DA00087953A95E1F7A481B5818A9F90018B9F31
:101DB000300D9A9F300D1124620F731F078CF0A114
:101DC000E02DE60FF71F4770552781E090E001C036
:101DD000880F4A95EAF7809590818923DACFCA0166
:101DE00057FD079623E0959587952A95E1F7A481FD
:101DF000B5818A9F90018B9F300D9A9F300D1124E1
:101E0000620F731F078CF0A1E02DE60FF71F4770DC
:101E1000552721E030E001C0220F4A95EAF7808182
:101E20008227B7CFBC016E5F7F4FDC01ED91FC9143
:101E30000190F081E02D40E0199591E0811190E052
:101E4000892F0895CF93CFB7F894809139058111E8
:101E500027C0E3EFFDE08491E3E9FDE09491E82FF2
:101E6000F0E0EE0FFF1FEC51F34FA591B491EC9110
:101E7000E92321F461E085E30E94490B61E085E3F9
:101E80000E94A90B8CB580618CBD8CB580648CBD23
:101E900061E084E30E94A90B61E083E30E94A90B47
:101EA000809139058F5F80933905CFBFCF91089519
:101EB00008958EBD00000DB407FEFDCF8EB50895C8
:101EC0008CBD9DBD0895DF92EF92FF920F931F93FB
:101ED000CF93DF937C01062FD42E152F83E590E05E
:101EE0000E94600F60E0F70186850E94490B82E145
:101EF0000E94590FCD2DD12F0C0F1D2F111DC01772
:101F0000D10721F089910E94590FF9CF61E0F701C3
:101F10008685DF91CF911F910F91FF90EF90DF9019
:101F20000C94490B1F93CF93DF93EC01162F83E59D
:101F300090E00E94600F60E08E850E94490B812F27
:101F400080680E94590F80E00E94590F182F61E0AD
:101F50008E850E94490B812FDF91CF911F910895AB
:101F60000F931F93CF93DF93EC01062F142F83E57C
:101F700090E00E94600F60E08E850E94490B802FE8
:101F80000E94590F812F0E94590F61E08E85DF91C9
:101F9000CF911F910F910C94490BCF92DF92EF924A
:101FA000FF920F931F93CF93DF93EC016B01142FDC
:101FB000790140E062E00E94B00F44E06AE0CE01A7
:101FC0000E94B00F40E864E1CE010E94B00FA6016C
:101FD000612FCE010E94630F43E062E0CE010E94B8
:101FE000B00F08E813E16AE0CE010E94920F82FF71
:101FF0001BC040E062E0CE010E94B00F64E4CE015D
:102000000E94920FF701808362E4CE010E94920F3A
:10201000F701818380E0DF91CF911F910F91FF90B5
:10202000EF90DF90CF90089501501109E1F683E021
:10203000F2CF3F924F925F926F927F928F929F92D8
:10204000AF92BF92CF92DF92EF92FF920F931F93C6
:10205000CF93DF931F921F92CDB7DEB74C012B01B8
:10206000D42E390180E0E114F10411F0F7018081F0
:10207000BC2CB29490EFB922B80E40E062E0C401EB
:102080000E94B00F4FE768E0C4010E94B00F40E823
:1020900064E1C4010E94B00FA2016D2DC4010E9431
:1020A000630F4B2D6AE1C4010E94B00F4CE062E067
:1020B000C4010E94B00F6AE1C4010E94920F482F30
:1020C00040686AE1C4010E94B00F20ED422E27E073
:1020D000522E68E0C4010E94920F982F907309F06D
:1020E000B6C080FD04C0F1E04F1A510891F783E0BB
:1020F00094C06114710409F46DC00115110509F44F
:1021000069C064E1C4010E94920FB82EF801808179
:102110008B1508F496C0B082BB20E1F183E590E016
:102120000E94600F60E0F40186850E94490BBA941A
:1021300082E90E94590FCC20B1F08FEF90E09C0112
:1021400002C0220F331FCA94E2F7690182E90E949C
:10215000590F9C2D9095F301208192238C21982B6F
:102160009083CC24C39423014C0C511CCB1440F419
:1021700082E90E94590FF20181932F01C394F6CF97
:1021800080E00E94590FF201808361E0F4018685AE
:102190000E94490B68E1C4010E94920F8770E1140C
:1021A000F10411F0F701808333FC4DC06114710418
:1021B00009F44BC00115110509F447C0AA2009F420
:1021C00044C0F8014081413039F4843009F049C0FD
:1021D0008FEF23C080E0E8CF423008F442C0811185
:1021E00040C042509E012F5F3F4FB301C4010E9487
:1021F000CD0F811112C0F8019081690E711CF3019D
:1022000032972081998129132CC0F1E06F1A71084F
:10221000F30120819A81291324C00F900F90DF9140
:10222000CF911F910F91FF90EF90DF90CF90BF90D3
:10223000AF909F908F907F906F905F904F903F9066
:10224000089584E0EACF82E0E8CF80E0E6CF6CE05A
:10225000C4010E94920F382E837109F44ACF81E0A5
:10226000DCCF87E0DACF8F929F92AF92CF92EF923E
:10227000FF920F931F93CF93DF9300D01F921F9273
:10228000CDB7DEB74C0182E08D8340E064E2C4014B
:102290000E94B00F40E066E2C4010E94B00F46E227
:1022A00068E4C4010E94B00F86E28B838D81823086
:1022B000D8F16CE1C4010E94920F482F4F776CE176
:1022C000C4010E94B00F87E08C83A12CC12CCE01E9
:1022D00004967C018E010B5F1F4F9E012F5F3F4FC5
:1022E00041E0BE016D5F7F4FC4010E941910982F1D
:1022F000811117C08D818230B9F48C81811114C095
:1023000081E00F900F900F900F900F90DF91CF9181
:102310001F910F91FF90EF90CF90AF909F908F9073
:10232000089581E0923069F380E0EBCF2F923F92E5
:102330004F925F926F927F928F929F92AF92BF92D5
:10234000CF92DF92EF92FF920F931F93CF93DF9381
:10235000CDB7DEB72D970FB6F894DEBF0FBECDBF59
:1023600016E0413508F04AC1342E3B014C016CE1C6
:102370000E94920F482F4F776CE1C4010E94B00F6A
:1023800083E98983332029F081E0F301908195303E
:1023900008F480E022242394B12C9B2D990F990FEF
:1023A000990FD32CD91AD7FCD12C32E0882319F0FD
:1023B00098E89B8333E021E09D2D977009F420E09D
:1023C0009D2D959595959595290FC9F094E08111CE
:1023D00093E0291708F4922FEB2DF0E03196E60DEB
:1023E000F71D232F4191A1E0B0E0AC0FBD1FA20F5C
:1023F000B11D4C932F5F422F431B491798F388233D
:1024000011F0F8E0DF0E8FE18D150CF082C090E73F
:102410009A838B819C8189279D8189279E81892729
:102420008F839E01285F3F4F47E0BE016F5F7F4F64
:10243000C4010E94CD0F182F8111E0C01A86E3E07D
:10244000EB87DC86CE0107962C0199E09D87CA8434
:102450004C2D4295407F4C0D6AE1C4010E94B00FA3
:10246000A12CCE010A967C018E01055F1F4F9201BF
:102470004D85BE016F5F7F4FC4010E941910182F58
:10248000823009F065C06CE1C4010E94920F85FDA5
:10249000B5C08F7109F480E2282F30E04D2DDD0C9E
:1024A000550B421753070CF09DC0D82EE82FE59529
:1024B000E595E595EF5F982F977081E009F480E04E
:1024C000E80F81E090E08C0F9D1F8E0F911DFC01A5
:1024D000215031092770332781E090E002C0880F36
:1024E000991F2A95E2F79C018081822B80838BCFF4
:1024F00085E98983332031F081E0F30190819830C0
:1025000008F04BCF80E049CF87E9898326E0B22EDF
:10251000F9CF9D2D97709A878D2D859585958595F9
:102520008E5F282F2295207F290F2A8321E0911189
:1025300001C020E0280F2D8744244394512C4C0ED9
:102540005D1E480E511CE9E0E81BEB87DC867FCF5F
:10255000811154C080E2D82E9C8590320CF457CF64
:102560008B81883809F040C083E093E0EB2DF0E0E8
:102570003196E60DF71D980FA1E0B0E0AC0FBD1F3E
:10258000A80FB11D2C9121938F5F8913F5CFBB84C8
:10259000E3E0BE124DC08A8581114AC09E012D5FC5
:1025A0003F4F41E0B201C4010E94CD0F182F8111AD
:1025B00025C09B81F201818198133CC09C8182815E
:1025C000981338C0808182FF12C02394F2E02F1646
:1025D00009F48ECF83E0281609F496CF91E02916EE
:1025E00009F4CECE15E00AC082E094E0BFCFF3013B
:1025F0008387822D880F820D8F5F8083812F2D9698
:102600000FB6F894DEBF0FBECDBFDF91CF911F9103
:102610000F91FF90EF90DF90CF90BF90AF909F9081
:102620008F907F906F905F904F903F902F90089584
:1026300011E0E4CF17E0E2CF0895FC016370668BF0
:102640008481958126813781613039F0633029F0AA
:1026500091878087338722870895318720879387E2
:10266000828708952F923F924F925F926F927F924E
:102670008F929F92AF92BF92CF92DF92EF92FF9292
:102680000F931F93CF93DF93CDB7DEB76A970FB643
:10269000F894DEBF0FBECDBF9A8F898F7A8369838E
:1026A0004A01D22E18870F833701BC2CDC015996C2
:1026B0002D913C915A972115310509F015C11896B5
:1026C0008D919C911997681779070CF0D7C11A96CC
:1026D0008D919C91481759070CF0D0C14C2C512C6E
:1026E000B6E0CB9E600D711D11247C876B8716169A
:1026F00017060CF0C3C1EA2DF0E0FA87E98793E0F2
:10270000EE0FFF1F9A95E1F7F88BEF87CF01840F4B
:10271000951F181619060CF0B1C1A98DBA8D5896DF
:102720008C91811104C0BFEABD1508F4D394A98D22
:10273000BA8DED91FC9111970284F385E02DCD01C6
:102740001995B5E0DB9EC0011124E981FA81FC8373
:10275000EB83312C212C9C012C52384F388F2F8B3E
:102760004A2D50E05E8B4D8BEF89F88DE20DF31D05
:1027700044919E828D82D12CC12C69817A81620D17
:10278000731D7A8B698B842F90E09C8B8B8BE98DEA
:10279000FA8DA081B18140FF82C0F1E0BF126FC00D
:1027A000AF126DC01C96ED91FC912F813885A4016C
:1027B0004C0D5D1D69897A89898D9A8D1995EB89F2
:1027C000FC89F595E7954E2F5FEFC51AD50A6D8107
:1027D0007E818D899E89680F791F7E836D8398E045
:1027E000C916D10481F6AFEF2A1A3A0AEB81FC81AF
:1027F000E40DF51DFC83EB83F5E02F16310409F0A1
:10280000B3CF2F81388526153705B9F0A98DBA8D3C
:10281000ED91FC91B1E0BB1257C0AB1255C069817C
:102820007A816B5F7F4F0088F189E02D830128E07A
:1028300030E0A401898D9A8D1995A98DBA8DED91FD
:10284000FC9111970688F789E02DCD016A960FB6A5
:10285000F894DEBF0FBECDBFDF91CF911F910F91D6
:10286000FF90EF90DF90CF90BF90AF909F908F90B0
:102870007F906F905F904F903F902F9019941E968D
:10288000ED91FC91EF80F88409851A8592014D81C4
:102890005E816B817C81898D9A8D199590CF2F8176
:1028A00038852615370509F48ACF31E0B31207C001
:1028B000A31205C01C96ED91FC91930178CF1E9652
:1028C000ED91FC917301E0CF6B857C8564197509EE
:1028D0000684F785E02D73010F8518899201A40104
:1028E000898D9A8D1995A9CFF901349694913297D3
:1028F00045915491D91AB7E0DB9E400D511D11242A
:10290000F901259134913C8B2B8BFA012590349061
:10291000FA013296749031963491398B32966490E4
:102920003196449041E04C1518F04A1508F07FC0EC
:10293000662D062C000C770B7C836B83842D042C76
:10294000000C990B9E838D83A98DBA8DED91FC911E
:1029500011970284F385E02DCD011995512CD12CCE
:10296000C12CEA2DF0E0FA87E9872B2D30E03C8777
:102970002B87A401440D511D47FC5A95588F4F8B4E
:1029800069817A81660D711D67FC7A957E876D87F6
:102990007989C71608F051CF2C2D30E04D815E812A
:1029A000420F531FA985BA854A9FC0014B9F900DC6
:1029B0005A9F900D1124FC01E80DF91DF88BEF874B
:1029C000852D612C4F89588D420F531F5E8B4D8B87
:1029D000671408F050C044244394480E877041F4B3
:1029E000C1010196EB89FC89E20DF31DD4901C0115
:1029F000D7FE19C0A98DBA8DED91FC91662D70E0BE
:102A0000B1E0BB1219C0AB1217C02D853E85620F15
:102A1000731F0484F585E02D2F8138854D895E89EB
:102A2000898D9A8D1995DD0C6394842DD1CF1E82EA
:102A30001D821C821B8288CF4B815C81640F751FB5
:102A4000AB85BC856A9FC0016B9F900D7A9F900DEE
:102A5000112469817A81680F791F0684F785E02D3A
:102A6000EF80F88409851A859D014F855889898DE5
:102A70009A8D1995D8CF570CC3948ACF6A960FB602
:102A8000F894DEBF0FBECDBFDF91CF911F910F91A4
:102A9000FF90EF90DF90CF90BF90AF909F908F907E
:102AA0007F906F905F904F903F902F9008958F92FE
:102AB0009F92AF92CF92EF92FF920F931F93CF937B
:102AC000DF93EC01262F898D9A8D009709F051C074
:102AD0006A30D1F41D861C868D8948E0849F900160
:102AE00011248E859F85820F931F9F878E8781E09B
:102AF00090E0DF91CF911F910F91FF90EF90CF90D9
:102B0000AF909F908F9008956D3089F3CC88AD88F9
:102B10008F898823C1F08C859D8536E0C39E800D0A
:102B2000911D1124488559854817590764F44E852D
:102B30005F851D861C8638E0A39EC0011124840F8A
:102B4000951F9F878E87EA88FB88088919894E859B
:102B50005F856C857D85CE010E9432132C898C8522
:102B60009D8546E0249F800D911D11249D878C87B3
:102B7000BECF6A3069F41D861C86FC013896E4914C
:102B80002D898E859F85E29F800D911D1124ADCFEB
:102B90006D3009F4ACCFFC0134963491631708F41E
:102BA000A6CF3296E491E61708F4A1CFFC01329645
:102BB00085909490462F431B342F47E0349F800C20
:102BC000911C1124F401329634913196E49133230F
:102BD000A9F1EE2399F1CC88F4013596E491AD8802
:102BE0004F89442301F10E2E000CFF0BE30FF11D62
:102BF000CE9EA001CF9E500D11246C857D85460F81
:102C0000571F68857985641775076CF44E855F8555
:102C10001D861C86FC013896E491AE9E400D511D28
:102C200011245F874E87EA88FB88088919894E85B9
:102C30005F856C857D85CE010E943213F401349648
:102C4000E4912C898C859D85E29F800D911D112436
:102C50008DCF6F927F928F929F92AF92BF92CF92C1
:102C6000DF92EF92FF920F931F93CF93DF93EC01CC
:102C70006B015A0139014801E881F9810284F38529
:102C8000E02D1995E881F9810288F389E02D87010B
:102C90009301A501B601CE011995A501480D591D55
:102CA00041505109E881F9810288F389E02D9301AF
:102CB000B601CE011995E881F9810088F189E02DEE
:102CC0009401A501B601CE011995C60CD71CB60119
:102CD00061507109E881F9810088F189E02D940142
:102CE000A501CE011995E881F9810688F789E02DC3
:102CF000CE01DF91CF911F910F91FF90EF90DF9068
:102D0000CF90BF90AF909F908F907F906F901994CD
:102D10006F927F928F929F92AF92BF92CF92DF92EB
:102D2000EF92FF920F931F93CF93DF935C01EB0120
:102D30006A01490138018701DC01ED91FC916217BC
:102D4000730719F5641675062CF0962D872D3A0138
:102D5000C92ED82E9601261937092F5F3F4F048CB4
:102D6000F58DE02DA301BE01C5011995DF91CF912D
:102D70001F910F91FF90EF90DF90CF90BF90AF9099
:102D80009F908F907F906F9008954615570591F40E
:102D90002617370724F0892D4B01C22FD82F9E010B
:102DA000281939092F5F3F4F068CF78DE02DA601BA
:102DB000B401DACF0284F385E02D1995D501ED91A8
:102DC000FC910488F589E02D83019401A601BE01E0
:102DD000C5011995D501ED91FC910688F789E02D83
:102DE000C501DF91CF911F910F91FF90EF90DF9080
:102DF000CF90BF90AF909F908F907F906F901994DD
:102E0000EF92FF920F931F93DC011A960D911C9184
:102E10001B9718962D913C911997ED91FC9100A06C
:102E2000F1A1E02D7B0150E040E070E060E01995F9
:102E30001F910F91FF90EF9008954F925F926F92C4
:102E40007F928F929F92AF92BF92CF92DF92EF923A
:102E5000FF920F931F93CF93DF936C012B015A01C5
:102E600039014801DC01ED91FC910284F385E02DEC
:102E70001995E201640C751CD601ED91FC91C61503
:102E8000D7055CF40088F189E02D87019401A50144
:102E9000BE01C60119952196EFCF0688F789E02D6E
:102EA000C601DF91CF911F910F91FF90EF90DF90BE
:102EB000CF90BF90AF909F908F907F906F905F90DA
:102EC0004F9019948F929F92AF92BF92CF92DF92C0
:102ED000EF92FF920F931F93CF93DF93EC015B016F
:102EE0004A016901E881F9810284F385E02D199591
:102EF00095012C0D3D1D21503109E881F98104888F
:102F0000F589E02D78018401A401B501CE01199560
:102F1000E881F9810688F789E02DCE01DF91CF9114
:102F20001F910F91FF90EF90DF90CF90BF90AF90E7
:102F30009F908F9019948F929F92AF92BF92CF9251
:102F4000DF92EF92FF920F931F93CF93DF93EC01E9
:102F50005B014A0169017801E881F9810284F38506
:102F6000E02D1995C80CD91C860101501109E88182
:102F7000F9810488F589E02D9501A401B501CE0100
:102F80001995E881F9810688F789E02DCE01DF9156
:102F9000CF911F910F91FF90EF90DF90CF90BF9056
:102FA000AF909F908F901994EF92FF920F931F9381
:102FB000DC01ED91FC9100A0F1A1E02D19951F918C
:102FC0000F91FF90EF9008950F931F93DC01ED9107
:102FD000FC91068CF78DE02D19951F910F910895A6
:102FE0000F931F93DC01ED91FC91048CF58DE02D86
:102FF00019951F910F910895DC01ED91FC910084CA
:10300000F185E02D19943F924F925F926F927F92DB
:103010008F929F92AF92BF92CF92DF92EF92FF92E8
:103020000F931F93CF93DF935C017B014A016901EA
:10303000390187E0680E711C93E0759467949A9546
:10304000E1F72B01400E511E10E000E0312CD0E0E2
:10305000C0E0CE0187709927330C892B59F4FE010B
:1030600083E0F595E7958A95E1F7E00FF11FE80D0C
:10307000F91D349037FE0AC021E030E0A701B50108
:103080006C0F7D1F8FEF9BE00E94FC172196CC16E2
:10309000DD06F9F68FEFE81AF80A060D171DE4149D
:1030A000F504A9F6DF91CF911F910F91FF90EF905A
:1030B000DF90CF90BF90AF909F908F907F906F9058
:1030C0005F904F903F9008952F923F924F925F9262
:1030D0006F927F928F929F92AF92BF92CF92DF9228
:1030E000EF92FF920F931F93CF93DF9300D000D006
:1030F000CDB7DEB73C016A013E832D83FC82EB82B3
:103100005801A41AB50AB7FE03C0B194A194B1083E
:103110008D809E80861A970A97FE03C091948194B1
:1031200091088A149B045CF0902F812F0D811E81E1
:103130009D838E839C2D8D2D6B01692F782F0C150F
:103140001D055CF09D818E817E836D83692F782FB4
:10315000902F812F8601C92ED82E1601201A310AF0
:103160002B012D813E81421A530A57FE03C0519410
:1031700041945108710137FE03C03FEFE31AF30A8F
:10318000F594E7948D819E81861797075CF5A1E001
:10319000B0E0BA83A983C016D1064CF1D301ED91FA
:1031A000FC910484F585E02D2B813C81A8016D8183
:1031B0007E818A149B041CF04D815E81B801C3019D
:1031C0001995E418F508F7FE0AC02D813E81898122
:1031D0009A81280F391F3E832D83E20CF31C0F5F69
:1031E0001F4FD9CF2FEF3FEF3A832983D4CF2696B5
:1031F0000FB6F894DEBF0FBECDBFDF91CF911F9108
:103200000F91FF90EF90DF90CF90BF90AF909F9085
:103210008F907F906F905F904F903F902F90089588
:10322000CF92DF92EF92FF920F931F93CF93DF9392
:1032300000D000D000D0CDB7DEB78C01DC011996EC
:103240008D919C91892B09F465C00E94580CF8015E
:10325000C784D088E188F2886C197D098E099F099E
:103260006C3271408105910580F3F894D801149671
:103270008D919C9115979A8389831996ED91FC9174
:103280007F01BFEFEB1AFB0A80818987F8019081EB
:103290000388F489E02DD80155968C91992309F47F
:1032A00048C09081982B98879081809589238F833F
:1032B0008F818C8388E08B8358856F8149853B8122
:1032C0002C8189819A81D701508347FD252F3A951A
:1032D0002083262F39F0441F00C0000060830000C7
:1032E00000C0F2CF38E04D9160830000019761F794
:1032F000D8015496FC93EE93539749873B832C83D4
:103300009A83898378940E94580CF8016787708BA0
:10331000818B928B29960FB6F894DEBF0FBECDBF7E
:10332000DF91CF911F910F91FF90EF90DF90CF90A1
:1033300008959081982B98879081809589238F8319
:103340008F818E8388E08D8358856F8149853D818B
:103350002E8189819A81D701508347FD252F00C096
:1033600000C0208300C000C000C000C000C0608357
:103370000000262F3A9541F0441F000000C000C015
:1033800000C000C000C0E8CF38E04D9100C06083AD
:1033900000C0019709F7D8015496FC93EE93539718
:1033A00049873D832E83ACCFDC0180E0615090F0F3
:1033B0009D919827E92FEF70F0E0EC54F84F24919D
:1033C000E92FE295EF70F0E0EC53F84FE491822F93
:1033D0008E27ECCF0895DC012C911196ED91FC9194
:1033E000F8948181822B81839281322F30959323AF
:1033F000928387E090E00197F1F7818183238183B5
:1034000083E290E00197F1F790817894EFECF0E09F
:103410003197F1F7922381E009F480E00895FC01EF
:1034200090810180F281E02D292F209560FF14C04A
:10343000F8948281822382838181892B8183A3E214
:10344000B0E01197F1F78281982B9283789487ED01
:1034500090E00197F1F70895F894828182238283A6
:103460008181892B8183AFEFB0E01197F1F78281E1
:10347000982B928378948FE090E0EBCFDF92EF92DD
:10348000FF920F931F93CF93DF93EC01D62EE42E80
:1034900008E010E0FF24F39461E08D2D8F2109F402
:1034A00060E0CE010E940F1AFF0C01501109A1F734
:1034B000E11010C0F894E981FA81918188818095AA
:1034C00089238183E981FA8192818881809589238A
:1034D00082837894DF91CF911F910F91FF90EF90AD
:1034E000DF900895FC0190810180F281E02DF89435
:1034F0008181292F20958223818378943DE743E0C1
:1035000050E0315029F1DA011197F1F780818923D8
:10351000C1F3F8948281822382838181892B818304
:103520007894ABE7B7E01197F1F7F89481818223A3
:103530008183A3E1B1E01197F1F78081982381E0C5
:1035400009F080E07894E3E6F6E03197F1F708952A
:1035500080E0089585ED8093BC008091BC0084FDDF
:10356000FCCF1092F805089520911605260F3327F9
:10357000331F21323105ECF42091F805FC0190E075
:1035800080E0243069F082E00895A0911605219131
:10359000AC014A505B4FA40FB52FB11D2C9301967F
:1035A000861798F380911605680F6093160580E0E2
:1035B000089581E00895E091770580917605E817F8
:1035C00030F4F0E0EE54FA4F808190E008958FEFF0
:1035D0009FEF0895CF92DF92EF92FF920F931F9388
:1035E000CF93DF937C01CB018A0120918E052223AA
:1035F00089F0EB016B01C40ED51ECC15DD0569F019
:103600006991D701ED91FC910190F081E02DC70106
:103610001995F3CF642F0E94B41AC801DF91CF919E
:103620001F910F91FF90EF90DF90CF900895CF936F
:10363000DF931F92CDB7DEB7698320918E052223D9
:10364000F9F02091B105203258F021E030E0FC0182
:103650003383228390E080E00F90DF91CF91089533
:1036600080918F05E82FF0E0E057FA4F9981908321
:103670008F5F80938F058093B10581E090E0ECCF60
:1036800061E0CE0101960E94B41AF7CF81E00C945C
:10369000D107FF920F931F93CF93DF93F82ED92F6B
:1036A000C62F80911C0C90911D0C892B09F447C0EA
:1036B0008091200C0E942E0880911C0C90911D0C72
:1036C000DC01ED91FC910190F081E02D60E0199515
:1036D0000F2D1D2FD1E0C15080911C0C90911D0C1D
:1036E000CF3F31F1D03298F00E94461B8091200CE0
:1036F0000E942E0880911C0C90911D0CDC01ED9114
:10370000FC910190F081E02D60E01995D1E080916D
:103710001C0C90911D0CF8016491DC01ED91FC9161
:103720000190F081E02D1995DF5F0F5F1F4FD3CF20
:10373000DF91CF911F910F91FF900C94461BE09168
:103740002C0CF0912D0C90818091320C8095892366
:1037500080830F2D1D2FC15008F438C0F8018491CB
:1037600020911A0C30911B0C232B29F00E94590F29
:103770000F5F1F4FF0CF28E030E040E8E091280CC9
:10378000F091290C9091300C582F5423D9F050818E
:10379000952B9083E0912A0CF0912B0C9081509105
:1037A000310C952B9083E0912A0CF0912B0C5081D9
:1037B0009091310C90959523908346952150310935
:1037C000E9F6D6CF508190959523E3CFDF91CF9145
:1037D0001F910F91FF9008951F93CF93DF93EC01FA
:1037E0008D8D9E8D892BF9F0162F89A10E942E08B0
:1037F0008D8D9E8DDC01ED91FC910190F081E02D8D
:1038000060E019958D8D9E8DDC01ED91FC9101900C
:10381000F081E02D612F19958D8D9E8DDF91CF91D7
:103820001F910C94461BADA5BEA59C918BA98095BC
:1038300089238C938B8D9C8D892B31F0862FDF9182
:10384000CF911F910C94590F28E030E080E8A9A592
:10385000BAA599A9462F4823C1F04C91942B9C936B
:10386000ABA5BCA59C914AA9942B9C93ABA5BCA5E8
:103870004C919AA9909594239C9386952150310957
:1038800031F7DF91CF911F9108954C91909594233A
:10389000E6CF1F93CF93DF93EC01162F8D8D9E8D76
:1038A000892BB1F12FA938AD49AD5AAD60E074E272
:1038B00084EF90E00E947755205131094109510968
:1038C00056954795379527952093B80066EA1111CC
:1038D00067EACE010E94EC1B8D8D9E8D892B41F1F4
:1038E0002BAD3CAD4DAD5EAD60E074E284EF90E099
:1038F0000E94775520513109410951095695479544
:10390000379527952093B800DF91CF911F910895A7
:103910008B8D9C8D892B21F08DA99EA90E94600F13
:10392000EFA5F8A990818CA9809589238083CECFBB
:10393000EFA5F8A980819CA9892B8083E5CFCF9240
:10394000DF92EF92FF92CF93DF93EC01603282E03F
:103950007807CCF5653B710514F064EB70E0898164
:1039600028E830E0281B310987FD3395220F331FEB
:10397000220F331F6901330FEE08FF088A8128E503
:1039800032E0281B310987FD3395220F331F220FA8
:10399000331F032E000C440B550B2C193D094E0907
:1039A0005F09DB0177FF02C0B0E0A0E00E946F5525
:1039B00024EB30E040E050E00E944555C20ED31E9B
:1039C000E41EF51EB601E881E03370F5298188E830
:1039D00090E0821B910927FD9395880F991F880F0E
:1039E000991F681779077CF02A8188E592E0821B8D
:1039F000910927FD9395880F991F880F991F6817C4
:103A000079070CF4CB010297880F991F4FB7F894F0
:103A10002E2F30E0F901EE0FFF1FE20FF31FE858E1
:103A2000F54F928381834FBFDF91CF91FF90EF904D
:103A3000DF90CF900895DF92EF92FF920F931F9344
:103A4000CF93DF93EC01D62E7A01890188818033F0
:103A500008F067C061E08D2D0E94A90B8881282F96
:103A600030E0F901EE0FFF1FE20FF31FE858F54FAA
:103A70009D2D9F736081607C692B608320E232E022
:103A80002E193F0937FF02C02D5F3F4F359527950F
:103A900035952795298320E639E0201B310B37FF28
:103AA00002C02D5F3F4F35952795359527952A8381
:103AB0002CE0622F0E94C756829FB001112430E093
:103AC00020E0AB01420F531FFA01EE0FFF1FE40F7E
:103AD000F51FE858F54F908196FD16C02F5F3F4FB8
:103AE0002C30310571F7813029F51092800082E089
:103AF000809381001092850010928400B19A809189
:103B00006F00826080936F00E8818E2F90E0FC014F
:103B1000EE0FFF1FE80FF91FE858F54F8081806412
:103B200080838881DF91CF911F910F91FF90EF905B
:103B3000DF900895823061F410929000809391009C
:103B4000109295001092940088BB80937100DCCF96
:103B5000833069F41092A00082E08093A10010925B
:103B6000A5001092A40089BB80937200CDCF811173
:103B7000CBCF1092200182E0809321011092250189
:103B8000109224018ABB80937300BECFAF92BF9284
:103B9000CF92DF92EF92FF920F931F93CF93DF9319
:103BA0006B017A01EC01CE50DB4F28813CE0389F5D
:103BB0008001399F100D1124A090080BB12C27FF14
:103BC0001FC0FB011182108288818F5F88838881EA
:103BD0009801280F311D87FD3A95F6012A153B05FE
:103BE0001CF488818C30C4F18081918104968034EA
:103BF0009C4908F473C0F60180819181049670C0DD
:103C000088819801280F311D87FD3A952A153B05BB
:103C1000DCF68881A801480F511D87FD5A95FA01ED
:103C2000EE0FFF1FE40FF51FE858F54F808186FF68
:103C3000CBCF8881F801E80FF11D87FDFA95CF0100
:103C4000EE0FFF1FE80FF91FE858F54F808160E085
:103C50008F730E94490BB8CF808191812881A80180
:103C6000420F511D27FD5A959A01FA01EE0FFF1FD1
:103C7000E20FF31FE858F54F21813281820F931F25
:103C8000F7019183808388819801280F311D87FD7A
:103C90003A95F901EE0FFF1FE20FF31FE858F54FB9
:103CA000808186FF22C08881080F111D87FD1A952B
:103CB000F801EE0FFF1FE00FF11FE858F54F80816C
:103CC00061E08F73DF91CF911F910F91FF90EF9083
:103CD000DF90CF90BF90AF900C94490B80E49CE9AB
:103CE000F701918380838FEF8883DF91CF911F91BC
:103CF0000F91FF90EF90DF90CF90BF90AF9008951D
:103D000020916A0530916B052817390771F490915D
:103D1000F1048091F004981741F0E091F104F0E093
:103D2000E055FB4F808190E008958FEF9FEF08955D
:103D3000EF92FF920F931F93CF93DF93DC015C967A
:103D4000ED90FC905D97E114F10479F481E090E04E
:103D500013969C938E93129790E080E0DF91CF9121
:103D60001F910F91FF90EF9008955196ED91FC9166
:103D7000529750968C915097982F90950FB75E96CA
:103D80002C915E97122F127021FD6095F89420817E
:103D9000112319F1282B2083E7012197F1F728E05F
:103DA000462F50E0308160FF1AC0382B3083E70186
:103DB0002197F1F7BA0175956795215089F711237D
:103DC00081F08081892380830FBF5C968D919C91C7
:103DD0000197F1F781E090E0C1CF2923DCCF3923AF
:103DE000E5CF9081892BEFCF20916A0530916B054B
:103DF0002817390771F48091F0042091F10490E0C4
:103E0000805C9F4F821B910960E470E00E94D35652
:103E1000089590E080E0089520916A0530916B0547
:103E200028173907B9F49091F1048091F00498179C
:103E300089F0E091F104F0E0E055FB4F80812091A2
:103E4000F10430E02F5F3F4F2F7333272093F104AD
:103E500090E008958FEF9FEF0895E0916A05F0914B
:103E60006B05E817F90769F4A389B4899C918589E2
:103E7000809589238C9310926B0510926A0581E0DE
:103E8000089580E00895CF93DF93EC018A8D9B8D98
:103E9000892B01F180916A0590916B058C179D0724
:103EA000C9F0009711F00E942D1F8E8D8E7F8E8F8E
:103EB0001092F0041092F104D0936B05C0936A0540
:103EC000EB89FC8980819D89892B808381E0DF914A
:103ED000CF91089580E0FBCF90E080E00895DC0171
:103EE00061506B3060F5E62FF0E08827E558F04E22
:103EF0008F4F0C94E756861F891F8C1F9F1F9F1F93
:103F00009F1F9F1F8F1F931F971F9B1F88EE97E078
:103F100008958BE497E008958EEA96E008959396CD
:103F20008D919C91089595968D919C910895979669
:103F30008D919C91089599968D919C91089590E012
:103F400080E00895CF9382EF860F8630B8F4C62FB5
:103F50008AE00E94C80882E0C33169F083E0C23180
:103F600051F084E0C13139F085E0C03121F087E0C3
:103F7000CF3009F486E0CF910C94C808CF91089512
:103F80004A30510559F4E62FF0E0EB55F64F8081A9
:103F90008F3711F08AE0808381E0089580E00895F2
:103FA00008955F926F927F928F929F92AF92BF928D
:103FB000CF92DF92EF92FF920F931F93CF93DF93F5
:103FC0005C016901DA015C90232B19F4CC24CA94BA
:103FD000DC2C8A013A01660E771ED0E0C0E0F12C9D
:103FE000E12C87E0882E912CF50180819181D80108
:103FF0006C910C2E01C0660F0A94EAF765296F7761
:10400000DC01ED91FC910190F081E02D1995BFEF5D
:10401000EB1AFB0AF801608170E0C4018C1B9D0B58
:1040200002C0759567958A95E2F7562E2196C7309E
:10403000D10558F1CE14DF0441F1D5018D919C9149
:10404000652D6F77DC01ED91FC910190F081E02D01
:104050001995BFEFEB1AFB0A551C5524551C2797E1
:10406000E6CFEC14FD0408F4BFCFDF91CF911F9190
:104070000F91FF90EF90DF90CF90BF90AF909F9007
:104080008F907F906F905F9008950F5F1F4F601625
:10409000710639F7209749F3EC14FD0430F7F50168
:1040A0008081918161E070E001C0660FCA95EAF7F6
:1040B00061506521DC01ED91FC910190F081E02DD2
:1040C000DF91CF911F910F91FF90EF90DF90CF90F4
:1040D000BF90AF909F908F907F906F905F9019945A
:1040E0001F93CF93DF931F921F92CDB7DEB7182F88
:1040F0007A83698380916209909163090097C9F07E
:10410000DC01ED91FC910190F081E02D1031B8F4CB
:1041100061157044A0F4612F606E199522E030E0C3
:10412000AE014F5F5F4F62E070E082E699E00E946F
:10413000D11F0F900F90DF91CF911F91089560EFE5
:1041400019958091620990916309DC01ED91FC91D0
:104150000190F081E02D6FE61995809162099091B0
:104160006309DC01ED91FC910190F081E02D612F5C
:10417000199522E030E0AE014F5F5F4F62E070E0E2
:1041800082E699E00E94D11F8091620990916309B3
:10419000DC01ED91FC910190F081E02D67EF199524
:1041A000C8CFCF92DF92EF92FF920F931F93CF93DE
:1041B000DF93FC01E058FF4FE080EE2009F45CC083
:1041C000EC01C05CDF4FA881B981109709F454C09D
:1041D000FC01EF57FF4FC080D180F60111810081B3
:1041E000ED91FC9111970190F081E02D60EFCD01F0
:1041F000199588819981DC01ED91FC910190F08104
:10420000E02D69E7199588819981DC01ED91FC9198
:104210000190F081E02D602F199588819981DC0152
:10422000ED91FC910190F081E02D612F1995F12C19
:1042300001E010E00F5F1F4FE016F10659F030E08B
:1042400020E0A601400F511F61E070E0CE010E9406
:10425000D11FF0CF88819981DC01ED91FC91019013
:10426000F081E02D67EFDF91CF911F910F91FF90CB
:10427000EF90DF90CF901994DF91CF911F910F9124
:10428000FF90EF90DF90CF900895009711F00C947D
:10429000D12008951F93CF93DF93FC012481222323
:1042A00069F0162FEC0160E080810E94E50B612F20
:1042B0008A81DF91CF911F910C94E50BDF91CF9113
:1042C0001F910895CF93DF93FC012481222351F0A5
:1042D000EC0180810E94E50B60E08A81DF91CF9143
:1042E0000C94E50BDF91CF910895FC01892B69F0C7
:1042F000948190786115710519F4948381E0089593
:104300009460948371836083F9CF80E00895CF93A4
:10431000DF93EC0188819981DC01ED91FC910190A2
:10432000F081E02D19952A813B81820F931F9B8399
:104330008A83DF91CF910895CF93DF93EC01888139
:104340009981DC01ED91FC910280F381E02D1995BA
:104350002A813B81820F931F9B838A83DF91CF91B8
:104360000895EF92FF920F931F93CF93DF93CDB7F2
:10437000DEB766970FB6F894DEBF0FBECDBF8C01D7
:10438000CB01FE0177969F014AE0E42EF12CB701A4
:104390000E94D356805D8293CB010097C1F7A9019B
:1043A0004E1B5F0BBF01C8010E949C2166960FB691
:1043B000F894DEBF0FBECDBFDF91CF911F910F915B
:1043C000FF90EF9008958F929F92AF92BF92CF92FD
:1043D000DF92EF92FF920F931F93CF93DF93CDB7AE
:1043E000DEB766970FB6F894DEBF0FBECDBF6C0187
:1043F0008E01095E1F4F78018AE0882E912CA12C36
:10440000B12CCB01BA01A50194010E947755942FDC
:10441000852F605DF80162938F01A901692F782FC4
:10442000411551056105710561F7A7014E1B5F0B31
:10443000BF01C6010E949C2166960FB6F894DEBFAC
:104440000FBECDBFDF91CF911F910F91FF90EF90E5
:10445000DF90CF90BF90AF909F908F900895EF9294
:10446000FF920F931F93CF93DF93EC017B0162E2E6
:104470000E9487218701F80161918F01662391F0E5
:10448000E1E9F2E0F280FF2049F032968181681381
:10449000F9CF6CE5CE010E9487216F2DCE010E94DD
:1044A0008721E9CF62E2CE01DF91CF911F910F9179
:1044B000FF90EF900C948721FC01892B69F0948187
:1044C000907898609483CB01B0E0A0E080839183E2
:1044D000A283B38381E0089580E00895FC010E96E5
:1044E000918380839383828388539F4F95838483B2
:1044F0009783868310868585807885870895CF93F6
:104500008131B0F421E030E0082E02C0220F331FC9
:104510000A94E2F740916C0550916D05672B51F4B8
:10452000209530952423352330936D0520936C0519
:10453000CF910895242B352B30936D0520936C0576
:104540009091AB049111F4CFC82F0E943B0CBC0199
:104550008C2FCF910C9470204F925F926F927F922C
:104560008F929F92AF92BF92CF92DF92EF92FF9283
:104570000F931F93CF93DF93893008F0A7C08F5F0D
:10458000C82FCC0FCC0FCC0F4C2EC73410F056E4F4
:10459000452ED62F38EF532E5C0E852C912CC4015E
:1045A000880F991F9C012E5D364F5901052DD12C86
:1045B000C12C10E0772473940415C8F58EEF800F9A
:1045C0008434F8F4F601E80DF91DEB55F64F9081AF
:1045D0009230B8F4872D8D2366246394811101C035
:1045E000612C7601EE0CFF1C913089F4172939EC0F
:1045F000E30EF11CF501EE0DFF1D862D90E0918379
:104600008083770C0F5F8FEFC81AD80AD5CF882325
:1046100071F3F701E753FF4FEA0DFB1D8081918194
:10462000019729F362E0802F0E94A90BE0CF10FFD1
:1046300005C06D2F6170852D0E94490B11FF06C0CA
:104640006D2F627089EF8C0F0E94490B12FF06C01C
:104650006D2F64708AEF8C0F0E94490B13FF06C008
:104660006D2F68708BEF8C0F0E94490B14FF06C0F2
:104670006D2F60718CEF8C0F0E94490B15FF06C0E7
:104680006D2F60728DEF8C0F0E94490B16FF06C0D4
:104690006D2F60748EEF8C0F0E94490B17FF16C0B0
:1046A0006D2F60788FEF8C0FDF91CF911F910F915D
:1046B000FF90EF90DF90CF90BF90AF909F908F9042
:1046C0007F906F905F904F900C94490BDF91CF914A
:1046D0001F910F91FF90EF90DF90CF90BF90AF9020
:1046E0009F908F907F906F905F904F900895FF9272
:1046F0000F931F93CF93DF93863418F5EB01F82EB9
:10470000082F10E0F801EB55F64F80818330F9F067
:104710008430B9F48EEF8F0D843460F4F801E45ADC
:10472000FB4F808123E0829FC00111248D5E944F56
:104730000E949F1C000F111FF801E551F64FD18315
:10474000C083DF91CF911F910F91FF9008958EEF5D
:104750008F0D8C3020F084ED8F0D833058F761E0A1
:104760008F2D0E94A90B209729F460E08F2D0E94C5
:10477000490BE0CFCF3FD10511F461E0F7CFF8014D
:10478000E250F34FE491E150E23108F0B0C0F0E0C4
:104790008827E253FC4D8F4F0C94E756E023E52326
:1047A000EA23F423FE237724082410241824222447
:1047B0002C24362445244F247724592463246D2443
:1047C00084B5806884BDC7BDB5CF84B5806284BD23
:1047D000C8BDB0CF80918000806880938000D09366
:1047E0008900C0938800A6CF80918000806280936A
:1047F0008000D0938B00C0938A009CCF8091800072
:10480000886080938000D0938D00C0938C0092CFFD
:104810008091B00080688093B000C093B3008ACFCD
:104820008091B00080628093B000C093B40082CFCA
:1048300080919000806880939000D0939900C093FD
:10484000980078CF80919000806280939000D09300
:104850009B00C0939A006ECF8091900088608093F7
:104860009000D0939D00C0939C0064CF8091A000E5
:1048700080688093A0008091A0008F7B8093A0002F
:10488000D093A900C093A80055CF8091A00080626A
:104890008093A000D093AB00C093AA004BCF80912F
:1048A000A00088608093A000D093AD00C093AC00BE
:1048B00041CF80912001806880932001D09329010D
:1048C000C093280137CF809120018062809320011E
:1048D000D0932B01C0932A012DCF809120018860B5
:1048E00080932001D0932D01C0932C0123CFC03899
:1048F000D1050CF042CF39CF9EEF980F943480F45D
:10490000E82FF0E0DF01AB55B64F9C91913041F4B8
:10491000EE0FFF1FE551F64F608371830C94490B36
:104920000895FF920F931F93CF93DF931F921F92CF
:10493000CDB7DEB7082F10E0F801EB5AFA4F90819F
:10494000F62EF9220E551B4F411104C0F80190813B
:104950009F1511F12F2D30E03A832983A091620930
:10496000B09163091097B1F0682F6F706069ED9195
:10497000FC9111970190F081E02DCD01199522E075
:1049800030E0AE014F5F5F4F62E070E082E699E099
:104990000E94D11FF801F0820F900F90DF91CF910C
:1049A0001F910F91FF9008950F931F93CF93DF9363
:1049B000893008F071C0282F30E0F901E25AFA4F2F
:1049C0006083672B09F468C0082F2B5A3A4FF9010E
:1049D0001081D82FDD0FDD0FDD0F8EEF8D0F8434AA
:1049E00050F4C12FC17010FF07C08D2F0E94200B03
:1049F000C1E0892B09F4C0E08FEF8D0F843448F4B7
:104A000011FF07C081E08D0F0E94200B892B09F058
:104A1000C26012FF07C082E08D0F0E94200B892B1D
:104A200009F0C46013FF07C083E08D0F0E94200BC4
:104A3000892B09F0C86014FF07C084E08D0F0E9425
:104A4000200B892B09F0C06115FF07C085E08D0F91
:104A50000E94200B892B09F0C062D034A1F016FF10
:104A600007C086E08D0F0E94200B892B09F0C064DF
:104A7000DF3349F017FF07C087E08D0F0E94200B3E
:104A8000892B09F0C06841E06C2F802FDF91CF9116
:104A90001F910F910C949124DF91CF911F910F9151
:104AA0000895A82FB0E0A45ABB4F9C91292F30E065
:104AB000F901EE0FFF1FE20FF31FED5EF44FE081EF
:104AC0002E2F30E0F901EE0FFF1FE20FF31FE85821
:104AD000F54F80818F7B808380915A04981308C0A2
:104AE000992319F0915090935A048FEF8C93089565
:104AF0008823D9F3E0915B04EF5FE0935B04F0E07F
:104B0000E75DFB4F9083F1CFFC012581222339F033
:104B1000F8E02F0290011124820F931F089590E076
:104B200080E00895CF93DF93DC01EA01EC81FD8101
:104B30008A819B810896E817F90740F481E088870D
:104B4000F0E0E0E0CF01DF91CF9108953897FD8349
:104B5000EC833097B9F31296CD91DC91139720979F
:104B600091F0CF018C1B9D0B23E0959587952A959D
:104B7000E1F78D831396FC93EE93129715821482BE
:104B800077836683DFCF1196FC93EE93F3CFDC013E
:104B9000ED91FC910190F081E02D19941F93CF933A
:104BA000DF93EC0118E0612FCE010E946F1F009788
:104BB00011F00E949F571F5F1C30A9F78FEF8AA347
:104BC000FE013A96A29611921192CE17DF07D9F7FD
:104BD000DF91CF911F9108956F927F928F929F9254
:104BE000AF92BF92CF92DF92EF92FF920F931F93FB
:104BF000CF93DF935B01742E00E010E0842E912CA4
:104C0000C82ED12C171508F057C0011155C0E12E40
:104C1000F12CE401CE19DF09C132D10514F0C0E254
:104C2000D0E0809178050E942E08B6016E0D7F1DA0
:104C30008091790590917A050E94C7258091790528
:104C400090917A050E94461B6C2FC13208F060E2F9
:104C500041E0809178050E948F071092770580933C
:104C60007605F12CE12CDD27612E6E0CEC16FD068D
:104C70000CF58091790590917A05DC01ED91FC911C
:104C80000084F185E02D1995892B99F080917905A3
:104C900090917A05DC01ED91FC910284F385E02D81
:104CA0001995F501E60DF11D8083BFEFEB1AFB0AA4
:104CB000DBCF01E0162DA6CF812FDF91CF911F9181
:104CC0000F91FF90EF90DF90CF90BF90AF909F90AB
:104CD0008F907F906F900895CF93DF931F921F92D4
:104CE000CDB7DEB742E0BE016F5F7F4F0E94EC257B
:104CF00089819A810F900F90DF91CF9108956F92E3
:104D00007F928F929F92AF92BF92CF92DF92EF925B
:104D1000FF920F931F93CF93DF934C017B018A0186
:104D2000E90184E90E946C263C0186E90E946C2618
:104D30005C0188E90E946C266C018AE90E946C265D
:104D4000F401B182A082F701D182C082F80191837F
:104D5000808379826882DF91CF911F910F91FF90BC
:104D6000EF90DF90CF90BF90AF909F908F907F900B
:104D70006F900895CF92DF92EF92FF921F93CF939F
:104D8000DF93CDB7DEB7C150D1400FB6F894DEBF88
:104D90000FBECDBFC12CD12C760141E0BE016F5FAB
:104DA0007E4F8FEA0E94EC25CF5FDE4F9881C15085
:104DB000D14080918D0591FB81F990FB80F9809322
:104DC0008D0580FF5FC06EE170E080E090E00E94A2
:104DD0007D0C41E0BE016F5F7E4F8EEA0E94EC25A4
:104DE000CF5FDE4F4881C150D140BE016F5F7F4F22
:104DF0008CEF0E94EC2529818A81281B330BC90185
:104E000037FF04C088279927821B930B0E9714F451
:104E100030E020E08B819C81891B990BAC0197FFCE
:104E200004C044275527481B590B4E3051050CF43C
:104E300066C02115310541F137FF10C020917D0575
:104E4000211169C020917C052F5F20937C0500977C
:104E5000E9F40E94B00C6B017C012AC020917C0512
:104E600021115EC020917D052F5F20937D05EFCF3E
:104E700080917E0581114DC080917F058F5F809369
:104E80007F0510C010E02BC0009791F010E097FF55
:104E9000EFCF80917F05811138C080917E058F5FB3
:104EA00080937E050E94B00C6B017C0111110DC036
:104EB0000E94B00C6C197D098E099F096D327140FA
:104EC0008105910508F469CF10E010927B051092DE
:104ED0007C0510927D0510927E0510927F05812F32
:104EE000CF5FDE4F0FB6F894DEBF0FBECDBFDF91B0
:104EF000CF911F91FF90EF90DF90CF9008952115F3
:104F00003105B1F290E080E097CF13E00E94B00C41
:104F1000DCCF14E0FBCF11E0009709F0B8CFF6CF5B
:104F200012E0FACF0C94BA260F931F93CF93C82F99
:104F30008B0189E30E942E086C2F8EED9BE00E946E
:104F4000171B8EED9BE00E94461B811113C041E0B0
:104F500061E089E30E948F07C82F10927705809344
:104F6000760580917705C81751F00E944B08F8012B
:104F70008083F7CF80E0CF911F910F91089581E05A
:104F8000FACFCF93DF931F92CDB7DEB71982BE0160
:104F90006F5F7F4F8CE90E949427898190E00F908A
:104FA000DF91CF9108956F927F928F929F92AF92EF
:104FB000BF92CF92DF92EF92FF920F931F93CF9306
:104FC000DF93CDB7DEB76F970FB6F894DEBF0FBE95
:104FD000CDBF8C0160E00E94A90B1127F801E25AB5
:104FE000F24FE491E983F801E254F24FE491F0E0EA
:104FF000EE0FFF1FEC5BF24F859194919B838A83A8
:105000001C861E861D861B861A86198618861F8298
:105010001E821D821C82CE0101960E94721A40E0FF
:105020006CECCE0101960E943E1A40E064E4CE0191
:1050300001960E943E1A0E94B00C6B017C01CE01C9
:1050400001960E94EB19813059F00E94B00C6E5508
:105050007109810991096C157D058E059F0578F30D
:105060001C861E861D861B861A86198618861F8238
:105070001E821D821C82CE0101960E94721A882314
:1050800009F485C040E060EFCE0101960E943E1A0F
:10509000FF24F394E12CD12C01E0CE0101960E9473
:1050A000EB19182FCE0101960E94EB19113009F06F
:1050B00072C0813009F092C0013408F468C0DC8607
:1050C000D11002C081E08E878C81882309F45FC0F3
:1050D000FE0134968E01085E1F4FCE018096780146
:1050E00068012191D7012D937D01A817B907C9F750
:1050F00067E0C8010E94D4199F8D891348C0CE0172
:1051000001960E94721A882309F441C040E065E5C7
:10511000CE0101960E943E1AF80161918F0140E094
:10512000CE0101960E943E1AE016F106A9F740E072
:105130006EEBCE0101960E943E1A8E01015F1F4F59
:1051400078013801F8E08F2E912CB12CAA24A39479
:10515000CE0101960E94EB198111BA28AA0CF1E048
:105160008F1A9108A9F7D701BD927D01AC15BD0535
:1051700049F7CE0101960E94721A813041F4F8017C
:1051800081918F01811144C0EE16FF06C1F7C12C39
:10519000D12C760195C0EE2DF0E0181311C08C854E
:1051A0000817D0F4A4E0B0E0AC0FBD1FAE0FBF1FD6
:1051B0008C918F2199F410E0093008F40D87D02EDE
:1051C00044E050E04C0F5D1FE40FF51F80819F2DE0
:1051D0009095892380830CC08013EDCFE4E0F0E04C
:1051E000EC0FFD1FEE0DF11D80818F29808311E0F2
:1051F000612FCE0101960E940F1A0F5FFF0C19F468
:10520000E394FF24F39457E05E1508F046CF54CFA3
:1052100068E0C3010E94D4199F898913B8CF6889B7
:1052200070E0762F6627770F770F770F2F85F8E0DE
:105230002F9F90011124262B372B888D8031D1F49C
:105240006E8970E08D89AB01481B5109CA019695A2
:10525000982F8827979587950E94D356CB018097E2
:10526000B90153E0660F771F5A95E1F760789C010A
:10527000260F371F213854EE35070CF488CFB901BB
:10528000330F880B990B0E94285420E030E040E057
:105290005CE30E9487546B017C0120E030E04CE528
:1052A00052EC0E94215487FD72CF20E030E040E2B2
:1052B00053E4C701B6010E94BD5618160CF467CF1F
:1052C000C701B6016F960FB6F894DEBF0FBECDBF13
:1052D000DF91CF911F910F91FF90EF90DF90CF90D2
:1052E000BF90AF909F908F907F906F900895EF92B6
:1052F000FF920F931F93CF93DF93FC010190002047
:10530000E9F731977F01E81AF90AA0916209B09193
:1053100063091097D1F18C01ED91FC9111970190E7
:10532000F081E02D60EFCD01199580916209909197
:105330006309DC01ED91FC910190F081E02D61E7C2
:105340001995D0E0C0E0EC16FD0669F0A8014C0FFD
:105350005D1F30E020E061E070E082E699E00E94AD
:10536000D11F2196F0CF8091620990916309DC01F1
:10537000ED91FC910190F081E02D67EFDF91CF91ED
:105380001F910F91FF90EF901994DF91CF911F9192
:105390000F91FF90EF900895CF93DF93DB019091F1
:1053A0005A04903378F530915B04682F70E0FB016C
:1053B000E45AFB4F3323E1F0C32FD0E0C75DDB4F4E
:1053C00088818083315030935B04808123E0829F09
:1053D000C00111248D5E944F1A161B0674F4141626
:1053E00015065CF49A01AD01DF91CF910C941B1D61
:1053F00090839F5F90935A04E8CF20E639E040E223
:1054000052E0F2CF82EA92E0DF91CF910C947729BB
:105410008F929F92BF92CF92DF92EF92FF920F9363
:105420001F93CF93DF93C82ED12CE601CE5DD64FCC
:10543000FE01ED57FF4F90819F3709F493C07B0128
:10544000182F0EEF080F043408F564307105F1F0E1
:10545000F601E45AFB4F80818033C0F490E0FC01F8
:10546000EE0FFF1FE80FF91FED5EF44FE0818E2F66
:1054700090E0FC01EE0FFF1FE80FF91FE858F54F11
:10548000808186FF03C08C2D0E9451255AECB52ED9
:10549000B10E8FE08B1558F061E070E032E0E3165A
:1054A000F10411F070E060E08B2D0E947F22043443
:1054B000C8F4E12FE695E695E695F0E0EB5AFA4F51
:1054C0002081312F377081E090E001C0880F3A953C
:1054D000EAF7E114F10421F03BE0E316F10411F5E1
:1054E000822B80834601880C991CF401E551F64F0C
:1054F000118210828CE0E816F10408F0C4C0F701B4
:105500008827EA57F54D8F4F0C94E756A62AD32AE1
:10551000952AEA2A042B432B432B432B432B432B63
:105520003B2BBE2A80958223DCCF3FE03B15D0F099
:10553000043420F460E0812F0E94A90BCD57DF4F87
:1055400088818F3779F082E088830CC0043450F46E
:1055500060E0812F0E94A90BCD57DF4F88818F37E4
:1055600009F01882DF91CF911F910F91FF90EF907A
:10557000DF90CF90BF909F908F900895043490F764
:1055800062E0812F0E94A90BCD57DF4F88818F37B2
:1055900011F08BE08883F401E551F64F81E090E053
:1055A00091838083DFCF0434E8F6FE01ED57FF4F8F
:1055B0008081833021F460E0812F0E94490B61E0FB
:1055C000812F0E94A90BCD57DF4F88818F3751F271
:1055D00081E0BACF0C3020F084ED810F833010F6DB
:1055E00061E0812F0E94A90B61E0812F0E94A90B2D
:1055F00060E0812F0E94490BCD57DF4F88818F37A4
:1056000009F4B0CF83E0A0CF043408F0ABCFCD577E
:10561000DF4F88818F3711F084E08883F601E45AE8
:10562000FB4F80818F3FA9F090E0FC01EE0FFF1F40
:10563000E80FF91FED5EF44FE0818E2F90E0FC0142
:10564000EE0FFF1FE80FF91FE858F54F808186FD28
:1056500089CF4FEF5FEF6FEF7FEF812FDF91CF911A
:105660001F910F91FF90EF90DF90CF90BF909F9090
:105670008F900C94CC29CD57DF4F88818F3709F458
:1056800071CF8AE061CF86EB92E0DF91CF911F91DD
:105690000F91FF90EF90DF90CF90BF909F908F90F1
:1056A0000C9477290F931F93CF93DF9381E080931E
:1056B000AB0483EA9BE00E94CE25EEE5F5E0C5E56C
:1056C000D5E0A2EAB4E0119219921D9285E0E73686
:1056D000F807C9F70CE514E0C0E0DFEF8AEC8C0FA7
:1056E00062E070E0803130F08EEF8C0F843428F46B
:1056F00070E060E08C2F0E94082AF801D1938F019E
:10570000CF5FC63459F710926D0510926C05109258
:105710005B0410925A041092AB04DF91CF911F9159
:105720000F910895FC0101900020E9F73197AF0136
:10573000481B590BBC0185E898E00C9455098F92E1
:105740009F92AF92BF920F931F93CF93DF93CDB7EA
:10575000DEB7A1970FB6F894DEBF0FBECDBF19A27A
:10576000423008F44AE08E010F5D1F4F842E912CC9
:10577000B12CA12CA50194010E947755E62FB90107
:10578000CA01EA30F4F4E05DD801EE938D01232BD9
:10579000242B252B79F790E080E0109719F0CD01AC
:1057A0000E94922BA1960FB6F894DEBF0FBECDBF1C
:1057B000DF91CF911F910F91BF90AF909F908F90ED
:1057C0000895E95CE1CFCF92DF92EF92FF92CF9301
:1057D000DF936C01990FEE08FF08F7FE19C06DE228
:1057E00085E898E00E94220AEC0166277727CB0122
:1057F0006C197D098E099F094AE00E949F2B8C0F2E
:105800009D1FDF91CF91FF90EF90DF90CF90089593
:105810004AE0C701B601DF91CF91FF90EF90DF9092
:10582000CF900C949F2B462F682F70E090E080E083
:105830000C949F2B0C94922B4F925F926F927F92BD
:105840008F929F92AF92BF92CF92DF92EF92FF9290
:105850000F931F93CF936B017C01742EAC019B01BE
:105860000E94C256882399F087EC92E0CF911F9155
:105870000F91FF90EF90DF90CF90BF90AF909F90EF
:105880008F907F906F905F904F900C94922B460179
:105890005701E894B7F82FEF3FEF4FE75FE7C501F7
:1058A000B4010E94C25681110DC02FEF3FEF4FE7A8
:1058B0005FE7C501B4010E94215418161CF48BEC5B
:1058C00092E0D4CF2FEF3FEF4FE75FE4C701B6017F
:1058D0000E94BD5618161CF48FEC92E0C7CF2FEF34
:1058E0003FEF4FE75FECC701B6010E94215487FDEF
:1058F000F3CF20E030E0A901C701B6010E94215496
:1059000010E000E087FF0AC06DE285E898E00E94A1
:10591000220A8C01F7FAF094F7F8F094C0E060E006
:1059200070E080E09FE37C1641F020E030E040E250
:1059300051E40E941556CF5FF6CFA70196010E9451
:10594000A9552B013C010E948E564B015C014AE097
:105950000E949F2B7C01E00EF11ECC23C1F1C501FA
:10596000B4010E9426549B01AC01C301B2010E9404
:10597000A8554B015C016EE285E898E00E94220A7E
:10598000E80EF91EC15018F120E030E040E251E489
:10599000C501B4010E9487542B013C010E948E5620
:1059A0004B01B12CA12C4AE0C501B4010E949F2BF0
:1059B000E80EF91EC501B4010E9426549B01AC01FA
:1059C000C301B2010E94A8554B015C01DBCFC701A6
:1059D000CF911F910F91FF90EF90DF90CF90BF90EC
:1059E000AF909F908F907F906F905F904F900895B1
:1059F000FB0101900020E9F73197AF01461B570BDF
:105A00000C949C212F923F924F925F926F927F92C3
:105A10008F929F92AF92BF92CF92DF92EF92FF92BE
:105A20000F931F93CF93DF93CDB7DEB766970FB673
:105A3000F894DEBF0FBECDBF8C011B01DC011496B4
:105A40008C9114978F77863009F463C278F4823092
:105A5000B0F0843008F044C212964D915C911397D7
:105A60006D917C91C1010E949C2136C28C3069F1FC
:105A700060F4883009F448C28A3009F437C263ED13
:105A800072E0C1010E94F82C27C2803209F4FCC1E7
:105A90008034A9F76BE5C1010E948721F8010081DC
:105AA00011810115110509F4EAC1B101C8010E9473
:105AB000022DC8010E9484258C01892B09F4DFC1C5
:105AC0006CE2C1010E948721ECCFF801C080D18037
:105AD000E280F380A7019601C701B6010E9421541C
