:100000000C9472000C949A000C949A000C94791D34
:100010000C94791D0C94791D0C949A000C94231B5C
:100020000C949A000C949A000C949A000C94BD1CA9
:100030000C949A000C949A000C949A000C949A00D8
:100040000C94D91A0C949A000C94A71A0C94811A47
:100050000C949A000C949A000C949A000C949A00B8
:100060000C94A21B0C949A00005EBCE2613FDD83FD
:10007000C29C7E20A3FD1F41009D23BE46DB65F888
:100080008C11AF32CA57E974000000002400270029
:100090002A0000000008000201000003040700001D
:1000A00000000000000000000000230026002900DE
:1000B00001020408102040800102040810200102FF
:1000C0000408102000000000250028002B00040474
:1000D00004040404040402020202020203030303F0
:1000E0000303C31E11241FBECFEFD8E0DEBFCDBF78
:1000F00011E0A0E0B1E0E6EFF2E502C005900D925C
:10010000A63BB107D9F725E0A6EBB1E001C01D92EF
:10011000A03FB207E1F710E0C2E7D0E004C02197AA
:10012000FE010E945727C137D107C9F70E9440201E
:100130000C9479290C940000862FE0919902F0919B
:100140009A02309711F0BA0109940895862FE09130
:100150009702F0919802309711F0BA01099408952E
:10016000862FE0919502F0919602309711F0BA0136
:1001700009940895862FE0919302F09194023097AC
:1001800011F0BA0109940895862FE0919102F0913F
:100190009202309711F0BA0109940895862FE091E8
:1001A0008F02F0919002309711F0BA0109940895EE
:1001B000CB01E0919F02F091A002309709F00994E1
:1001C0000895862F642FE0919B02F0919C02309756
:1001D00011F0A90109940895E0919D02F0919E0209
:1001E000309709F009940895A0918304B091840494
:1001F000ED91FC9111970190F081E02D682FCD01D8
:1002000009941F93CF93DF93182FEB0180914A0439
:1002100090914B046817790760F48091480490919D
:100220004904C80FD91F188380E0DF91CF911F9137
:100230000895E0917704F0917804309711F481E00B
:10024000F4CF81E08093470480916304909164042B
:10025000099580914A0490914B04C817D90778F703
:10026000DCCFCF93DF93EC01FB0130E020E0C9014C
:10027000880F991F8C179D0778F44081DB014D93FF
:10028000BD0111979181979599279795942B9C93F0
:100290002F5F3F4F3296EBCFC901DF91CF91089589
:1002A000CF92DF92EF92FF92CF93DF93EC016A013E
:1002B0007B01E889F98982E08083C11481EED80648
:1002C000E104F104A1F060E079E08DE390E0A701A2
:1002D00096010E94E725215031094109510956959F
:1002E000479537952795211580E1380798F0E889DB
:1002F000F989108260E874E88EE190E0A701960128
:100300000E94E72521503109410951095695479529
:1003100037952795EC85FD853083EE85FF85208315
:10032000188EEC89FD8986E08083EA89FB898081CB
:1003300080618083EA89FB89808188608083EA8983
:10034000FB89808180688083EA89FB8980818F7D39
:100350008083DF91CF91FF90EF90DF90CF90089551
:10036000CF93DF93FC01A081B181109701F1EC01E3
:10037000ED91FC9111970190F081E02D69EFCD0195
:10038000099588819981DC01ED91FC910190F081C2
:10039000E02D62E0099588819981DC01ED91FC9165
:1003A0000190F081E02D65E0DF91CF910994DF911C
:1003B000CF910895009721F0805C9F4F0C94B0017D
:1003C0000895AF92BF92CF92DF92EF92FF920F9378
:1003D0001F93CF93DF936C017B018B01040F151FDB
:1003E000EB015E01AE18BF08C017D10759F0699143
:1003F000D601ED91FC910190F081E02DC6010995A7
:10040000892B79F7C501DF91CF911F910F91FF9053
:10041000EF90DF90CF90BF90AF900895FC01538D87
:10042000448D252F30E0842F90E0821B930B5417CE
:1004300010F0CF96089501970895FC01918D828D5B
:10044000981761F0A28DAE0FBF2FB11D5D968C91F4
:10045000928D9F5F9F73928F90E008958FEF9FEF33
:100460000895FC01918D828D981731F0828DE80FEF
:10047000F11D858D90E008958FEF9FEF0895FC01A9
:10048000918D228D892F90E0805C9F4F821B910976
:100490008F739927089588E693E00E943F0221E038
:1004A000892B09F420E0822F089580E090E0892BC9
:1004B00029F00E944B0281110C9400000895FC0168
:1004C000A48DA80FB92FB11DA35ABF4F2C91848DB5
:1004D00090E001968F739927848FA689B7892C9312
:1004E000A089B1898C91837080648C93938D848D65
:1004F000981306C00288F389E02D80818F7D808368
:100500000895EF92FF920F931F93CF93DF93EC0127
:1005100081E0888F9B8D8C8D98131AC0E889F989AA
:10052000808185FF15C09FB7F894EE89FF896083AD
:10053000E889F98980818370806480839FBF81E02E
:1005400090E0DF91CF911F910F91FF90EF90089570
:10055000F62E0B8D10E00F5F1F4F0F731127E02E4B
:100560008C8D8E110CC00FB607FCFACFE889F98983
:10057000808185FFF5CFCE010E945F02F1CFEB8D28
:10058000EC0FFD2FF11DE35AFF4FF0829FB7F89457
:100590000B8FEA89FB8980818062CFCF682F88E644
:1005A00093E00C948102CF93DF93EC01888D882334
:1005B000B9F0AA89BB89E889F9898C9185FD03C0C6
:1005C000808186FD0DC00FB607FCF7CF8C9185FFAB
:1005D000F2CF808185FFEDCFCE010E945F02E9CF8F
:1005E000DF91CF910895833081F028F4813099F024
:1005F0008230A9F008958730A9F08830C9F084309E
:10060000B1F4809180008F7D03C0809180008F774E
:1006100080938000089584B58F7784BD089584B554
:100620008F7DFBCF8091B0008F778093B0000895CD
:100630008091B0008F7DF9CFCF93DF93282F30E0EA
:10064000F901EE56FF4F8491F901E055FF4FD49127
:10065000F901E253FF4FC491CC23A1F081110E9414
:10066000F302EC2FF0E0EE0FFF1FEA55FF4FA591CC
:10067000B491EC91ED2381E090E009F480E0DF910A
:10068000CF91089580E090E0FACF1F93CF93DF934E
:10069000282F30E0F901EE56FF4F8491F901E05523
:1006A000FF4FD491F901E253FF4FC491CC23A9F03D
:1006B000162F81110E94F302EC2FF0E0EE0FFF1FC6
:1006C000EC53FF4FA591B4918FB7F894EC911111B1
:1006D00008C0D095DE23DC938FBFDF91CF911F91AF
:1006E0000895DE2BF8CFCF93DF9390E0FC01E05527
:1006F000FF4F249182539F4FFC0184918823C9F0BE
:1007000090E0880F991FFC01E857FF4FA591B49125
:10071000FC01EC53FF4FC591D49161110DC09FB7FF
:10072000F8948C91209582238C93888128232883A8
:100730009FBFDF91CF910895623051F49FB7F89435
:100740003C91822F809583238C93E8812E2BEFCFD1
:100750008FB7F894EC912E2B2C938FBFEACFCF93C9
:10076000E4EBF2E0AFEF90E0208187FF05C027FFC8
:1007700047C0AF3F41F406C0821709F441C0AF3F04
:1007800011F427FDA92F9F5F3996943169F787FDF2
:100790003AC0AF3F09F437C0C82F89E0A802D001A2
:1007A0001124AC54BD4FCC932091B30211962C93DD
:1007B00011978C2F0C2E000C990BFC01E253FF4F6C
:1007C000E491F0E0EE0FFF1FEC53FF4F4591549181
:1007D00013965C934E931297FC01E055FF4FE49102
:1007E0001496EC93149715966C9360E0211161E0D8
:1007F0008C2F0E94450361E08C2FCF910C947303E2
:10080000658387FDBCCFCF9108958E3008F08E5060
:100810008770806480937C0080917A0080648093EC
:100820007A0080917A0086FDFCCF809178009091CB
:10083000790008953FB7F89480918B0290918C02D3
:10084000A0918D02B0918E0226B5A89B05C02F3FC6
:1008500019F00196A11DB11D3FBFBA2FA92F982FE6
:100860008827BC01CD01620F711D811D911D42E0E1
:10087000660F771F881F991F4A95D1F708958F92A9
:100880009F92AF92BF92CF92DF92EF92FF926B0155
:100890007C010E941A044B015C01C114D104E104E3
:1008A000F104B9F00E941A04681979098A099B09B0
:1008B000683E73408105910580F321E0C21AD1089A
:1008C000E108F10888EE880E83E0981EA11CB11C97
:1008D000E4CFFF90EF90DF90CF90BF90AF909F90CC
:1008E0008F900895CF92DF92EF92FF920F931F9314
:1008F000CF93DF93CDB7DEB729970FB6F894DEBF5D
:100900000FBECDBF8C01DC0119968D919C91892B76
:1009100009F465C00E941A04F801C784D088E188F0
:10092000F2886C197D098E099F096C32714081052E
:10093000910580F3F894D80114968D919C911597A8
:100940009A8389831996ED91FC917F01BFEFEB1A91
:10095000FB0A80818987F80190810388F489E02D62
:10096000D80155968C91992309F448C09081982B11
:1009700098879081809589238F838F818C8388E0ED
:100980008B8358856F8149853B812C8189819A8130
:10099000D701508347FD252F3A952083262F39F024
:1009A000441F00C000006083000000C0F2CF38E0A8
:1009B0004D9160830000019761F7D8015496FC9334
:1009C000EE93539749873B832C839A83898378944A
:1009D0000E941A04F8016787708B818B928B29968D
:1009E0000FB6F894DEBF0FBECDBFDF91CF911F9140
:1009F0000F91FF90EF90DF90CF9008959081982B0A
:100A000098879081809589238F838F818E8388E05A
:100A10008D8358856F8149853D812E8189819A8199
:100A2000D701508347FD252F00C000C0208300C0A0
:100A300000C000C000C000C060830000262F3A95AF
:100A400041F0441F000000C000C000C000C000C052
:100A5000E8CF38E04D9100C0608300C0019709F7EE
:100A6000D8015496FC93EE93539749873D832E8388
:100A7000ACCFDC0180E0615090F09D919827E92F88
:100A8000EF70F0E0E859FF4F2491E92FE295EF7005
:100A9000F0E0E858FF4FE491822F8E27ECCF0895C5
:100AA000DC012C911196ED91FC91F8948181822BBF
:100AB00081839281322F30959323928387E090E057
:100AC0000197F1F781818323818383E290E001978D
:100AD000F1F790817894EFECF0E03197F1F7922301
:100AE00081E009F480E00895FC0190810180F281A9
:100AF000E02D292F209560FF14C0F8948281822375
:100B000082838181892B8183A3E2B0E01197F1F781
:100B10008281982B9283789487ED90E00197F1F78A
:100B20000895F8948281822382838181892B818335
:100B3000AFEFB0E01197F1F78281982B9283789410
:100B40008FE090E0EBCFDF92EF92FF920F931F9335
:100B5000CF93DF93EC01D62EE42E08E010E0FF24C3
:100B6000F39461E08D2D8F2109F460E0CE010E94A5
:100B70007405FF0C01501109A1F7E11010C0F894A1
:100B8000E981FA8191818881809589238183E98136
:100B9000FA81928188818095892382837894DF917C
:100BA000CF911F910F91FF90EF90DF900895FC017E
:100BB00090810180F281E02DF8948181292F209588
:100BC0008223818378943DE743E050E0315029F15E
:100BD000DA011197F1F780818923C1F3F8948281BA
:100BE000822382838181892B81837894ABE7B7E06C
:100BF0001197F1F7F894818182238183A3E1B1E019
:100C00001197F1F78081982381E009F080E07894D2
:100C1000E3E6F6E03197F1F7089580E0089585ED79
:100C20008093BC008091BC0084FDFCCF10926402D4
:100C3000089520914002260F3327331F21323105BA
:100C4000ECF420916402FC0190E080E0243069F033
:100C500082E00895A09140022191AC01405E5D4F79
:100C6000A40FB52FB11D2C930196861798F3809190
:100C70004002680F6093400280E0089581E008958B
:100C800008958FEF9FEF08958FEF9FEF0895809164
:100C90001F0290E09195819591090895CF93DF937C
:100CA000CB01EA01642F0E941906CE01DF91CF919A
:100CB0000895CF93DF931F92CDB7DEB7698361E0CC
:100CC000CE0101960E94190681E090E00F90DF911D
:100CD000CF910895CF92DF92EF92FF92CF93DF935F
:100CE000EC01603282E07807CCF5653B710514F0C9
:100CF00064EB70E0898128E830E0281B310987FD2A
:100D00003395220F331F220F331F6901330FEE0873
:100D1000FF088A8128E532E0281B310987FD3395D9
:100D2000220F331F220F331F032E000C440B550BD1
:100D30002C193D094E095F09DB0177FF02C0B0E0C5
:100D4000A0E00E94A82524EB30E040E050E00E94A3
:100D50007E25C20ED31EE41EF51EB601E881EC30DE
:100D600070F5298188E890E0821B910927FD939511
:100D7000880F991F880F991F681779077CF02A81BF
:100D800088E592E0821B910927FD9395880F991FB2
:100D9000880F991F681779070CF4CB010297880F09
:100DA000991F4FB7F8942E2F30E0F901EE0FFF1F77
:100DB000E20FF31FE75AFA4F928381834FBFDF910F
:100DC000CF91FF90EF90DF90CF900895DF92EF9258
:100DD000FF920F931F93CF93DF93EC01D62E7A01EE
:100DE000890188818C3008F067C061E08D2D0E94F8
:100DF00073038881282F30E0F901EE0FFF1FE20F07
:100E0000F31FE75AFA4F9D2D9F736081607C692B19
:100E1000608320E232E02E193F0937FF02C02D5FC8
:100E20003F4F3595279535952795298320E639E05D
:100E3000201B310B37FF02C02D5F3F4F35952795A3
:100E4000359527952A832CE0622F0E943727829FB1
:100E5000B001112430E020E0AB01420F531FFA0132
:100E6000EE0FFF1FE40FF51FE75AFA4F908196FD32
:100E700016C02F5F3F4F2C30310571F781110FC025
:100E80001092800082E08093810010928500109281
:100E90008400B19A80916F00826080936F00E88136
:100EA0008E2F90E0FC01EE0FFF1FE80FF91FE75AAD
:100EB000FA4F8081806480838881DF91CF911F9178
:100EC0000F91FF90EF90DF9008952091AB02309149
:100ED000AC022817390771F490911D0280911C0211
:100EE000981741F0E0911D02F0E0E452FE4F80813E
:100EF00090E008958FEF9FEF0895EF92FF920F9388
:100F00001F93CF93DF93DC015C96ED90FC905D978F
:100F1000E114F10479F481E090E013969C938E93B0
:100F2000129790E080E0DF91CF911F910F91FF9099
:100F3000EF9008955196ED91FC91529750968C91B7
:100F40005097982F90950FB75E962C915E97122F21
:100F5000127021FD6095F8942081112319F1282B3E
:100F60002083E7012197F1F728E0462F50E03081F8
:100F700060FF1AC0382B3083E7012197F1F7BA01DF
:100F800075956795215089F7112381F08081892318
:100F900080830FBF5C968D919C910197F1F781E062
:100FA00090E0C1CF2923DCCF3923E5CF9081892B75
:100FB000EFCF2091AB023091AC022817390771F4C2
:100FC00080911C0220911D0290E0805C9F4F821B4B
:100FD000910960E470E00E944327089590E080E06A
:100FE00008952091AB023091AC0228173907B9F46B
:100FF00090911D0280911C02981789F0E0911D02CA
:10100000F0E0E452FE4F808120911D0230E02F5F1E
:101010003F4F2F73332720931D0290E008958FEFE9
:101020009FEF0895E091AB02F091AC02E817F90749
:1010300069F4A389B4899C918589809589238C93CF
:101040001092AC021092AB0281E0089580E0089506
:10105000CF93DF93EC018A8D9B8D892B01F18091D9
:10106000AB029091AC028C179D07C9F0009711F06C
:101070000E9412088E8D8E7F8E8F10921C0210920D
:101080001D02D093AC02C093AB02EB89FC89808136
:101090009D89892B808381E0DF91CF91089580E045
:1010A000FBCF90E080E00895FC01693081F028F4E6
:1010B000683051F090E080E008956A3059F06B306C
:1010C000C9F781A592A5089583A194A1089585A14A
:1010D00096A1089587A190A5089508954A305105D5
:1010E00059F4E62FF0E0E857FB4F80818F3711F07D
:1010F0008AE0808381E0089580E008955F926F9296
:101100007F928F929F92AF92BF92CF92DF92EF9297
:10111000FF920F931F93CF93DF935C016901DA0174
:101120005C90232B19F4CC24CA94DC2C8A013A015C
:10113000660E771ED0E0C0E0F12CE12C87E0882E0F
:10114000912CF50180819181D8016C910C2E01C008
:10115000660F0A94EAF765296F77DC01ED91FC913F
:101160000190F081E02D0995BFEFEB1AFB0AF80121
:10117000608170E0C4018C1B9D0B02C07595679562
:101180008A95E2F7562E2196C730D10558F1CE1434
:10119000DF0441F1D5018D919C91652D6F77DC01C4
:1011A000ED91FC910190F081E02D0995BFEFEB1AD4
:1011B000FB0A551C5524551C2797E6CFEC14FD045B
:1011C00008F4BFCFDF91CF911F910F91FF90EF9067
:1011D000DF90CF90BF90AF909F908F907F906F9057
:1011E0005F9008950F5F1F4F6016710639F72097C3
:1011F00049F3EC14FD0430F7F5018081918161E041
:1012000070E001C0660FCA95EAF761506521DC0104
:10121000ED91FC910190F081E02DDF91CF911F9134
:101220000F91FF90EF90DF90CF90BF90AF909F9085
:101230008F907F906F905F9009941F93CF93DF936F
:1012400000D0CDB7DEB7182F7A836983809145042B
:10125000909146040097C9F0DC01ED91FC9101905A
:10126000F081E02D1031B8F461157044A0F4612FC5
:10127000606E099522E030E0AE014F5F5F4F62E0A3
:1012800070E085E494E00E947E080F900F90DF915B
:10129000CF911F91089560EF099580914504909139
:1012A0004604DC01ED91FC910190F081E02D6FE6A8
:1012B00009958091450490914604DC01ED91FC91E3
:1012C0000190F081E02D612F099522E030E0AE0120
:1012D0004F5F5F4F62E070E085E494E00E947E081B
:1012E0008091450490914604DC01ED91FC910190C0
:1012F000F081E02D67EF0995C8CFCF92DF92EF9292
:10130000FF920F931F93CF93DF93FC01E058FF4FA1
:10131000E080EE2009F45CC0EC01C05CDF4FA881E6
:10132000B981109709F454C0FC01EF57FF4FC080FA
:10133000D180F60111810081ED91FC91119701900E
:10134000F081E02D60EFCD01099588819981DC0164
:10135000ED91FC910190F081E02D69E7099588817C
:101360009981DC01ED91FC910190F081E02D602FDD
:10137000099588819981DC01ED91FC910190F081C2
:10138000E02D612F0995F12C01E010E00F5F1F4F58
:10139000E016F10659F030E020E0A601400F511FA1
:1013A00061E070E0CE010E947E08F0CF88819981D3
:1013B000DC01ED91FC910190F081E02D67EFDF9170
:1013C000CF911F910F91FF90EF90DF90CF900994F4
:1013D000DF91CF911F910F91FF90EF90DF90CF9011
:1013E0000895009711F00C947D090895CF938730EC
:1013F000B0F421E030E0082E02C0220F331F0A941F
:10140000E2F74091AD025091AE02672B51F4209566
:101410003095242335233093AE022093AD02CF9133
:101420000895242B352B3093AE022093AD0290917A
:10143000DB019111F4CFC82F0E940504BC018C2F51
:10144000CF910C941D095F926F927F928F929F9221
:10145000AF92BF92CF92DF92EF92FF920F931F93C2
:10146000CF93DF93833008F061C0D1E0D80FDD0F58
:10147000DD0FDD0F5D2ED53110F044E1542EC62F67
:10148000082FD8508D2E912CC401880F991F9C01D4
:101490002B5F3B4F5901D12CC12C10E07724739462
:1014A000D515C8F58EEF8D0F8231F8F4F601E80DF1
:1014B000F91DE857FB4F90819230B8F48C2F8721AB
:1014C00066246394811101C0612C7601EE0CFF1C2F
:1014D000913089F4172937E9E30EF11CF501EE0D7F
:1014E000FF1D862D90E091838083770CDF5F8FEF67
:1014F000C81AD80AD5CF882371F3F701E956FF4FF0
:10150000EA0DFB1D80819181019729F362E08D2F07
:101510000E947303E0CF011119C0F8948BB16C2FB6
:1015200068276C7F612368276BB97894DF91CF912E
:101530001F910F91FF90EF90DF90CF90BF90AF90F1
:101540009F908F907F906F905F9008950130D1F4BD
:10155000C123F89495B1812F8F73809589239C2F97
:101560009F73892B85B988B1612F629566956695C1
:10157000637060956823C295C695C695C370C62BE7
:10158000C8B9D3CF1F70F89498B1812F880F880FF6
:1015900080958923C123CC0FCC0FC82BF1CFFF92AC
:1015A0000F931F93CF93DF93843118F5EB01F82E3F
:1015B000082F10E0F801E857FB4F80818330F9F0E5
:1015C0008430B9F48EEF8F0D823160F4F801EC5362
:1015D000FE4F808123E0829FC001112488579A4FDB
:1015E0000E946A06000F111FF801E456FB4FD183D9
:1015F000C083DF91CF911F910F91FF90089583E0F9
:10160000F81641F08BEF8F0D823020F087EF8F0DB1
:10161000833040F761E08F2D0E947303209729F4F7
:1016200060E08F2D0E944503DDCFCF3FD10511F43F
:1016300061E0F7CFF801EE56FF4FE491E33019F186
:1016400040F4E130B1F0E230C9F0C038D10584F7A0
:10165000E7CFE73011F1E83041F1E430B1F78091A4
:101660008000806280938000D0938B00C0938A00BA
:10167000B9CF84B5806884BDC7BDB4CF84B580625E
:1016800084BDC8BDAFCF809180008068809380000A
:10169000D0938900C0938800A5CF8091B000806866
:1016A0008093B000C093B3009DCF8091B000806262
:1016B0008093B000C093B40095CF9EEF980F923105
:1016C00080F4E82FF0E0DF01A857BB4F9C919130E8
:1016D00041F4EE0FFF1FE456FB4F608371830C94BF
:1016E00045030895FF920F931F93CF93DF9300D08C
:1016F000CDB7DEB7082F10E0F801EF55FD4F908110
:10170000F62EF92208521E4F411104C0F8019081B3
:101710009F1511F12F2D30E03A832983A0914504C4
:10172000B09146041097B1F0682F6F706069ED9129
:10173000FC9111970190F081E02DCD01099522E0F7
:1017400030E0AE014F5F5F4F62E070E085E494E00F
:101750000E947E08F801F0820F900F90DF91CF91E8
:101760001F910F91FF900895833040F5282F30E0AE
:10177000F901EC55FD4F6083672B01F12F553D4F6B
:10178000F9016081811106C099B19C7F692341E014
:101790000C94720B813049F493B126B19F73F0E43D
:1017A0002F9F90011124922BF1CF26B130E0359577
:1017B0002795359527952F706223E9CF0895A82F97
:1017C000B0E0AC53BE4F9C91292F30E0F901EE0FF1
:1017D000FF1FE20FF31FE857FA4FE0812E2F30E092
:1017E000F901EE0FFF1FE20FF31FE75AFA4F808156
:1017F0008F7B80838091C201981308C0992319F0D0
:1018000091509093C2018FEF8C9308958823D9F360
:10181000E091C301EF5FE093C301F0E0EB54FE4FB2
:101820009083F1CF1F93CF93DF93EC0118E0612FEA
:10183000CE010E945408009711F00E940D281F5FEE
:101840001C30A9F78FEF8AA3FE013A96A296119257
:101850001192CE17DF07D9F7DF91CF911F9108952D
:10186000EF92FF920F931F93CF93DF93FC010190B0
:101870000020E9F731977F01E81AF90AA0914504A1
:10188000B09146041097D1F18C01ED91FC91119724
:101890000190F081E02D60EFCD0109958091450424
:1018A00090914604DC01ED91FC910190F081E02DD6
:1018B00061E70995D0E0C0E0EC16FD0669F0A801EB
:1018C0004C0F5D1F30E020E061E070E085E494E0C3
:1018D0000E947E082196F0CF8091450490914604A5
:1018E000DC01ED91FC910190F081E02D67EFDF913B
:1018F000CF911F910F91FF90EF900994DF91CF91BD
:101900001F910F91FF90EF900895CF93DF93DB012C
:101910009091C2019C3078F53091C301682F70E03E
:10192000FB01EC53FE4F3323E1F0C32FD0E0CB5447
:10193000DE4F8881808331503093C301808123E062
:10194000829FC001112488579A4F1A161B0674F4FF
:10195000141615065CF49A01AD01DF91CF910C9439
:10196000E60690839F5F9093C201E8CF20E639E0BE
:1019700040E252E0F2CF89E391E0DF91CF910C9405
:10198000300CFC0101900020E9F73197AF01481BB2
:10199000590BBC0188E693E00C94E1018F929F9271
:1019A000AF92BF920F931F93CF93DF93CDB7DEB764
:1019B000A1970FB6F894DEBF0FBECDBF19A242307B
:1019C00008F44AE08E010F5D1F4F842E912CB12C3C
:1019D000A12CA50194010E94E725E62FB901CA01B7
:1019E000EA30F4F4E05DD801EE938D01232B242B33
:1019F000252B79F790E080E0109719F0CD010E9437
:101A0000C10CA1960FB6F894DEBF0FBECDBFDF911B
:101A1000CF911F910F91BF90AF909F908F9008959D
:101A2000E95CE1CF0C94C10CCF92DF92EF92FF9270
:101A3000CF93DF936C01990FEE08FF08F7FE19C0F2
:101A40006DE288E693E00E948102EC016627772729
:101A5000CB016C197D098E099F094AE00E94CE0CCA
:101A60008C0F9D1FDF91CF91FF90EF90DF90CF9073
:101A700008954AE0C701B601DF91CF91FF90EF9042
:101A8000DF90CF900C94CE0C682F70E090E080E057
:101A90004AE00C94CE0C9F92AF92BF92CF92DF920D
:101AA000EF92FF920F931F93CF93DF93C82ED12C09
:101AB000E601CB5FDB4FFE01ED57FF4F90819F3773
:101AC00009F491C07B01182F0EEF080F023108F5C1
:101AD00064307105F1F0F601EC53FE4F80818C30DB
:101AE000C0F490E0FC01EE0FFF1FE80FF91FE8576C
:101AF000FA4FE0818E2F90E0FC01EE0FFF1FE80F00
:101B0000F91FE75AFA4F808186FF03C08C2D0E948F
:101B1000DF0B52EF952E910E85E0891558F061E0AC
:101B200070E032E0E316F10411F070E060E0892D1E
:101B30000E94F6090231C8F4E12FE695E695E69594
:101B4000F0E0EF55FD4F2081312F377081E090E0BC
:101B500001C0880F3A95EAF7E114F10421F03BE067
:101B6000E316F10401F5822B80835601AA0CBB1CFD
:101B7000F501E456FB4F118210828CE0E816F10467
:101B800008F0C7C0F701E953F24F0C945727E70D4F
:101B9000140ED60D2B0E4A0E890E890E890E890E53
:101BA000890E810EFF0D80958223DECF35E0391539
:101BB000D0F0023120F460E0812F0E947303CD57F2
:101BC000DF4F88818F3779F082E088830CC0023143
:101BD00050F460E0812F0E947303CD57DF4F88815E
:101BE0008F3709F01882DF91CF911F910F91FF90ED
:101BF000EF90DF90CF90BF90AF909F90089502310B
:101C000090F762E0812F0E947303CD57DF4F8881E8
:101C10008F3711F08BE08883F501E456FB4F81E0AC
:101C200090E091838083DFCF0231E8F6FE01ED572B
:101C3000FF4F8081833021F460E0812F0E944503B3
:101C400061E0812F0E947303CD57DF4F88818F376A
:101C500051F281E0BACF133049F08BEF810F82301F
:101C600028F087EF810F833008F0BDCF61E0812F2E
:101C70000E94730361E0812F0E94730360E0812F53
:101C80000E944503CD57DF4F88818F3709F4ABCFD2
:101C900083E09BCF023108F0A6CFCD57DF4F88817C
:101CA0008F3711F084E08883F601EC53FE4F80817A
:101CB0008F3FA9F090E0FC01EE0FFF1FE80FF91F26
:101CC000E857FA4FE0818E2F90E0FC01EE0FFF1FE6
:101CD000E80FF91FE75AFA4F808186FD84CF4FEF56
:101CE0005FEF6FEF7FEF812FDF91CF911F910F910A
:101CF000FF90EF90DF90CF90BF90AF909F900C94AB
:101D0000850CCD57DF4F88818F3709F46CCF8AE07F
:101D10005CCF8DE491E0DF91CF911F910F91FF9007
:101D2000EF90DF90CF90BF90AF909F900C94300CCD
:101D30000F931F93CF93DF9381E08093DB018CEAB5
:101D400095E00E94120C1092A4021092A10210922F
:101D5000D8011092A5021092A2021092D9011092FD
:101D6000A6021092A3021092DA0104EC11E0C0E086
:101D7000DFEF82EF8C0F62E070E0863030F08EEFA4
:101D80008C0F823128F470E060E08C2F0E944B0DA4
:101D9000F801D1938F01CF5FC43159F71092AE0291
:101DA0001092AD021092C3011092C2011092DB0199
:101DB000DF91CF911F910F9108958F929F92AF92D3
:101DC000BF92DF92EF92FF920F931F93CF93DF9317
:101DD000EC01D901603609F028C18C91182F1F70D1
:101DE000807F803309F492C17901042F813338F464
:101DF0008031A1F1803209F46BC181E017C18036D6
:101E000009F4E2C1803709F4EEC18035B1F7612FE2
:101E1000CE010E945408EC01009779F3183008F0C5
:101E2000CDC1E881F9810680F781E02D0995EA8925
:101E3000FB8980818F7E8083EA89FB898081877F0F
:101E40008083EA89FB8980818F778083EA89FB8997
:101E500080818F7D80838A8D898FCFCFD901129623
:101E60008C901297912CB12CA12CE7E0880C991C36
:101E7000AA1CBB1CEA95D1F713968C9190E0B0E0B8
:101E8000A0E0FEE0880F991FAA1FBB1FFA95D1F7AB
:101E900088299929AA29BB29F90121814C015D01D1
:101EA000822A183060F4612FCE010E9454080097F6
:101EB00009F4A3CFB501A4010E9450019ECF453083
:101EC00008F4AFC00481D580193009F4CCC008F003
:101ED00091C0183009F4B6C0612FCE010E94540899
:101EE000EC01892B09F489CFE02FF0E0E857FB4F94
:101EF00080818F3711F08AE08083ED2DF0E0E85784
:101F0000FB4F80818F3711F08AE080831B8E1A8E01
:101F1000198E188E1F8A1E8A60E079E08DE390E0AA
:101F2000A50194010E947E25F901C901039724307F
:101F3000310510F481E090E09D8F8C8F6C856631C7
:101F400008F054C0C901969587958431910508F42D
:101F5000ACC043979F8B8E8BC9010597369710F4C1
:101F600081E090E0998F888FC901880F991F280F11
:101F7000391F36952795369527952D30310508F46C
:101F800097C02C5031093B8F2A8F9091680084E0D4
:101F9000683048F021E06E3008F420E081E001C0B4
:101FA000880F2A95EAF7892B809368009C852DE697
:101FB00030E0983050F02BE630E09E3030F02CE6E8
:101FC00030E0963110F030E020E03C8B2B8B292F55
:101FD00030E0983008F06FC081E001C0880F9A951A
:101FE000EAF78D8B8C8D9D8D0197F1F7CE010E94C4
:101FF000280803CF1A3009F447C01B3009F06CCF12
:1020000089A59AA5892B09F067CF8FE190E00E94FE
:1020100071277C014D2D602F0E94361EFAA6E9A67D
:102020005BCF8EE591E00E94300C80E0DF91CF9194
:102030001F910F91FF90EF90DF90BF90AF909F9016
:102040008F9008958BA19CA1892B09F045CF8FE13A
:1020500090E00E9471277C014D2D602F0E94361E5A
:10206000FCA2EBA239CF8DA19EA1892B09F034CF20
:102070008FE190E00E9471277C014D2D602F0E941E
:10208000361EFEA2EDA228CF8FA198A5892B09F0BC
:1020900023CF8FE190E00E9471277C014D2D602FAE
:1020A0000E94361EF8A6EFA217CF81E090E052CF33
:1020B00021E030E068CF9E3040F42850310981E0C3
:1020C00001C0880F2A95EAF78CCF2E503109F7CF3F
:1020D000612FCE010E9454085C01892B09F48DCE3A
:1020E000E70111E0101708F088CE6A81679566272E
:1020F00067958981680FD501ED91FC910190F08180
:10210000E02DC50109951E5F2296ECCF11968C91AA
:102110001197811126C03AA137300CF06ECE812F75
:1021200090E00596880F991FFE01E80FF91F4330D4
:10213000A8F013968C91139720E8829FC001112478
:1021400012962C91822B9183808381E0830F8AA346
:10215000C80FD11D87FDDA951A834FCE11821082E8
:10216000F4CF813009F049CE9AA119161CF08FEFF7
:102170008AA343CE80E0492F092E000C550B282F4F
:1021800030E04217530774F480E0E82FF0E04E1778
:102190005F078CF0883020F4EC0FFD1F2381228331
:1021A0008F5FF3CF2C0F3D1FD90112962C91121780
:1021B00061F38F5FE4CF91509AA31FCE0E94120863
:1021C000CE010E940D2819CE612FCE010E94540825
:1021D000009709F412CEDC01ED91FC910680F781A5
:1021E000E02D09950ACE183008F407CE612FCE01F4
:1021F0000E945408009709F0FACEFFCDEF92FF92AB
:102200000F931F93CF93DF93EC017B018A018881A9
:102210009981009729F02A813B812417350788F49A
:10222000B8016F5F7F4F0E949628009791F09983C5
:1022300088831B830A832C813D81232B11F4FC01AD
:1022400010821D830C83B701888199810E946329C4
:102250000CC088819981009711F00E940D28198285
:1022600018821D821C821B821A82CE01DF91CF91BF
:102270001F910F91FF90EF900895AF92BF92CF9270
:10228000DF92EF92FF920F931F93CF93DF93EC01B6
:102290007B01DB0114960D911C91F80131972FEF12
:1022A0003FEFD12CC12C90E080E050E040E0E817F7
:1022B000F90734F1423051053CF5BC016F5F7F4FA7
:1022C0005B018017910760F4D7016D917C916115D6
:1022D000710531F0680F791FDB016C916A3319F0D9
:1022E000E817F90759F44F5F5F4F6901BFEFCB1A49
:1022F000DB0A9501E817F90709F09C01C501D7CF62
:10230000423051050CF455C059012C153D0510F013
:1023100056016901198218821B821A821D821C8251
:1023200050E040E06AE971E0CE010E94FE10F70142
:1023300004811581A016B10618F5C016D10608F45F
:102340008601D7016D917C91FB01E00FF11FD080D8
:1023500010826A0D7B1D61157105F1F0FB01019082
:102360000020E9F73197AF01461B570BCE010E94C1
:10237000FE10F70180819181080F191FD801DC92AE
:10238000CE01DF91CF911F910F91FF90EF90DF90E1
:10239000CF90BF90AF90089588819981009711F0F8
:1023A0000E940D28198218821D821C821B821A82AB
:1023B000E0CF198218821B821A821D821C8250E093
:1023C00040E06AE971E0CE010E94FE10D9CF0F9380
:1023D0001F93CF93DF93CDB7DEB72C970FB6F8944A
:1023E000DEBF0FBECDBF8C010E94300C1A82198255
:1023F0001C821B821E821D820115110569F0F801E5
:1024000001900020E9F73197AF01401B510BB80153
:10241000CE0101960E94FE10BE016F5F7F4FCE017C
:1024200007960E943D1189819A810E940D288F8113
:1024300098850E940D282C960FB6F894DEBF0FBE2B
:10244000CDBFDF91CF911F910F9108952F923F92B1
:102450004F925F926F927F928F929F92AF92BF92B4
:10246000CF92DF92EF92FF920F931F93CF93DF9360
:10247000CDB7DEB7EE970FB6F894DEBF0FBECDBF77
:10248000182F862F7A01183109F486C4C0F511314E
:1024900009F421C480F4193009F4C0C1103109F4E1
:1024A00090C3183099F4DA0111966C9111978C91C0
:1024B0000E94AF030BC0133109F43DC708F434C6C2
:1024C000163109F458C4173109F47FC4EE960FB6DB
:1024D000F894DEBF0FBECDBFDF91CF911F910F915A
:1024E000FF90EF90DF90CF90BF90AF909F908F9034
:1024F0007F906F905F904F903F902F9008951B3684
:1025000009F43BC108F060C0113209F46FC408F04F
:1025100044C01931D9F680EF90E00E94CE0281E7E5
:1025200090E00E94CE0284EA91E00E94120DD70151
:102530001C9160E0812F0E947303812F0E941C0375
:102540000197B9F72FB7F8948091A7029091A8024C
:10255000A091A902B091AA022FBF9A83898360E05B
:10256000812F0E947303812F0E941C030197B9F7EA
:102570002FB7F8948091A7029091A802A091A90288
:10258000B091AA022FBF29813A81821B930B6CE381
:1025900070E00E944327CB010FC4103609F436C106
:1025A000193609F093CF80EF0E94F4008AE60E946A
:1025B000F40012EF8FE7163008F4812F0E94F40028
:1025C0001F5F1630B9F71EC11F3609F4B3C008F0FB
:1025D00048C01D3609F07ACF662309F477CFFA0197
:1025E000008180EF0E94F4008EE60E94F400802FAC
:1025F0000E94F400043108F005C110E0F801E8572A
:10260000FB4F80810E94F400000F111FA801445667
:102610005B4F7A01DA018C918F770E94F400F70109
:10262000808191819C012078232B39F0880F892F9C
:10263000881F990B8F770E94F400F801E456FB4F36
:10264000808191819C012227307C232B09F4DAC000
:10265000990F880B990F982F881F8F770E94F4008D
:10266000D1C01037D9F01A3709F030CF623008F4F2
:102670002DCFDA0111968C91B0E88B9F9001112437
:10268000FA018081820F932F911D833191050CF403
:102690004EC0909301018093000118CF653008F47B
:1026A00015CFDA011C918EEF810F823108F00ECF29
:1026B00011960C9111971296CC9012971396DC906C
:1026C00013971496FC90E12FF0E0EC53FE4F8081BD
:1026D0008C30C0F490E0FC01EE0FFF1FE80FF91FF3
:1026E000E857FA4FE0818E2F90E0FC01EE0FFF1FBC
:1026F000E80FF91FE75AFA4F808186FF03C0812F48
:102700000E94DF0BB0E8FB9EA00111244D0D511D6E
:10271000E0E8CE9EB0011124600F711D812F0E9450
:10272000850C64E070E0812F0E944B0DCFCE83E1D9
:1027300090E0AFCF623008F4C9CEDA0111966C9107
:10274000119770E08230A1F012962C91B0E82B9F87
:1027500090011124622B732B833051F0FA01838195
:1027600090E090E4899F902D88271124682B792B85
:10277000D7018C910E94CF0AA9CE80EF0E94F4006D
:102780008CE60E94F4001EEF84EF810F863020F566
:1027900082E00E94F4008AE00E94F4008DEF810F35
:1027A0008230E0F089EF810F8330F0F417C01231EE
:1027B00058F780E00E94F40081E00E94F4008BE072
:1027C0000E94F40081E00E94F40081E00E94F40085
:1027D00081E00E94F400D8CF113001F783E00E941D
:1027E000F40088E00E94F400123130F484E00E948A
:1027F000F4008EE00E94F4008FE70E94F4001F5F57
:102800001231A9F687EF0E94F40060CE9A01462F9C
:1028100060E68CEA95E00E94DD0E58CE80EF90E0F5
:102820000E94CE0281E790E00E94CE028CE791E008
:102830000E94120DF701108160E0812F0E94730346
:10284000812F90E0FC01E055FF4FE491E983FC010A
:10285000E253FF4FE491F0E0EE0FFF1FEA55FF4F08
:10286000859194919B838A831C861E861D861B8678
:102870001A86198618861F821E821D821C82CE012E
:1028800001960E94D70540E06CECCE0101960E94B3
:10289000A30540E064E4CE0101960E94A3058FB732
:1028A000F8948090A7029090A802A090A902B090FE
:1028B000AA028FBFCE0101960E9450058130A1F07F
:1028C0002FB7F8948091A7029091A802A091A90235
:1028D000B091AA022FBF8E559109A109B10988159F
:1028E0009905AA05BB0530F31C861E861D861B862E
:1028F0001A86198618861F821E821D821C82CE01AE
:1029000001960E94D705882309F488C040E060EF53
:10291000CE0101960E94A305DD24D394C12CB12CD5
:1029200001E0CE0101960E945005182FCE010196BC
:102930000E945005113009F090C0813009F0B0C0FC
:10294000013408F46BC0BC86B11002C081E08E87F0
:102950008C81882309F462C0FE0134968E010F5DDC
:102960001F4FCE01899668012191D6012D936D01EB
:10297000A817B907C9F767E0C8010E94390598A5EB
:1029800089134CC0CE0101960E94D705882309F413
:1029900045C040E065E5CE0101960E94A305F8011F
:1029A00061918F0140E0CE0101960E94A305C016FF
:1029B000D106A9F740E06EEBCE0101960E94A30577
:1029C0008E010B5E1F4F4E01FEE18F0E911C6801C0
:1029D000280148E0642E712CB12CAA24A394CE01C6
:1029E00001960E9450058111BA28AA0C41E0641A90
:1029F0007108A9F7D601BD926D01A815B90549F76F
:102A0000CE0101960E94D705813041F4F8018191F1
:102A10008F01811106C5CE16DF06C1F7812C912CDE
:102A2000540124013501E89477F82FEF3FEF4FE789
:102A30005FE7C301B2010E94322781114BC02FEF23
:102A40003FEF4FE75FE7C301B2010E945A24181617
:102A50000CF040C085E891E049C5EC2DF0E018137A
:102A600011C08C850817D0F4A4E0B0E0AC0FBD1FF6
:102A7000AE0FBF1F8C918D2199F410E0093008F43E
:102A80000D87B02E44E050E04C0F5D1FE40FF51FA2
:102A900080819D2D9095892380830CC08013EDCF7C
:102AA000E4E0F0E0EC0FFD1FEC0DF11D80818D29BD
:102AB000808311E0612FCE0101960E9474050F5FA3
:102AC000DD0C19F4C394DD24D39457E05C1508F0B1
:102AD00028CF36CF2FEF3FEF4FE75FE4C501B401BA
:102AE0000E942D2718161CF489E891E0FFC42FEFEF
:102AF0003FEF4FE75FECC501B4010E945A2487FD08
:102B0000F3CF20E030E0A901C501B4010E945A24AE
:102B100087FF09C06DE288E693E00E948102B7FA60
:102B2000B094B7F8B0942AE037ED43EA5BE3C5010F
:102B3000B4010E9419262B013C010E94FE264B0184
:102B40005C010E945F249B01AC01C301B2010E94A1
:102B500018262B013C014AE0C501B4010E94CE0CAD
:102B60006EE288E693E00E94810220E030E040E2DD
:102B700051E4C301B2010E94C0242B013C010E9418
:102B8000FE264B01B12CA12C4AE0C501B4010E94E4
:102B9000CE0CC501B4010E945F249B01AC01C301AE
:102BA000B2010E94182620E030E040E251E40E9489
:102BB000C0240E94FE2690E080E04AE00E94CE0CF5
:102BC00097C480EF90E00E94CE0281E790E00E94DF
:102BD000CE028DE891E00E94120DF701808190E015
:102BE00081309105C1F08230910509F46BC08330CA
:102BF000910509F46AC08430910509F468C01CE0AD
:102C000002E08530910549F011E001E0069729F4D2
:102C10001DE008E002C01EE003E061E0802F0E949A
:102C2000730360E0802F0E94450383E090E00197EA
:102C3000F1F761E0802F0E94450383E290E0019765
:102C4000F1F760E0802F0E94450360E0812F0E9431
:102C50007303812F90E0FC01E055FF4F6491FC016C
:102C6000E253FF4FE491F0E0EE0FFF1FEA55FF4FF4
:102C70008591949100E412E42FE030E0462F0E9409
:102C8000F11D4B015C0181149104A104B10439F0E0
:102C9000FFEF8F1A9F0AAF0ABF0A4FE0B4226EE11E
:102CA00070E080E090E00E943F04C501B4012AE397
:102CB00030E040E050E00E94E725B901330F880B77
:102CC000990B7BCF1FE009E0A8CF0AE0A6CF60E018
:102CD00070E0CB0172CFFA018380C280D12C0181D8
:102CE00010E0608170E08091E9059091EA05A09183
:102CF000EB0589839A83AB8320E639E040E252E01A
:102D0000CE0101960E94E6060C151D0594F4912C47
:102D1000B12CA12CC016D10604F1B801CE01019648
:102D20000E946A06C501B4010E943F040F5F1F4F55
:102D3000F1CFC016D1068CF4912CB12CA12CB80186
:102D4000CE0101960E946A06C501B4010E943F04AB
:102D5000015011090C151D0594F7E9818E2F90E0A3
:102D6000FC01EE0FFF1FE80FF91FE75AFA4F8081B1
:102D70008F7B8083ABCB80EF90E00E94CE0281E717
:102D800090E00E94CE0281E991E00E94120D87EF4F
:102D900090E00E94CE029ACB80EF90E00E94CE029B
:102DA00081E790E00E94CE028BE991E00E94120D33
:102DB000D7018C910E941C030E94140D82EA91E0BD
:102DC0000E94120DF701808199C380EF90E00E946C
:102DD000CE0281E790E00E94CE028FE991E00E944E
:102DE000120DD7018C910E940504E6CF80EF90E090
:102DF0000E94CE0281E790E00E94CE0289EA91E033
:102E00000E94120DD70113965C901397E52DF0E008
:102E1000FAAFE9AF12968C91129790E011962C912F
:102E2000119730E04C9150E019A21AA21BA21CA2EB
:102E30001DA21EA21FA218A619A61AA61BA61CA692
:102E40001D8A1E8A1F8A188E198E1A8E1B8E1C8E42
:102E50001D8E1E8E1F8E18A219821A821B821C8242
:102E60001D821E821F82188619861A861B861C8662
:102E70005EA74DA738AB2FA79AAB89AB68E873E183
:102E800080E090E00E943F041E01FDE22F0E311C05
:102E9000AE014B5E5F4F5EAB4DAB3E0153E3650E43
:102EA000711CADA8BEA88101A5E08A2E912CD80185
:102EB0004C900E5F1F4F61E0842D0E94450364E635
:102EC00070E080E090E00E943F04F5E0CF2ED12C2E
:102ED000F12CE12C852D0E940504E80EF91E6AE014
:102EE00070E080E090E00E943F04B1E0CB1AD1088E
:102EF00089F7C701B4010E944327072E000C880BF5
:102F0000990B0E946124F5016193719381939193D0
:102F10005F0160E0842D0E94450364E670E080E07C
:102F200090E00E943F046016710609F0C0CF68E887
:102F300073E180E090E00E943F04AE014F5F5F4F7D
:102F40005CAB4BAB6A013101E5E0AE2EB12CD30195
:102F50004C90B2E06B0E711C61E0842D0E94450321
:102F600064E670E080E090E00E943F0475E0872E08
:102F7000912CF12CE12C852D0E940504E80EF91E00
:102F80006AE070E080E090E00E943F04E1E08E1A89
:102F9000910889F7C701B5010E944327072E000C4D
:102FA000880B990B0E946124D6016D937D938D93BC
:102FB0009D936D0160E0842D0E94450364E670E0FE
:102FC00080E090E00E943F046016710609F0BFCFD8
:102FD00068E873E180E090E00E943F04FE01B19652
:102FE000F8AFEFABD1014C90B2E02B0E311C61E099
:102FF000842D0E94450364E670E080E090E00E942A
:103000003F0465E0C62ED12C10E000E0852D0E9423
:103010000504080F191F6AE070E080E090E00E944C
:103020003F04E1E0CE1AD10889F7EDA9FEA981910C
:103030009191A191B191FEABEDAB8BAF9CAFADAFD8
:10304000BEAFABA9BCA98D909D90AD90BD90BCAB1F
:10305000ABABC80165E070E00E944327072E000C6F
:10306000880B990B0E946124A50194010E941826E7
:103070006B017C01A50194016BAD7CAD8DAD9EAD66
:103080000E9418269B01AC01C701B6010E9485264B
:1030900020E030E04FE753E40E94C024EFA9F8ADF0
:1030A0006193719381939193F8AFEFAB60E0842DBE
:1030B0000E94450364E670E080E090E00E943F04D7
:1030C0006214730409F08ECF8EEA91E00E94120D13
:1030D00069A17AA18BA19CA10E94F726CB010E9435
:1030E000140D8DE991E00E94120D6DA17EA18FA1BA
:1030F00098A50E94F726CB010E94140D80EB91E069
:103100000E94120D69A57AA58BA59CA50E94F726A1
:10311000CB010E94140D82EA91E00E94120D89AD4C
:103120009AAD0E94140D33CEDA011196CC9011970E
:10313000D12C8C91813001F108F4BBC0823009F4AC
:10314000F2C0833009F0C2C98601000F111F0C0DB7
:103150001D1D09521A4FD801ED91FC9144815581F2
:1031600070E060E0818592850E945C29F801808191
:1031700091810E947204AAC9FA019280638056016B
:10318000AA0CBB1CF501EC0DFD1DE952FA4F0081A4
:1031900011810115110589F0D80119968D919C9125
:1031A0000E940D28F8018681978197FD03C060E099
:1031B0000E947303C8010E940D2886E190E00E94DE
:1031C00071278C01E62CF12CDC0111961C921197D1
:1031D00018961C921897FC011786108A118A128A79
:1031E00081E086878387148692E095878083F3E069
:1031F0006F9E3001112415967C926E921497C30134
:103200000E947127F80192878187009709F44CC0CA
:10321000A30170E060E00E945C29D8011396FC9243
:10322000EE921297E92CF12CD8011796FC92EE92AF
:10323000169711968C91882341F061E0892D0E94A8
:10324000730360E0892D0E944503F701E253FF4FAD
:10325000E491F0E0EE0FFF1FEC53FF4F8591949146
:10326000F801948B838BF701E055FF4FE491D8016F
:103270005596EC935597F501EC0DFD1DE952FA4F6B
:103280001183008316968D919C9197FD08C061E093
:103290000E94730360E0F80186810E94450381E08B
:1032A000D80111968C9312C915821482138212824E
:1032B000B9CF7601EE0CFF1C87010C0D1D1D0952C4
:1032C0001A4FD801ED91FC91309709F4FFC8448161
:1032D000558170E060E0818592850E945C29F8014B
:1032E000808191810E947204D8010D911C91011579
:1032F000110589F0F801818592850E940D28D80179
:1033000016968D919C9197FD03C060E00E94730317
:10331000C8010E940D28F701EC0DFD1DE952FA4F7E
:1033200011821082D3C8F601EE0FFF1FEC0DFD1DB8
:10333000E952FA4F1CCFDA014C9150E012961C91E1
:1033400012979A01220F331FF901E40FF51FE9527A
:10335000FA4F0190F081E02D612F70E0828193811E
:103360006817790708F04EC013960C9113971496BE
:103370008C9190E0B0E0A0E0BA2FA92F982F882779
:103380004C015D01A02AD70115960C91D501C4010D
:10339000802B4D01AA24BB24492E5A2E6B2E772454
:1033A000F42CE82E0085002391F0C02ED12CC89C6F
:1033B0007001C99CF00CD89CF00C11248F2C049D3A
:1033C00020011124F52C089FC0011124E92EA685A7
:1033D00081859285B385AB1319C0BC01B3E01B9FF7
:1033E000600D711D1124A385A60FB72FB11D8C92FE
:1033F000A485A60FB72FB11DFC928585680F711D9E
:10340000FB01E082240F351FF90192CF660F771F71
:10341000660F771F680F791FA60FB72FB11D1C927B
:10342000E2CF68E0C2010E9439059D8D8913F6CA7A
:103430006E8970E0762F6627770F770F770F2D89CB
:10344000F8E02F9F90011124262B372B89A1803182
:10345000D1F46C8D70E08B8DAB01481B5109CA0112
:103460009695982F8827979587950E944327CB019B
:103470008097B90123E0660F771F2A95E1F76078FE
:103480009C01260F371F213854EE35070CF4C6CAAD
:10349000B901330F880B990B0E94612420E030E0C2
:1034A00040E05CE30E94C0246B018C014B015C0195
:1034B00020E030E04CE552EC0E945A2487FDAECA71
:1034C00020E030E040E253E4B601C8010E942D271D
:1034D00018160CF4A3CA9601A801B601C8010E94EF
:1034E0003227882309F49DCA81E891E00E94C10C2B
:1034F00082EA91E00E94120DD7018C910E94440D46
:1035000046CC1F920F920FB60F9211242F933F9328
:103510004F935F936F937F938F939F93AF93BF93DB
:10352000EF93FF9388E693E00E945F02FF91EF9193
:10353000BF91AF919F918F917F916F915F914F91CB
:103540003F912F910F900FBE0F901F9018951F92D3
:103550000F920FB60F9211242F938F939F93EF9397
:10356000FF93E0917803F09179038081E0917E03ED
:10357000F0917F0382FD1BC09081809181038F5F5A
:103580008F7320918203821741F0E0918103F0E074
:10359000E859FC4F958F80938103FF91EF919F91A4
:1035A0008F912F910F900FBE0F901F9018958081D3
:1035B000F4CF1F920F920FB60F9211242F933F93C7
:1035C0008F939F93AF93BF938091A7029091A8028E
:1035D000A091A902B091AA0230918A0223E0230FA0
:1035E0002D3758F50196A11DB11D20938A028093B5
:1035F000A7029093A802A093A902B093AA02809177
:103600008B0290918C02A0918D02B0918E02019656
:10361000A11DB11D80938B0290938C02A0938D020B
:10362000B0938E02BF91AF919F918F913F912F9157
:103630000F900FBE0F901F90189526E8230F02964B
:10364000A11DB11DD2CF1F920F920FB60F92112460
:103650002F933F934F936F937F938F939F93AF934A
:10366000BF93EF93FF93809102018F5F80930201DC
:10367000811138C0E4EBF2E047818581411103C03C
:1036800090859923E9F090E03681232F30E0BC014A
:10369000621B730B161617064CF4442389F0240F93
:1036A000311D2817390764F4C9010AC0672B41F09E
:1036B0004085442329F0241B310982179307A4F382
:1036C00086838681882349F09181A281B381848198
:1036D000911131C09C91892B8C93399683E0E83607
:1036E000F80751F6E4EBF2E0808187FD0FC080918E
:1036F0000201968198130AC0A281B38184819181CD
:1037000091111DC09C91809589238C93399683E0FB
:10371000E836F80749F7FF91EF91BF91AF919F917C
:103720008F917F916F914F913F912F910F900FBE8D
:103730000F901F9018959C9180958923CDCF9C91D7
:10374000892BE3CF1F920F920FB60F9211242F9364
:103750003F934F935F936F937F938F939F93AF9319
:10376000BF93EF93FF938091B900887F803609F46F
:103770004AC0F0F5883209F4A5C018F5803109F483
:1037800099C0B8F4882309F4F5C0883009F492C0D0
:10379000FF91EF91BF91AF919F918F917F916F9129
:1037A0005F914F913F912F910F900FBE0F901F90FF
:1037B0001895883109F486C0803251F780936302EE
:1037C00014C0803409F49BC040F48033B9F38833CB
:1037D000F9F68093630285ECAEC0803509F483C0AE
:1037E000883509F494C0883499F60E940F06D0CF2A
:1037F000883909F48AC038F5883729F050F48836BA
:1038000011F0803729F683E08093640210926202FF
:1038100055C0883809F479C0803919F0803809F02A
:10382000B7CF80916202803208F06FC0E0916202EF
:1038300081E08E0F809362028091BB00F0E0EE5B2E
:10384000FD4F80833BC0803B39F0D0F4803A09F4CF
:1038500077C0883A09F09CCF84E08093640210928C
:10386000410210924002F0E0E0E0099580914002B0
:1038700081110FC081E0809340021092200209C0A4
:10388000803C09F4A8CF883C09F4A5CF883B09F017
:103890007FCFE091410281E08E0F80934102F0E002
:1038A000E05EFD4F80818093BB009091410280914A
:1038B000400229C0809189028093BB0085EC8093EF
:1038C000BC0066CF9091880280918702981758F5C6
:1038D000E091880281E08E0F80938802F0E0E95940
:1038E000FD4F8081E9CFE091880281E08E0F8093C7
:1038F00088028091BB00F0E0E959FD4F80839091F0
:103900008802809187029817C8F285E8D8CFE091A5
:10391000880281E08E0F809388028091BB00F0E0E6
:10392000E959FD4F80838091660281115ECF81E06D
:103930008093650284EA8093BC001092640228CFD1
:1039400085EC8093BC001092640280916202803208
:1039500030F4E0916202F0E0EE5BFD4F1082609186
:10396000620270E082E492E0F0E0E0E009951092FB
:1039700062020ECF1092630238CF1F920F920FB6E1
:103980000F9211242F933F934F935F936F937F93E5
:103990008F939F93AF93BF93CF93DF93EF93FF9357
:1039A00080911E02C0917D05D0E087FF24C0109257
:1039B00085001092840080911E028F5F80931E020A
:1039C00080911E02082E000C990B8C179D0724F481
:1039D00080911E028C30C4F180918400909185000A
:1039E000049680349C4908F47AC0809184009091B8
:1039F0008500049676C080911E02082E000C990B5B
:103A00008C179D07C4F6E0911E028E2FEE0F990BC6
:103A1000FC01EE0FFF1FE80FF91FE75AFA4F8081F4
:103A200086FFC9CFE0911E028E2FEE0F990BFC018D
:103A3000EE0FFF1FE80FF91FE75AFA4F808160E091
:103A40008F730E944503B7CF209184003091850089
:103A5000E0911E028E2FEE0F990BFC01EE0FFF1F5F
:103A6000E80FF91FE75AFA4F81819281820F931F65
:103A70009093890080938800E0911E028E2FEE0FB4
:103A8000990BFC01EE0FFF1FE80FF91FE75AFA4FE1
:103A9000808186FF11C0E0911E028E2FEE0F990BE0
:103AA000FC01EE0FFF1FE80FF91FE75AFA4F808164
:103AB00061E08F730E944503FF91EF91DF91CF91F9
:103AC000BF91AF919F918F917F916F915F914F9136
:103AD0003F912F910F900FBE0F901F90189580E48B
:103AE0009CE990938900809388008FEF80931E0259
:103AF000E3CF1F920F920FB60F9211242F933F9393
:103B00004F935F936F937F938F939F93AF93BF93E5
:103B1000EF93FF93E091AB02F091AC02309749F044
:103B2000A685B7858585968D91FF14C09C918923C4
:103B3000A1F4FF91EF91BF91AF919F918F917F91F0
:103B40006F915F914F913F912F910F900FBE0F900A
:103B50001F9018959C91892361F7A389B4899C9142
:103B60008589809589238C93868997890197F1F7B8
:103B7000608D718DA685B785558538E020E0CB0135
:103B80000197F1F7822F90E095958795282F4C911A
:103B9000452309F02068315091F7868D81FD2095ED
:103BA00080911C0290E001968F73992730911D023D
:103BB000381799F0A0911C02B0E0A452BE4F2C938C
:103BC00080931C02828D938D0197F1F7A389B489AC
:103BD0008C919589892B8C93ACCF868D8160868F53
:103BE000F1CFCF92DF92EF92FF920F931F93E82FC6
:103BF000F92F05C0015011092109310961F19081A6
:103C000096239417B9F305C0015011092109310910
:103C100011F1908196239413F7CFC12CD12CE12C74
:103C2000F12C0AC08FEFC81AD80AE80AF80A0C1556
:103C30001D052E053F0579F080818623841791F3B9
:103C40006C2D7D2D8E2D9F2D1F910F91FF90EF904C
:103C5000DF90CF90089560E070E080E090E01F91E9
:103C60000F91FF90EF90DF90CF9008950F931F93E7
:103C7000CF93DF93EC01162F042F1B821A8288EE5C
:103C800093E0A0E0B0E08C839D83AE83BF838DE0A2
:103C900091E0998388831F8A1E8A198E188E1B8E45
:103CA0001A8E1D8E1C8E6E8D6E7F6D7F6E8F66954B
:103CB000617081E06827842F0E94450361E0802FB6
:103CC0000E947303802F90E0FC01E055FF4FE491C8
:103CD000E88BFC01E253FF4FE491F0E0EE0FFF1F91
:103CE000EC53FF4F859194919A8B898B60E0812FE3
:103CF0000E9473038E8D81FD04C061E0812F0E94BC
:103D000045031C87812F90E0FC01E055FF4FE491B3
:103D1000ED87FC01E253FF4FE491F0E0EE0FFF1F4F
:103D2000EA55FF4F859194919F878E87DF91CF91C0
:103D30001F910F910895EF92FF920F931F93CF93CE
:103D4000DF93EC01162FE72E042FF52E1C8261E085
:103D5000812F0E94730361E0802F0E9473031883F8
:103D6000E9820A83FB8281E08C8360E0812F0E94DC
:103D7000AF0360E08A81DF91CF911F910F91FF9097
:103D8000EF900C94AF0310926B0310926A0388EECD
:103D900093E0A0E0B0E080936C0390936D03A09358
:103DA0006E03B0936F038FE191E09093690380936A
:103DB000680385EC90E0909375038093740384EC22
:103DC00090E0909377038093760380EC90E090935B
:103DD00079038093780381EC90E090937B03809348
:103DE0007A0382EC90E090937D0380937C0386ECD1
:103DF00090E090937F0380937E0310928103109252
:103E00008203109283031092840385E094E0109261
:103E1000460410924504909349048093480420E49A
:103E200030E030934B0420934A0410924C041092DB
:103E30004D0410924F0410924E04109250041092B0
:103E40005204109251041092540410925304109290
:103E50005604109255041092580410925704109270
:103E60005A041092590410925C0410925B04109250
:103E70005E0410925D041092640410926304109228
:103E80006604109265041092680410926704109200
:103E90006A041092690410927804109277041092C8
:103EA00047041092850410928704109286041092A1
:103EB000C4042CE930E030936C0420936B0426EAB0
:103EC00030E030936E0420936D0420EB30E03093AB
:103ED000700420936F042AEB30E030937204209337
:103EE000710424EC30E030937404209373042EECBE
:103EF00030E0309376042093750428ED30E0309361
:103F00007A042093790421EE30E030937C042093EE
:103F10007B0421EF39E030937E0420937D0490935D
:103F2000600480935F042AED31E030938004209395
:103F30007F0490936204809361048CEE90E09093F0
:103F400082048093810410924A05109249051092D0
:103F50004C0510924B0510924E0510924D05109293
:103F6000500510924F051092520510925105109273
:103F70005405109253051092560510925505109253
:103F800058051092570580917D058C3008F072C05D
:103F900091E0980F90937D058093E90590E0FC01F6
:103FA000EE0FFF1FE80FF91FE75AFA4F88EB9BE06F
:103FB000928381831092D8051092D7051092DB0569
:103FC0001092DA051092DE051092DD051092E105DF
:103FD0001092E0051092E4051092E3051092E705B7
:103FE0001092E60581E391E09093AD058093AC05D6
:103FF0001092D0051092CF051092D2051092D105E3
:104000001092D4051092D3051092D6051092D505C2
:104010008FEF8093CE05E8E8F5E02FEF48EB5BE00B
:1040200080917D058C3050F591E0980F90937D053F
:10403000808390E0DC01AA0FBB1FA80FB91FA75A0D
:10404000BA4F12965C934E931197339685E0EC3AF3
:10405000F80731F745E050E064E070E083E895E070
:104060000E949B1E46E050E067E070E08EE795E01E
:104070000C949B1E8FEF8093E9059CCF2083E5CFA6
:10408000789484B5826084BD84B5816084BD85B533
:10409000826085BD85B5816085BD80916E0081603F
:1040A00080936E00109281008091810082608093E5
:1040B00081008091810081608093810080918000E7
:1040C0008160809380008091B10084608093B10012
:1040D0008091B00081608093B00080917A0084600C
:1040E00080937A0080917A00826080937A00809138
:1040F0007A00816080937A0080917A008068809352
:104100007A001092C1000E94980E15E01093850469
:1041100080918604909187040E940D28C0918504A7
:10412000D0E0CE0101960E9471279093870480937E
:104130008604FC01EC0FFD1F108222E0DC012C93B1
:1041400011961C93AE014250510962EB71E0029648
:104150000E946A298FEC9AE090939A0280939902C8
:1041600083E29AE0909398028093970286EF99E019
:10417000909396028093950284EB9BE09093940237
:10418000809393028BE49DE090939202809391023E
:104190008DE59BE09093900280938F0286E292E1FE
:1041A00090939C0280939B0288E99EE090939E02EC
:1041B00080939D0287EE91E19093A00280939F02ED
:1041C00081E08093C40440E051EE60E070E088E656
:1041D00093E00E9450018091C40481114FC061E0BE
:1041E0008DE00E94730362ED70E080E090E00E9439
:1041F0003F0461E08DE00E94450368E270E080E0EA
:1042000090E00E943F0460E08DE00E94450362ED73
:1042100070E080E090E00E943F0461E08DE00E9449
:10422000450368E270E080E090E00E943F0460E0B7
:104230008DE00E9445036AEF70E080E090E00E940C
:104240003F04C5E062ED70E080E090E00E943F0432
:1042500061E08DE00E94450368E270E080E090E05C
:104260000E943F0460E08DE00E944503C15051F779
:104270006DE770E080E090E00E943F0488E693E004
:104280009093840480938304909346048093450420
:1042900085E494E00E94B00185E094E00E947D09ED
:1042A00081E087BB82E08093B1008093B00092E808
:1042B0009093B30080937000E4EBF2E088E693E023
:1042C0002FEF208311821382128217821086399673
:1042D0008E179F07B1F71092B30200E010E0BB24E5
:1042E000B39422E0E22EF12CCC24C394D12C809103
:1042F000A402882349F069B18091A10268236C7FF0
:1043000040E080E00E94720B8091A502882379F042
:1043100063B186B16F73B0E48B9FC0011124682B29
:104320008091A202682340E081E00E94720B80919C
:10433000A602882359F066B18091A3028F7066951A
:104340006695682340E082E00E94720B80918304AE
:1043500090918404DC01ED91FC910084F185E02DC5
:104360000995892B09F4CEC180918304909184042E
:10437000DC01ED91FC910284F385E02D09959C010F
:104380008F3F980719F3982F80915004882309F4E0
:1043900092C0973F09F07EC010925004A09148044B
:1043A000B09149046C916137C1F1693709F05CC083
:1043B000E0917D04F0917E04309741F280915104A8
:1043C000909152048330910560F430E020E050E099
:1043D00040E070E060E080915F0490916004099596
:1043E000B5CFBD016D5F7F4F03970E943101BC01C6
:1043F0006D5F7F4F80E00E940101E0914804F091E1
:1044000049049F012D5F3F4F428150E0618170E080
:10441000E0917D04F0917E04DECF8091790490914B
:104420007A04892B09F492CFBD016F5F7F4F809191
:1044300051049091520401970E943101BC016F5FB9
:104440007F4F80E00E94010160914804709149040F
:104450006F5F7F4FE0917904F0917A048091650459
:1044600090916604099572CFE0917B04F0917C04F1
:10447000309709F46BCF9D012F5F3F4F409151045E
:104480005091520441505109809167049091680401
:1044900009955CCF6091510470915204822F0E9463
:1044A000010180915104909152040196909352041D
:1044B000809351044BCF60914E0470914F0461156D
:1044C000710509F4B1C027FDAFC061507109709347
:1044D0004F0460934E04822F0E94010180914E048C
:1044E00090914F04892B09F031CF80914C0488239F
:1044F00009F42CCF803D09F483C040F4803949F1A0
:10450000803C09F469C010924C0420CF843FE1F153
:10451000853F09F44DC0803EB1F7E0916B04F09106
:104520006C04309781F3A0914804B09149044C91F8
:1045300020E8429FC001112411964C91480F592F39
:10454000511D60914D04809153049091540409953C
:10455000DACFE0916D04F0916E043097A1F2A09152
:104560004804B09149044C9120E8429FC0011124B5
:1045700011964C91480F592F511D60914D04809117
:10458000550490915604E3CFE0917304F0917404C4
:10459000309709F4B8CFA0914804B09149044C91E8
:1045A00050E011966C9180915B0490915C04CFCFA8
:1045B000E0917504F0917604309709F4A4CFA091AE
:1045C0004804B09149044C9150E011966C9180914F
:1045D0005D0490915E04BBCFE0916F04F091700494
:1045E000309709F490CFA0914804B09149044C91C0
:1045F00050E060914D048091570490915804A7CFEA
:10460000E0917104F0917204309709F47CCFA0918D
:104610004804B09149044C9150E060914D04809160
:10462000590490915A0493CF903F30F4822F8F70A9
:1046300080934D04922F907F903FF1F190F4903C45
:10464000B1F150F4903909F081CEF0924F04E0922C
:104650004E0490934C047ACE903D49F1903EA9F3DC
:1046600075CE993F09F442C028F48CE0890F82305E
:1046700060F36CCE9F3F09F069CE10924F04109208
:104680004E0410924C0410924D0490E080E0209172
:104690004A0430914B0482179307A8F4E091480430
:1046A000F0914904E80FF91F10820196F0CFD092E3
:1046B0004F04C0924E04CDCFB092500410925204D9
:1046C0001092510443CE1092500410925204109252
:1046D0005104E0918104F0918204809169049091E9
:1046E0006A04309709F432CE099530CEE0917F0408
:1046F000F0918004309709F429CE80916104909163
:104700006204F2CF8FB7F8944090A7025090A802AD
:104710006090A9027090AA028FBF8091AF02909121
:10472000B002A091B102B091B2024091000150914B
:10473000010170E060E0481A590A6A0A7B0A4415D0
:1047400055056605770590F5840F951FA61FB71FC1
:104750008093AF029093B002A093B102B093B202E3
:1047600095E0892E94E0992EC2EFC630C8F4F4018A
:10477000ED57FF4F8081823099F48091AD02909186
:10478000AE020C2E02C0959587950A94E2F780FF41
:1047900007C08C2F0E940504BC018C2F0E941D09AC
:1047A000CF5F8FEF881A980AC630F9F68091CE0550
:1047B00087FD74C0712C872D90E02091CE05022ECC
:1047C000000C330B281739070CF468C084559A4F36
:1047D000DC011296AC906A2D8CEA95E00E94540898
:1047E000EC01892B09F458C0B7E0BA1540F4809168
:1047F000AB029091AC02C817D90709F04DC0EA2D61
:10480000F0E0EE0FFF1FEA54FA4F80809180E881BC
:10481000F9810084F185E02DCE010995181619065D
:10482000DCF580EF0E94F40080E60E94F4008A2DFF
:1048300080640E94F4008114910401F5E881F981FB
:104840000084F185E02DCE0109954C01181419045E
:1048500004F5E881F9810284F385E02DCE01099504
:10486000A82E8F770E94F4008A2D881F8827881F22
:104870000E94F400E1E08E1A9108E8CFE881F98106
:104880000084F185E02DCE01099588169906B4F6CD
:10489000DDCF87EF0E94F40073948DCF01151105D1
:1048A00009F425CD0E944B02882309F420CD0E94F3
:1048B00000001DCD0E949C2408F481E00895E89436
:1048C00009C097FB3EF490958095709561957F4F58
:1048D0008F4F9F4F9923A9F0F92F96E9BB27939506
:1048E000F695879577956795B795F111F8CFFAF416
:1048F000BB0F11F460FF1BC06F5F7F4F8F4F9F4F47
:1049000016C0882311F096E911C0772321F09EE8A4
:10491000872F762F05C0662371F096E8862F70E00A
:1049200060E02AF09A95660F771F881FDAF7880FE4
:104930009695879597F90895990F0008550FAA0B3A
:10494000E0E8FEEF16161706E807F907C0F01216A2
:104950001306E407F50798F0621B730B840B950BA5
:1049600039F40A2661F0232B242B252B21F40895FA
:104970000A2609F4A140A6958FEF811D811D089597
:104980000E94D3240C9444250E94362538F00E94BE
:104990003D2520F0952311F00C942D250C94332502
:1049A00011240C9478250E94552570F3959FC1F32E
:1049B000950F50E0551F629FF001729FBB27F00DCD
:1049C000B11D639FAA27F00DB11DAA1F649F662722
:1049D000B00DA11D661F829F2227B00DA11D621F71
:1049E000739FB00DA11D621F839FA00D611D221F2B
:1049F000749F3327A00D611D231F849F600D211D0F
:104A0000822F762F6A2F11249F5750409AF0F1F091
:104A100088234AF0EE0FFF1FBB1F661F771F881FFA
:104A200091505040A9F79E3F510580F00C942D25E0
:104A30000C9478255F3FE4F3983ED4F38695779500
:104A40006795B795F795E7959F5FC1F7FE2B880FA0
:104A5000911D9695879597F9089597F99F6780E836
:104A600070E060E008959FEF80EC089500240A94C0
:104A70001616170618060906089500240A94121639
:104A80001306140605060895092E0394000C11F46C
:104A9000882352F0BB0F40F4BF2B11F460FF04C019
:104AA0006F5F7F4F8F4F9F4F089557FD9058440F72
:104AB000551F59F05F3F71F04795880F97FB991F7D
:104AC00061F09F3F79F0879508951216130614063A
:104AD000551FF2CF4695F1DF08C0161617061806C7
:104AE000991FF1CF86957105610508940895E894A2
:104AF000BB2766277727CB0197F90895052E97FBEB
:104B00001EF400940E94952557FD07D00E94E725CA
:104B100007FC03D04EF40C949525509540953095A4
:104B200021953F4F4F4F5F4F089590958095709519
:104B300061957F4F8F4F9F4F08950E940926A59F33
:104B4000900DB49F900DA49F800D911D1124089588
:104B5000B7FF0C949D250E949D25821B930B089501
:104B60002F923F924F925F926F927F928F929F927D
:104B7000AF92BF92CF92DF92EF92FF920F931F936B
:104B8000CF93DF93CDB7DEB7CA1BDB0B0FB6F8941C
:104B9000DEBF0FBECDBF09942A88398848885F845C
:104BA0006E847D848C849B84AA84B984C884DF80CD
:104BB000EE80FD800C811B81AA81B981CE0FD11DB1
:104BC0000FB6F894DEBF0FBECDBFED010895A1E290
:104BD0001A2EAA1BBB1BFD010DC0AA1FBB1FEE1F77
:104BE000FF1FA217B307E407F50720F0A21BB30BC2
:104BF000E40BF50B661F771F881F991F1A9469F73E
:104C000060957095809590959B01AC01BD01CF0199
:104C10000895A29FB001B39FC001A39F700D811D95
:104C20001124911DB29F700D811D1124911D0895B5
:104C30005058BB27AA270E9430260C9444250E9476
:104C4000362538F00E943D2520F039F49F3F19F4B5
:104C500026F40C9433250EF4E095E7FB0C942D25F7
:104C6000E92F0E94552558F3BA1762077307840786
:104C7000950720F079F4A6F50C9477250EF4E095CD
:104C80000B2EBA2FA02D0B01B90190010C01CA0106
:104C9000A0011124FF27591B99F0593F50F4503EB1
:104CA00068F11A16F040A22F232F342F4427585FA3
:104CB000F3CF469537952795A795F0405395C9F7BB
:104CC0007EF41F16BA0B620B730B840BBAF0915073
:104CD000A1F0FF0FBB1F661F771F881FC2F70EC012
:104CE000BA0F621F731F841F48F4879577956795E5
:104CF000B795F7959E3F08F0B0CF9395880F08F0D1
:104D00009927EE0F9795879508950E9499260C9400
:104D100044250E943D2558F00E94362540F029F494
:104D20005F3F29F00C942D2551110C9478250C949B
:104D300033250E94552568F39923B1F3552391F348
:104D4000951B550BBB27AA2762177307840738F0FA
:104D50009F5F5F4F220F331F441FAA1FA9F335D057
:104D60000E2E3AF0E0E832D091505040E695001C0B
:104D7000CAF72BD0FE2F29D0660F771F881FBB1FC5
:104D8000261737074807AB07B0E809F0BB0B802DA3
:104D9000BF01FF2793585F4F3AF09E3F510578F0CF
:104DA0000C942D250C9478255F3FE4F3983ED4F3C2
:104DB000869577956795B795F7959F5FC9F7880FA3
:104DC000911D9695879597F90895E1E0660F771FF5
:104DD000881FBB1F621773078407BA0720F0621B86
:104DE000730B840BBA0BEE1F88F7E09508950E94B1
:104DF000FE266894B1110C94782508950E945D25D3
:104E000088F09F5798F0B92F9927B751B0F0E1F08B
:104E1000660F771F881F991F1AF0BA95C9F714C03B
:104E2000B13091F00E947725B1E008950C94772578
:104E3000672F782F8827B85F39F0B93FCCF3869574
:104E400077956795B395D9F73EF4909580957095D1
:104E500061957F4F8F4F9F4F08950E949C2408F4C7
:104E60008FEF08950E949C24880B990B0895991B3D
:104E700079E004C0991F961708F0961B881F7A9551
:104E8000C9F78095089597FB072E16F4009407D074
:104E900077FD09D00E945D2707FC05D03EF4909570
:104EA00081959F4F0895709561957F4F0895EE0FFE
:104EB000FF1F0590F491E02D0994AA1BBB1B51E143
:104EC00007C0AA1FBB1FA617B70710F0A61BB70B7A
:104ED000881F991F5A95A9F780959095BC01CD011F
:104EE00008950F931F93CF93DF938230910510F4B1
:104EF00082E090E0E091EE05F091EF0530E020E0F7
:104F0000B0E0A0E0309799F42115310509F44AC0CA
:104F1000281B390B24303105D8F58A819B81611516
:104F2000710589F1FB0193838283FE0111C04081E9
:104F300051810281138148175907E0F0481759073A
:104F400099F4109761F012960C93129713961C9394
:104F50003296CF01DF91CF911F910F910895009369
:104F6000EE051093EF05F4CF2115310551F04217EE
:104F7000530738F0A901DB019A01BD01DF01F801F7
:104F8000C1CFEF01F9CF9093EF058093EE05CDCF20
:104F9000FE01E20FF31F819391932250310939836F
:104FA0002883D7CF2091EC053091ED05232B41F4D8
:104FB00020910501309106013093ED052093EC0519
:104FC00020910301309104012115310541F42DB7E1
:104FD0003EB74091070150910801241B350BE09129
:104FE000EC05F091ED05E217F307A0F42E1B3F0B43
:104FF0002817390778F0AC014E5F5F4F241735074B
:1050000048F04E0F5F1F5093ED054093EC058193E0
:1050100091939FCFF0E0E0E09CCFCF93DF93009798
:10502000E9F0FC01329713821282A091EE05B09153
:10503000EF05ED0130E020E01097A1F420813181EF
:10504000820F931F2091EC053091ED052817390749
:1050500009F061C0F093ED05E093EC05DF91CF918D
:105060000895EA01CE17DF07E8F54A815B819E01CA
:1050700041155105B1F7E901FB83EA834991599143
:10508000C40FD51FEC17FD0761F480819181029652
:10509000840F951FE90199838883828193819B8383
:1050A0008A83F0E0E0E012968D919C91139700972F
:1050B000B9F52D913C911197CD010296820F931F66
:1050C0002091EC053091ED052817390739F6309716
:1050D00051F51092EF051092EE05B093ED05A093F7
:1050E000EC05BCCFD383C28340815181840F951FCF
:1050F000C817D90761F44E5F5F4F88819981480FC7
:10510000591F518340838A819B8193838283211518
:10511000310509F0B0CFF093EF05E093EE059ECF97
:10512000FD01DC01C0CF13821282D7CFB0E0A0E036
:10513000ECE9F8E20C94B2258C01009751F4CB0114
:105140000E9471278C01C801CDB7DEB7E0E10C9455
:10515000CE25FC01E60FF71F9C0122503109E21712
:10516000F30708F49DC0D901CD91DC911197C617C2
:10517000D70798F0C530D10530F3CE0104978617D4
:10518000970708F3C61BD70B2297C193D1936D9352
:105190007C93CF010E940D28D6CF5B01AC1ABD0ACB
:1051A0004C018C0E9D1EA091EE05B091EF05512C87
:1051B000412CF12CE12C109731F58091EC05909168
:1051C000ED058815990509F05CC04616570608F0EC
:1051D00058C08091030190910401009741F48DB76C
:1051E0009EB74091070150910801841B950BE81769
:1051F000F90708F055C0F093ED05E093EC05F901CF
:1052000071836083A0CF8D919C91119712966C90C1
:10521000129713967C901397A815B90559F56C0150
:1052200042E0C40ED11CCA14DB0420F1AC014A19BF
:105230005B09DA011296159780F0628273825183BE
:105240004083D9016D937C93E114F10471F0D7018F
:105250001396FC93EE93129776CF22968C0F9D1F98
:10526000F90191838083F301EFCFF093EF05E09391
:10527000EE0569CF4816590608F42C017D01D301CB
:105280009ACFCB010E9471277C01009749F0AE01B3
:10529000B8010E945329C8010E940D28870153CFED
:1052A00010E000E050CFFB01DC0102C001900D9244
:1052B00041505040D8F70895DC0101C06D93415032
:1052C0005040E0F70895FB01DC0101900D920020B1
:1052D000E1F70895FB01DC014150504048F0019096
:1052E0000D920020C9F701C01D9241505040E0F7D7
:0652F0000895F894FFCFC1
:1052F6001300FF0000F0058000000000007D07E1BC
:105306000151084006D907F1076507000000008132
:1053160002E1010E02D3023F021D0231020000002B
:10532600006D086E08DD0E120C4D617820736572F3
:10533600766F7320617474616368656400556E6B83
:105346006E6F776E2070696E206D6F6465005370A6
:1053560065636966792073657269616C20525820AD
:10536600616E642054582070696E7300544D503A33
:10537600006E616E00696E66006F76660055533A80
:105386000052494F3A2056322E32004449470041D6
:105396004E473A0048414C3A00434C523A005200BC
:0653A600420072696F0075
:00000001FF
