:100000000C949D000C94C5000C94C5000C94AD2379
:100010000C94AD230C94AD230C94C5000C94D62401
:100020000C94C5000C94C5000C94C5000C94552587
:100030000C94C5000C94C5000C94C5000C94C5002C
:100040000C940B230C94C5000C947B230C94552327
:100050000C94C5000C94C5000C94C5000C94C5000C
:100060000C94B7230C94C500084AD73B3BCE016ED5
:1000700084BCBFFDC12F3D6C74319ABD56833DDAFF
:100080003D00C77F11BED9E4BB4C3E916BAAAABE0E
:10009000000000803F00000000002300260029002F
:1000A000CDCCCC3D0AD7233C17B7D13877CC2B32F7
:1000B0009595E6241FB14F0A0000803FCDCCCC3D82
:1000C0006F12833A95BFD6337D1D9026B3CE010CB7
:1000D000000020410000C84200401C4620BCBE4C2D
:1000E000CA1B0E5AAEC59D740000000024002700F4
:1000F0002A0000000000250028002B00040404044E
:1001000004040404020202020202030303030303C1
:10011000010204081020408001020408102001029E
:10012000040810200000000800020100000304077A
:100130000000000000000000622711241FBECFEF66
:10014000D8E0DEBFCDBF12E0A0E0B1E0EAEFF9E613
:1001500002C005900D92AA36B107D9F726E0AAE6AB
:10016000B2E001C01D92AB3FB207E1F710E0CDE96C
:10017000D0E004C02197FE010E94B133CC39D107F1
:10018000C9F70E9410290C94FB340C940000862FB0
:10019000E091EE02F091EF02309711F0BA0109946C
:1001A0000895862FE091EC02F091ED02309711F066
:1001B000BA0109940895862FE091EA02F091EB02CA
:1001C000309711F0BA0109940895862FE091E80262
:1001D000F091E902309711F0BA0109940895862F41
:1001E000E091E602F091E702309711F0BA0109942C
:1001F0000895862FE091E402F091E502309711F026
:10020000BA0109940895CB01E091F402F091F5024E
:10021000309709F009940895862F642FE091F00239
:10022000F091F102309711F0A90109940895E0913D
:10023000F202F091F302309709F009940895809149
:10024000CE039091CF03891B990B0895A0915B0574
:10025000B0915C05ED91FC9111970190F081E02D3A
:10026000682FCD010994CF93DF93FC01A081B18168
:10027000109701F1EC01ED91FC9111970190F08143
:10028000E02D69EFCD01099588819981DC01ED911F
:10029000FC910190F081E02D62E0099588819981BF
:1002A000DC01ED91FC910190F081E02D65E0DF91A2
:1002B000CF910994DF91CF91089580912D0690916F
:1002C0002E068130910541F485E090E09093300650
:1002D00080932F0681E00895029719F486E090E05C
:1002E000F5CF80912506909126068F3F980749F417
:1002F0008091270690912806009731F583E090E0E1
:10030000E5CF8130910549F4809127069091280628
:10031000009799F584E090E0D9CF892B09F079C056
:1003200080912706909128068130910519F482E08A
:1003300090E0CCCF019609F06CC081E090E0909302
:10034000300680932F0608958130910581F5209124
:1003500021063091220637FF03C0319521953109DE
:10036000809123069091240697FF03C09195819573
:1003700091098217930714F2DACF8F3F980781F51E
:10038000209121063091220637FF03C03195219537
:100390003109809123069091240697FF03C091951F
:1003A00081959109821793070CF4B4CFC6CF0196BB
:1003B00081F5209121063091220637FF03C0319547
:1003C00021953109809123069091240697FF03C05F
:1003D000919581959109821793070CF48FCFADCF3A
:1003E0000197B9F4209121063091220637FF03C00E
:1003F000319521953109809123069091240697FF2C
:1004000003C0919581959109821793070CF08FCFC6
:1004100081CF80E008951F93CF93DF93182FEB01D6
:1004200080912205909123056817790760F48091E7
:10043000200590912105C80FD91F188380E0DF9116
:10044000CF911F910895E0914F05F091500530979D
:1004500011F481E0F4CF81E080931F0580913B058A
:1004600090913C0509958091220590912305C8172C
:10047000D90778F7DCCFCF93DF93EC01FB0130E0B5
:1004800020E0C901880F991F8C179D0778F44081DF
:10049000DB014D93BD011197918197959927979510
:1004A000942B9C932F5F3F4F3296EBCFC901DF9186
:1004B000CF910895833081F028F4813099F0823013
:1004C000A9F008958730A9F08830C9F08430B1F4DC
:1004D000809180008F7D03C0809180008F77809312
:1004E0008000089584B58F7784BD089584B58F7D8D
:1004F000FBCF8091B0008F778093B00008958091FA
:10050000B0008F7DF9CF1F93CF93DF93282F30E07A
:10051000F901EC5DFE4F8491F901E05FFE4FD4914B
:10052000F901E450FF4FC491CC23A9F0162F81119B
:100530000E945A02EC2FF0E0EE0FFF1FEE50FF4F2B
:10054000A591B4918FB7F894EC91111108C0D09592
:10055000DE23DC938FBFDF91CF911F910895DE2BB7
:10056000F8CFCF93DF9390E0FC01E05FFE4F249142
:1005700084509F4FFC0184918823C9F090E0880F3C
:10058000991FFC01E851FF4FA591B491FC01EE5079
:10059000FF4FC591D49161110DC09FB7F8948C9114
:1005A000209582238C938881282328839FBFDF9105
:1005B000CF910895623051F49FB7F8943C91822F07
:1005C000809583238C93E8812E2BEFCF8FB7F894FF
:1005D000EC912E2B2C938FBFEACF8E3008F08E50EB
:1005E0008770806480937C0080917A00806480931F
:1005F0007A0080917A0086FDFCCF809178009091FE
:10060000790008953FB7F8948091C6039091C7038D
:10061000A091C803B091C90326B5A89B05C02F3F80
:1006200019F00196A11DB11D3FBFBA2FA92F982F18
:100630008827BC01CD01620F711D811D911D42E013
:10064000660F771F881F991F4A95D1F708958F92DB
:100650009F92AF92BF92CF92DF92EF92FF926B0187
:100660007C010E9402034B015C01C114D104E1042E
:10067000F104B9F00E940203681979098A099B09FB
:10068000683E73408105910580F321E0C21AD108CC
:10069000E108F10888EE880E83E0981EA11CB11CC9
:1006A000E4CFFF90EF90DF90CF90BF90AF909F90FE
:1006B0008F90089508950895009721F0805C9F4FD2
:1006C0000C9433010895AF92BF92CF92DF92EF92D4
:1006D000FF920F931F93CF93DF936C017B018B01EC
:1006E000040F151FEB015E01AE18BF08C017D1073C
:1006F00059F06991D601ED91FC910190F081E02DC6
:10070000C6010995892B79F7C501DF91CF911F911A
:100710000F91FF90EF90DF90CF90BF90AF90089532
:10072000FC01538D448D252F30E0842F90E0821BF7
:10073000930B541710F0CF96089501970895FC017C
:10074000918D828D981761F0A28DAE0FBF2FB11DD4
:100750005D968C91928D9F5F9F73928F90E008952C
:100760008FEF9FEF0895FC01918D828D981731F0E6
:10077000828DE80FF11D858D90E008958FEF9FEF3A
:100780000895FC01918D228D892F90E0805C9F4F10
:10079000821B91098F739927089580E494E00E9449
:1007A000C10321E0892B09F420E0822F089580E025
:1007B00090E0892B29F00E94CD0381110C94000058
:1007C0000895FC01A48DA80FB92FB11DA35ABF4FE6
:1007D0002C91848D90E001968F739927848FA68940
:1007E000B7892C93A089B1898C91837080648C9394
:1007F000938D848D981306C00288F389E02D808143
:100800008F7D80830895EF92FF920F931F93CF9374
:10081000DF93EC0181E0888F9B8D8C8D98131AC03B
:10082000E889F989808185FF15C09FB7F894EE8922
:10083000FF896083E889F98980818370806480837F
:100840009FBF81E090E0DF91CF911F910F91FF90CA
:10085000EF900895F62E0B8D10E00F5F1F4F0F7372
:100860001127E02E8C8D8E110CC00FB607FCFACF2D
:10087000E889F989808185FFF5CFCE010E94E103E7
:10088000F1CFEB8DEC0FFD2FF11DE35AFF4FF082FE
:100890009FB7F8940B8FEA89FB8980818062CFCF64
:1008A000682F80E494E00C940304CF93DF93EC0171
:1008B000888D8823B9F0AA89BB89E889F9898C9148
:1008C00085FD03C0808186FD0DC00FB607FCF7CF04
:1008D0008C9185FFF2CF808185FFEDCFCE010E9404
:1008E000E103E9CFDF91CF9108952091BF02260F58
:1008F0003327331F21323105ECF420911604FC011B
:1009000090E080E0243069F082E00895A091BF0279
:100910002191AC0141565D4FA40FB52FB11D2C9311
:100920000196861798F38091BF02680F6093BF020B
:1009300080E0089581E008951092160481E080938C
:1009400015041092F00361E082E10E94830261E0ED
:1009500083E10E948302E9EBF0E080818E7F808357
:1009600080818D7F808388E48093B80085E48093C4
:10097000BC000895CF93DF9391E090939E0288236B
:10098000B9F0C091B800D091BA008091BC008A7BC8
:100990008093BC0060E082E10E94830260E083E11A
:1009A0000E9483020E949C04D093BA00C093B800B6
:1009B000DF91CF9108958F929F92AF92BF92CF9285
:1009C000DF92EF92FF920F931F93CF93DF93D0911B
:1009D0003F04D13208F0D7C0182FC0913E040E94C6
:1009E00002036B017C018091160481116BC082E0CF
:1009F00080931604109315048FEF809314041092C3
:100A00001304D0931204AEE1B4E0E2EFF3E080E02F
:100A1000D81391C01092F1038091F103CC0FC82B31
:100A2000C093F1038091F003813009F088C01092E7
:100A3000F0030E9402036B017C018091F10380931B
:100A4000BB008091180490911904A0911A04B091F0
:100A50001B04892B8A2B8B2BA1F00E94020300918F
:100A600018041091190420911A0430911B046C1978
:100A70007D098E099F09061717072807390708F40B
:100A800042C08091BC0083FDD8CF85EC8093BC0030
:100A90000E9402036B017C0180911604823009F4EC
:100AA00050C0809114048F3F09F46FC080911404EA
:100AB000803209F46CC080911404803309F469C059
:100AC00084E026C08091180490911904A0911A0422
:100AD000B0911B04892B8A2B8B2B09F484CF0E94A5
:100AE00002038090180490901904A0901A04B0900A
:100AF0001B046C197D098E099F0986169706A806A6
:100B0000B90608F070CF809117040E94BA0485E0FE
:100B100010921D0410923F0410921C04DF91CF919B
:100B20001F910F91FF90EF90DF90CF90BF90AF900B
:100B30009F908F9008959D9191938F5F69CF85EEDF
:100B4000A5CF8091180490911904A0911A04B09136
:100B50001B04892B8A2B8B2B09F49ECF0E94020346
:100B6000009118041091190420911A0430911B046B
:100B70006C197D098E099F09061717072807390781
:100B800008F08ACFC0CF81E0C3CF80E0C1CF82E040
:100B9000BFCF83E0BDCF1F93CF93DF93162FC6E85F
:100BA000D6E0A981BA819B8121E020931C04909317
:100BB0003E0410921D0410923F04ED91FC91119798
:100BC0000190F081E02D682FCD01099589819A81EE
:100BD000DC01ED91FC910190F081E02D612F0995F0
:100BE00081E0DF91CF911F910C94DB04CF92DF92D3
:100BF000EF92FF920F931F93CF93DF93D82FC62FBF
:100C0000613208F098C00E9402036B017C01809160
:100C1000160481116BC081E0809316048093150443
:100C20009FEF90931404109213049C0F909312045E
:100C30008093F1038091F103DD0FD82BD093F10362
:100C40008091F003813009F078C01092F0030E9487
:100C500002036B017C018091F1038093BB008091C2
:100C6000180490911904A0911A04B0911B04892BC7
:100C70008A2B8B2BA1F00E94020300911804109183
:100C8000190420911A0430911B046C197D098E09F6
:100C90009F09061717072807390708F448C08091ED
:100CA000BC0083FDD8CF85EC8093BC000E9402037A
:100CB0006B017C0180911604813009F440C0809161
:100CC00013048C1710F4C0911304E2EFF3E0A0EDCD
:100CD000B3E080E08C1355C08C2FDF91CF911F9132
:100CE0000F91FF90EF90DF90CF90089580911804BE
:100CF00090911904A0911A04B0911B04892B8A2B9E
:100D00008B2B09F484CF0E940203009118041091E8
:100D1000190420911A0430911B046C197D098E0965
:100D20009F09061717072807390708F070CF809129
:100D300017040E94BA04C0E0CFCF85EEB5CF8091F2
:100D4000180490911904A0911A04B0911B04892BE6
:100D50008A2B8B2B09F4AECF0E940203009118045A
:100D60001091190420911A0430911B046C197D090B
:100D70008E099F09061717072807390708F09ACF29
:100D8000D6CF91919D938F5FA5CF0895E091CF032A
:100D90008091CE03E81730F4F0E0E053FC4F8081FF
:100DA00090E008958FEF9FEF08959091CF03809189
:100DB000CE032FEF3FEF981748F4E92FF0E0E05310
:100DC000FC4F208130E09F5F9093CF03C9010895CD
:100DD000CF92DF92EF92FF920F931F93CF93DF9307
:100DE0007C01CB018A0120911C04222389F0EB01B4
:100DF0006B01C40ED51ECC15DD0569F06991D701D4
:100E0000ED91FC910190F081E02DC7010995F3CFA0
:100E1000642F0E947504C801DF91CF911F910F913B
:100E2000FF90EF90DF90CF900895CF93DF931F92C4
:100E3000CDB7DEB7698320911C042223F9F02091FD
:100E40003F04203258F021E030E0FC01338322835C
:100E500090E080E00F90DF91CF91089580911D0484
:100E6000E82FF0E0E25EFB4F998190838F5F8093E3
:100E70001D0480933F0481E090E0ECCF61E0CE015F
:100E800001960E947504F7CFCF93C62F91E09093FF
:100E90001C0499E390933E0410921D0410923F04A9
:100EA000682F8AE796E00E9415076C2F8AE796E084
:100EB0000E94150781E00E94DB0491E0811190E01F
:100EC000892FCF91089591E090931C0499E390931A
:100ED0003E0410921D0410923F04682F8AE796E0AA
:100EE0000E94150781E00E94DB0491E0811190E0EF
:100EF000892F089590E080E00895CF92DF92EF92DD
:100F0000FF920F931F93CF93DF93CDB7DEB729974F
:100F10000FB6F894DEBF0FBECDBF8C01DC01199671
:100F20008D919C91892B09F47AC0F801C784D088EF
:100F3000E188F2880E9402036C157D058E059F05ED
:100F400048F40E940203D8011F966D937D938D9300
:100F50009C9352970E940203F801C784D088E188CD
:100F6000F2886C197D098E099F096C3271408105E8
:100F70009105D8F2F894D80114968D919C9115970B
:100F80009A8389831996ED91FC917F01BFEFEB1A4B
:100F9000FB0A80818987F80190810388F489E02D1C
:100FA000D80155968C91992309F448C09081982BCB
:100FB00098879081809589238F838F818C8388E0A7
:100FC0008B8358856F8149853B812C8189819A81EA
:100FD000D701508347FD252F3A952083262F39F0DE
:100FE000441F00C000006083000000C0F2CF38E062
:100FF0004D9160830000019761F7D8015496FC93EE
:10100000EE93539749873B832C839A838983789403
:101010000E940203F8016787708B818B928B29965F
:101020000FB6F894DEBF0FBECDBFDF91CF911F91F9
:101030000F91FF90EF90DF90CF9008959081982BC3
:1010400098879081809589238F838F818E8388E014
:101050008D8358856F8149853D812E8189819A8153
:10106000D701508347FD252F00C000C0208300C05A
:1010700000C000C000C000C060830000262F3A9569
:1010800041F0441F000000C000C000C000C000C00C
:10109000E8CF38E04D9100C0608300C0019709F7A8
:1010A000D8015496FC93EE93539749873D832E8342
:1010B000ACCF5F926F927F928F929F92AF92BF92CE
:1010C000CF92DF92EF92FF920F931F93CF93DF9314
:1010D0005C016901DA015C90232B19F4CC24CA94D9
:1010E000DC2C8A013A01660E771ED0E0C0E0F12CBC
:1010F000E12C87E0882E912CF50180819181D80127
:101100006C910C2E01C0660F0A94EAF765296F777F
:10111000DC01ED91FC910190F081E02D0995BFEF8C
:10112000EB1AFB0AF801608170E0C4018C1B9D0B77
:1011300002C0759567958A95E2F7562E2196C730BD
:10114000D10558F1CE14DF0441F1D5018D919C9168
:10115000652D6F77DC01ED91FC910190F081E02D20
:101160000995BFEFEB1AFB0A551C5524551C279710
:10117000E6CFEC14FD0408F4BFCFDF91CF911F91AF
:101180000F91FF90EF90DF90CF90BF90AF909F9026
:101190008F907F906F905F9008950F5F1F4F601644
:1011A000710639F7209749F3EC14FD0430F7F50187
:1011B0008081918161E070E001C0660FCA95EAF715
:1011C00061506521DC01ED91FC910190F081E02DF1
:1011D000DF91CF911F910F91FF90EF90DF90CF9013
:1011E000BF90AF909F908F907F906F905F90099489
:1011F0001F93CF93DF9300D0CDB7DEB7182F7A833C
:10120000698380911D0590911E050097C9F0DC014E
:10121000ED91FC910190F081E02D1031B8F4611551
:101220007044A0F4612F606E099522E030E0AE01B9
:101230004F5F5F4F62E070E08DE195E00E945908DA
:101240000F900F90DF91CF911F91089560EF099556
:1012500080911D0590911E05DC01ED91FC9101909E
:10126000F081E02D6FE6099580911D0590911E0596
:10127000DC01ED91FC910190F081E02D612F099549
:1012800022E030E0AE014F5F5F4F62E070E08DE141
:1012900095E00E94590880911D0590911E05DC0182
:1012A000ED91FC910190F081E02D67EF0995C8CF99
:1012B000CF92DF92EF92FF920F931F93CF93DF9322
:1012C000FC01E058FF4FE080EE2009F45CC0EC0127
:1012D000C05CDF4FA881B981109709F454C0FC01AC
:1012E000EF57FF4FC080D180F60111810081ED9151
:1012F000FC9111970190F081E02D60EFCD010995EF
:1013000088819981DC01ED91FC910190F081E02DC3
:1013100069E7099588819981DC01ED91FC91019043
:10132000F081E02D602F099588819981DC01ED9194
:10133000FC910190F081E02D612F0995F12C01E0E5
:1013400010E00F5F1F4FE016F10659F030E020E08B
:10135000A601400F511F61E070E0CE010E945908C4
:10136000F0CF88819981DC01ED91FC910190F081B1
:10137000E02D67EFDF91CF911F910F91FF90EF90DC
:10138000DF90CF900994DF91CF911F910F91FF9043
:10139000EF90DF90CF900895009711F00C945809CA
:1013A0000895CF92DF92EF92FF92CF93DF93EC01FB
:1013B000603282E07807CCF5653B710514F064EB90
:1013C00070E0898128E830E0281B310987FD3395DA
:1013D000220F331F220F331F6901330FEE08FF085E
:1013E0008A8128E532E0281B310987FD3395220FD9
:1013F000331F220F331F032E000C440B550B2C19E7
:101400003D094E095F09DB0177FF02C0B0E0A0E0B3
:101410000E940D3024EB30E040E050E00E94E32FCA
:10142000C20ED31EE41EF51EB601E881EC3070F545
:10143000298188E890E0821B910927FD9395880F08
:10144000991F880F991F681779077CF02A8188E512
:1014500092E0821B910927FD9395880F991F880FB1
:10146000991F681779070CF4CB010297880F991F11
:101470004FB7F8942E2F30E0F901EE0FFF1FE20F67
:10148000F31FEF5CF94F928381834FBFDF91CF91C0
:10149000FF90EF90DF90CF900895DF92EF92FF9250
:1014A0000F931F93CF93DF93EC01D62E7A0189011E
:1014B00088818C3008F067C061E08D2D0E94B102F8
:1014C0008881282F30E0F901EE0FFF1FE20FF31F94
:1014D000EF5CF94F9D2D9F736081607C692B608369
:1014E00020E232E02E193F0937FF02C02D5F3F4F47
:1014F0003595279535952795298320E639E0201BDA
:10150000310B37FF02C02D5F3F4F3595279535953D
:1015100027952A832CE0622F0E947D33829FB001A1
:10152000112430E020E0AB01420F531FFA01EE0F0F
:10153000FF1FE40FF51FEF5CF94F908196FD16C079
:101540002F5F3F4F2C30310571F781110FC0109282
:10155000800082E0809381001092850010928400C8
:10156000B19A80916F00826080936F00E8818E2F26
:1015700090E0FC01EE0FFF1FE80FF91FEF5CF94F41
:101580008081806480838881DF91CF911F910F914A
:10159000FF90EF90DF9008959C01FB01309771F070
:1015A000948190789A609483C901330FAA0BBB0B86
:1015B00080839183A283B38381E0089580E00895BE
:1015C000FA01309751F0248120782C6024836083C5
:1015D00071838283938381E0089580E008959C0164
:1015E000FB01309741F0948190789460948331832B
:1015F000208381E0089580E00895CF93DF93EC018C
:1016000088819981DC01ED91FC910190F081E02DC0
:1016100009952A813B81820F931F9B838A83DF91E7
:10162000CF910895CF93DF93EC0188819981DC01FC
:10163000ED91FC910280F381E02D09952A813B8197
:10164000820F931F9B838A83DF91CF9108958F929E
:101650009F92AF92BF92CF92DF92EF92FF920F9341
:101660001F93CF93DF93CDB7DEB766970FB6F8948D
:10167000DEBF0FBECDBF6C018E01095E1F4F78012A
:101680008AE0882E912CA12CB12CCB01BA01A501A6
:1016900094010E941530942F852F605DF8016293AC
:1016A0008F01A901692F782F411551056105710539
:1016B00061F7A7014E1B5F0BBF01C6010E94120B11
:1016C00066960FB6F894DEBF0FBECDBFDF91CF9107
:1016D0001F910F91FF90EF90DF90CF90BF90AF9050
:1016E0009F908F900895EF92FF920F931F93CF9347
:1016F000DF93EC017B0162E20E94FD0A8701F801A1
:1017000061918F01662391F0EDE2F1E0F280FF201C
:1017100049F0329681816813F9CF6CE5CE010E94C1
:10172000FD0A6F2DCE010E94FD0AE9CF62E2CE01D3
:10173000DF91CF911F910F91FF90EF900C94FD0AD4
:10174000FC010E96918380839383828388539F4FFD
:1017500095838483978386831086858580788587A3
:101760000895CF938730B0F421E030E0082E02C016
:10177000220F331F0A94E2F74091BB035091BC0340
:10178000672B51F420953095242335233093BC03E7
:101790002093BB03CF910895242B352B3093BC03AA
:1017A0002093BB0390918F029111F4CFC82F0E9418
:1017B000ED02BC018C2FCF910C94F8085F926F92D0
:1017C0007F928F929F92AF92BF92CF92DF92EF92D1
:1017D000FF920F931F93CF93DF93833008F061C084
:1017E000D1E0D80FDD0FDD0FDD0F5D2ED53110F00C
:1017F00044E1542EC62F082FD8508D2E912CC401B1
:10180000880F991F9C0123523B4F5901D12CC12CA9
:1018100010E077247394D515C8F58EEF8D0F8231C3
:10182000F8F4F601E80DF91DE05AFA4F9081923074
:10183000B8F48C2F872166246394811101C0612C38
:101840007601EE0CFF1C913089F4172937E9E30E7D
:10185000F11CF501EE0DFF1D862D90E09183808334
:10186000770CDF5F8FEFC81AD80AD5CF882371F3C2
:10187000F701E956FF4FEA0DFB1D80819181019729
:1018800029F362E08D2F0E94B102E0CF011119C04F
:10189000F8948BB16C2F68276C7F612368276BB934
:1018A0007894DF91CF911F910F91FF90EF90DF908F
:1018B000CF90BF90AF909F908F907F906F905F90F0
:1018C00008950130D1F4C123F89495B1812F8F731D
:1018D000809589239C2F9F73892B85B988B1612FAF
:1018E000629566956695637060956823C295C69506
:1018F000C695C370C62BC8B9D3CF1F70F89498B1E2
:10190000812F880F880F80958923C123CC0FCC0F9E
:10191000C82BF1CFFF920F931F93CF93DF938431A6
:1019200018F5EB01F82E082F10E0F801E05AFA4FF5
:1019300080818330F9F08430B9F48EEF8F0D8231DD
:1019400060F4F801E858FD4F808123E0829FC001D8
:1019500011248A5A994F0E94D109000F111FF801D2
:10196000EC58FA4FD183C083DF91CF911F910F9133
:10197000FF90089583E0F81641F08BEF8F0D8230D1
:1019800020F087EF8F0D833040F761E08F2D0E94AC
:10199000B102209729F460E08F2D0E948302DDCFF1
:1019A000CF3FD10511F461E0F7CFF801EC5DFE4FB8
:1019B000E491E33019F140F4E130B1F0E230C9F0E4
:1019C000C038D10584F7E7CFE73011F1E83041F1B5
:1019D000E430B1F780918000806280938000D093E2
:1019E0008B00C0938A00B9CF84B5806884BDC7BD21
:1019F000B4CF84B5806284BDC8BDAFCF8091800074
:101A0000806880938000D0938900C0938800A5CF20
:101A10008091B00080688093B000C093B3009DCFE8
:101A20008091B00080628093B000C093B40095CFE5
:101A30009EEF980F923180F4E82FF0E0DF01A05A7A
:101A4000BA4F9C91913041F4EE0FFF1FEC58FA4FC2
:101A5000608371830C9483020895FF920F931F9308
:101A6000CF93DF9300D0CDB7DEB7082F10E0F80199
:101A7000E155FC4F9081F62EF92204571D4F41117C
:101A800004C0F80190819F1511F12F2D30E03A83A9
:101A90002983A0911D05B0911E051097B1F0682F04
:101AA0006F706069ED91FC9111970190F081E02DCC
:101AB000CD01099522E030E0AE014F5F5F4F62E05B
:101AC00070E08DE195E00E945908F801F0820F90D6
:101AD0000F90DF91CF911F910F91FF900895833068
:101AE00040F5282F30E0F901EE54FC4F6083672B5E
:101AF00001F121553C4FF9016081811106C099B176
:101B00009C7F692341E00C942D0D813049F493B101
:101B100026B19F73F0E42F9F90011124922BF1CFF7
:101B200026B130E035952795359527952F7062239E
:101B3000E9CF0895A82FB0E0A858BD4F9C91292F58
:101B400030E0F901EE0FFF1FE20FF31FEA5AF94FE1
:101B5000E0812E2F30E0F901EE0FFF1FE20FF31F9F
:101B6000EF5CF94F80818F7B8083809176029813A0
:101B700008C0992319F09150909376028FEF8C93BF
:101B800008958823D9F3E0917702EF5FE09377021D
:101B9000F0E0E759FD4F9083F1CFFC01258122232E
:101BA00039F0F8E02F0290011124820F931F08955D
:101BB00090E080E00895CF93DF93DC01EA01EC81AF
:101BC000FD818A819B810896E817F90740F481E03E
:101BD0008887F0E0E0E0CF01DF91CF91089538975A
:101BE000FD83EC833097B9F31296CD91DC91139776
:101BF000209791F0CF018C1B9D0B23E09595879545
:101C00002A95E1F78D831396FC93EE931297158234
:101C1000148277836683DFCF1196FC93EE93F3CF24
:101C2000EF92FF920F931F93CF93DF93FC010190EC
:101C30000020E9F731977F01E81AF90AA0911D0504
:101C4000B0911E051097D1F18C01ED91FC91119787
:101C50000190F081E02D60EFCD01099580911D0587
:101C600090911E05DC01ED91FC910190F081E02D39
:101C700061E70995D0E0C0E0EC16FD0669F0A80127
:101C80004C0F5D1F30E020E061E070E08DE195E0F9
:101C90000E9459082196F0CF80911D0590911E0554
:101CA000DC01ED91FC910190F081E02D67EFDF9177
:101CB000CF911F910F91FF90EF900994DF91CF91F9
:101CC0001F910F91FF90EF9008950C94100ECF93F9
:101CD000DF93DB01909176029C3078F530917702AA
:101CE000682F70E0FB01E858FD4F3323E1F0C32F6C
:101CF000D0E0C759DD4F888180833150309377021F
:101D0000808123E0829FC00111248A5A994F1A16BC
:101D10001B0674F4141615065CF49A01AD01DF91EC
:101D2000CF910C944D0A90839F5F90937602E8CFF9
:101D300020E639E040E252E0F2CF8EE391E0DF911D
:101D4000CF910C94100EFC0101900020E9F731971F
:101D5000AF01481B590BBC0180E494E00C94630371
:101D60008F929F92AF92BF920F931F93CF93DF9367
:101D7000CDB7DEB7A1970FB6F894DEBF0FBECDBFCB
:101D800019A2423008F44AE08E010F5D1F4F842EE5
:101D9000912CB12CA12CA50194010E941530E62FA5
:101DA000B901CA01EA30F4F4E05DD801EE938D0187
:101DB000232B242B252B79F790E080E0109719F046
:101DC000CD010E94A30EA1960FB6F894DEBF0FBE00
:101DD000CDBFDF91CF911F910F91BF90AF909F909A
:101DE0008F900895E95CE1CF0C94A30ECF93DF931D
:101DF0000E94A30EEC0182E591E00E94A30E8C0FDD
:101E00009D1FDF91CF910895FB0101900020E9F71C
:101E10003197AF01461B570B0C94120B2F923F9238
:101E20004F925F926F927F928F929F92AF92BF92EA
:101E3000CF92DF92EF92FF920F931F93CF93DF9396
:101E4000CDB7DEB76C970FB6F894DEBF0FBECDBF2F
:101E50008C011B01DC0114968C9114978F778630CE
:101E600009F474C278F48230B0F0843008F04CC2C7
:101E700012964D915C9113976D917C91C1010E94D6
:101E8000120B26C28C3069F160F4883009F459C213
:101E90008A3009F43FC265E571E0C1010E94040F78
:101EA000E5C1803209F4ECC18034A9F76BE5C101CA
:101EB0000E94FD0AF801008111810115110509F444
:101EC000DAC1B101C8010E940E0FC8010E94CD0DF8
:101ED0008C01892B09F4CFC16CE2C1010E94FD0A7B
:101EE000ECCFF801C080D180E280F380A701960199
:101EF000C701B6010E9425318111CDCF20E030E02D
:101F0000A901C701B6010E942531882379F0A701F4
:101F10009601C701B6010E9447309B01AC01C70181
:101F2000B6010E942531882309F4B5CF20E030E0C6
:101F3000A901C701B6010E94253187FF08C06DE2E3
:101F4000C1010E94FD0AF7FAF094F7F8F09420E836
:101F500036E948E15BE4C701B6010E94A43287FD7F
:101F600081C074E1A72EB12C00E210E0188E1F8A08
:101F7000F501E053FF4F2591359145915491C701EB
:101F8000B6010E94A43287FD13C0F501E056FF4F51
:101F90002591359145915491C701B6010E94B13206
:101FA0006B017C012F89388D200F311F388F2F8BCB
:101FB0001595079534E0A31AB1088CEFA8168FEF9A
:101FC000B806B1F655245A9420E030E0A901C701C3
:101FD000B6010E94A43218160CF04BC02CEA35EC66
:101FE00047E257E3C701B6010E94253118160CF4E9
:101FF00040C0A52DB4E0AB02C0011124912C812C6E
:10200000FC01E854FF4F3F019C0120533F4F590111
:102010003FEF531671F1F301E80DF91D65917591CC
:1020200085919491A70196010E94A43218169CF400
:10203000F501E80DF91D2591359145915491C701A0
:10204000B6010E94B1326B017C018F89988D801B93
:10205000910B988F8F8B159507955A9494E0891A58
:102060009108D6CF00E210E055E0552E188E1F8A59
:10207000ABCFC701B6010E949C314B015C012B0123
:102080003C0106E080E492E4AFE0B0E0898F9A8FF3
:10209000AB8FBC8F102F01509AE049165104610498
:1020A0007104C8F0698D7A8D8B8D9C8D2AE030E0AB
:1020B00040E050E00E941530298F3A8F4B8F5C8FA3
:1020C000C301B2012AE030E040E050E00E94153048
:1020D00029013A01DFCFC501B4010E94CB319B0138
:1020E000AC01C701B6010E9446306B017C01698DCD
:1020F0007A8D8B8D9C8D0E94CB319B01AC01C701E9
:10210000B6010E94B1322B013C010E949C316B014F
:102110007C010E94CB319B01AC01C301B2010E9442
:1021200046309B01AC010E9447300E949C31C60E94
:10213000D71EE81EF91E898D9A8DAB8DBC8DC816F1
:10214000D906EA06FB06D8F09FEF891A990AA90A70
:10215000B90AAF89B88DAB2B39F1BAE08B1691046F
:10216000A104B10408F1EF89F88D3196F88FEF8B57
:10217000C12CD12C7601812C912C540183942AE01E
:10218000422E512C612C712CC701B601A301920182
:102190000E941530672B682B692B51F4111644F4FB
:1021A00069017A011150F0CFC12CD12C7601E7CF13
:1021B000B501A401C1010E94270B112371F14E0149
:1021C000F1E18F0E911C012F54019AE0492E512C00
:1021D000612C712C015068F0C701B601A301920176
:1021E0000E941530605DD4016E934D0169017A0142
:1021F000F1CF812F90E0BC0160957095F501E81B4F
:10220000F90B31978EE2808344275527461B570BE5
:102210006A0D7B1DC1010E94120BEF89F88DEF2B17
:1022200029F165E6C1010E94FD0A0F89188D17FF8B
:1022300007C06DE2C1010E94FD0A119501951109C7
:10224000FE0177969F018AE0E82EF12CC801B701C4
:102250000E948933805D82938B01672BB9F7A901B6
:102260004E1B5F0BBF01C1010E94120BD1011296E0
:102270008D919C9130C06DE5C1010E94FD0AF6CFA1
:102280006BE7C1010E94FD0AF8010081118101156F
:102290001105D1F0D80116966D917C91C1010E9473
:1022A000730B6AE3C1010E94FD0AB101C8010E94DB
:1022B0000E0FC8010E94CD0D8C01892B29F06CE214
:1022C000C1010E94FD0AE3CF6DE7C1010E94FD0A32
:1022D000F101828193816C960FB6F894DEBF0FBE38
:1022E000CDBFDF91CF911F910F91FF90EF90DF90C5
:1022F000CF90BF90AF909F908F907F906F905F90A6
:102300004F903F902F9008956D917C91C1010E9454
:10231000730BDECFCD90DD90ED90FC90B701A60160
:10232000F7FE0BC06DE2C1010E94FD0A442755274C
:10233000BA014C195D096E097F09C1010E94270B82
:10234000C7CF4D915D916D917C91F7CF8C916AE5EE
:1023500071E0811102C06FE571E0C1010E94040FBC
:10236000B7CFCF93DF9300D000D000D0CDB7DEB78A
:1023700020E434E03A8329831C821B82BE016F5F14
:102380007F4F09960E940E0F26960FB6F894DEBF77
:102390000FBECDBFDF91CF9108950F931F93CF93C1
:1023A000DF938B010E946307C82F8823A1F061E0AF
:1023B00089E30E94F605D82F1092CF038093CE03B5
:1023C0008091CF03D81739F08AE796E00E94D506AE
:1023D000F8018083F5CF8C2FDF91CF911F910F9162
:1023E00008950F931F93CF93DF931F92CDB7DEB75E
:1023F000082F162FBE016F5F7F4F80E80E94CD111E
:102400008823A1F0298180E02F3F81F00730C1F0BF
:1024100081E090E001C0880F0A95EAF7112361F08E
:10242000122F182B612F80E80E9444070F90DF9134
:10243000CF911F910F910895182F10951223F2CF6D
:10244000112381F31FE7EECFCF93DF931F92CDB718
:10245000DEB7BE016F5F7F4F8FEA0E94CD118823E8
:1024600031F0898181700F90DF91CF91089581E0E3
:10247000FACFCF92DF92EF92FF92CF93DF936C016E
:10248000990FEE08FF08F7FE19C06DE280E494E0B2
:102490000E940304EC0166277727CB016C197D09A4
:1024A0008E099F094AE00E94B00E8C0F9D1FDF919C
:1024B000CF91FF90EF90DF90CF9008954AE0C70151
:1024C000B601DF91CF91FF90EF90DF90CF900C9409
:1024D000B00E8F929F92AF92BF92CF92DF92EF9207
:1024E000FF920F931F93CF93DF93CDB7DEB72E9755
:1024F0000FB6F894DEBF0FBECDBF809187069091D6
:1025000088062091890631E030931C0420933E0414
:1025100010921D0410923F04DC01ED91FC9101909A
:10252000F081E02D6BE3099580E00E94DB046EE012
:10253000809189060E94F6051092CF038093CE0306
:102540008E010F5F1F4F6E01BFE0CB0ED11C80913B
:10255000870690918806DC01ED91FC910284F38559
:10256000E02D0995B82E8091870690918806DC01B0
:10257000ED91FC910284F385E02D0995E12C8E29E3
:102580009B29F801819391938F01CE16DF06F9F60E
:10259000C0908E06D0908F06E0909006F090910645
:1025A00069817A81072E000C880B990B0E94CD312E
:1025B000A70196010E942A3120919E0630919F0624
:1025C0004091A0065091A1060E9446306093AE064D
:1025D0007093AF068093B0069093B1066B817C81B7
:1025E000072E000C880B990B0E94CD31A701960194
:1025F0000E942A312091A2063091A3064091A406A0
:102600005091A5060E9446306093B2067093B306BF
:102610008093B4069093B5068091860661E06827A2
:10262000681B770B072E000C880B990B0E94CD318D
:102630004B015C016D817E81072E000C880B990B8C
:102640000E94CD319B01AC01C501B4010E94B132A1
:10265000A70196010E942A312091A6063091A70673
:102660004091A8065091A9060E9446306093B60694
:102670007093B7068093B8069093B9066F817885FA
:10268000072E000C880B990B0E94CD3120E030EF13
:1026900041E456E40E94473020E030E04AEA53E447
:1026A0000E942A316093AA067093AB068093AC0611
:1026B0009093AD06C0908A06D0908B06E0908C0671
:1026C000F0908D0669857A85072E000C880B990B92
:1026D0000E94CD31A70196010E942A3120919206D5
:1026E0003091930640919406509195060E94463091
:1026F0006093BA067093BB068093BC069093BD06A8
:102700006B857C85072E000C880B990B0E94CD31C0
:10271000A70196010E942A312091960630919706D2
:1027200040919806509199060E9446306093BE06EB
:102730007093BF068093C0069093C1066D857E8519
:10274000072E000C880B990B0E94CD31A701960132
:102750000E942A3120919A0630919B0640919C0656
:1027600050919D060E9446306093C2067093C30646
:102770008093C4069093C5062E960FB6F894DEBFDC
:102780000FBECDBFDF91CF911F910F91FF90EF90C2
:10279000DF90CF90BF90AF909F908F9008959F92C1
:1027A000AF92BF92CF92DF92EF92FF920F931F935F
:1027B000CF93DF93C82ED12CE601C352DB4FFE012D
:1027C000ED57FF4F90819F3709F491C07B01182F7F
:1027D0000EEF080F023108F564307105F1F0F601D3
:1027E000E858FD4F80818C30C0F490E0FC01EE0F82
:1027F000FF1FE80FF91FEA5AF94FE0818E2F90E092
:10280000FC01EE0FFF1FE80FF91FEF5CF94F80810D
:1028100086FF03C08C2D0E949A0D52EF952E910ECB
:1028200085E0891558F061E070E032E0E316F104CC
:1028300011F070E060E0892D0E94B10B0231C8F404
:10284000E12FE695E695E695F0E0E155FC4F208115
:10285000312F377081E090E001C0880F3A95EAF798
:10286000E114F10421F03BE0E316F10401F5822BC1
:1028700080835601AA0CBB1CF501EC58FA4F11825B
:1028800010828CE0E816F10408F0BFC0F701E55BA8
:10289000FB4E0C94B1336B1498145A14AF14CE142D
:1028A000051505150515051505157714831480956F
:1028B0008223DECF35E03915D0F0023120F460E01C
:1028C000812F0E94B102CD57DF4F88818F3779F079
:1028D00082E088830CC0023150F460E0812F0E94B6
:1028E000B102CD57DF4F88818F3709F01882DF9111
:1028F000CF911F910F91FF90EF90DF90CF90BF90FD
:10290000AF909F900895023190F762E0812F0E946E
:10291000B102CD57DF4F88818F3711F08BE088836C
:10292000F501EC58FA4F81E090E091838083DFCF8E
:102930000231E8F6FE01ED57FF4F8081833021F42C
:1029400060E0812F0E94830261E0812F0E94B1022A
:10295000CD57DF4F88818F3751F281E0BACF1330E6
:1029600049F08BEF810F823028F087EF810F8330A1
:1029700008F0BDCF61E0812F0E94B10261E0812F9C
:102980000E94B10260E0812F0E948302CD57DF4F89
:1029900088818F3709F4ABCF83E09BCF023108F0F9
:1029A000A6CFCD57DF4F88818F3711F084E0888321
:1029B000F601E858FD4F80818F3FA9F090E0FC01BF
:1029C000EE0FFF1FE80FF91FEA5AF94FE0818E2F33
:1029D00090E0FC01EE0FFF1FE80FF91FEF5CF94FCD
:1029E000808186FD84CF4FEF5FEF6FEF7FEF812F08
:1029F000DF91CF911F910F91FF90EF90DF90CF90DB
:102A0000BF90AF909F900C94670E85E691E0DF91A8
:102A1000CF911F910F91FF90EF90DF90CF90BF90DB
:102A2000AF909F900C94100E0F931F93CF93DF9352
:102A300081E080938F021092B2031092AF03109244
:102A40008C021092B3031092B00310928D02109278
:102A5000B4031092B10310928E0208E712E0C0E0B6
:102A6000DFEF82EF8C0F62E070E0863030F08EEFA7
:102A70008C0F823128F470E060E08C2F0E94CF131D
:102A8000F801D1938F01CF5FC43159F71092BC0385
:102A90001092BB03109277021092760210928F026E
:102AA000DF91CF911F910F9108954F925F926F9296
:102AB0007F928F929F92AF92BF92CF92DF92EF92CE
:102AC000FF920F931F93CF93DF93CDB7DEB72C9771
:102AD0000FB6F894DEBF0FBECDBF0E946912C09042
:102AE000B606D090B706E090B806F090B90621E09F
:102AF00030E03A83298320E030E0A901C701B60124
:102B00000E94A43287FF02C01A82198201E010E0FD
:102B100020E030E0A901C701B6010E94253187FD00
:102B200002C010E000E069817A81601B710B072E02
:102B3000000C880B990B0E94CD316D837E838F83AF
:102B40009887A7019601C701B6010E94B1322B01F7
:102B50003C01C090AE06D090AF06E090B006F09079
:102B6000B106A7019601C701B6010E94B132A301C7
:102B700092010E9447300E9424339B01AC01809057
:102B8000B2069090B306A090B406B090B5066D81E1
:102B90007E818F8198850E94B1329B01AC01C50175
:102BA000B4010E94C63021EE3EE245E652E40E94A6
:102BB000B1326093C6067093C7068093C80690939F
:102BC000C906A5019401C501B4010E94B132A30157
:102BD00092010E9447300E9424339B01AC01C7013F
:102BE000B6010E94C630905821EE3EE245E652E41E
:102BF0000E94B1326093CA067093CB068093CC06D4
:102C00009093CD068FB7F894C090CA03D090CB03B1
:102C1000E090CC03F090CD038FBF8091DA069091C5
:102C2000DB06A091DC06B091DD06A7019601281B0A
:102C3000390B4A0B5B0BCA01B9010E94CB312FE65D
:102C400032E143E85AE30E94B1324B015C01C09289
:102C5000DA06D092DB06E092DC06F092DD06809187
:102C6000DE069091DF06A091E006B091E10689832F
:102C70009A83AB83BC834090C6065090C706609091
:102C8000C8067090C9062091BA063091BB064091E3
:102C9000BC065091BD06C501B4010E94B13220911D
:102CA000CE063091CF064091D0065091D1060E94B9
:102CB0004730A30192010E9446306B017C0120E065
:102CC00030E044E353E40E94A43218163CF420E0C0
:102CD00030E044EB53E4C701B601EDCF20E030E033
:102CE00044E353ECC701B6010E94253187FF0BC0B6
:102CF00020E030E044EB53E4C701B6010E944730C6
:102D00006B017C01EBCF29813A814B815C8160E0D2
:102D100070E080E89FE30E94463069877A878B875E
:102D20009C87A7019601C301B2010E944730298107
:102D30003A814B815C810E94B1326B017C01298513
:102D40003A854B855C85C301B2010E94B1329B017B
:102D5000AC01C701B6010E9447306B017C0120E045
:102D600030E044E353E40E94A43218164CF420E00F
:102D700030E044EB53E4C701B6010E944630EDCF8A
:102D800020E030E044E353ECC701B6010E94253156
:102D900087FF0BC020E030E044EB53E4C701B601ED
:102DA0000E9447306B017C01EBCFC092CE06D092DF
:102DB000CF06E092D006F092D1064090CA0650901D
:102DC000CB066090CC067090CD062091BE06309167
:102DD000BF064091C0065091C1066D817E818F81F2
:102DE00098850E94B132A50194010E94B1322091D0
:102DF000D2063091D3064091D4065091D5060E9458
:102E00004730A30192010E9446306B017C0120E013
:102E100030E044EB52E40E94A43218163CF420E067
:102E200030E044E353E4C701B601EDCF20E030E0E9
:102E300044EB52ECC701B6010E94253187FF0BC05D
:102E400020E030E044E353E4C701B6010E9447307C
:102E50006B017C01EBCFA7019601C301B2010E9477
:102E6000473029813A814B815C810E94B1326B01EC
:102E70007C01A301920169857A858B859C850E94DE
:102E8000B1329B01AC01C701B6010E9447306B0112
:102E90007C0120E030E044EB52E40E94A43218169A
:102EA0004CF420E030E044E353E4C701B6010E9453
:102EB0004630EDCF20E030E044EB52ECC701B601E4
:102EC0000E94253187FF0BC020E030E044E353E44B
:102ED000C701B6010E9447306B017C01EBCFC09265
:102EE000D206D092D306E092D406F092D506209175
:102EF000C2063091C3064091C4065091C506C50173
:102F0000B4010E94B1322091D6063091D70640918B
:102F1000D8065091D9060E9447306093D606709328
:102F2000D7068093D8069093D9062C960FB6F894BE
:102F3000DEBF0FBECDBFDF91CF911F910F91FF90EC
:102F4000EF90DF90CF90BF90AF909F908F907F9049
:102F50006F905F904F90089585ED8093BC008091B5
:102F6000180490911904A0911A04B0911B040796BB
:102F7000A11DB11D23E0B695A795979587952A9534
:102F8000D1F72091BC0024FD03C0109216040895CF
:102F9000409118045091190460911A0470911B0417
:102FA000452B462B472B69F30097A105B10541F04E
:102FB00025E32A95F1F700000197A109B109E1CFB6
:102FC000809117040C94BA040F931F93CF93DF934F
:102FD0008B01EC01892BA1F06E817F816017710755
:102FE00079F00115110541F06115710529F0C8014D
:102FF0000E94E334892B21F0CE010E94CD0DE9CF50
:10300000CE01DF91CF911F910F910895EF92FF9222
:103010000F931F93CF93DF93EC018C81982F9F77B1
:1030200039F4807880628C83198218821B821A821C
:103030008C8185FF16C06115710599F07A018B01AD
:10304000888199810E94E417009769F4A701B8016B
:10305000CE01DF91CF911F910F91FF90EF900C94D3
:10306000DB0D80E090E0DF91CF911F910F91FF90F9
:10307000EF900895CF93DF93EC01AC0109960E9485
:103080000618FC01892B41F084818078806284835A
:103090001182108213821282BF01CE01DF91CF9183
:1030A0000895EF92FF920F931F93CF93DF930097B2
:1030B000B9F061157105A1F07A018B01EC018881ED
:1030C00099810E94E417009769F4A701B801CE0125
:1030D000DF91CF911F910F91FF90EF900C94DB0D3A
:1030E00080E090E0DF91CF911F910F91FF90EF90E2
:1030F00008952F923F924F925F926F927F928F929C
:103100009F92AF92BF92CF92DF92EF92FF920F9376
:103110001F93CF93DF93CDB7DEB7C855D1400FB61D
:10312000F894DEBF0FBECDBF80EF90E00E94500448
:1031300081E790E00E945004CE0101960E94A00B0E
:10314000AE014F5F5F4F66E771E0CE010A960E94C5
:103150000618BC018BE791E00E94EF0A80919C0267
:10316000882309F4C2C064E871E0CE0101960E9490
:103170003A186B017C011092980210929702BE01DE
:1031800069527F4F86E90E94CD11882321F1C952EF
:10319000DF4F8881C75DD04090E090939802809384
:1031A0009702BE0169527F4F87E90E94CD118823A3
:1031B00091F0C952DF4F8881C75DD04090E0982FD1
:1031C00088272091970230919802820F931F909345
:1031D0009802809397020091970210919802A7019C
:1031E0006AE871E0C6010E945118BC01C8010E9442
:1031F000CC0A1092960210929502BE0169527F4F3E
:1032000088E90E94CD11882321F1C952DF4F8881BE
:10321000C75DD04090E09093960280939502BE01E6
:1032200069527F4F89E90E94CD11882391F0C952DC
:10323000DF4F8881C75DD04090E0982F882720918C
:10324000950230919602820F931F9093960280937D
:1032500095020091950210919602A7016EE871E027
:10326000C6010E945118BC01C8010E94CC0A1092EC
:10327000940210929302BE0169527F4F8AE90E9424
:10328000CD11882321F1C952DF4F8881C75DD0401D
:1032900090E09093940280939302BE0169527F4F15
:1032A0008BE90E94CD11882391F0C952DF4F8881AC
:1032B000C75DD04090E0982F8827209193023091ED
:1032C0009402820F931F9093940280939302009133
:1032D000930210919402A70164E971E0C6010E9473
:1032E0005118BC01C8010E94CC0A80919B0288231E
:1032F00009F441C01092920210929102BE016952EB
:103300007F4F84E90E94CD11882321F1C952DF4FFC
:103310008881C75DD04090E09093920280939102A3
:10332000BE0169527F4F85E90E94CD11882391F03B
:10333000C952DF4F8881C75DD04090E0982F882721
:103340002091910230919202820F931F90939202EA
:10335000809391020091910210919202AE014F5F11
:103360005F4F69E971E0CE010A960E940618BC0120
:10337000C8010E94CC0A80919A02882309F44CC2A9
:103380000E942412882309F447C2C85ADE4F1882CB
:10339000C855D1400E942412882309F43DC28E01F1
:1033A00009521F4FB80180E80E94CD11882309F40B
:1033B00068C0D8018C91817409F42EC222242A9409
:1033C000322CEE24E394F12C6EE170E080E090E08A
:1033D0000E942703BE01695A7E4F8FEA0E94CD11D9
:1033E000882309F419C2C95ADE4F8881C755D140D4
:1033F00080FFD2C1BE01685A7E4F8EEA0E94CD1175
:10340000882309F409C2C85ADE4FC880C855D14084
:10341000CC20D1F2B4E0CB9E600111248CEF0E944D
:103420006307811130C08FEF9FEF30911D0620910F
:103430001E06D801E32F5C01BB2441E04E0FCD01F5
:10344000801B910B8A159B050CF043C0F0E0BF0177
:1034500063567A4F8C91FB01808311968C91119762
:1034600080A3CB01805C9F4F12965C911297FC0168
:103470005083B09613968C91139780831496E42F03
:10348000DCCF8FEF98CF6C2D613208F060E289E3DA
:103490000E94F605882E1092CF038093CE03912CC4
:1034A0008091CF03A92CB12C881671F0AC14BD0407
:1034B00008F0B9CF8AE796E00E94D506F801EA0D38
:1034C000FB1D80839394ECCFC501843008F47CCF3E
:1034D000ACCFF3E0AF0EB11CB694A794B694A7940A
:1034E0002A0DA30EA0921D0620931E06253008F477
:1034F0004EC18FEF820F803208F0EAC0EDE9F5E0AF
:10350000C22ED12CCF018D5995408C159D050CF004
:103510003EC171917B30B0F3578D5B3098F337AD7E
:103520003B3080F3CF01815A9F4FDC019C919B304F
:1035300048F3D601A356BA4F4E914B3078F090968F
:103540006C9190976B3050F0FD01E05CFF4F208153
:103550002B3020F0B09680818B3048F4EDE9F5E017
:10356000EA17FB0749F780E020E060E040E0C72E63
:10357000D12CE52FF0E0632E712C492E512C50E018
:1035800070E030E0A82EB12CDA01A61BB70B84E660
:10359000982E9A9EC0019B9E900D1124640F751F5A
:1035A0000E949D334B01A6014E1B5F0B64E6649F96
:1035B000C001659F900D1124B6016E0F7F1F0E9400
:1035C0009D33861A970AA9014A195B09A4E6A49FAC
:1035D000C001A59F900D1124B9016A0D7B1D0E94A9
:1035E0009D339B01A30144195509B4E6B49FC00162
:1035F000B59F900D1124B301640D751D0E949D337C
:10360000261B370B4091210650912206480D591D6B
:103610005093220640932106809123069091240620
:10362000820F931F90932406809323064233510503
:103630000CF457C0F0922606E092250682339105DD
:103640000CF45CC0F0922806E0922706C401439671
:103650004091250650912606452B09F06FC04091F8
:10366000270650912806452B09F068C0879708F077
:103670008EC0C9014396879708F089C080912906BA
:1036800090912A068114910409F045C02115310555
:1036900009F041C0019690932A06809329068091F3
:1036A000290690912A060A970CF471C080912B0686
:1036B00090912C0602970CF46AC08928B1F5232B4F
:1036C00021F4F0922E06E0922D060E945D015FC06B
:1036D00080E020E060E040E090E030E050E070E02A
:1036E00046CF4F3C5F4F2CF43092260620922506A1
:1036F000A5CF1092260610922506A0CF8F3C9F4F93
:103700002CF43092280620922706A0CF109228068B
:10371000109227069BCF80912B0690912C06019644
:1037200090932C0680932B06BACF232B71F282E064
:1037300090E090932E0680932D06C7CF879738F59B
:10374000C9014396879718F58091290690912A061A
:10375000892839F4232B29F4019690932A06809323
:1037600029068091290690912A060A9784F01092E2
:10377000260610922506109228061092270610920F
:10378000220610922106109224061092230610920F
:103790001D0610921E0618CE6EE170E080E090E0EB
:1037A0000E9427030E945D0180912F0690913006B0
:1037B00010921D0610921E061092220610922106EB
:1037C00010922406109223061092260610922506C7
:1037D000109228061092270610922A0610922906A7
:1037E00010922C0610922B0610922E0610922D0687
:1037F0001092300610922F068F3F980769F08330A1
:10380000910509F45BC00CF044C08130910509F4C6
:1038100071C0029709F47BC0809199028823B9F0A6
:103820001092900260E972E08CE90E94CD11009143
:10383000900210E0AE014F5F5F4F66EC71E0CE0189
:103840000A960E940618BC01C8010E94CC0ACE014B
:1038500001960E94B11187EF90E00E945004C85A6F
:10386000DE4F0FB6F894DEBF0FBECDBFDF91CF9114
:103870001F910F91FF90EF90DF90CF90BF90AF908E
:103880009F908F907F906F905F904F903F902F9080
:1038900008958530910509F447C0FCF0069709F0BA
:1038A000BBCFAE014F5F5F4F62EA71E0CE010A9677
:1038B0000E940618BC0182EC91E00CC0AE014F5F83
:1038C0005F4F62EA71E0CE010A960E940618BC01C1
:1038D0008AEA91E00E94EF0A9FCFAE014F5F5F4FEF
:1038E00062EA71E0CE010A960E940618BC018DEAD8
:1038F00091E0F0CFAE014F5F5F4F62EA71E0CE0121
:103900000A960E940618BC0182EB91E0E3CFAE015B
:103910004F5F5F4F62EA71E0CE010A960E9406187F
:10392000BC0187EB91E0D6CFAE014F5F5F4F62EAFB
:1039300071E0CE010A960E940618BC018DEB91E061
:10394000C9CF4F925F926F927F928F929F92AF9268
:10395000BF92CF92DF92EF92FF920F931F93CF937C
:10396000DF93CDB7DEB7C65DD1090FB6F894DEBFE1
:103970000FBECDBF0E94551580EF90E00E9450040D
:1039800081E790E00E945004CE0101960E94A00BB6
:10399000AE014F5F5F4F66E771E0CE010A960E946D
:1039A0000618BC0180ED91E00E94EF0A68ED71E01D
:1039B000CE0101960E943A184B015C016EED71E058
:1039C000CE0101960E943A186B017C0106E816E0D0
:1039D000F80140A451A462A473A4A50163EE71E0B0
:1039E000C4010E945118AC01C301B2010E94E00A57
:1039F000F80144A455A466A477A4A50167E672E083
:103A0000C4010E945118AC01C301B2010E94E00A36
:103A1000F80140A851A862A873A8A50165EE71E05D
:103A2000C4010E945118AC01C301B2010E94E00A16
:103A3000F80184A895A8A6A8B7A8A70163EE71E02D
:103A4000C6010E945118AC01C501B4010E94E00AF0
:103A5000F80180AC91ACA2ACB3ACA70167E672E010
:103A6000C6010E945118AC01C501B4010E94E00AD0
:103A7000F80184AC95ACA6ACB7ACA70165EE71E0DB
:103A8000C6010E945118AC01C501B4010E94E00AB0
:103A9000F801C4A0D5A0E6A0F7A0AE014F5F5F4F2C
:103AA00067EE71E0CE010A960E940618AC01C701CC
:103AB000B6010E94E00ACE0101960E94B11187EF83
:103AC00090E00E945004CA52DF4F0FB6F894DEBF58
:103AD0000FBECDBFDF91CF911F910F91FF90EF905F
:103AE000DF90CF90BF90AF909F908F907F906F901E
:103AF0005F904F9008954F925F926F927F928F9256
:103B00009F92AF92BF92CF92DF92EF92FF920F936C
:103B10001F93CF93DF9300D01F92CDB7DEB7182F3E
:103B2000862F7A01183109F44BC308F092C0123184
:103B300009F491C3E0F4103109F448C208F0DFC27F
:103B4000183009F4EBC10F900F900F90DF91CF91D7
:103B50001F910F91FF90EF90DF90CF90BF90AF90AB
:103B60009F908F907F906F905F904F900895163147
:103B700009F415C308F05EC3133129F7DA014C913B
:103B800050E012961C9112979A01220F331FF901EF
:103B9000E40FF51FEE51F94F0190F081E02D612FF8
:103BA00070E0828193816817790708F04EC0139600
:103BB0000C91139714968C9190E0B0E0A0E0BA2F8E
:103BC000A92F982F88274C015D01A02AD7011596AF
:103BD0000C91D501C401802B4D01AA24BB24492E90
:103BE0005A2E6B2E7724F42CE82E0085002391F0BA
:103BF000C02ED12CC89C7001C99CF00CD89CF00C34
:103C000011248F2C049D20011124F52C089FC00144
:103C10001124E92EA68581859285B385AB1324C432
:103C2000BC01B3E01B9F600D711D1124A385A60F7D
:103C3000B72FB11D8C92A485A60FB72FB11DFC9292
:103C40008585680F711DFB01E082240F351FF90186
:103C500008C41D3609F40EC1B0F5193609F44DC17A
:103C60001B3609F4BEC01A3109F06DCFDA019C9100
:103C70009C3109F412C4963209F065CF11961C915B
:103C800080EF90E00E94500481E790E00E94500491
:103C900080ED91E00E94F40E87EF90E00E945004C6
:103CA000112309F4ECC3113009F04DCF1092B50384
:103CB00080EF90E00E94500481E790E00E94500461
:103CC0008DE092E076C2103749F11A3709F46FC0DF
:103CD0001F3609F038CF623008F435CFDA0111967B
:103CE0006C91119770E08230A1F012962C91B0E89F
:103CF0002B9F90011124622B732B833051F0FA011A
:103D0000838190E090E4899F902D88271124682B6F
:103D1000792BD7018C910E948A0C15CF653008F45D
:103D200012CFDA011C918EEF810F823108F00BCF98
:103D300011960C9111971296CC9012971396DC90D5
:103D400013971496FC90E12FF0E0E858FD4F808126
:103D50008C30C0F490E0FC01EE0FFF1FE80FF91F5C
:103D6000EA5AF94FE0818E2F90E0FC01EE0FFF1F21
:103D7000E80FF91FEF5CF94F808186FF03C0812FA8
:103D80000E949A0DB0E8FB9EA00111244D0D511D1B
:103D9000E0E8CE9EB0011124600F711D812F0E94BA
:103DA000670E64E070E0812F0E94CF13CCCE6230AA
:103DB00008F4C9CEDA0111968C91B0E88B9F90017E
:103DC0001124FA018081820F932F911D8331910577
:103DD0002CF09093020180930101B5CE83E190E035
:103DE000F8CF80EF0E9426018CE60E9426011EEF8C
:103DF00084EF810F863020F582E00E9426018AE060
:103E00000E9426018DEF810F8230E0F089EF810F53
:103E10008330F0F417C0123158F780E00E94260179
:103E200081E00E9426018BE00E94260181E00E9431
:103E3000260181E00E94260181E00E942601D8CF60
:103E4000113001F783E00E94260188E00E942601DC
:103E5000123130F484E00E9426018EE00E94260197
:103E60008FE70E9426011F5F1231A9F687EF0E949B
:103E7000260169CE662309F466CEFA01008180EF3F
:103E80000E9426018EE60E942601802F0E942601B4
:103E9000043160F710E0F801E05AFA4F80810E9487
:103EA0002601000F111F98012C583A4F7901D901B2
:103EB0008C918F770E942601F701808191819C016E
:103EC0002078232B39F0880F892F881F990B8F7743
:103ED0000E942601F801EC58FA4F808191819C01E3
:103EE0002227307C232B11F2990F880B990F982FE2
:103EF000881F8F770E942601B9CF80EF0E9426018C
:103F00008AE60E94260112EF8FE7163008F4812F0F
:103F10000E9426011F5F1630B9F7A8CFDA0111966B
:103F20009C9111971C91E7EFF2E0AFEF80E02081C8
:103F300017FF05C027FF46C0AF3F41F406C0121768
:103F400009F440C0AF3F11F427FDA82F8F5F3996C9
:103F5000843169F717FDF7CDAF3F09F4F4CDE9E0FF
:103F6000AE02D0011124A950BD4F1C938091F602DE
:103F700011968C931197212F012E000C330BF90110
:103F8000E450FF4FE491F0E0EE0FFF1FEE50FF4FC3
:103F90004591549113965C934E931297F901E05F0B
:103FA000FE4FE4911496EC93149715969C9360E061
:103FB000811161E0812F0E94830261E0812F0E94C4
:103FC000B102C1CD958317FDBDCFBDCD80EF90E08F
:103FD0000E94500481E790E00E9450048CEE91E032
:103FE0000E94F40ED7018C9190E081309105C1F0D0
:103FF0008230910509F47AC08330910509F479C0C3
:104000008430910509F477C01CE002E08530910509
:1040100049F011E001E0069729F41DE008E002C034
:104020001EE003E061E0802F0E94B10260E0802F7B
:104030000E94830283E090E00197F1F761E0802F16
:104040000E94830283E290E00197F1F760E0802F05
:104050000E94830260E0812F0E94B102812F90E0D4
:10406000FC01E05FFE4F6491FC01E450FF4FE491DE
:10407000F0E0EE0FFF1FEA56FF4F8591949100E4A8
:1040800012E42FE030E0462F0E9411264B015C0124
:1040900081149104A104B10439F0BFEF8B1A9B0A7B
:1040A000AB0ABB0AEFE0BE226EE170E080E090E078
:1040B0000E942703C501B4012AE330E040E050E04C
:1040C0000E941530B901330F880B990B4AE00E940A
:1040D000B00E81E092E00E94F40ED7016C9170E086
:1040E00090E080E04AE00E94B00E65C01FE009E069
:1040F00099CF0AE097CF60E070E0CB01E7CFFA01FB
:104100008380C280D12C018110E0608170E08091B9
:10411000F4069091F506A091F60689839A83AB8305
:1041200020E639E040E252E0CE0101960E944D0ABD
:104130000C151D0594F4912CB12CA12CC016D106A0
:1041400004F1B801CE0101960E94D109C501B40164
:104150000E9427030F5F1F4FF1CFC016D1068CF4CA
:10416000912CB12CA12CB801CE0101960E94D1094D
:10417000C501B4010E942703015011090C151D054A
:1041800094F7E9818E2F90E0FC01EE0FFF1FE80FFE
:10419000F91FEF5CF94F80818F7B8083D4CC80EF57
:1041A00090E00E94500481E790E00E94500480EF6C
:1041B00091E00E94F40E87EF90E00E945004C3CC7F
:1041C00080EF90E00E94500481E790E00E9450044C
:1041D0008AEF91E00E94F40ED7012C9130E0F901B2
:1041E000EC5DFE4F8491F901E05FFE4F0491F9010F
:1041F000E450FF4F14911123D1F081110E945A0213
:10420000E12FF0E0EE0FFF1FEA56FF4FA591B491AA
:10421000EC910E2381E090E009F480E00E943912D5
:1042200081E092E00E94F40EF701608158CF80E0B7
:1042300090E0F4CF80EF90E00E94500481E790E09E
:104240000E9450048EEF91E00E94F40ED7018C91F1
:104250000E94ED02E3CFDA0111960C91119710E064
:104260008C91813001F108F4BBC0823009F4F4C0B4
:10427000833009F068CCC801880F991F080F191FF7
:104280000E51194FD801ED91FC914481558170E098
:1042900060E0818592850E94DC34F8018081918103
:1042A0000E947D0750CCFA01928063805801AA0CCD
:1042B000BB1CF501E00FF11FEE51F94FE080F180DA
:1042C000E114F10489F0D70119968D919C910E9417
:1042D0005334F7018681978197FD03C060E00E9407
:1042E000B102C7010E94533486E190E00E94B733C7
:1042F0007C01C62CD12CDC0111961C9211971896CA
:104300001C921897FC011786108A118A128A81E084
:1043100086878387148692E095878083F3E06F9E7B
:104320003001112415967C926E921497C3010E945D
:10433000B733F70192878187009709F44CC0A30136
:1043400070E060E00E94DC34D7011396DC92CE92DC
:104350001297C92CD12CD7011796DC92CE921697C2
:1043600011968C91882341F061E0892D0E94B10261
:1043700060E0892D0E948302F601E450FF4FE49132
:10438000F0E0EE0FFF1FEE50FF4F85919491F70183
:10439000948B838BF601E05FFE4FE491D701559635
:1043A000EC9355970A0D1B1DF801EE51F94FF18260
:1043B000E08216968D919C9197FD08C061E00E9465
:1043C000B10260E0F70186810E94830281E0D7019B
:1043D00011968C93B8CB1582148213821282B9CFB6
:1043E0006801CC0CDD1CC601800F911FFC01EE5151
:1043F000F94F7F010190F081E02D309709F4A3CBB4
:104400004481558170E060E0818592850E94DC34B2
:10441000D7018D919C910E947D07F701E080F1808A
:10442000E114F10489F0D70119968D919C910E94B5
:104430005334F7018681978197FD03C060E00E94A5
:10444000B102C7010E9453340C0D1D1DF801EE513D
:10445000F94F1182108277CBF801EE0FFF1FE00FAA
:10446000F11FEE51F94F1ACF660F771F660F771FB6
:10447000680F791FA60FB72FB11D1C92D7CB81E013
:104480008093B50380EF90E00E94500481E790E0B4
:104490000E94500483E092E08CCEFA01918199232E
:1044A000A9F0953009F04FCB633008F04CCB109257
:1044B000B60310929A0210929B02109299020E94E7
:1044C000E2260E94A0260E9478263DCB81E08093C0
:1044D000B60312968C91813009F062C010921D06CD
:1044E00010921E06109222061092210610922406A7
:1044F0001092230610922606109225061092280686
:104500001092270610922A061092290610922C0665
:1045100010922B0610922E0610922D061092300645
:1045200010922F066FEF83E80E9444078823A1F1C1
:1045300069E88EE80E944407882371F1BE016F5F2D
:104540007F4F80E90E94CD11882331F1698160633A
:10455000698380E90E9444078823F1F080E00E948B
:10456000C6268823C9F081E00E94AB268823A1F0EB
:104570000E945626882381F061E083E00E94F111B9
:10458000882351F061E082E00E94F111882321F03C
:1045900061E086E00E94F11181E080939A02D3CA23
:1045A0009EEF980F9230B8F40E944A27882369F052
:1045B00080E00E948326882341F00E9456268823AB
:1045C00021F061E081E00E94F11181E080939C0282
:1045D00080939B02B8CA843009F0B5CA81E00E947A
:1045E000162782E00E941627882389F00E9433272D
:1045F000882369F080E00E945A26882341F00E94B7
:104600005626882321F061E082E00E94F11181E0CA
:104610008093990298CA1F920F920FB60F9211249D
:104620002F933F938F939F93AF93BF938091CA0330
:104630009091CB03A091CC03B091CD033091C503F1
:1046400023E0230F2D3758F50196A11DB11D2093AE
:10465000C5038093CA039093CB03A093CC03B0937C
:10466000CD038091C6039091C703A091C803B09178
:10467000C9030196A11DB11D8093C6039093C70382
:10468000A093C803B093C903BF91AF919F918F913D
:104690003F912F910F900FBE0F901F90189526E815
:1046A000230F0296A11DB11DD2CF1F920F920FB6FC
:1046B0000F9211242F933F934F935F936F937F93A8
:1046C0008F939F93AF93BF93EF93FF9380E494E016
:1046D0000E94E103FF91EF91BF91AF919F918F9164
:1046E0007F916F915F914F913F912F910F900FBEEE
:1046F0000F901F9018951F920F920FB60F921124D2
:104700002F938F939F93EF93FF93E0915004F09139
:1047100051048081E0915604F091570482FD1BC042
:104720009081809159048F5F8F7320915A04821772
:1047300041F0E0915904F0E0E05CFB4F958F8093ED
:104740005904FF91EF919F918F912F910F900FBE80
:104750000F901F9018958081F4CF1F920F920FB683
:104760000F9211240F900FBE0F901F9018951F925B
:104770000F920FB60F9211242F933F934F935F9395
:104780006F937F938F939F93AF93BF93EF93FF9319
:104790008091B900887F803609F44AC0F0F58832EC
:1047A00009F4A7C018F5803109F49BC0B8F4882338
:1047B00009F4F9C0883009F494C0FF91EF91BF91DA
:1047C000AF919F918F917F916F915F914F913F91A9
:1047D0002F910F900FBE0F901F901895883109F4FC
:1047E00088C0803251F78093140414C0803409F4D7
:1047F0009DC040F48033B9F38833F9F680931404F4
:1048000085ECB0C0803509F485C0883509F496C0C0
:10481000883499F60E94AC17D0CF883909F48CC03F
:1048200038F5883729F050F4883611F0803729F6AA
:1048300083E0809316041092E10257C0883809F48F
:104840007BC0803919F0803809F0B7CF8091E10240
:10485000803208F071C0E091E10281E08E0F809318
:10486000E1028091BB00F0E0EF53FD4F80833DC03B
:10487000803B39F0E0F4803A09F479C0883A09F0D5
:104880009CCF84E0809316041092C0021092BF0265
:10489000E091AB03F091AC0309958091BF028111C7
:1048A0000FC081E08093BF0210929F0209C0803C3C
:1048B00009F4A6CF883C09F4A3CF883B09F07DCF4B
:1048C000E091C00281E08E0F8093C002F0E0E156DB
:1048D000FD4F80818093BB009091C0028091BF0208
:1048E00029C08091F1038093BB0085EC8093BC00CC
:1048F00064CF9091130480911204981758F5E091B9
:10490000130481E08E0F80931304F0E0EE50FC4F0F
:104910008081E9CFE091130481E08E0F809313042E
:104920008091BB00F0E0EE50FC4F80839091130427
:10493000809112049817C8F285E8D8CFE09113044B
:1049400081E08E0F809313048091BB00F0E0EE5065
:10495000FC4F80838091150481115CCF81E08093AE
:10496000F00384EA8093BC001092160426CF85ECF5
:104970008093BC00109216048091E102803230F4E2
:10498000E091E102F0E0EF53FD4F10826091E1020F
:1049900070E0E091AD03F091AE0381EC92E00995F7
:1049A0001092E1020ACF1092140434CF1F920F929A
:1049B0000FB60F9211242F933F934F936F937F93D2
:1049C0008F939F93AF93BF93EF93FF9380910001D9
:1049D0008F5F80930001811138C0E7EFF2E04781DB
:1049E0008581411103C090859923E9F090E03681DB
:1049F000232F30E0BC01621B730B161617064CF414
:104A0000442389F0240F311D2817390764F4C901A4
:104A10000AC0672B41F04085442329F0241B31094B
:104A200082179307A4F386838681882349F09181B6
:104A3000A281B3818481911131C09C91892B8C9387
:104A4000399683E0EB3AF80751F6E7EFF2E0808120
:104A500087FD0FC080910001968198130AC0A28142
:104A6000B3818481918191111DC09C91809589238E
:104A70008C93399683E0EB3AF80749F7FF91EF9171
:104A8000BF91AF919F918F917F916F914F913F9186
:104A90002F910F900FBE0F901F9018959C918095AD
:104AA0008923CDCF9C91892BE3CF1F920F920FB614
:104AB0000F9211242F933F934F935F936F937F93A4
:104AC0008F939F93AF93BF93CF93DF93EF93FF9316
:104AD00080919D02C0915506D0E087FF24C01092BE
:104AE00085001092840080919D028F5F80939D02CB
:104AF00080919D02082E000C990B8C179D0724F4C1
:104B000080919D028C30C4F1809184009091850049
:104B1000049680349C4908F47AC080918400909176
:104B20008500049676C080919D02082E000C990B9A
:104B30008C179D07C4F6E0919D028E2FEE0F990B06
:104B4000FC01EE0FFF1FE80FF91FEF5CF94F8081AA
:104B500086FFC9CFE0919D028E2FEE0F990BFC01CD
:104B6000EE0FFF1FE80FF91FEF5CF94F808160E047
:104B70008F730E948302B7CF20918400309185000B
:104B8000E0919D028E2FEE0F990BFC01EE0FFF1F9F
:104B9000E80FF91FEF5CF94F81819281820F931F1B
:104BA0009093890080938800E0919D028E2FEE0FF4
:104BB000990BFC01EE0FFF1FE80FF91FEF5CF94F97
:104BC000808186FF11C0E0919D028E2FEE0F990B20
:104BD000FC01EE0FFF1FE80FF91FEF5CF94F80811A
:104BE00061E08F730E948302FF91EF91DF91CF917B
:104BF000BF91AF919F918F917F916F915F914F91F5
:104C00003F912F910F900FBE0F901F90189580E449
:104C10009CE990938900809388008FEF80939D0298
:104C2000E3CFCF92DF92EF92FF920F931F93E82F83
:104C3000F92F05C0015011092109310961F1908155
:104C400096239417B9F305C00150110921093109C0
:104C500011F1908196239413F7CFC12CD12CE12C24
:104C6000F12C0AC08FEFC81AD80AE80AF80A0C1506
:104C70001D052E053F0579F080818623841791F369
:104C80006C2D7D2D8E2D9F2D1F910F91FF90EF90FC
:104C9000DF90CF90089560E070E080E090E01F9199
:104CA0000F91FF90EF90DF90CF90089561E080E04A
:104CB0000C94F1111F93CF93DF931F92CDB7DEB702
:104CC000182FBE016F5F7F4F80E80E94CD118823AF
:104CD00051F069816F7D1295110F107E612B6983F0
:104CE00080E80E9444070F90DF91CF911F910895B3
:104CF00080E00E945A26882321F060E082E00C9434
:104D0000F11180E008951F93CF93DF931F92CDB7E9
:104D1000DEB7182FBE016F5F7F4F80E80E94CD1174
:104D2000882349F069816F7E1295107F612B69831A
:104D300080E80E9444070F90DF91CF911F91089562
:104D400080E00E948326882321F060E081E00C94BB
:104D5000F11180E008951F93CF93DF931F92CDB799
:104D6000DEB7182FBE016F5F7F4F8BEA0E94CD1117
:104D7000882339F069816E7F612B69838BEA0E94F9
:104D800044070F90DF91CF911F9108951F93CF9308
:104D9000DF931F92CDB7DEB7182FBE016F5F7F4F35
:104DA0008BEA0E94CD11882341F069816D7F110F3C
:104DB000612B69838BEA0E9444070F90DF91CF91AA
:104DC0001F91089510921D0610921E061092220641
:104DD00010922106109224061092230610922606A5
:104DE00010922506109228061092270610922A0685
:104DF0001092290610922C0610922B0610922E0665
:104E000010922D061092300610922F0680E00E941C
:104E1000C626882349F080E00E94AB26882321F033
:104E200060E086E00C94F11180E008951F93CF9329
:104E3000DF931F92CDB7DEB7182FBE016F5F7F4F94
:104E40008FE80E94CD11882349F06981637F110F9B
:104E5000110F612B69838FE80E9444070F90DF9147
:104E6000CF911F910895CF93DF931F92CDB7DEB7F7
:104E7000BE016F5F7F4F8FE80E94CD11882331F014
:104E800069816F7369838FE80E9444070F90DF91F7
:104E9000CF910895CF93DF931F92CDB7DEB7BE01B8
:104EA0006F5F7F4F8FE80E94CD11882339F06981B1
:104EB0006C7F616069838FE80E9444070F90DF91E7
:104EC000CF910895109243041092420488EE93E02B
:104ED000A0E0B0E08093440490934504A09346047E
:104EE000B09347042DE031E0309341042093400417
:104EF00025EC30E030934D0420934C0424EC30E05A
:104F000030934F0420934E0420EC30E03093510452
:104F10002093500421EC30E030935304209352044A
:104F200022EC30E0309355042093540426EC30E01A
:104F300030935704209356041092590410925A0447
:104F400010925B0410925C0410927D0610927C0615
:104F500080937E0690937F06A0938006B09381068F
:104F60008FE191E090937B0680937A068DED94E03B
:104F700010921E0510921D05909321058093200527
:104F800020E430E03093230520932205109224057D
:104F900010922505109227051092260510922805DB
:104FA00010922A051092290510922C0510922B05BB
:104FB00010922E0510922D051092300510922F059B
:104FC000109232051092310510923405109233057B
:104FD000109236051092350510923C0510923B0553
:104FE00010923E0510923D051092400510923F052B
:104FF00010924205109241051092500510924F05F3
:1050000010921F0510925D0510925F0510925E05CB
:1050100010929C0527EC30E0309344052093430523
:1050200021ED30E030934605209345052BED30E02F
:10503000309348052093470525EE30E030934A052C
:10504000209349052FEE30E030934C0520934B051B
:1050500029EF30E030934E0520934D0523E031E0F9
:1050600030935205209351052CE031E030935405E4
:10507000209353052CEC39E03093560520935505C9
:1050800090933805809337052CE533E0309358052D
:105090002093570590933A058093390587E191E075
:1050A00090935A058093590510922206109221067A
:1050B00010922406109223061092260610922506BE
:1050C000109228061092270610922A06109229069E
:1050D00010922C0610922B0610922E0610922D067E
:1050E0001092300610922F06809155068C3008F0F1
:1050F00091C091E0980F909355068093F40690E04C
:10510000FC01EE0FFF1FE80FF91FEF5CF94F88EB72
:105110009BE0928381831092E3061092E206109244
:10512000E6061092E5061092E9061092E806109243
:10513000EC061092EB061092EF061092EE0610921B
:10514000F2061092F1061092860688E68093890690
:105150008AE796E0909388068093870688E491EE2C
:10516000AAE7BFE38093DE069093DF06A093E006F4
:10517000B093E10610929206109293061092940654
:105180001092950610929606109297061092980625
:105190001092990610929A0610929B0610929C0605
:1051A00010929D0610929E0610929F061092A006E5
:1051B0001092A1061092A2061092A3061092A406C5
:1051C0001092A5061092A6061092A7061092A806A5
:1051D0001092A906E6E5F6E02FEF48EB5BE0809140
:1051E00055068C30D8F491E0980F90935506808343
:1051F00090E0DC01AA0FBB1FA80FB91FAF5CB94F2D
:1052000012965C934E931197339686E0EA37F8072F
:1052100031F708958FEF8093F4067DCF2083F4CF8C
:10522000CF93DF93CDB7DEB72E970FB6F894DEBFDE
:105230000FBECDBF789484B5826084BD84B5816093
:1052400084BD85B5826085BD85B5816085BD809151
:105250006E00816080936E001092810080918100C9
:1052600082608093810080918100816080938100C1
:10527000809180008160809380008091B100846083
:105280008093B1008091B00081608093B0008091E4
:105290007A00846080937A0080917A0082608093A3
:1052A0007A0080917A00816080937A0080917A0000
:1052B000806880937A001092C10087E192E00E949A
:1052C000F60E0E94141555E0E52EE0925D058091E2
:1052D0005E0590915F050E94533400915D0510E0DA
:1052E000C80101960E94B73390935F0580935E05D5
:1052F000FC01E00FF11F108262E0F62EDC01FC924F
:105300001196EC92A8014250510965E372E00296B1
:105310000E94EC348AE89CE09093EF028093EE02C6
:105320008EED9BE09093ED028093EC0281EB9BE08D
:105330009093EB028093EA028FE69DE09093E9025E
:105340008093E8028FEC93E19093E7028093E6026A
:1053500088E19DE09093E5028093E4028BE79DE174
:105360009093F1028093F00284E195E19093F3022F
:105370008093F20285E69EE09093F5028093F4021A
:1053800081E080939C05E0915004F0915104F082FB
:10539000E0915004F09151041082E0914C04F0919E
:1053A0004D041082E0914E04F0914F0480E180831F
:1053B00010925804E0915404F091550486E08083E3
:1053C000E0915204F0915304808180618083E091E8
:1053D0005204F0915304808188608083E0915204EC
:1053E000F0915304808180688083E0915204F091B1
:1053F000530480818F7D808380919C0581114FC0F3
:1054000061E08DE00E94B10262ED70E080E090E02A
:105410000E94270361E08DE00E94830268E270E051
:1054200080E090E00E94270360E08DE00E9483020C
:1054300062ED70E080E090E00E94270361E08DE083
:105440000E94830268E270E080E090E00E942703FF
:1054500060E08DE00E9483026AEF70E080E090E0FF
:105460000E94270315E062ED70E080E090E00E946A
:10547000270361E08DE00E94830268E270E080E033
:1054800090E00E94270360E08DE00E9483021150AB
:1054900051F76DE770E080E090E00E94270380E420
:1054A00094E090935C0580935B0590931E05809338
:1054B0001D058DE195E00E9433018DED94E00E9481
:1054C000580981E087BB82E08093B1008093B000EF
:1054D00092E89093B30080937000E7EFF2E08BEADC
:1054E00093E02FEF2083118213821282178210869D
:1054F00039968E179F07B1F71092F6021092CF03DC
:105500001092CE0310921D0410923F040E949C043E
:105510004AE5E42E43E0F42EF092AC03E092AB03B4
:105520000BE513E01093AE030093AD0389E392E023
:105530000E94F60E1092CF031092CE0310921D041B
:1055400010923F040E949C04F092AC03E092AB03E3
:105550001093AE030093AD03BE016E5F7F4F82E9EF
:105560000E94CD11882309F4F7C08A818B3A19F083
:105570008C3909F0F1C060E087E00E94F1118823C6
:1055800009F4EAC06BED81E80E944407882309F41E
:10559000E3C066EF83E80E944407882309F4DCC077
:1055A00067E88EE80E944407882309F4D5C060E0CC
:1055B0008DE90E944407882309F4CEC060E08EE99B
:1055C0000E944407882309F4C7C060E68DE80E9462
:1055D0004407882309F4C0C00E943327882309F4B4
:1055E000BBC082E00E941627882309F4B5C00E9440
:1055F0004A27882309F4B0C060E089E80E94440784
:10560000882309F4A9C062E38BE80E944407882339
:1056100009F4A2C06FEF84E80E944407882309F4CC
:105620009BC06FEF85E80E944407882309F494C06B
:1056300060E086E80E944407882309F48DC060E09A
:1056400087E80E944407882309F486C061E18CE85A
:105650000E944407882309F47FC061E080E90E942A
:105660004407882309F478C060E08FE90E9444076A
:10567000882309F471C068E280EA0E944407882305
:1056800009F46AC06EE181EA0E944407882309F4A4
:1056900063C060E482EA0E944407882309F45CC086
:1056A000BE016F5F7F4F83EA0E94CD11882309F40A
:1056B00053C069816F796064698383EA0E944407FB
:1056C000882309F449C0BE016F5F7F4F83EA0E94BF
:1056D000CD11882309F440C06981677E698383EA1C
:1056E0000E9444078823C1F1BE016F5F7F4F83EAA8
:1056F0000E94CD11882381F16981687F616069838F
:1057000083EA0E944407882339F160E084EA0E941A
:105710004407882309F160E085EA0E944407882352
:10572000D9F060E087EA0E9444078823A9F060E08E
:1057300089EA0E944407882379F069EC86EA0E948E
:105740004407882349F060E08AEA0E9444078823DE
:1057500019F080E00E94C62661E08BE60E94CB052E
:1057600060E089E10E94CB0560E08AE10E94CB0500
:1057700080E090E0A3E8B2E480938A0690938B06E1
:10578000A0938C06B0938D0668E08BE10E94CB0558
:1057900080E090E0A0E8B6E480938E0690938F06B8
:1057A000A0939006B093910660E08CE10E94CB0537
:1057B0000E9455158091C6069091C706A091C80613
:1057C000B091C9068093CE069093CF06A093D006E1
:1057D000B093D1068091CA069091CB06A091CC06D9
:1057E000B091CD068093D2069093D306A093D406B1
:1057F000B093D5062FB7F8948091CA039091CB034C
:10580000A091CC03B091CD032FBF8093DA06909383
:10581000DB06A093DC06B093DD0610929206109290
:105820009306109294061092950610929606109286
:105830009706109298061092990610929A06109266
:105840009B0610929C0610929D0610929E06109246
:105850009F061092A0061092A1061092A206109226
:10586000A3061092A4061092A5061092A606109206
:10587000A7061092A8061092A90604EF11E01B8655
:105880001C861D861E861F82188619861A861B8214
:105890001C821D821E82C12CD12C7601460157012B
:1058A000260137010E9469122091AE063091AF06A1
:1058B0004091B0065091B106C301B2010E94473039
:1058C0002B013C012091B2063091B3064091B40601
:1058D0005091B506C501B4010E9447304B015C01EF
:1058E00020E030E040E85FE36091B6067091B706D3
:1058F0008091B8069091B9060E9446309B01AC0198
:10590000C701B6010E9447306B017C012091BA06A5
:105910003091BB064091BC065091BD066B817C81E5
:105920008D819E810E9447306B837C838D839E8313
:105930002091BE063091BF064091C0065091C1062D
:105940006F81788589859A850E9447306F83788733
:1059500089879A872091C2063091C3064091C40678
:105960005091C5066B857C858D859E850E9447304C
:105970006B877C878D879E8761E070E080E090E098
:105980000E9427030150110909F08CCF20E030E07C
:105990004AEF53E4C301B2010E942A3160939E068C
:1059A00070939F068093A0069093A10620E030E0BC
:1059B0004AEF53E4C501B4010E942A316093A20664
:1059C0007093A3068093A4069093A50620E030E090
:1059D0004AEF53E4C701B6010E942A316093A6063C
:1059E0007093A7068093A8069093A90620E030E064
:1059F0004AEF53E46B817C818D819E810E942A3124
:105A00006093920670939306809394069093950604
:105A100020E030E04AEF53E46F81788589859A85EC
:105A20000E942A3160939606709397068093980699
:105A30009093990620E030E04AEF53E46B857C8533
:105A40008D859E850E942A3160939A0670939B06ED
:105A500080939C0690939D068AE492E00E94F60E45
:105A600000E010E0BB24B39422E0E22EF12CCC2421
:105A7000C394D12C8091B203882349F069B18091FD
:105A8000AF0368236C7F40E080E00E942D0D809181
:105A9000B303882379F063B186B16F73B0E48B9F51
:105AA000C0011124682B8091B003682340E081E09D
:105AB0000E942D0D8091B403882359F066B1809126
:105AC000B1038F7066956695682340E082E00E947E
:105AD0002D0D80915B0590915C05DC01ED91FC91B1
