:100000000C949D000C94C5000C94C5000C94CE2358
:100010000C94CE230C94CE230C94C5000C94F7249E
:100020000C94C5000C94C5000C94C5000C94762566
:100030000C94C5000C94C5000C94C5000C94C5002C
:100040000C9484230C94C5000C9452230C942C2300
:100050000C94C5000C94C5000C94C5000C94C5000C
:100060000C94D8230C94C500084AD73B3BCE016EB4
:1000700084BCBFFDC12F3D6C74319ABD56833DDAFF
:100080003D00C77F11BED9E4BB4C3E916BAAAABE0E
:10009000000000803F00000000002300260029002F
:1000A000CDCCCC3D0AD7233C17B7D13877CC2B32F7
:1000B0009595E6241FB14F0A0000803FCDCCCC3D82
:1000C0006F12833A95BFD6337D1D9026B3CE010CB7
:1000D000000020410000C84200401C4620BCBE4C2D
:1000E000CA1B0E5AAEC59D740000000024002700F4
:1000F0002A0000000000250028002B00040404044E
:1001000004040404020202020202030303030303C1
:10011000010204081020408001020408102001029E
:10012000040810200000000800020100000304077A
:100130000000000000000000832711241FBECFEF45
:10014000D8E0DEBFCDBF12E0A0E0B1E0ECE3FAE61C
:1001500002C005900D92AC36B107D9F726E0ACE6A7
:10016000B2E001C01D92AD3FB207E1F710E0CDE96A
:10017000D0E004C02197FE010E94BE33CC39D107E4
:10018000C9F70E9431290C941C350C940000862F6D
:10019000E091F502F091F602309711F0BA0109945E
:1001A0000895862FE091F302F091F402309711F058
:1001B000BA0109940895862FE091F102F091F202BC
:1001C000309711F0BA0109940895862FE091EF025B
:1001D000F091F002309711F0BA0109940895862F3A
:1001E000E091ED02F091EE02309711F0BA0109941E
:1001F0000895862FE091EB02F091EC02309711F018
:10020000BA0109940895CB01E091FB02F091FC0240
:10021000309709F009940895862F642FE091F70232
:10022000F091F802309711F0A90109940895E09136
:10023000F902F091FA02309709F00994089580913B
:10024000D0039091D103891B990B0895A0915D056E
:10025000B0915E05ED91FC9111970190F081E02D38
:10026000682FCD010994CF93DF93FC01A081B18168
:10027000109701F1EC01ED91FC9111970190F08143
:10028000E02D69EFCD01099588819981DC01ED911F
:10029000FC910190F081E02D62E0099588819981BF
:1002A000DC01ED91FC910190F081E02D65E0DF91A2
:1002B000CF910994DF91CF91089580912F0690916D
:1002C00030068130910541F485E090E0909332064C
:1002D0008093310681E00895029719F486E090E05A
:1002E000F5CF80912706909128068F3F980749F413
:1002F0008091290690912A06009731F583E090E0DD
:10030000E5CF8130910549F48091290690912A0624
:10031000009799F584E090E0D9CF892B09F079C056
:100320008091290690912A068130910519F482E086
:1003300090E0CCCF019609F06CC081E090E0909302
:1003400032068093310608958130910581F5209120
:1003500023063091240637FF03C0319521953109DA
:10036000809125069091260697FF03C0919581956F
:1003700091098217930714F2DACF8F3F980781F51E
:10038000209123063091240637FF03C03195219533
:100390003109809125069091260697FF03C091951B
:1003A00081959109821793070CF4B4CFC6CF0196BB
:1003B00081F5209123063091240637FF03C0319543
:1003C00021953109809125069091260697FF03C05B
:1003D000919581959109821793070CF48FCFADCF3A
:1003E0000197B9F4209123063091240637FF03C00A
:1003F000319521953109809125069091260697FF28
:1004000003C0919581959109821793070CF08FCFC6
:1004100081CF80E008951F93CF93DF93182FEB01D6
:1004200080912405909125056817790760F48091E3
:10043000220590912305C80FD91F188380E0DF9112
:10044000CF911F910895E0915105F0915205309799
:1004500011F481E0F4CF81E08093210580913D0586
:1004600090913E0509958091240590912505C81726
:10047000D90778F7DCCFCF93DF93EC01FB0130E0B5
:1004800020E0C901880F991F8C179D0778F44081DF
:10049000DB014D93BD011197918197959927979510
:1004A000942B9C932F5F3F4F3296EBCFC901DF9186
:1004B000CF91089508950895009721F0805C9F4F93
:1004C0000C9433010895AF92BF92CF92DF92EF92D6
:1004D000FF920F931F93CF93DF936C017B018B01EE
:1004E000040F151FEB015E01AE18BF08C017D1073E
:1004F00059F06991D601ED91FC910190F081E02DC8
:10050000C6010995892B79F7C501DF91CF911F911C
:100510000F91FF90EF90DF90CF90BF90AF90089534
:10052000FC01538D448D252F30E0842F90E0821BF9
:10053000930B541710F0CF96089501970895FC017E
:10054000918D828D981761F0A28DAE0FBF2FB11DD6
:100550005D968C91928D9F5F9F73928F90E008952E
:100560008FEF9FEF0895FC01918D828D981731F0E8
:10057000828DE80FF11D858D90E008958FEF9FEF3C
:100580000895FC01918D228D892F90E0805C9F4F12
:10059000821B91098F739927089582E494E00E9449
:1005A000C10221E0892B09F420E0822F089580E028
:1005B00090E0892B29F00E94CD0281110C9400005B
:1005C0000895FC01A48DA80FB92FB11DA35ABF4FE8
:1005D0002C91848D90E001968F739927848FA68942
:1005E000B7892C93A089B1898C91837080648C9396
:1005F000938D848D981306C00288F389E02D808145
:100600008F7D80830895EF92FF920F931F93CF9376
:10061000DF93EC0181E0888F9B8D8C8D98131AC03D
:10062000E889F989808185FF15C09FB7F894EE8924
:10063000FF896083E889F989808183708064808381
:100640009FBF81E090E0DF91CF911F910F91FF90CC
:10065000EF900895F62E0B8D10E00F5F1F4F0F7374
:100660001127E02E8C8D8E110CC00FB607FCFACF2F
:10067000E889F989808185FFF5CFCE010E94E102EA
:10068000F1CFEB8DEC0FFD2FF11DE35AFF4FF08200
:100690009FB7F8940B8FEA89FB8980818062CFCF66
:1006A000682F82E494E00C940303CF93DF93EC0172
:1006B000888D8823B9F0AA89BB89E889F9898C914A
:1006C00085FD03C0808186FD0DC00FB607FCF7CF06
:1006D0008C9185FFF2CF808185FFEDCFCE010E9406
:1006E000E102E9CFDF91CF910895833081F028F4C2
:1006F000813099F08230A9F008958730A9F08830D0
:10070000C9F08430B1F4809180008F7D03C0809166
:1007100080008F7780938000089584B58F7784BDA3
:10072000089584B58F7DFBCF8091B0008F77809343
:10073000B00008958091B0008F7DF9CF1F93CF93C3
:10074000DF93282F30E0F901EC5DFE4F8491F90131
:10075000E05FFE4FD491F901E450FF4FC491CC23E8
:10076000A9F0162F81110E947503EC2FF0E0EE0F17
:10077000FF1FEE50FF4FA591B4918FB7F894EC9105
:10078000111108C0D095DE23DC938FBFDF91CF918C
:100790001F910895DE2BF8CFCF93DF9390E0FC01FB
:1007A000E05FFE4F249184509F4FFC018491882389
:1007B000C9F090E0880F991FFC01E851FF4FA59107
:1007C000B491FC01EE50FF4FC591D49161110DC061
:1007D0009FB7F8948C91209582238C93888128234D
:1007E00028839FBFDF91CF910895623051F49FB766
:1007F000F8943C91822F809583238C93E8812E2B53
:10080000EFCF8FB7F894EC912E2B2C938FBFEACFBC
:100810008E3008F08E508770806480937C008091C9
:100820007A00806480937A0080917A0086FDFCCF04
:10083000809178009091790008953FB7F894809165
:10084000E7029091E802A091E902B091EA0226B590
:10085000A89B05C02F3F19F00196A11DB11D3FBFF8
:10086000BA2FA92F982F8827BC01CD01620F711DC7
:10087000811D911D42E0660F771F881F991F4A95C1
:10088000D1F708958F929F92AF92BF92CF92DF924D
:10089000EF92FF926B017C010E941D044B015C01F1
:1008A000C114D104E104F104B9F00E941D046819D7
:1008B00079098A099B09683E73408105910580F397
:1008C00021E0C21AD108E108F10888EE880E83E021
:1008D000981EA11CB11CE4CFFF90EF90DF90CF9049
:1008E000BF90AF909F908F9008952091C102260FE6
:1008F0003327331F21323105ECF420911804FC0119
:1009000090E080E0243069F082E00895A091C10277
:100910002191AC014F555D4FA40FB52FB11D2C9304
:100920000196861798F38091C102680F6093C10207
:1009300080E0089581E008951092180481E080938A
:1009400017041092F20361E082E10E949E0361E0CD
:1009500083E10E949E03E9EBF0E080818E7F80833B
:1009600080818D7F808388E48093B80085E48093C4
:10097000BC000895CF93DF9391E09093A002882369
:10098000B9F0C091B800D091BA008091BC008A7BC8
:100990008093BC0060E082E10E949E0360E083E1FE
:1009A0000E949E030E949C04D093BA00C093B8009A
:1009B000DF91CF9108958F929F92AF92BF92CF9285
:1009C000DF92EF92FF920F931F93CF93DF93D0911B
:1009D0004104D13208F0D7C0182FC09140040E94C2
:1009E0001D046B017C018091180481116BC082E0B1
:1009F00080931804109317048FEF809316041092BD
:100A00001504D0931404A0E2B4E0E4EFF3E080E036
:100A1000D81391C01092F3038091F303CC0FC82B2D
:100A2000C093F3038091F203813009F088C01092E3
:100A3000F2030E941D046B017C018091F3038093FB
:100A4000BB0080911A0490911B04A0911C04B091EA
:100A50001D04892B8A2B8B2BA1F00E941D04009171
:100A60001A0410911B0420911C0430911D046C1970
:100A70007D098E099F09061717072807390708F40B
:100A800042C08091BC0083FDD8CF85EC8093BC0030
:100A90000E941D046B017C0180911804823009F4CE
:100AA00050C0809116048F3F09F46FC080911604E6
:100AB000803209F46CC080911604803309F469C057
:100AC00084E026C080911A0490911B04A0911C041C
:100AD000B0911D04892B8A2B8B2B09F484CF0E94A3
:100AE0001D0480901A0490901B04A0901C04B090E8
:100AF0001D046C197D098E099F0986169706A806A4
:100B0000B90608F070CF809119040E94BA0485E0FC
:100B100010921F041092410410921E04DF91CF9195
:100B20001F910F91FF90EF90DF90CF90BF90AF900B
:100B30009F908F9008959D9191938F5F69CF85EEDF
:100B4000A5CF80911A0490911B04A0911C04B09130
:100B50001D04892B8A2B8B2B09F49ECF0E941D0428
:100B600000911A0410911B0420911C0430911D0463
:100B70006C197D098E099F09061717072807390781
:100B800008F08ACFC0CF81E0C3CF80E0C1CF82E040
:100B9000BFCF83E0BDCF1F93CF93DF93162FC8E85D
:100BA000D6E0A981BA819B8121E020931E04909315
:100BB000400410921F0410924104ED91FC91119792
:100BC0000190F081E02D682FCD01099589819A81EE
:100BD000DC01ED91FC910190F081E02D612F0995F0
:100BE00081E0DF91CF911F910C94DB04CF92DF92D3
:100BF000EF92FF920F931F93CF93DF93D82FC62FBF
:100C0000613208F098C00E941D046B017C01809144
:100C1000180481116BC081E080931804809317043D
:100C20009FEF90931604109215049C0F9093140458
:100C30008093F3038091F303DD0FD82BD093F3035C
:100C40008091F203813009F078C01092F2030E9483
:100C50001D046B017C018091F3038093BB008091A4
:100C60001A0490911B04A0911C04B0911D04892BBF
:100C70008A2B8B2BA1F00E941D0400911A04109165
:100C80001B0420911C0430911D046C197D098E09F0
:100C90009F09061717072807390708F448C08091ED
:100CA000BC0083FDD8CF85EC8093BC000E941D045E
:100CB0006B017C0180911804813009F440C080915F
:100CC00015048C1710F4C0911504E4EFF3E0A2EDC5
:100CD000B3E080E08C1355C08C2FDF91CF911F9132
:100CE0000F91FF90EF90DF90CF90089580911A04BC
:100CF00090911B04A0911C04B0911D04892B8A2B98
:100D00008B2B09F484CF0E941D0400911A041091CA
:100D10001B0420911C0430911D046C197D098E095F
:100D20009F09061717072807390708F070CF809129
:100D300019040E94BA04C0E0CFCF85EEB5CF8091F0
:100D40001A0490911B04A0911C04B0911D04892BDE
:100D50008A2B8B2B09F4AECF0E941D0400911A043C
:100D600010911B0420911C0430911D046C197D0905
:100D70008E099F09061717072807390708F09ACF29
:100D8000D6CF91919D938F5FA5CF0895E091D10328
:100D90008091D003E81730F4F0E0EE52FC4F8081F0
:100DA00090E008958FEF9FEF08959091D103809187
:100DB000D0032FEF3FEF981748F4E92FF0E0EE5201
:100DC000FC4F208130E09F5F9093D103C9010895CB
:100DD000CF92DF92EF92FF920F931F93CF93DF9307
:100DE0007C01CB018A0120911E04222389F0EB01B2
:100DF0006B01C40ED51ECC15DD0569F06991D701D4
:100E0000ED91FC910190F081E02DC7010995F3CFA0
:100E1000642F0E947504C801DF91CF911F910F913B
:100E2000FF90EF90DF90CF900895CF93DF931F92C4
:100E3000CDB7DEB7698320911E042223F9F02091FB
:100E40004104203258F021E030E0FC01338322835A
:100E500090E080E00F90DF91CF91089580911F0482
:100E6000E82FF0E0E05EFB4F998190838F5F8093E5
:100E70001F048093410481E090E0ECCF61E0CE015B
:100E800001960E947504F7CFCF93C62F91E09093FF
:100E90001E0499E39093400410921F0410924104A1
:100EA000682F8CE796E00E9415076C2F8CE796E080
:100EB0000E94150781E00E94DB0491E0811190E01F
:100EC000892FCF91089591E090931E0499E3909318
:100ED000400410921F0410924104682F8CE796E0A2
:100EE0000E94150781E00E94DB0491E0811190E0EF
:100EF000892F089590E080E00895CF92DF92EF92DD
:100F0000FF920F931F93CF93DF93CDB7DEB729974F
:100F10000FB6F894DEBF0FBECDBF8C01DC01199671
:100F20008D919C91892B09F47AC0F801C784D088EF
:100F3000E188F2880E941D046C157D058E059F05D1
:100F400048F40E941D04D8011F966D937D938D93E4
:100F50009C9352970E941D04F801C784D088E188B1
:100F6000F2886C197D098E099F096C3271408105E8
:100F70009105D8F2F894D80114968D919C9115970B
:100F80009A8389831996ED91FC917F01BFEFEB1A4B
:100F9000FB0A80818987F80190810388F489E02D1C
:100FA000D80155968C91992309F448C09081982BCB
:100FB00098879081809589238F838F818C8388E0A7
:100FC0008B8358856F8149853B812C8189819A81EA
:100FD000D701508347FD252F3A952083262F39F0DE
:100FE000441F00C000006083000000C0F2CF38E062
:100FF0004D9160830000019761F7D8015496FC93EE
:10100000EE93539749873B832C839A838983789403
:101010000E941D04F8016787708B818B928B299643
:101020000FB6F894DEBF0FBECDBFDF91CF911F91F9
:101030000F91FF90EF90DF90CF9008959081982BC3
:1010400098879081809589238F838F818E8388E014
:101050008D8358856F8149853D812E8189819A8153
:10106000D701508347FD252F00C000C0208300C05A
:1010700000C000C000C000C060830000262F3A9569
:1010800041F0441F000000C000C000C000C000C00C
:10109000E8CF38E04D9100C0608300C0019709F7A8
:1010A000D8015496FC93EE93539749873D832E8342
:1010B000ACCF5F926F927F928F929F92AF92BF92CE
:1010C000CF92DF92EF92FF920F931F93CF93DF9314
:1010D0005C016901DA015C90232B19F4CC24CA94D9
:1010E000DC2C8A013A01660E771ED0E0C0E0F12CBC
:1010F000E12C87E0882E912CF50180819181D80127
:101100006C910C2E01C0660F0A94EAF765296F777F
:10111000DC01ED91FC910190F081E02D0995BFEF8C
:10112000EB1AFB0AF801608170E0C4018C1B9D0B77
:1011300002C0759567958A95E2F7562E2196C730BD
:10114000D10558F1CE14DF0441F1D5018D919C9168
:10115000652D6F77DC01ED91FC910190F081E02D20
:101160000995BFEFEB1AFB0A551C5524551C279710
:10117000E6CFEC14FD0408F4BFCFDF91CF911F91AF
:101180000F91FF90EF90DF90CF90BF90AF909F9026
:101190008F907F906F905F9008950F5F1F4F601644
:1011A000710639F7209749F3EC14FD0430F7F50187
:1011B0008081918161E070E001C0660FCA95EAF715
:1011C00061506521DC01ED91FC910190F081E02DF1
:1011D000DF91CF911F910F91FF90EF90DF90CF9013
:1011E000BF90AF909F908F907F906F905F90099489
:1011F0001F93CF93DF9300D0CDB7DEB7182F7A833C
:10120000698380911F05909120050097C9F0DC014A
:10121000ED91FC910190F081E02D1031B8F4611551
:101220007044A0F4612F606E099522E030E0AE01B9
:101230004F5F5F4F62E070E08FE195E00E945908D8
:101240000F900F90DF91CF911F91089560EF099556
:1012500080911F0590912005DC01ED91FC9101909A
:10126000F081E02D6FE6099580911F059091200592
:10127000DC01ED91FC910190F081E02D612F099549
:1012800022E030E0AE014F5F5F4F62E070E08FE13F
:1012900095E00E94590880911F0590912005DC017E
:1012A000ED91FC910190F081E02D67EF0995C8CF99
:1012B000CF92DF92EF92FF920F931F93CF93DF9322
:1012C000FC01E058FF4FE080EE2009F45CC0EC0127
:1012D000C05CDF4FA881B981109709F454C0FC01AC
:1012E000EF57FF4FC080D180F60111810081ED9151
:1012F000FC9111970190F081E02D60EFCD010995EF
:1013000088819981DC01ED91FC910190F081E02DC3
:1013100069E7099588819981DC01ED91FC91019043
:10132000F081E02D602F099588819981DC01ED9194
:10133000FC910190F081E02D612F0995F12C01E0E5
:1013400010E00F5F1F4FE016F10659F030E020E08B
:10135000A601400F511F61E070E0CE010E945908C4
:10136000F0CF88819981DC01ED91FC910190F081B1
:10137000E02D67EFDF91CF911F910F91FF90EF90DC
:10138000DF90CF900994DF91CF911F910F91FF9043
:10139000EF90DF90CF900895009711F00C945809CA
:1013A0000895CF92DF92EF92FF92CF93DF93EC01FB
:1013B000603282E07807CCF5653B710514F064EB90
:1013C00070E0898128E830E0281B310987FD3395DA
:1013D000220F331F220F331F6901330FEE08FF085E
:1013E0008A8128E532E0281B310987FD3395220FD9
:1013F000331F220F331F032E000C440B550B2C19E7
:101400003D094E095F09DB0177FF02C0B0E0A0E0B3
:101410000E942E3024EB30E040E050E00E94043087
:10142000C20ED31EE41EF51EB601E881EC3070F545
:10143000298188E890E0821B910927FD9395880F08
:10144000991F880F991F681779077CF02A8188E512
:1014500092E0821B910927FD9395880F991F880FB1
:10146000991F681779070CF4CB010297880F991F11
:101470004FB7F8942E2F30E0F901EE0FFF1FE20F67
:10148000F31FED5CF94F928381834FBFDF91CF91C2
:10149000FF90EF90DF90CF900895DF92EF92FF9250
:1014A0000F931F93CF93DF93EC01D62E7A0189011E
:1014B00088818C3008F067C061E08D2D0E94CC03DC
:1014C0008881282F30E0F901EE0FFF1FE20FF31F94
:1014D000ED5CF94F9D2D9F736081607C692B60836B
:1014E00020E232E02E193F0937FF02C02D5F3F4F47
:1014F0003595279535952795298320E639E0201BDA
:10150000310B37FF02C02D5F3F4F3595279535953D
:1015100027952A832CE0622F0E949E33829FB00180
:10152000112430E020E0AB01420F531FFA01EE0F0F
:10153000FF1FE40FF51FED5CF94F908196FD16C07B
:101540002F5F3F4F2C30310571F781110FC0109282
:10155000800082E0809381001092850010928400C8
:10156000B19A80916F00826080936F00E8818E2F26
:1015700090E0FC01EE0FFF1FE80FF91FED5CF94F43
:101580008081806480838881DF91CF911F910F914A
:10159000FF90EF90DF900895FC01892B69F0948112
:1015A00090786115710519F4948381E00895946031
:1015B000948371836083F9CF80E00895CF93DF93A4
:1015C000EC0188819981DC01ED91FC910190F08121
:1015D000E02D09952A813B81820F931F9B838A838B
:1015E000DF91CF910895CF93DF93EC0188819981AA
:1015F000DC01ED91FC910280F381E02D09952A81B7
:101600003B81820F931F9B838A83DF91CF91089543
:10161000EF92FF920F931F93CF93DF93CDB7DEB777
:1016200066970FB6F894DEBF0FBECDBF8C01CB011D
:10163000FE0177969F014AE0E42EF12CB7010E944B
:10164000AA33805D8293CB010097C1F7A9014E1B9D
:101650005F0BBF01C8010E94F30A66960FB6F894AB
:10166000DEBF0FBECDBFDF91CF911F910F91FF90D5
:10167000EF9008958F929F92AF92BF92CF92DF9298
:10168000EF92FF920F931F93CF93DF93CDB7DEB707
:1016900066970FB6F894DEBF0FBECDBF6C018E010A
:1016A000095E1F4F78018AE0882E912CA12CB12C65
:1016B000CB01BA01A50194010E943630942F852FE9
:1016C000605DF80162938F01A901692F782F4115A0
:1016D00051056105710561F7A7014E1B5F0BBF0145
:1016E000C6010E94F30A66960FB6F894DEBF0FBEDD
:1016F000CDBFDF91CF911F910F91FF90EF90DF90C1
:10170000CF90BF90AF909F908F900895EF92FF92EF
:101710000F931F93CF93DF93EC017B0162E20E9452
:10172000DE0A8701F80161918F01662391F0EDE2F5
:10173000F1E0F280FF2049F0329681816813F9CF01
:101740006CE5CE010E94DE0A6F2DCE010E94DE0AFA
:10175000E9CF62E2CE01DF91CF911F910F91FF900F
:10176000EF900C94DE0AFC019B01892BD1F0AB01B8
:10177000770F660B770B9481907837FD08C09860DF
:101780009483408351836283738381E008959A60D8
:10179000948370956095509541955F4F6F4F7F4F43
:1017A000F0CF80E00895FC010E96918380839383AF
:1017B000828388539F4F9583848397838683108683
:1017C0008585807885870895CF938730B0F421E0B0
:1017D00030E0082E02C0220F331F0A94E2F7409136
:1017E000C2035091C303672B51F4209530952423F5
:1017F00035233093C3032093C203CF910895242B44
:10180000352B3093C3032093C20390919102911121
:10181000F4CFC82F0E940804BC018C2FCF910C94E8
:10182000F8085F926F927F928F929F92AF92BF92D1
:10183000CF92DF92EF92FF920F931F93CF93DF939C
:10184000833008F061C0D1E0D80FDD0FDD0FDD0F70
:101850005D2ED53110F044E1542EC62F082FD850FC
:101860008D2E912CC401880F991F9C0121523B4F52
:101870005901D12CC12C10E077247394D515C8F5EB
:101880008EEF8D0F8231F8F4F601E80DF91DEE5957
:10189000FA4F90819230B8F48C2F8721662463949C
:1018A000811101C0612C7601EE0CFF1C913089F48E
:1018B000172937E9E30EF11CF501EE0DFF1D862D0A
:1018C00090E091838083770CDF5F8FEFC81AD80A8E
:1018D000D5CF882371F3F701E956FF4FEA0DFB1DC1
:1018E00080819181019729F362E08D2F0E94CC03C2
:1018F000E0CF011119C0F8948BB16C2F68276C7F71
:10190000612368276BB97894DF91CF911F910F9174
:10191000FF90EF90DF90CF90BF90AF909F908F900F
:101920007F906F905F9008950130D1F4C123F894B7
:1019300095B1812F8F73809589239C2F9F73892B5D
:1019400085B988B1612F62956695669563706095DB
:101950006823C295C695C695C370C62BC8B9D3CFA8
:101960001F70F89498B1812F880F880F8095892374
:10197000C123CC0FCC0FC82BF1CFFF920F931F9335
:10198000CF93DF93843118F5EB01F82E082F10E088
:10199000F801EE59FA4F80818330F9F08430B9F4C0
:1019A0008EEF8F0D823160F4F801E658FD4F808193
:1019B00023E0829FC0011124885A994F0E94D109C7
:1019C000000F111FF801EA58FA4FD183C083DF914D
:1019D000CF911F910F91FF90089583E0F81641F089
:1019E0008BEF8F0D823020F087EF8F0D833040F723
:1019F00061E08F2D0E94CC03209729F460E08F2DA9
:101A00000E949E03DDCFCF3FD10511F461E0F7CFF7
:101A1000F801EC5DFE4FE491E33019F140F4E13060
:101A2000B1F0E230C9F0C038D10584F7E7CFE73034
:101A300011F1E83041F1E430B1F78091800080622B
:101A400080938000D0938B00C0938A00B9CF84B577
:101A5000806884BDC7BDB4CF84B5806284BDC8BD75
:101A6000AFCF80918000806880938000D093890000
:101A7000C0938800A5CF8091B00080688093B000AB
:101A8000C093B3009DCF8091B00080628093B0007E
:101A9000C093B40095CF9EEF980F923180F4E82F59
:101AA000F0E0DF01AE59BA4F9C91913041F4EE0F56
:101AB000FF1FEA58FA4F608371830C949E030895C8
:101AC000FF920F931F93CF93DF9300D0CDB7DEB774
:101AD000082F10E0F801EA54FC4F9081F62EF9220D
:101AE00002571D4F411104C0F80190819F1511F15B
:101AF0002F2D30E03A832983A0911F05B091200556
:101B00001097B1F0682F6F706069ED91FC9111979B
:101B10000190F081E02DCD01099522E030E0AE0189
:101B20004F5F5F4F62E070E08FE195E00E945908DF
:101B3000F801F0820F900F90DF91CF911F910F91DC
:101B4000FF900895833040F5282F30E0F901E754E5
:101B5000FC4F6083672B01F12A543C4FF9016081EF
:101B6000811106C099B19C7F692341E00C94600DFE
:101B7000813049F493B126B19F73F0E42F9F900117
:101B80001124922BF1CF26B130E03595279535956C
:101B900027952F706223E9CF0895A82FB0E0A658AB
:101BA000BD4F9C91292F30E0F901EE0FFF1FE20F8E
:101BB000F31FE85AF94FE0812E2F30E0F901EE0FC4
:101BC000FF1FE20FF31FED5CF94F80818F7B808355
:101BD00080917802981308C0992319F0915090933E
:101BE00078028FEF8C9308958823D9F3E0917902DE
:101BF000EF5FE0937902F0E0E559FD4F9083F1CF7C
:101C0000FC01892B51F0948190789C6094834083EF
:101C100051836283738381E0089580E00895FC011D
:101C20002581222339F0F8E02F0290011124820F40
:101C3000931F089590E080E00895CF93DF93DC0137
:101C4000EA01EC81FD818A819B810896E817F907FA
:101C500040F481E08887F0E0E0E0CF01DF91CF91B0
:101C600008953897FD83EC833097B9F31296CD91A0
:101C7000DC911397209791F0CF018C1B9D0B23E0F3
:101C8000959587952A95E1F78D831396FC93EE93AE
:101C900012971582148277836683DFCF1196FC93A7
:101CA000EE93F3CFEF92FF920F931F93CF93DF93B7
:101CB000FC0101900020E9F731977F01E81AF90A49
:101CC000A0911F05B09120051097D1F18C01ED91E5
:101CD000FC9111970190F081E02D60EFCD01099505
:101CE00080911F0590912005DC01ED91FC91019000
:101CF000F081E02D61E70995D0E0C0E0EC16FD062B
:101D000069F0A8014C0F5D1F30E020E061E070E059
:101D10008FE195E00E9459082196F0CF80911F0530
:101D200090912005DC01ED91FC910190F081E02D76
:101D300067EFDF91CF911F910F91FF90EF90099482
:101D4000DF91CF911F910F91FF90EF9008950C9428
:101D5000520ECF93DF93DB01909178029C3078F59F
:101D600030917902682F70E0FB01E658FD4F332374
:101D7000E1F0C32FD0E0C559DD4F88818083315019
:101D800030937902808123E0829FC0011124885A18
:101D9000994F1A161B0674F4141615065CF49A0172
:101DA000AD01DF91CF910C944D0A90839F5F90938A
:101DB0007802E8CF20E639E040E252E0F2CF8EE34D
:101DC00091E0DF91CF910C94520EFC010190002024
:101DD000E9F73197AF01481B590BBC0182E494E04D
:101DE0000C9463028F929F92AF92BF920F931F93B6
:101DF000CF93DF93CDB7DEB7A1970FB6F894DEBFD0
:101E00000FBECDBF19A2423008F44AE08E010F5D2B
:101E10001F4F842E912CB12CA12CA50194010E945E
:101E20003630E62FB901CA01EA30F4F4E05DD8019A
:101E3000EE938D01232B242B252B79F790E080E066
:101E4000109719F0CD010E94E50EA1960FB6F894F7
:101E5000DEBF0FBECDBFDF91CF911F910F91BF901D
:101E6000AF909F908F900895E95CE1CF0C94E50EC0
:101E7000CF93DF930E94E50EEC0182E591E00E9492
:101E8000E50E8C0F9D1FDF91CF910895FB0101900E
:101E90000020E9F73197AF01461B570B0C94F30A6A
:101EA0002F923F924F925F926F927F928F929F926A
:101EB000AF92BF92CF92DF92EF92FF920F931F9358
:101EC000CF93DF93CDB7DEB766970FB6F894DEBF3A
:101ED0000FBECDBF8C011B01DC0114968C911497B1
:101EE0008F77863009F463C278F48230B0F08430A2
:101EF00008F044C212964D915C9113976D917C91BC
:101F0000C1010E94F30A36C28C3069F160F4883056
:101F100009F448C28A3009F437C265E571E0C101AD
:101F20000E94460F27C2803209F4FCC18034A9F711
:101F30006BE5C1010E94DE0AF801008111810115E3
:101F4000110509F4EAC1B101C8010E94500FC8018E
:101F50000E940F0E8C01892B09F4DFC16CE2C101D4
:101F60000E94DE0AECCFF801C080D180E280F380CD
:101F7000A7019601C701B6010E944631882331F0BE
:101F800065E571E0C1010E94460F9FC120E030E08D
:101F9000A901C701B6010E944631882371F0A7014B
:101FA0009601C701B6010E9468309B01AC01C701D0
:101FB000B6010E944631882319F320E030E0A901E0
:101FC000C701B6010E94463187FF08C06DE2C1011A
:101FD0000E94DE0AF7FAF094F7F8F09420E836E968
:101FE00048E15BE4C701B6010E94C53287FD81C0AC
:101FF00064E1A62EB12C00E210E01A8A198AF501DC
:10200000E053FF4F2591359145915491C701B60199
:102010000E94C53287FD13C0F501E056FF4F2591A0
:10202000359145915491C701B6010E94D2326B019E
:102030007C0129893A89200F311F3A8B298B15950C
:10204000079534E0A31AB1088CEFA8168FEFB806F5
:10205000B1F655245A9420E030E0A901C701B60139
:102060000E94C53218160CF04BC02CEA35EC47E242
:1020700057E3C701B6010E94463118160CF440C060
:10208000A52DB4E0AB02C0011124B12CA12CFC01A0
:10209000E854FF4F3F019C0120533F4F49013FEF60
:1020A000531671F1F301EA0DFB1D65917591859150
:1020B0009491A70196010E94C53218169CF4F40170
:1020C000EA0DFB1D2591359145915491C701B6014B
:1020D0000E94D2326B017C0189899A89801B910B05
:1020E0009A8B898B159507955A9494E0A91AB10893
:1020F000D6CF00E210E045E0542E1A8A198AABCF01
:10210000C701B6010E94BD314B015C012B013C01AE
:1021100006E080E492E4AFE0B0E08B8B9C8BAD8B6B
:10212000BE8B102F01509AE04916510461047104CE
:10213000C8F06B897C898D899E892AE030E040E077
:1021400050E00E9436302B8B3C8B4D8B5E8BC30155
:10215000B2012AE030E040E050E00E943630290130
:102160003A01DFCFC501B4010E94EC319B01AC0103
:10217000C701B6010E9467306B017C016B897C89C5
:102180008D899E890E94EC319B01AC01C701B6018B
:102190000E94D2322B013C010E94BD316B017C01B7
:1021A0000E94EC319B01AC01C301B2010E94673077
:1021B0009B01AC010E9468300E94BD31C60ED71E43
:1021C000E81EF91E8B899C89AD89BE89C816D9067F
:1021D000EA06FB06D8F09FEF891A990AA90AB90AFC
:1021E000A989BA89AB2B39F1BAE08B169104A10405
:1021F000B10408F1E989FA893196FA8BE98BC12C8F
:10220000D12C7601812C912C540183949AE0492E93
:10221000512C612C712CC701B601A30192010E94BF
:102220003630672B682B692B51F4111644F4690181
:102230007A011150F0CFC12CD12C7601E7CFB50136
:10224000A401C1010E943A0B112371F14E01F1E189
:102250008F0E911C012F54018AE0482E512C612CC5
:10226000712C015068F0C701B601A30192010E94D0
:102270003630605DD4016E934D0169017A01F1CF72
:10228000812F90E0BC0160957095F501E81BF90B7A
:1022900031978EE2808344275527461B570B6A0DE2
:1022A0007B1DC1010E94F30AE989FA89F7FF2AC060
:1022B0006AE571E0C1010E94460F69897A897195CA
:1022C00061957109C1010E94080BD10112968D918F
:1022D0009C9166960FB6F894DEBF0FBECDBFDF911E
:1022E000CF911F910F91FF90EF90DF90CF90BF9013
:1022F000AF909F908F907F906F905F904F903F90A6
:102300002F90089529893A89232BF9F265E6C101B6
:102310000E94DE0A69897A89D5CF6DE5C1010E94E4
:10232000DE0AD3CF6BE7C1010E94DE0AF80100810B
:10233000118101151105D1F0D80116966D917C918E
:10234000C1010E94860B6AE3C1010E94DE0AB1014D
:10235000C8010E94500FC8010E940F0E8C01892BEA
:1023600029F06CE2C1010E94DE0AE3CF6DE7C101F2
:102370000E94DE0AF10182819381ABCF6D917C9145
:10238000C1010E94860BF6CFCD90DD90ED90FC90C0
:102390006DE2C1010E94DE0AB701A601C1010E94DF
:1023A0003A0BE8CF4D915D916D917C91F7CFF8019B
:1023B00080819181A281B3816DE571E0892B8A2BA7
:1023C0008B2B09F0DFCD62E671E0DCCDCF93DF939C
:1023D00000D000D000D0CDB7DEB722E434E03A839D
:1023E00029831C821B82BE016F5F7F4F09960E946A
:1023F000500F26960FB6F894DEBF0FBECDBFDF910B
:10240000CF9108950F931F93CF93DF938B010E9479
:102410006307C82F8823A1F061E089E30E94F605D5
:10242000D82F1092D1038093D0038091D103D81775
:1024300039F08CE796E00E94D506F8018083F5CF4D
:102440008C2FDF91CF911F910F9108950F931F93C0
:10245000CF93DF931F92CDB7DEB7082F162FBE01A3
:102460006F5F7F4F80E80E9402128823A1F02981CC
:1024700080E02F3F81F00730C1F081E090E001C0A3
:10248000880F0A95EAF7112361F0122F182B612F9C
:1024900080E80E9444070F90DF91CF911F910F9128
:1024A0000895182F10951223F2CF112381F31FE7FF
:1024B000EECFCF93DF931F92CDB7DEB7BE016F5F34
:1024C0007F4F8FEA0E940212882331F08981817048
:1024D0000F90DF91CF91089581E0FACFCF92DF92F4
:1024E000EF92FF92CF93DF936C01990FEE08FF08F4
:1024F000F7FE19C06DE282E494E00E940303EC0150
:1025000066277727CB016C197D098E099F094AE060
:102510000E94F20E8C0F9D1FDF91CF91FF90EF90E4
:10252000DF90CF9008954AE0C701B601DF91CF91C7
:10253000FF90EF90DF90CF900C94F20E8F929F92CD
:10254000AF92BF92CF92DF92EF92FF920F931F93C1
:10255000CF93DF93CDB7DEB72E970FB6F894DEBFDB
:102560000FBECDBF8091890690918A0620918B067F
:1025700031E030931E042093400410921F04109207
:102580004104DC01ED91FC910190F081E02D6BE3C1
:10259000099580E00E94DB046EE080918B060E942A
:1025A000F6051092D1038093D0038E010F5F1F4F69
:1025B0006E01BFE0CB0ED11C8091890690918A06F6
:1025C000DC01ED91FC910284F385E02D0995B82E94
:1025D0008091890690918A06DC01ED91FC9102843C
:1025E000F385E02D0995E12C8E299B29F801819333
:1025F00091938F01CE16DF06F9F6C0909006D09029
:102600009106E0909206F090930669817A81072EF8
:10261000000C880B990B0E94EE31A70196010E94D5
:102620004B312091A0063091A1064091A206509115
:10263000A3060E9467306093B0067093B106809342
:10264000B2069093B3066B817C81072E000C880B39
:10265000990B0E94EE31A70196010E944B31209107
:10266000A4063091A5064091A6065091A7060E94A7
:1026700067306093B4067093B5068093B606909366
:10268000B7068091880661E06827681B770B072EE4
:10269000000C880B990B0E94EE314B015C016D819F
:1026A0007E81072E000C880B990B0E94EE319B0156
:1026B000AC01C501B4010E94D232A70196010E946B
:1026C0004B312091A8063091A9064091AA0650915D
:1026D000AB060E9467306093B8067093B90680938A
:1026E000BA069093BB066F817885072E000C880B85
:1026F000990B0E94EE3120E030EF41E456E40E9455
:10270000683020E030E04AEA53E40E944B316093A5
:10271000AC067093AD068093AE069093AF06C09062
:102720008C06D0908D06E0908E06F0908F0669851D
:102730007A85072E000C880B990B0E94EE31A701B9
:1027400096010E944B31209194063091950640915C
:102750009606509197060E9467306093BC0670936E
:10276000BD068093BE069093BF066B857C85072EC1
:10277000000C880B990B0E94EE31A70196010E9474
:102780004B31209198063091990640919A065091CC
:102790009B060E9467306093C0067093C1068093C9
:1027A000C2069093C3066D857E85072E000C880BAC
:1027B000990B0E94EE31A70196010E944B312091A6
:1027C0009C0630919D0640919E0650919F060E9466
:1027D00067306093C4067093C5068093C6069093D5
:1027E000C7062E960FB6F894DEBF0FBECDBFDF91A1
:1027F000CF911F910F91FF90EF90DF90CF90BF90FE
:10280000AF909F908F9008959F92AF92BF92CF927A
:10281000DF92EF92FF920F931F93CF93DF93C82E17
:10282000D12CE601C152DB4FFE01ED57FF4F9081E5
:102830009F3709F491C07B01182F0EEF080F02316A
:1028400008F564307105F1F0F601E658FD4F80811E
:102850008C30C0F490E0FC01EE0FFF1FE80FF91F71
:10286000E85AF94FE0818E2F90E0FC01EE0FFF1F38
:10287000E80FF91FED5CF94F808186FF03C08C2DB6
:102880000E94CD0D52EF952E910E85E0891558F0DE
:1028900061E070E032E0E316F10411F070E060E016
:1028A000892D0E94E40B0231C8F4E12FE695E695EC
:1028B000E695F0E0EA54FC4F2081312F377081E03B
:1028C00090E001C0880F3A95EAF7E114F10421F095
:1028D0003BE0E316F10401F5822B80835601AA0C3C
:1028E000BB1CF501EA58FA4F118210828CE0E81601
:1028F000F10408F0BFC0F701E058FB4E0C94BE3362
:10290000A014CD148F14E41403153A153A153A1592
:102910003A153A15AC14B81480958223DECF35E011
:102920003915D0F0023120F460E0812F0E94CC03F1
:10293000CD57DF4F88818F3779F082E088830CC0D4
:10294000023150F460E0812F0E94CC03CD57DF4F5D
:1029500088818F3709F01882DF91CF911F910F91F5
:10296000FF90EF90DF90CF90BF90AF909F90089531
:10297000023190F762E0812F0E94CC03CD57DF4FE8
:1029800088818F3711F08BE08883F501EA58FA4F80
:1029900081E090E091838083DFCF0231E8F6FE0191
:1029A000ED57FF4F8081833021F460E0812F0E943A
:1029B0009E0361E0812F0E94CC03CD57DF4F8881B9
:1029C0008F3751F281E0BACF133049F08BEF810F8E
:1029D000823028F087EF810F833008F0BDCF61E0AF
:1029E000812F0E94CC0361E0812F0E94CC0360E024
:1029F000812F0E949E03CD57DF4F88818F3709F4C6
:102A0000ABCF83E09BCF023108F0A6CFCD57DF4F8D
:102A100088818F3711F084E08883F601E658FD4FF6
:102A200080818F3FA9F090E0FC01EE0FFF1FE80FBF
:102A3000F91FE85AF94FE0818E2F90E0FC01EE0F6C
:102A4000FF1FE80FF91FED5CF94F808186FD84CFF1
:102A50004FEF5FEF6FEF7FEF812FDF91CF911F91EE
:102A60000F91FF90EF90DF90CF90BF90AF909F902D
:102A70000C94A90E88E691E0DF91CF911F910F9100
:102A8000FF90EF90DF90CF90BF90AF909F900C940D
:102A9000520E0F931F93CF93DF9381E080939102A7
:102AA0001092B9031092B60310928E021092BA03DC
:102AB0001092B70310928F021092BB031092B803CA
:102AC000109290020AE712E0C0E0DFEF82EF8C0F75
:102AD00062E070E0863030F08EEF8C0F823128F4A7
:102AE00070E060E08C2F0E940414F801D1938F01F4
:102AF000CF5FC43159F71092C3031092C2031092F2
:102B000079021092780210929102DF91CF911F9179
:102B10000F9108954F925F926F927F928F929F9242
:102B2000AF92BF92CF92DF92EF92FF920F931F93DB
:102B3000CF93DF93CDB7DEB72C970FB6F894DEBFF7
:102B40000FBECDBF0E949E12C090B806D090B906AD
:102B5000E090BA06F090BB0621E030E03A8329838A
:102B600020E030E0A901C701B6010E94C53287FF0D
:102B700002C01A82198201E010E020E030E0A901D1
:102B8000C701B6010E94463187FD02C010E000E097
:102B900069817A81601B710B072E000C880B990BE1
:102BA0000E94EE316D837E838F839887A701960103
:102BB000C701B6010E94D2322B013C01C090B00681
:102BC000D090B106E090B206F090B306A70196014E
:102BD000C701B6010E94D232A30192010E9468305F
:102BE0000E9445339B01AC018090B4069090B506DD
:102BF000A090B606B090B7066D817E818F819885D2
:102C00000E94D2329B01AC01C501B4010E94E730A1
:102C100021EE3EE245E652E40E94D2326093C806BD
:102C20007093C9068093CA069093CB06A5019401C0
:102C3000C501B4010E94D232A30192010E94683002
:102C40000E9445339B01AC01C701B6010E94E730E9
:102C5000905821EE3EE245E652E40E94D232609363
:102C6000CC067093CD068093CE069093CF068FB797
:102C7000F894C090CC03D090CD03E090CE03F090B8
:102C8000CF038FBF8091DC069091DD06A091DE0618
:102C9000B091DF06A7019601281B390B4A0B5B0B8D
:102CA000CA01B9010E94EC312FE632E143E85AE350
:102CB0000E94D2324B015C01C092DC06D092DD064C
:102CC000E092DE06F092DF068091E0069091E10648
:102CD000A091E206B091E30689839A83AB83BC831B
:102CE0004090C8065090C9066090CA067090CB0606
:102CF0002091BC063091BD064091BE065091BF06A2
:102D0000C501B4010E94D2322091D0063091D10683
:102D10004091D2065091D3060E946830A3019201DF
:102D20000E9467306B017C0120E030E044E353E413
:102D30000E94C53218163CF420E030E044EB53E426
:102D4000C701B601EDCF20E030E044E353ECC7010A
:102D5000B6010E94463187FF0BC020E030E044EB13
:102D600053E4C701B6010E9468306B017C01EBCFD0
:102D700029813A814B815C8160E070E080E89FE3CB
:102D80000E94673069877A878B879C87A7019601A5
:102D9000C301B2010E94683029813A814B815C8174
:102DA0000E94D2326B017C0129853A854B855C8576
:102DB000C301B2010E94D2329B01AC01C701B6012E
:102DC0000E9468306B017C0120E030E044E353E472
:102DD0000E94C53218164CF420E030E044EB53E476
:102DE000C701B6010E946730EDCF20E030E044E338
:102DF00053ECC701B6010E94463187FF0BC020E0AB
:102E000030E044EB53E4C701B6010E9468306B0127
:102E10007C01EBCFC092D006D092D106E092D206D0
:102E2000F092D3064090CC065090CD066090CE062E
:102E30007090CF062091C0063091C1064091C20625
:102E40005091C3066D817E818F8198850E94D23218
:102E5000A50194010E94D2322091D4063091D5066A
:102E60004091D6065091D7060E946830A301920186
:102E70000E9467306B017C0120E030E044EB52E4BB
:102E80000E94C53218163CF420E030E044E353E4DD
:102E9000C701B601EDCF20E030E044EB52ECC701B2
:102EA000B6010E94463187FF0BC020E030E044E3CA
:102EB00053E4C701B6010E9468306B017C01EBCF7F
:102EC000A7019601C301B2010E94683029813A81AD
:102ED0004B815C810E94D2326B017C01A301920183
:102EE00069857A858B859C850E94D2329B01AC01D5
:102EF000C701B6010E9468306B017C0120E030E020
:102F000044EB52E40E94C53218164CF420E030E045
:102F100044E353E4C701B6010E946730EDCF20E0DF
:102F200030E044EB52ECC701B6010E94463187FF06
:102F30000BC020E030E044E353E4C701B6010E9437
:102F400068306B017C01EBCFC092D406D092D506DD
:102F5000E092D606F092D7062091C4063091C506BD
:102F60004091C6065091C706C501B4010E94D232F5
:102F70002091D8063091D9064091DA065091DB06AF
:102F80000E9468306093D8067093D9068093DA0661
:102F90009093DB062C960FB6F894DEBF0FBECDBF24
:102FA000DF91CF911F910F91FF90EF90DF90CF9025
:102FB000BF90AF909F908F907F906F905F904F9059
:102FC000089585ED8093BC0080911A0490911B04B4
:102FD000A0911C04B0911D040796A11DB11D23E012
:102FE000B695A795979587952A95D1F72091BC001E
:102FF00024FD03C010921804089540911A045091C2
:103000001B0460911C0470911D04452B462B472B1B
:1030100069F30097A105B10541F025E32A95F1F781
:1030200000000197A109B109E1CF809119040C9426
:10303000BA040F931F93CF93DF938B01EC01892B7D
:10304000A1F06E817F816017710779F0011511057C
:1030500041F06115710529F0C8010E940435892BE2
:1030600021F0CE010E940F0EE9CFCE01DF91CF916A
:103070001F910F910895EF92FF920F931F93CF939B
:10308000DF93EC018C81982F9F7739F480788062F0
:103090008C83198218821B821A828C8185FF16C04C
:1030A0006115710599F07A018B01888199810E94DF
:1030B0001918009769F4A701B801CE01DF91CF91EB
:1030C0001F910F91FF90EF900C941D0E80E090E007
:1030D000DF91CF911F910F91FF90EF900895CF93C3
:1030E000DF93EC01AC0109960E943B18FC01892B8F
:1030F00041F08481807880628483118210821382FF
:103100001282BF01CE01DF91CF910895EF92FF921D
:103110000F931F93CF93DF930097B9F0611571055B
:10312000A1F07A018B01EC01888199810E94191824
:10313000009769F4A701B801CE01DF91CF911F91EB
:103140000F91FF90EF900C941D0E80E090E0DF91C6
:10315000CF911F910F91FF90EF9008952F923F9282
:103160004F925F926F927F928F929F92AF92BF9297
:10317000CF92DF92EF92FF920F931F93CF93DF9343
:10318000CDB7DEB7C855D1400FB6F894DEBF0FBE3D
:10319000CDBF80EF90E00E94500381E790E00E9455
:1031A0005003CE0101960E94D30BAE014F5F5F4FDB
:1031B00069E771E0CE010A960E943B186EE771E064
:1031C0000E94CC0A80919E02882309F4BFC067E860
:1031D00071E0CE0101960E946F186B017C01109284
:1031E0009A0210929902BE0169527F4F86E90E94AD
:1031F0000212882321F1C952DF4F8881C75DD04078
:1032000090E090939A0280939902BE0169527F4F99
:1032100087E90E940212882391F0C952DF4F88810A
:10322000C75DD04090E0982F882720919902309177
:103230009A02820F931F90939A02809399020091B1
:10324000990210919A02A7016DE871E0C6010E94EF
:103250008618B8010E94B30B109298021092970240
:10326000BE0169527F4F88E90E940212882321F132
:10327000C952DF4F8881C75DD04090E0909398029B
:1032800080939702BE0169527F4F89E90E94021222
:10329000882391F0C952DF4F8881C75DD04090E00C
:1032A000982F88272091970230919802820F931FC0
:1032B0009093980280939702009197021091980240
:1032C000A70161E971E0C6010E948618B8010E9459
:1032D000B30B1092960210929502BE0169527F4F75
:1032E0008AE90E940212882321F1C952DF4F8881A6
:1032F000C75DD04090E09093960280939502BE0106
:1033000069527F4F8BE90E940212882391F0C952C3
:10331000DF4F8881C75DD04090E0982F88272091AB
:10332000950230919602820F931F9093960280939C
:1033300095020091950210919602A70167E971E04C
:10334000C6010E948618B8010E94B30B80919D02AD
:10335000882309F440C01092940210929302BE0197
:1033600069527F4F84E90E940212882321F1C952D9
:10337000DF4F8881C75DD04090E0909394028093A6
:103380009302BE0169527F4F85E90E940212882391
:1033900091F0C952DF4F8881C75DD04090E0982FEF
:1033A00088272091930230919402820F931F90936B
:1033B0009402809393020091930210919402AE01C3
:1033C0004F5F5F4F6CE971E0CE010A960E943B1897
:1033D000B8010E94B30B80919C02882309F44CC26F
:1033E0000E945912882309F447C2C85ADE4F188236
:1033F000C855D1400E945912882309F43DC28E015C
:1034000009521F4FB80180E80E940212882309F474
:1034100068C0D8018C91817409F42EC222242A94A8
:10342000322CEE24E394F12C6EE170E080E090E029
:103430000E944204BE01695A7E4F8FEA0E94021226
:10344000882309F419C2C95ADE4F8881C755D14073
:1034500080FFD2C1BE01685A7E4F8EEA0E940212DE
:10346000882309F409C2C85ADE4FC880C855D14024
:10347000CC20D1F2B4E0CB9E600111248CEF0E94ED
:103480006307811130C08FEF9FEF30911F062091AD
:103490002006D801E32F5C01BB2441E04E0FCD0193
:1034A000801B910B8A159B050CF043C0F0E0BF0117
:1034B00061567A4F8C91FB01808311968C91119704
:1034C00080A3CB01805C9F4F12965C911297FC0108
:1034D0005083B09613968C91139780831496E42FA3
:1034E000DCCF8FEF98CF6C2D613208F060E289E37A
:1034F0000E94F605882E1092D1038093D003912C60
:103500008091D103A92CB12C881671F0AC14BD04A4
:1035100008F0B9CF8CE796E00E94D506F801EA0DD5
:10352000FB1D80839394ECCFC501843008F47CCFDD
:10353000ACCFF3E0AF0EB11CB694A794B694A794A9
:103540002A0DA30EA0921F0620932006253008F412
:103550004EC18FEF820F803208F0EAC0EFE9F5E04C
:10356000C22ED12CCF018F5995408C159D050CF0A2
:103570003EC171917B30B0F3578D5B3098F337AD1E
:103580003B3080F3CF01815A9F4FDC019C919B30EF
:1035900048F3D601A156BA4F4E914B3078F0909631
:1035A0006C9190976B3050F0FD01E05CFF4F2081F3
:1035B0002B3020F0B09680818B3048F4EFE9F5E0B5
:1035C000EA17FB0749F780E020E060E040E0C72E03
:1035D000D12CE52FF0E0632E712C492E512C50E0B8
:1035E00070E030E0A82EB12CDA01A61BB70B84E600
:1035F000982E9A9EC0019B9E900D1124640F751FFA
:103600000E94AA334B01A6014E1B5F0B64E6649F28
:10361000C001659F900D1124B6016E0F7F1F0E949F
:10362000AA33861A970AA9014A195B09A4E6A49F3E
:10363000C001A59F900D1124B9016A0D7B1D0E9448
:10364000AA339B01A30144195509B4E6B49FC001F4
:10365000B59F900D1124B301640D751D0E94AA330E
:10366000261B370B4091230650912406480D591D07
:1036700050932406409323068091250690912606B8
:10368000820F931F9093260680932506423351059F
:103690000CF457C0F0922806E09227068233910579
:1036A0000CF45CC0F0922A06E0922906C40143960D
:1036B0004091270650912806452B09F06FC0409194
:1036C000290650912A06452B09F068C0879708F013
:1036D0008EC0C9014396879708F089C080912B0658
:1036E00090912C068114910409F045C021153105F3
:1036F00009F041C0019690932C0680932B0680918F
:103700002B0690912C060A970CF471C080912D061F
:1037100090912E0602970CF46AC08928B1F5232BEC
:1037200021F4F0923006E0922F060E945D015FC006
:1037300080E020E060E040E090E030E050E070E0C9
:1037400046CF4F3C5F4F2CF430922806209227063C
:10375000A5CF1092280610922706A0CF8F3C9F4F2E
:103760002CF430922A0620922906A0CF10922A0625
:10377000109229069BCF80912D0690912E060196DE
:1037800090932E0680932D06BACF232B71F282E000
:1037900090E09093300680932F06C7CF879738F537
:1037A000C9014396879718F580912B0690912C06B6
:1037B000892839F4232B29F4019690932C068093C1
:1037C0002B0680912B0690912C060A9784F010927C
:1037D00028061092270610922A06109229061092A7
:1037E00024061092230610922606109225061092A7
:1037F0001F061092200618CE6EE170E080E090E087
:103800000E9442040E945D0180913106909132062F
:1038100010921F0610922006109224061092230682
:10382000109226061092250610922806109227065E
:1038300010922A061092290610922C0610922B063E
:1038400010922E0610922D061092300610922F061E
:1038500010923206109231068F3F980769F083303C
:10386000910509F459C00CF043C08130910509F469
:103870006DC0029709F476C080919B028823B1F055
:103880001092920262E972E08CE90E9402120091A9
:10389000920210E0AE014F5F5F4F69EC71E0CE0124
:1038A0000A960E943B18B8010E94B30BCE01019604
:1038B0000E94E61187EF90E00E945003C85ADE4F45
:1038C0000FB6F894DEBF0FBECDBFDF91CF911F9131
:1038D0000F91FF90EF90DF90CF90BF90AF909F90AF
:1038E0008F907F906F905F904F903F902F900895B2
:1038F0008530910509F442C0ECF0069709F0BCCF81
:10390000AE014F5F5F4F65EA71E0CE010A960E94FB
:103910003B1865EC71E00BC0AE014F5F5F4F65EA8D
:1039200071E0CE010A960E943B186DEA71E00E9498
:10393000CC0AA2CFAE014F5F5F4F65EA71E0CE01C6
:103940000A960E943B1860EB71E0F1CFAE014F5F29
:103950005F4F65EA71E0CE010A960E943B1865EB65
:1039600071E0E5CFAE014F5F5F4F65EA71E0CE01D8
:103970000A960E943B186AEB71E0D9CFAE014F5F07
:103980005F4F65EA71E0CE010A960E943B1860EC39
:1039900071E0CDCF4F925F926F927F928F929F9204
:1039A000AF92BF92CF92DF92EF92FF920F931F934D
:1039B000CF93DF93CDB7DEB7C65DD1090FB6F894CC
:1039C000DEBF0FBECDBF0E948A1580EF90E00E943F
:1039D000500381E790E00E945003CE0101960E94BF
:1039E000D30BAE014F5F5F4F69E771E0CE010A96DE
:1039F0000E943B1863ED71E00E94CC0A6BED71E010
:103A0000CE0101960E946F184B015C0161EE71E0DE
:103A1000CE0101960E946F186B017C0108E816E048
:103A2000F80140A451A462A473A4A50166EE71E05C
:103A3000C4010E948618B301A2010E94000EF80181
:103A400044A455A466A477A4A5016AE672E0C40163
:103A50000E948618B301A2010E94000EF80140A83E
:103A600051A862A873A8A50168EE71E0C4010E9484
:103A70008618B301A2010E94000EF80184A895A83F
:103A8000A6A8B7A8A70166EE71E0C6010E94861835
:103A9000B501A4010E94000EF80180AC91ACA2AC6B
:103AA000B3ACA7016AE672E0C6010E948618B501B0
:103AB000A4010E94000EF80184AC95ACA6ACB7AC92
:103AC000A70168EE71E0C6010E948618B501A40145
:103AD0000E94000EF801C4A0D5A0E6A0F7A0AE0198
:103AE0004F5F5F4F6AEE71E0CE010A960E943B186D
:103AF000B701A6010E94000ECE0101960E94E611B8
:103B000087EF90E00E945003CA52DF4F0FB6F8943F
:103B1000DEBF0FBECDBFDF91CF911F910F91FF9000
:103B2000EF90DF90CF90BF90AF909F908F907F905D
:103B30006F905F904F9008954F925F926F927F9237
:103B40008F929F92AF92BF92CF92DF92EF92FF92AD
:103B50000F931F93CF93DF9300D01F92CDB7DEB7A3
:103B6000182F862F7A01183109F44BC308F092C040
:103B7000123109F491C3E0F4103109F448C208F09D
:103B8000DFC2183009F4EBC10F900F900F90DF9156
:103B9000CF911F910F91FF90EF90DF90CF90BF904A
:103BA000AF909F908F907F906F905F904F9008950F
:103BB000163109F415C308F05EC3133129F7DA0191
:103BC0004C9150E012961C9112979A01220F331FCC
:103BD000F901E40FF51FEC51F94F0190F081E02D50
:103BE000612F70E0828193816817790708F04EC0D9
:103BF00013960C91139714968C9190E0B0E0A0E08E
:103C0000BA2FA92F982F88274C015D01A02AD70130
:103C100015960C91D501C401802B4D01AA24BB241B
:103C2000492E5A2E6B2E7724F42CE82E0085002383
:103C300091F0C02ED12CC89C7001C99CF00CD89C6E
:103C4000F00C11248F2C049D20011124F52C089FC9
:103C5000C0011124E92EA68581859285B385AB1319
:103C600024C4BC01B3E01B9F600D711D1124A3850A
:103C7000A60FB72FB11D8C92A485A60FB72FB11D2B
:103C8000FC928585680F711DFB01E082240F351FB2
:103C9000F90108C41D3609F40EC1B0F5193609F44E
:103CA0004DC11B3609F4BEC01A3109F06DCFDA01DF
:103CB0009C919C3109F412C4963209F065CF11969B
:103CC0001C9180EF90E00E94500381E790E00E94F9
:103CD000500383ED91E00E94360F87EF90E00E9441
:103CE0005003112309F4ECC3113009F04DCF1092A9
:103CF000BC0380EF90E00E94500381E790E00E94B7
:103D0000500380E192E076C2103749F11A3709F486
:103D10006FC01F3609F038CF623008F435CFDA01B2
:103D200011966C91119770E08230A1F012962C914F
:103D3000B0E82B9F90011124622B732B833051F03C
:103D4000FA01838190E090E4899F902D88271124C7
:103D5000682B792BD7018C910E94BD0C15CF653053
:103D600008F412CFDA011C918EEF810F823108F036
:103D70000BCF11960C9111971296CC901297139627
:103D8000DC9013971496FC90E12FF0E0E658FD4F7D
:103D900080818C30C0F490E0FC01EE0FFF1FE80F33
:103DA000F91FE85AF94FE0818E2F90E0FC01EE0FE9
:103DB000FF1FE80FF91FED5CF94F808186FF03C0FC
:103DC000812F0E94CD0DB0E8FB9EA00111244D0D66
:103DD000511DE0E8CE9EB0011124600F711D812FAE
:103DE0000E94A90E64E070E0812F0E940414CCCEE2
:103DF000623008F4C9CEDA0111968C91B0E88B9F3D
:103E000090011124FA018081820F932F911D83313B
:103E100091052CF09093020180930101B5CE83E1CE
:103E200090E0F8CF80EF0E9426018CE60E942601E8
:103E30001EEF84EF810F863020F582E00E9426017C
:103E40008AE00E9426018DEF810F8230E0F089EF39
:103E5000810F8330F0F417C0123158F780E00E94D0
:103E6000260181E00E9426018BE00E94260181E06C
:103E70000E94260181E00E94260181E00E94260125
:103E8000D8CF113001F783E00E94260188E00E941C
:103E90002601123130F484E00E9426018EE00E9457
:103EA00026018FE70E9426011F5F1231A9F687EFD6
:103EB0000E94260169CE662309F466CEFA010081CC
:103EC00080EF0E9426018EE60E942601802F0E942C
:103ED0002601043160F710E0F801EE59FA4F8081B5
:103EE0000E942601000F111F98012A583A4F7901AC
:103EF000D9018C918F770E942601F70180819181F1
:103F00009C012078232B39F0880F892F881F990B6B
:103F10008F770E942601F801EA58FA4F808191813B
:103F20009C012227307C232B11F2990F880B990FCB
:103F3000982F881F8F770E942601B9CF80EF0E94AB
:103F400026018AE60E94260112EF8FE7163008F458
:103F5000812F0E9426011F5F1630B9F7A8CFDA0122
:103F600011969C9111971C91EEEFF2E0AFEF80E07B
:103F7000208117FF05C027FF46C0AF3F41F406C0B0
:103F8000121709F440C0AF3F11F427FDA82F8F5F2F
:103F90003996843169F717FDF7CDAF3F09F4F4CDB9
:103FA000E9E0AE02D0011124A250BD4F1C938091D4
:103FB000FD0211968C931197212F012E000C330BCB
:103FC000F901E450FF4FE491F0E0EE0FFF1FEE50D7
:103FD000FF4F4591549113965C934E931297F901BC
:103FE000E05FFE4FE4911496EC93149715969C9322
:103FF00060E0811161E0812F0E949E0361E0812FCA
:104000000E94CC03C1CD958317FDBDCFBDCD80EF00
:1040100090E00E94500381E790E00E9450038FEEF1
:1040200091E00E94360FD7018C9190E0813091058C
:10403000C1F08230910509F47AC08330910509F40A
:1040400079C08430910509F477C01CE002E0853026
:10405000910549F011E001E0069729F41DE008E020
:1040600002C01EE003E061E0802F0E94CC0360E00C
:10407000802F0E949E0383E090E00197F1F761E0BA
:10408000802F0E949E0383E290E00197F1F760E0A9
:10409000802F0E949E0360E0812F0E94CC03812F1D
:1040A00090E0FC01E05FFE4F6491FC01E450FF4FA3
:1040B000E491F0E0EE0FFF1FEA56FF4F85919491D7
:1040C00000E412E42FE030E0462F0E9432264B013C
:1040D0005C0181149104A104B10439F0BFEF8B1A83
:1040E0009B0AAB0ABB0AEFE0BE226EE170E080E003
:1040F00090E00E944204C501B4012AE330E040E0B0
:1041000050E00E943630B901330F880B990B4AE01A
:104110000E94F20E84E092E00E94360FD7016C916B
:1041200070E090E080E04AE00E94F20E65C01FE07F
:1041300009E099CF0AE097CF60E070E0CB01E7CFCC
:10414000FA018380C280D12C018110E0608170E08F
:104150008091F6069091F706A091F80689839A83DC
:10416000AB8320E639E040E252E0CE0101960E94A6
:104170004D0A0C151D0594F4912CB12CA12CC016E0
:10418000D10604F1B801CE0101960E94D109C50102
:10419000B4010E9442040F5F1F4FF1CFC016D10639
:1041A0008CF4912CB12CA12CB801CE0101960E9467
:1041B000D109C501B4010E944204015011090C1536
:1041C0001D0594F7E9818E2F90E0FC01EE0FFF1F93
:1041D000E80FF91FED5CF94F80818F7B8083D4CC91
:1041E00080EF90E00E94500381E790E00E9450032E
:1041F00083EF91E00E94360F87EF90E00E9450031A
:10420000C3CC80EF90E00E94500381E790E00E94D1
:1042100050038DEF91E00E94360FD7012C9130E0D2
:10422000F901EC5DFE4F8491F901E05FFE4F0491CE
:10423000F901E450FF4F14911123D1F081110E9434
:104240007503E12FF0E0EE0FFF1FEA56FF4FA59137
:10425000B491EC910E2381E090E009F480E00E949B
:104260006E1284E092E00E94360FF701608158CF11
:1042700080E090E0F4CF80EF90E00E94500381E76F
:1042800090E00E94500381E092E00E94360FD70137
:104290008C910E940804E3CFDA0111960C911197DA
:1042A00010E08C91813001F108F4BBC0823009F438
:1042B000F4C0833009F068CCC801880F991F080F3B
:1042C000191F0C51194FD801ED91FC914481558172
:1042D00070E060E0818592850E94FD34F801808164
:1042E00091810E947D0750CCFA0192806380580131
:1042F000AA0CBB1CF501E00FF11FEC51F94FE08057
:10430000F180E114F10489F0D70119968D919C9107
:104310000E947434F7018681978197FD03C060E0A5
:104320000E94CC03C7010E94743486E190E00E9491
:10433000D8337C01C62CD12CDC0111961C9211972C
:1043400018961C921897FC011786108A118A128AF7
:1043500081E086878387148692E095878083F3E0E7
:104360006F9E3001112415967C926E921497C301B2
:104370000E94D833F70192878187009709F44CC0D7
:10438000A30170E060E00E94FD34D7011396DC9237
:10439000CE921297C92CD12CD7011796DC92CE92CF
:1043A000169711968C91882341F061E0892D0E9427
:1043B000CC0360E0892D0E949E03F601E450FF4F7C
:1043C000E491F0E0EE0FFF1FEE50FF4F85919491C6
:1043D000F701948B838BF601E05FFE4FE491D701E8
:1043E0005596EC9355970A0D1B1DF801EC51F94FAA
:1043F000F182E08216968D919C9197FD08C061E054
:104400000E94CC0360E0F70186810E949E0381E058
:10441000D70111968C93B8CB158214821382128225
:10442000B9CF6801CC0CDD1CC601800F911FFC01C7
:10443000EC51F94F7F010190F081E02D309709F4A4
:10444000A3CB4481558170E060E0818592850E9414
:10445000FD34D7018D919C910E947D07F701E0808A
:10446000F180E114F10489F0D70119968D919C91A6
:104470000E947434F7018681978197FD03C060E044
:104480000E94CC03C7010E9474340C0D1D1DF8015D
:10449000EC51F94F1182108277CBF801EE0FFF1F1C
:1044A000E00FF11FEC51F94F1ACF660F771F660F1F
:1044B000771F680F791FA60FB72FB11D1C92D7CB9E
:1044C00081E08093BC0380EF90E00E94500381E77D
:1044D00090E00E94500386E092E08CCEFA01918138
:1044E0009923A9F0953009F04FCB633008F04CCBFD
:1044F0001092BD0310929C0210929D0210929B029A
:104500000E9403270E94C1260E9499263DCB81E08C
:104510008093BD0312968C91813009F062C0109295
:104520001F06109220061092240610922306109265
:104530002606109225061092280610922706109241
:104540002A061092290610922C0610922B06109221
:104550002E0610922D061092300610922F06109201
:104560003206109231066FEF83E80E9444078823D9
:10457000A1F169E88EE80E944407882371F1BE0129
:104580006F5F7F4F80E90E940212882331F16981B9
:104590006063698380E90E9444078823F1F080E02A
:1045A0000E94E7268823C9F081E00E94CC26882358
:1045B000A1F00E947726882381F061E083E00E94C9
:1045C0002612882351F061E082E00E94261288239F
:1045D00021F061E086E00E94261281E080939C0237
:1045E000D3CA9EEF980F9230B8F40E946B278823AD
:1045F00069F080E00E94A426882341F00E9477267B
:10460000882321F061E081E00E94261281E08093FE
:104610009E0280939D02B8CA843009F0B5CA81E039
:104620000E94372782E00E943727882389F00E9462
:104630005427882369F080E00E947B26882341F07C
:104640000E947726882321F061E082E00E942612F2
:1046500081E080939B0298CA1F920F920FB60F922F
:1046600011242F933F934F935F936F937F938F9377
:104670009F93AF93BF93EF93FF9382E494E00E94E4
:10468000E102FF91EF91BF91AF919F918F917F9147
:104690006F915F914F913F912F910F900FBE0F90AF
:1046A0001F9018951F920F920FB60F9211242F93FF
:1046B0008F939F93EF93FF93E0915204F0915304F3
:1046C0008081E0915804F091590482FD1BC09081D3
:1046D00080915B048F5F8F7320915C04821741F09F
:1046E000E0915B04F0E0EE5BFB4F958F80935B0401
:1046F000FF91EF919F918F912F910F900FBE0F908F
:104700001F9018958081F4CF1F920F920FB60F92D1
:1047100011242F933F938F939F93AF93BF938091D7
:10472000CC039091CD03A091CE03B091CF033091F3
:10473000E60223E0230F2D3758F50196A11DB11D88
:104740002093E6028093CC039093CD03A093CE03F5
:10475000B093CF038091E7029091E802A091E90223
:10476000B091EA020196A11DB11D8093E7029093DA
:10477000E802A093E902B093EA02BF91AF919F9142
:104780008F913F912F910F900FBE0F901F90189512
:1047900026E8230F0296A11DB11DD2CF1F920F92C2
:1047A0000FB60F9211240F900FBE0F901F90189507
:1047B0001F920F920FB60F9211242F933F934F9396
:1047C0005F936F937F938F939F93AF93BF93EF9379
:1047D000FF938091B900887F803609F44AC0F0F5D4
:1047E000883209F4A7C018F5803109F49BC0B8F4E9
:1047F000882309F4F9C0883009F494C0FF91EF913F
:10480000BF91AF919F918F917F916F915F914F91E8
:104810003F912F910F900FBE0F901F9018958831E8
:1048200009F488C0803251F78093160414C0803494
:1048300009F49DC040F48033B9F38833F9F68093CE
:10484000160485ECB0C0803509F485C0883509F4BC
:1048500096C0883499F60E94E117D0CF883909F4C0
:104860008CC038F5883729F050F4883611F080373D
:1048700029F683E0809318041092E30257C0883829
:1048800009F47BC0803919F0803809F0B7CF8091E6
:10489000E302803208F071C0E091E30281E08E0F04
:1048A0008093E3028091BB00F0E0ED53FD4F8083E5
:1048B0003DC0803B39F0E0F4803A09F479C0883A91
:1048C00009F09CCF84E0809318041092C2021092E9
:1048D000C102E091B203F091B30309958091C10246
:1048E00081110FC081E08093C1021092A10209C022
:1048F000803C09F4A6CF883C09F4A3CF883B09F09B
:104900007DCFE091C20281E08E0F8093C202F0E081
:10491000EF55FD4F80818093BB009091C202809142
:10492000C10229C08091F3038093BB0085EC809382
:10493000BC0064CF9091150480911404981758F529
:10494000E091150481E08E0F80931504F0E0EC50A7
:10495000FC4F8081E9CFE091150481E08E0F8093B8
:1049600015048091BB00F0E0EC50FC4F80839091E7
:104970001504809114049817C8F285E8D8CFE09107
:10498000150481E08E0F809315048091BB00F0E048
:10499000EC50FC4F80838091170481115CCF81E043
:1049A0008093F20384EA8093BC001092180426CF0F
:1049B00085EC8093BC00109218048091E302803251
:1049C00030F4E091E302F0E0ED53FD4F108260918E
:1049D000E30270E0E091B403F091B50383EC92E060
:1049E00009951092E3020ACF1092160434CF1F9259
:1049F0000F920FB60F9211242F933F934F936F9303
:104A00007F938F939F93AF93BF93EF93FF93809187
:104A100000018F5F80930001811138C0EEEFF2E05A
:104A200047818581411103C090859923E9F090E089
:104A30003681232F30E0BC01621B730B161617065C
:104A40004CF4442389F0240F311D2817390764F4EE
:104A5000C9010AC0672B41F04085442329F0241B7B
:104A6000310982179307A4F386838681882349F04E
:104A70009181A281B3818481911131C09C91892B54
:104A80008C93399683E0E23BF80751F6EEEFF2E0C3
:104A9000808187FD0FC080910001968198130AC024
:104AA000A281B3818481918191111DC09C918095D7
:104AB00089238C93399683E0E23BF80749F7FF910D
:104AC000EF91BF91AF919F918F917F916F914F9196
:104AD0003F912F910F900FBE0F901F9018959C91B2
:104AE00080958923CDCF9C91892BE3CF1F920F9284
:104AF0000FB60F9211242F933F934F935F936F93B1
:104B00007F938F939F93AF93BF93CF93DF93EF9355
:104B1000FF9380919F02C0915706D0E087FF24C089
:104B2000109285001092840080919F028F5F809385
:104B30009F0280919F02082E000C990B8C179D07F5
:104B400024F480919F028C30C4F180918400909174
:104B50008500049680349C4908F47AC080918400D2
:104B600090918500049676C080919F02082E000CDB
:104B7000990B8C179D07C4F6E0919F028E2FEE0FC4
:104B8000990BFC01EE0FFF1FE80FF91FED5CF94FC9
:104B9000808186FFC9CFE0919F028E2FEE0F990B87
:104BA000FC01EE0FFF1FE80FF91FED5CF94F80814C
:104BB00060E08F730E949E03B7CF209184003091F4
:104BC0008500E0919F028E2FEE0F990BFC01EE0FF6
:104BD000FF1FE80FF91FED5CF94F81819281820F71
:104BE000931F9093890080938800E0919F028E2FFD
:104BF000EE0F990BFC01EE0FFF1FE80FF91FED5CA4
:104C0000F94F808186FF11C0E0919F028E2FEE0F39
:104C1000990BFC01EE0FFF1FE80FF91FED5CF94F38
:104C2000808161E08F730E949E03FF91EF91DF917D
:104C3000CF91BF91AF919F918F917F916F915F9134
:104C40004F913F912F910F900FBE0F901F9018958D
:104C500080E49CE990938900809388008FEF809393
:104C60009F02E3CFCF92DF92EF92FF920F931F93B9
:104C7000E82FF92F05C0015011092109310961F10F
:104C8000908196239417B9F305C0015011092109A9
:104C9000310911F1908196239413F7CFC12CD12CB7
:104CA000E12CF12C0AC08FEFC81AD80AE80AF80ADA
:104CB0000C151D052E053F0579F08081862384178C
:104CC00091F36C2D7D2D8E2D9F2D1F910F91FF90B7
:104CD000EF90DF90CF90089560E070E080E090E08A
:104CE0001F910F91FF90EF90DF90CF90089561E0BA
:104CF00080E00C9426121F93CF93DF931F92CDB7C1
:104D0000DEB7182FBE016F5F7F4F80E80E9402124E
:104D1000882351F069816F7D1295110F107E612BF0
:104D2000698380E80E9444070F90DF91CF911F9123
:104D3000089580E00E947B26882321F060E082E0D5
:104D40000C94261280E008951F93CF93DF931F9257
:104D5000CDB7DEB7182FBE016F5F7F4F80E80E948E
:104D60000212882349F069816F7E1295107F612BB2
:104D7000698380E80E9444070F90DF91CF911F91D3
:104D8000089580E00E94A426882321F060E081E05D
:104D90000C94261280E008951F93CF93DF931F9207
:104DA000CDB7DEB7182FBE016F5F7F4F8BEA0E9431
:104DB0000212882339F069816E7F612B69838BEA47
:104DC0000E9444070F90DF91CF911F9108951F9388
:104DD000CF93DF931F92CDB7DEB7182FBE016F5F61
:104DE0007F4F8BEA0E940212882341F069816D7F18
:104DF000110F612B69838BEA0E9444070F90DF91AA
:104E0000CF911F91089510921F06109220061092C4
:104E10002406109223061092260610922506109260
:104E200028061092270610922A0610922906109240
:104E30002C0610922B0610922E0610922D06109220
:104E4000300610922F06109232061092310680E042
:104E50000E94E726882349F080E00E94CC26882320
:104E600021F060E086E00C94261280E008951F9304
:104E7000CF93DF931F92CDB7DEB7182FBE016F5FC0
:104E80007F4F8FE80E940212882349F06981637F77
:104E9000110F110F612B69838FE80E9444070F9057
:104EA000DF91CF911F910895CF93DF931F92CDB7DC
:104EB000DEB7BE016F5F7F4F8FE80E94021288232A
:104EC00031F069816F7369838FE80E9444070F9006
:104ED000DF91CF910895CF93DF931F92CDB7DEB7C7
:104EE000BE016F5F7F4F8FE80E940212882339F066
:104EF00069816C7F616069838FE80E9444070F902D
:104F0000DF91CF910895109245041092440488EEE9
:104F100093E0A0E0B0E08093460490934704A09310
:104F20004804B09349042DE031E0309343042093CA
:104F3000420425EC30E030934F0420934E0424ECDF
:104F400030E0309351042093500420EC30E0309353
:104F500053042093520421EC30E030935504209305
:104F6000540422EC30E0309357042093560426EC8E
:104F700030E0309359042093580410925B0410924F
:104F80005C0410925D0410925E0410927F061092F1
:104F90007E068093800690938106A0938206B0934C
:104FA00083068FE191E090937D0680937C068FEDE0
:104FB00094E01092200510921F0590932305809392
:104FC000220520E430E0309325052093240510923B
:104FD0002605109227051092290510922805109297
:104FE0002A0510922C0510922B0510922E05109276
:104FF0002D051092300510922F0510923205109257
:105000003105109234051092330510923605109236
:105010003505109238051092370510923E05109212
:105020003D051092400510923F05109242051092E6
:1050300041051092440510924305109252051092BA
:1050400051051092210510925F0510926105109292
:10505000600510929E0527EC30E0309346052093C2
:10506000450521ED30E030934805209347052BEDB1
:1050700030E030934A052093490525EE30E0309327
:105080004C0520934B052FEE30E030934E052093D6
:105090004D0529EF30E03093500520934F0523E074
:1050A00031E030935405209353052CE031E03093E8
:1050B0005605209355052CEC39E030935805209384
:1050C000570590933A05809339052CE532E03093EB
:1050D0005A052093590590933C0580933B0587E141
:1050E00091E090935C0580935B05109224061092EA
:1050F000230610922606109225061092280610927A
:10510000270610922A061092290610922C06109259
:105110002B0610922E0610922D0610923006109239
:105120002F061092320610923106809157068C306D
:1051300008F091C091E0980F909357068093F6067F
:1051400090E0FC01EE0FFF1FE80FF91FED5CF94F37
:1051500088EB9BE0928381831092E5061092E4062F
:105160001092E8061092E7061092EB061092EA06FB
:105170001092EE061092ED061092F1061092F006D3
:105180001092F4061092F3061092880688E6809337
:105190008B068CE796E090938A068093890688E4D4
:1051A00091EEAAE7BFE38093E0069093E106A09317
:1051B000E206B093E30610929406109295061092C0
:1051C00096061092970610929806109299061092E1
:1051D0009A0610929B0610929C0610929D061092C1
:1051E0009E0610929F061092A0061092A1061092A1
:1051F000A2061092A3061092A4061092A506109281
:10520000A6061092A7061092A8061092A906109260
:10521000AA061092AB06E8E5F6E02FEF48EB5BE05C
:10522000809157068C30D8F491E0980F90935706F0
:10523000808390E0DC01AA0FBB1FA80FB91FAD5CF3
:10524000B94F12965C934E931197339686E0EC37E4
:10525000F80731F708958FEF8093F6067DCF20830E
:10526000F4CFCF93DF93CDB7DEB72E970FB6F89478
:10527000DEBF0FBECDBF789484B5826084BD84B597
:10528000816084BD85B5826085BD85B5816085BD41
:1052900080916E00816080936E00109281008091F9
:1052A0008100826080938100809181008160809381
:1052B0008100809180008160809380008091B100A6
:1052C00084608093B1008091B00081608093B000D1
:1052D00080917A00846080937A0080917A00826065
:1052E00080937A0080917A00816080937A00809127
:1052F0007A00806880937A001092C1008AE192E07F
:105300000E94380F0E94491555E0E52EE0925F0596
:1053100080916005909161050E94743400915F0551
:1053200010E0C80101960E94D833909361058093E4
:105330006005FC01E00FF11F108262E0F62EDC0137
:10534000FC921196EC92A8014250510968E372E078
:1053500002960E940D358DEB9CE09093F6028093AF
:10536000F50281E19CE09093F4028093F30284EED5
:105370009BE09093F2028093F10282EA9DE0909389
:10538000F0028093EF0284E094E19093EE02809328
:10539000ED028BE49DE09093EC028093EB028CE9AC
:1053A0009DE19093F8028093F70289E495E1909350
:1053B000FA028093F90287EA9EE09093FC028093C0
:1053C000FB0281E080939E05E0915204F09153042A
:1053D000F082E0915204F09153041082E0914E0467
:1053E000F0914F041082E0915004F091510480E15B
:1053F000808310925A04E0915604F091570486E09D
:105400008083E0915404F091550480818061808311
:10541000E0915404F0915504808188608083E0918C
:105420005404F0915504808180688083E091540495
:10543000F091550480818F7D808380919E0581113C
:105440004FC061E08DE00E94CC0362ED70E080E02F
:1054500090E00E94420461E08DE00E949E0368E2B9
:1054600070E080E090E00E94420460E08DE00E94E5
:105470009E0362ED70E080E090E00E94420461E0F3
:105480008DE00E949E0368E270E080E090E00E9460
:10549000420460E08DE00E949E036AEF70E080E0CD
:1054A00090E00E94420415E062ED70E080E090E040
:1054B0000E94420461E08DE00E949E0368E270E079
:1054C00080E090E00E94420460E08DE00E949E0334
:1054D000115051F76DE770E080E090E00E944204C7
:1054E00082E494E090935E0580935D05909320059F
:1054F00080931F058FE195E00E9433018FED94E0CA
:105500000E94580981E087BB82E08093B1008093BC
:10551000B00092E89093B30080937000EEEFF2E059
:1055200082EB93E02FEF2083118213821282178285
:10553000108639968E179F07B1F71092FD021092D0
:10554000D1031092D00310921F04109241040E94C4
:105550009C044AE5E42E42E0F42EF092B303E0927C
:10556000B2030BE512E01093B5030093B4038CE390
:1055700092E00E94380F1092D1031092D003109243
:105580001F04109241040E949C04F092B303E09225
:10559000B2031093B5030093B403BE016E5F7F4F57
:1055A00082E90E940212882309F4F7C08A818B3AAB
:1055B00019F08C3909F0F1C060E087E00E942612F2
:1055C000882309F4EAC06BED81E80E944407882330
:1055D00009F4E3C066EF83E80E944407882309F4D6
:1055E000DCC067E88EE80E944407882309F4D5C030
:1055F00060E08DE90E944407882309F4CEC060E092
:105600008EE90E944407882309F4C7C060E68DE84C
:105610000E944407882309F4C0C00E9454278823AD
:1056200009F4BBC082E00E943727882309F4B5C083
:105630000E946B27882309F4B0C060E089E80E94CB
:105640004407882309F4A9C062E38BE80E94440759
:10565000882309F4A2C06FEF84E80E9444078823DE
:1056600009F49BC06FEF85E80E944407882309F482
:1056700094C060E086E80E944407882309F48DC046
:1056800060E087E80E944407882309F486C061E14E
:105690008CE80E944407882309F47FC061E080E918
:1056A0000E944407882309F478C060E08FE90E94D3
:1056B0004407882309F471C068E280EA0E94440725
:1056C000882309F46AC06EE181EA0E9444078823B6
:1056D00009F463C060E482EA0E944407882309F465
:1056E0005CC0BE016F5F7F4F83EA0E940212882375
:1056F00009F453C069816F796064698383EA0E9409
:105700004407882309F449C0BE016F5F7F4F83EAD5
:105710000E940212882309F440C06981677E698370
:1057200083EA0E9444078823C1F1BE016F5F7F4F67
:1057300083EA0E940212882381F16981687F616097
:10574000698383EA0E944407882339F160E084EA90
:105750000E944407882309F160E085EA0E9444071B
:105760008823D9F060E087EA0E9444078823A9F0E3
:1057700060E089EA0E944407882379F069EC86EAB0
:105780000E944407882349F060E08AEA0E944407A7
:10579000882319F080E00E94E72661E08BE60E94F2
:1057A000CB0560E089E10E94CB0560E08AE10E94C0
:1057B000CB0580E090E0A3E8B2E480938C06909360
:1057C0008D06A0938E06B0938F0668E08BE10E9451
:1057D000CB0580E090E0A0E8B6E48093900690933B
:1057E0009106A0939206B093930660E08CE10E942C
:1057F000CB050E948A158091C8069091C906A09198
:10580000CA06B091CB068093D0069093D106A093A0
:10581000D206B093D3068091CC069091CD06A0918C
:10582000CE06B091CF068093D4069093D506A09370
:10583000D606B093D7062FB7F8948091CC039091F9
:10584000CD03A091CE03B091CF032FBF8093DC0690
:105850009093DD06A093DE06B093DF0610929406C7
:10586000109295061092960610929706109298063E
:105870001092990610929A0610929B0610929C061E
:1058800010929D0610929E0610929F061092A006FE
:105890001092A1061092A2061092A3061092A406DE
:1058A0001092A5061092A6061092A7061092A806BE
:1058B0001092A9061092AA061092AB0604EF11E00E
:1058C0001B861C861D861E861F82188619861A86D0
:1058D0001B821C821D821E82C12CD12C76014601A6
:1058E0005701260137010E949E122091B006309187
:1058F000B1064091B2065091B306C301B2010E94B5
:1059000068302B013C012091B4063091B5064091DE
:10591000B6065091B706C501B4010E9468304B012C
:105920005C0120E030E040E85FE36091B8067091F0
:10593000B9068091BA069091BB060E9467309B0120
:10594000AC01C701B6010E9468306B017C01209157
:10595000BC063091BD064091BE065091BF066B81DA
:105960007C818D819E810E9468306B837C838D83D6
:105970009E832091C0063091C1064091C20650918D
:10598000C3066F81788589859A850E9468306F8308
:10599000788789879A872091C4063091C5064091FF
:1059A000C6065091C7066B857C858D859E850E94B5
:1059B00068306B877C878D879E8761E070E080E030
:1059C00090E00E9442040150110909F08CCF20E0C0
:1059D00030E04AEF53E4C301B2010E944B316093BF
:1059E000A0067093A1068093A2069093A30620E0E0
:1059F00030E04AEF53E4C501B4010E944B3160939B
:105A0000A4067093A5068093A6069093A70620E0AF
:105A100030E04AEF53E4C701B6010E944B31609376
:105A2000A8067093A9068093AA069093AB0620E07F
:105A300030E04AEF53E46B817C818D819E810E942E
:105A40004B316093940670939506809396069093DD
:105A5000970620E030E04AEF53E46F81788589852E
:105A60009A850E944B3160939806709399068093B3
:105A70009A0690939B0620E030E04AEF53E46B8552
:105A80007C858D859E850E944B3160939C0670932A
:105A90009D0680939E0690939F068DE492E00E945F
:105AA000380F00E010E0BB24B39422E0E22EF12C8A
:105AB000CC24C394D12C8091B903882349F069B1D7
:105AC0008091B60368236C7F40E080E00E94600D07
:105AD0008091BA03882379F063B186B16F73B0E423
