:100000000C94EC010C941D020C941D020C941D0226
:100010000C941D020C941D020C941D020C941D02E4
:100020000C941D020C947B2D0C947B2D0C947B2D39
:100030000C941D020C94A92E0C941D020C941D020C
:100040000C941D020C94B62F0C941D020C941D02EE
:100050000C941D020C941D020C941D020C94312D65
:100060000C941D020C94072D0C94DD2C0C941D0295
:100070000C941D020C941D020C941D020C941D0284
:100080000C94882F0C941D020C941D020C941D02DC
:100090000C94B32C0C94892C0C941D020C94852D7B
:1000A0000C941D020C941D020C945A2F0C941D02EA
:1000B0000C941D020C941D020C941D020C942C2F08
:1000C0000C941D020C941D020C941D020C945F2CC8
:1000D0000C94352C0C941D020C940B2C0C94E12BDD
:1000E0000C941D02084AD73B3BCE016E84BCBFFD79
:1000F000C12F3D6C74319ABD56833DDA3D00C77FF8
:1001000011BED9E4BB4C3E916BAAAABE0000008090
:100110003F000C94FA080C9418120C942E1B0C94AB
:100120000D090C94F00F0C9452050C9429110C94A9
:100130004C110C94C30F0C947A110C949F090C94DD
:10014000EA080C94BA1B0C9410040C94EB080C9461
:100150006F130C941F020C94051B0C9435310C94F6
:100160005B020C9432040C9489110C9424040C94BA
:1001700066050C9401240C943A090C9424110C94F7
:1001800088040C9470050C9458050C94BB110C94C5
:10019000BB100C9447020C949D110C945C050C94BC
:1001A000AB1B0C9433020C9478050C94781A0C94C5
:1001B000161B0C9474050C94BB030C944B050C9407
:1001C0002E110C9401040C94741B0C94C0110C940B
:1001D00062050C944F050C9454110C94B2030C94CA
:1001E00051020C94431B0C947D050C9447050C9410
:1001F0003D020C9482050C94A7110C9470110C9480
:100200006F020C9477020C945A1B0C94B1110C944D
:10021000B4030C9493110C94221B0C9464020C9460
:1002200043050C9466110C946A050C9438110C94D7
:10023000DA040C945C110C947E050C943D050C942E
:1002400029020C94B3030C94C50C0C944211CDCC30
:10025000CC3D0AD7233C17B7D13877CC2B329595B4
:10026000E6241FB14F0A0000803FCDCCCC3D6F1279
:10027000833A95BFD6337D1D9026B3CE010C000086
:1002800020410000C84200401C4620BCBE4CCA1B96
:100290000E5AAEC59D74005EBCE2613FDD83C29C18
:1002A0007E20A3FD1F41009D23BE46DB65F88C1117
:1002B000AF32CA57E97400002100240027002A0049
:1002C0002D003000330001010000040107010A0184
:1002D00000002200250028002B002E0031003400F1
:1002E00002010000050108010B01000020002300AD
:1002F000260029002C002F0032000001000003011D
:100300000601090105050505070508080808020298
:1003100002020A0A0808040404040101010101019F
:1003200001010303030303030303040707070C0C82
:100330000C0C0C0C0C0C0202020206060606060649
:1003400006060B0B0B0B0B0B0B0B010210202008EE
:100350000810204010204080020102010804020120
:10036000010204081020408080402010080402018F
:1003700080040201804020100804020108040201E8
:10038000010204081020408001020408102040806F
:1003900000000A0B02090C0D0E08070304010000FF
:1003A000000000000000000000000000000000004D
:1003B000000000000000000000000000121110000A
:1003C000000000000000000000000000000000002D
:1003D000000000000000353111241FBECFEFD1E234
:1003E000DEBFCDBF00E00CBF13E0A0E0B2E0E2E072
:1003F000F5E800E00BBF02C007900D92A63AB107E6
:10040000D9F72BE0A6EAB3E001C01D92A83EB207DF
:10041000E1F711E0CCEED1E000E006C02197010940
:10042000802FFE010E941F41CB3ED10780E00807CC
:10043000A9F70E9497330C947F420C940000862FFA
:10044000E0919204F0919304309711F0BA0119945D
:100450000895862FE0919004F0919104309711F067
:10046000BA0119940895862FE0918E04F0918F04BB
:10047000309711F0BA0119940895862FE0918C04F9
:10048000F0918D04309711F0BA0119940895862FD8
:10049000E0918A04F0918B04309711F0BA0119941D
:1004A0000895862FE0918804F0918904309711F027
:1004B000BA0119940895CB01E0919804F091990440
:1004C000309709F019940895862F642FE0919404D1
:1004D000F0919504309711F0A90119940895E091D5
:1004E0009604F0919704309709F01994089580913B
:1004F000760590917705891B990B0895A091DA08EC
:10050000B091DB08ED91FC9111970190F081E02D05
:10051000682FCD011994CF93DF93FC01A081B181A5
:10052000109701F1EC01ED91FC9111970190F08190
:10053000E02D69EFCD01199588819981DC01ED915C
:10054000FC910190F081E02D62E0199588819981FC
:10055000DC01ED91FC910190F081E02D65E0DF91EF
:10056000CF911994DF91CF9108958091420A909193
:10057000430A8130910541F485E090E09093450A6B
:100580008093440A81E00895029719F486E090E090
:10059000F5CF80913A0A90913B0A8F3F980749F432
:1005A00080913C0A90913D0A009731F583E090E0FC
:1005B000E5CF8130910549F480913C0A90913D0A44
:1005C000009799F584E090E0D9CF892B09F079C0A4
:1005D00080913C0A90913D0A8130910519F482E0A6
:1005E00090E0CCCF019609F06CC081E090E0909350
:1005F000450A8093440A08958130910581F5209140
:10060000360A3091370A37FF03C0319521953109F9
:100610008091380A9091390A97FF03C0919581958E
:1006200091098217930714F2DACF8F3F980781F56B
:100630002091360A3091370A37FF03C03195219552
:1006400031098091380A9091390A97FF03C091953A
:1006500081959109821793070CF4B4CFC6CF019608
:1006600081F52091360A3091370A37FF03C0319562
:10067000219531098091380A9091390A97FF03C07A
:10068000919581959109821793070CF48FCFADCF87
:100690000197B9F42091360A3091370A37FF03C029
:1006A0003195219531098091380A9091390A97FF47
:1006B00003C0919581959109821793070CF08FCF14
:1006C00081CF80E008951F93CF93DF93182FEB0124
:1006D0008091A1089091A2086817790760F4809131
:1006E0009F089091A008C80FD91F188380E0DF9160
:1006F000CF911F910895E091CE08F091CF083097E7
:1007000011F481E0F4CF81E080939E088091BA08D3
:100710009091BB0819958091A1089091A208C817E3
:10072000D90778F7DCCFCF93DF93EC01FB0130E002
:1007300020E0C901880F991F8C179D0778F440812C
:10074000DB014D93BD01119791819795992797955D
:10075000942B9C932F5F3F4F3296EBCFC901DF91D3
:10076000CF91089508950895009721F0805C9F4FE0
:100770000C948B020895AF92BF92CF92DF92EF92CA
:10078000FF920F931F93CF93DF936C017B018B013B
:10079000040F151FEB015E01AE18BF08C017D1078B
:1007A00059F06991D601ED91FC910190F081E02D15
:1007B000C6011995892B79F7C501DF91CF911F915A
:1007C0000F91FF90EF90DF90CF90BF90AF90089582
:1007D000FC01A089B1898C91A689B78982FD0FC0DF
:1007E0009C91818D8F5F8F73228D821749F0A18D2F
:1007F000AE0FBF2FB11D5D969C93818F08958C9194
:100800000895FC01538D448D252F30E0842F90E016
:10081000821B930B541710F0CF96089501970895FB
:10082000FC01918D828D981761F0A28DAE0FBF2FC4
:10083000B11D5D968C91928D9F5F9F73928F90E01A
:1008400008958FEF9FEF0895FC01918D828D981789
:1008500031F0828DE80FF11D858D90E008958FEFC6
:100860009FEF0895FC01918D228D892F90E0805C8F
:100870009F4F821B91098F739927089588EE95E009
:100880000E94320421E0892B09F420E0822F089590
:1008900085E896E00E94320421E0892B09F420E0EB
:1008A000822F089582E297E00E94320421E0892B92
:1008B00009F420E0822F08958FEB97E00E94320424
:1008C00021E0892B09F420E0822F0895FC01A48DFA
:1008D000A80FB92FB11DA35ABF4F2C91848D90E062
:1008E00001968F739927848FA689B7892C93A08945
:1008F000B1898C91837080648C93938D848D9813CF
:1009000006C00288F389E02D80818F7D8083089561
:10091000EF92FF920F931F93CF93DF93EC0181E04F
:10092000888F9B8D8C8D98131AC0E889F9898081F6
:1009300085FF15C09FB7F894EE89FF896083E88929
:10094000F98980818370806480839FBF81E090E01B
:10095000DF91CF911F910F91FF90EF900895F62EA8
:100960000B8D10E00F5F1F4F0F731127E02E8C8D42
:100970008E110CC00FB607FCFACFE889F989808187
:1009800085FFF5CFCE010E946604F1CFEB8DEC0F11
:10099000FD2FF11DE35AFF4FF0829FB7F8940B8FA4
:1009A000EA89FB8980818062CFCF682F8FEB97E047
:1009B0000C948804CF93DF93EC01888D8823B9F0E1
:1009C000AA89BB89E889F9898C9185FD03C080815A
:1009D00086FD0DC00FB607FCF7CF8C9185FFF2CFD7
:1009E000808185FFEDCFCE010E946604E9CFDF91C3
:1009F000CF91089580E090E0892B29F00E945C045B
:100A000081110E94000080E090E0892B29F00E9473
:100A1000520481110E94000080E090E0892B29F0AF
:100A20000E94480481110E94000080E090E0892B20
:100A300029F00E943E0481110C9400000895815019
:100A4000823108F05AC0E82FF0E08827E55DFA4FC0
:100A50008F4F0C941F414B054F053D05430547053E
:100A60007D05520558055C05620566056A05700539
:100A700074057D0578057E058205809180008F775D
:100A8000809380000895809180008F7DF9CF8091C0
:100A90008000877FF5CF84B58F7784BD089584B5B6
:100AA0008F7DFBCF8091B0008F778093B000089549
:100AB0008091B0008F7DF9CF809190008F778093E7
:100AC00090000895809190008F7DF9CF80919000E3
:100AD000877FF5CF8091A0008F778093A000089545
:100AE0008091A0008F7DF9CF8091A000877FF5CF06
:100AF000809120018F7780932001089580912001BB
:100B00008F7DF9CF80912001877FF5CFCF93DF9341
:100B1000282F30E0F901E057FC4F8491F901E65BA2
:100B2000FC4FD491F901EC5FFC4FC491CC23A1F0B0
:100B300081110E941F05EC2FF0E0EE0FFF1FE65120
:100B4000FD4FA591B491EC91ED2381E090E009F483
:100B500080E0DF91CF91089580E090E0FACF1F937D
:100B6000CF93DF93282F30E0F901E057FC4F8491B9
:100B7000F901E65BFC4FD491F901EC5FFC4FC491A5
:100B8000CC23A9F0162F81110E941F05EC2FF0E055
:100B9000EE0FFF1FE053FD4FA591B4918FB7F8946E
:100BA000EC91111108C0D095DE23DC938FBFDF914B
:100BB000CF911F910895DE2BF8CFCF93DF9390E074
:100BC000FC01E65BFC4F24918C5F9C4FFC018491FF
:100BD0008823C9F090E0880F991FFC01EA54FD4F6B
:100BE000A591B491FC01E053FD4FC591D4916111E1
:100BF0000DC09FB7F8948C91209582238C938881A7
:100C0000282328839FBFDF91CF910895623051F44C
:100C10009FB7F8943C91822F809583238C93E88131
:100C20002E2BEFCF8FB7F894EC912E2B2C938FBFF8
:100C3000EACF863308F0865320917B00982F987076
:100C4000277F922B90937B008770806480937C0039
:100C500080917A00806480937A0080917A0086FD8A
:100C6000FCCF809178009091790008953FB7F89477
:100C70008091840490918504A0918604B0918704AA
:100C800026B5A89B05C02F3F19F00196A11DB11DE7
:100C90003FBFBA2FA92F982F8827BC01CD01620F23
:100CA000711D811D911D42E0660F771F881F991FDE
:100CB0004A95D1F708958F929F92AF92BF92CF92AB
:100CC000DF92EF92FF926B017C010E9436064B018E
:100CD0005C01C114D104E104F104B9F00E943606AC
:100CE000681979098A099B09683E73408105910555
:100CF00080F321E0C21AD108E108F10888EE880EDD
:100D000083E0981EA11CB11CE4CFFF90EF90DF9010
:100D1000CF90BF90AF909F908F9008952FB7F89489
:100D20006091800470918104809182049091830489
:100D30002FBF089520915A04260F3327331F2132E5
:100D40003105ECF42091BE05FC0190E080E02430F8
:100D500069F082E00895A0915A042191AC01465CAB
:100D60005B4FA40FB52FB11D2C930196861798F3F6
:100D700080915A04680F60935A0480E0089581E0DE
:100D800008951092BE0581E08093BD0510929805EC
:100D900061E084E10E94AF0561E085E10E94AF055A
:100DA000E9EBF0E080818E7F808380818D7F80837E
:100DB00088E48093B80085E48093BC000895CF93C5
:100DC000DF9391E0909339048823B9F0C091B80083
:100DD000D091BA008091BC008A7B8093BC0060E017
:100DE00084E10E94AF0560E085E10E94AF050E94AA
:100DF000C106D093BA00C093B800DF91CF91089597
:100E00008F929F92AF92BF92CF92DF92EF92FF921A
:100E10000F931F93CF93DF93D091E705D13208F062
:100E2000D7C0182FC091E6050E9436066B017C01E1
:100E30008091BE0581116BC082E08093BE05109346
:100E4000BD058FEF8093BC051092BB05D093BA050A
:100E5000A6ECB5E0EAE9F5E080E0D81391C0109285
:100E6000990580919905CC0FC82BC0939905809165
:100E70009805813009F088C0109298050E943606C6
:100E80006B017C01809199058093BB008091C00526
:100E90009091C105A091C205B091C305892B8A2B01
:100EA0008B2BA1F00E9436060091C0051091C10560
:100EB0002091C2053091C3056C197D098E099F09E7
:100EC000061717072807390708F442C08091BC00AD
:100ED00083FDD8CF85EC8093BC000E9436066B0161
:100EE0007C018091BE05823009F450C08091BC0520
:100EF0008F3F09F46FC08091BC05803209F46CC04B
:100F00008091BC05803309F469C084E026C08091DB
:100F1000C0059091C105A091C205B091C305892B70
:100F20008A2B8B2B09F484CF0E9436068090C00553
:100F30009090C105A090C205B090C3056C197D09C1
:100F40008E099F0986169706A806B90608F070CF85
:100F50008091BF050E94DF0685E01092C5051092C2
:100F6000E7051092C405DF91CF911F910F91FF907B
:100F7000EF90DF90CF90BF90AF909F908F900895AB
:100F80009D9191938F5F69CF85EEA5CF8091C0052C
:100F90009091C105A091C205B091C305892B8A2B00
:100FA0008B2B09F49ECF0E9436060091C00510914C
:100FB000C1052091C2053091C3056C197D098E09C8
:100FC0009F09061717072807390708F08ACFC0CFEF
:100FD00081E0C3CF80E0C1CF82E0BFCF83E0BDCF4F
:100FE0001F93CF93DF93162FC3E7DBE0A981BA816C
:100FF0009B8121E02093C4059093E6051092C505DE
:101000001092E705ED91FC9111970190F081E02D90
:10101000682FCD01199589819A81DC01ED91FC91B0
:101020000190F081E02D612F199581E0DF91CF9142
:101030001F910C940007CF92DF92EF92FF920F93D3
:101040001F93CF93DF93D82FC62F613208F098C03B
:101050000E9436066B017C018091BE0581116BC038
:1010600081E08093BE058093BD059FEF9093BC0502
:101070001092BB059C0F9093BA05809399058091BF
:101080009905DD0FD82BD093990580919805813073
:1010900009F078C0109298050E9436066B017C0119
:1010A000809199058093BB008091C0059091C10506
:1010B000A091C205B091C305892B8A2B8B2BA1F07F
:1010C0000E9436060091C0051091C1052091C2050D
:1010D0003091C3056C197D098E099F090617170702
:1010E0002807390708F448C08091BC0083FDD8CF99
:1010F00085EC8093BC000E9436066B017C018091D8
:10110000BE05813009F440C08091BB058C1710F4F6
:10111000C091BB05EAE9F5E0A8E7B5E080E08C13F3
:1011200055C08C2FDF91CF911F910F91FF90EF90C1
:10113000DF90CF9008958091C0059091C105A09156
:10114000C205B091C305892B8A2B8B2B09F484CF60
:101150000E9436060091C0051091C1052091C2057C
:101160003091C3056C197D098E099F090617170771
:101170002807390708F070CF8091BF050E94DF066D
:10118000C0E0CFCF85EEB5CF8091C0059091C1056D
:10119000A091C205B091C305892B8A2B8B2B09F432
:1011A000AECF0E9436060091C0051091C105209176
:1011B000C2053091C3056C197D098E099F09061778
:1011C00017072807390708F09ACFD6CF91919D933A
:1011D0008F5FA5CF0895E091770580917605E81798
:1011E00030F4F0E0E858FA4F808190E008958FEFF6
:1011F0009FEF089590917705809176052FEF3FEF4F
:10120000981748F4E92FF0E0E858FA4F208130E0D1
:101210009F5F90937705C9010895CF92DF92EF9277
:10122000FF920F931F93CF93DF937C01CB018A0131
:101230002091C405222389F0EB016B01C40ED51E59
:10124000CC15DD0569F06991D701ED91FC91019014
:10125000F081E02DC7011995F3CF642F0E949A0603
:10126000C801DF91CF911F910F91FF90EF90DF9018
:10127000CF900895CF93DF931F92CDB7DEB76983E8
:101280002091C4052223F9F02091E705203258F07F
:1012900021E030E0FC013383228390E080E00F9076
:1012A000DF91CF9108958091C505E82FF0E0EA53D2
:1012B000FA4F998190838F5F8093C5058093E705EE
:1012C00081E090E0ECCF61E0CE0101960E949A06A9
:1012D000F7CFCF93C62F91E09093C40599E39093F5
:1012E000E6051092C5051092E705682F87E69BE09A
:1012F0000E943A096C2F87E69BE00E943A0981E040
:101300000E94000791E0811190E0892FCF9108950C
:1013100091E09093C40599E39093E6051092C5057A
:101320001092E705682F87E69BE00E943A0981E06A
:101330000E94000791E0811190E0892F089590E0CC
:1013400080E00895CF92DF92EF92FF920F931F9368
:10135000CF93DF9300D000D000D0CDB7DEB78C01A3
:10136000DC0119968D919C91892B09F47AC0F801C2
:10137000C784D088E188F2880E9436066C157D0506
:101380008E059F0548F40E943606D8011F966D937E
:101390007D938D939C9352970E943606F801C784E3
:1013A000D088E188F2886C197D098E099F096C321A
:1013B000714081059105D8F2F894D80114968D9169
:1013C0009C9115979A8389831996ED91FC917F01E1
:1013D000BFEFEB1AFB0A80818987F80190810388AF
:1013E000F489E02DD80155968C91992309F448C0D1
:1013F0009081982B98879081809589238F838F8106
:101400008C8388E08B8358856F8149853B812C8153
:1014100089819A81D701508347FD252F3A952083F2
:10142000262F39F0441F00C000006083000000C078
:10143000F2CF38E04D9160830000019761F7D80149
:101440005496FC93EE93539749873B832C839A835E
:10145000898378940E943606F8016787708B818BA8
:10146000928B29960FB6F894DEBF0FBECDBFDF91E9
:10147000CF911F910F91FF90EF90DF90CF90089543
:101480009081982B98879081809589238F838F8175
:101490008E8388E08D8358856F8149853D812E81BB
:1014A00089819A81D701508347FD252F00C000C054
:1014B000208300C000C000C000C000C060830000E6
:1014C000262F3A9541F0441F000000C000C000C024
:1014D00000C000C0E8CF38E04D9100C0608300C07C
:1014E000019709F7D8015496FC93EE9353974987D7
:1014F0003D832E83ACCFDC0180E0615090F09D9164
:101500009827E92FEF70F0E0EA56FD4F2491E92F7C
:10151000E295EF70F0E0EA55FD4FE491822F8E27BF
:10152000ECCF0895DC012C911196ED91FC91F8948B
:101530008181822B81839281322F309593239283F4
:1015400087E090E00197F1F781818323818383E233
:1015500090E00197F1F790817894EFECF0E031970B
:10156000F1F7922381E009F480E00895FC01908175
:101570000180F281E02D292F209560FF14C0F8949E
:101580008281822382838181892B8183A3E2B0E0DF
:101590001197F1F78281982B9283789487ED90E0F0
:1015A0000197F1F70895F8948281822382838181E3
:1015B000892B8183AFEFB0E01197F1F78281982BEF
:1015C000928378948FE090E0EBCFDF92EF92FF92DE
:1015D0000F931F93CF93DF93EC01D62EE42E08E0F8
:1015E00010E0FF24F39461E08D2D8F2109F460E079
:1015F000CE010E94B60AFF0C01501109A1F7E110BB
:1016000010C0F894E981FA819181888180958923BD
:101610008183E981FA8192818881809589238283FF
:101620007894DF91CF911F910F91FF90EF90DF9011
:101630000895FC0190810180F281E02DF894818170
:10164000292F20958223818378943DE743E050E061
:10165000315029F1DA011197F1F780818923C1F323
:10166000F8948281822382838181892B818378947B
:10167000ABE7B7E01197F1F7F8948181822381837A
:10168000A3E1B1E01197F1F78081982381E009F09F
:1016900080E07894E3E6F6E03197F1F7089580E092
:1016A00008955F926F927F928F929F92AF92BF92B6
:1016B000CF92DF92EF92FF920F931F93CF93DF931E
:1016C0005C016901DA015C90232B19F4CC24CA94E3
:1016D000DC2C8A013A01660E771ED0E0C0E0F12CC6
:1016E000E12C87E0882E912CF50180819181D80131
:1016F0006C910C2E01C0660F0A94EAF765296F778A
:10170000DC01ED91FC910190F081E02D1995BFEF86
:10171000EB1AFB0AF801608170E0C4018C1B9D0B81
:1017200002C0759567958A95E2F7562E2196C730C7
:10173000D10558F1CE14DF0441F1D5018D919C9172
:10174000652D6F77DC01ED91FC910190F081E02D2A
:101750001995BFEFEB1AFB0A551C5524551C27970A
:10176000E6CFEC14FD0408F4BFCFDF91CF911F91B9
:101770000F91FF90EF90DF90CF90BF90AF909F9030
:101780008F907F906F905F9008950F5F1F4F60164E
:10179000710639F7209749F3EC14FD0430F7F50191
:1017A0008081918161E070E001C0660FCA95EAF71F
:1017B00061506521DC01ED91FC910190F081E02DFB
:1017C000DF91CF911F910F91FF90EF90DF90CF901D
:1017D000BF90AF909F908F907F906F905F90199483
:1017E0001F93CF93DF931F921F92CDB7DEB7182FB1
:1017F0007A83698380919C0890919D080097C9F035
:10180000DC01ED91FC910190F081E02D1031B8F4F4
:1018100061157044A0F4612F606E199522E030E0EC
:10182000AE014F5F5F4F62E070E08CE998E00E948C
:10183000510B0F900F90DF91CF911F91089560EFA2
:10184000199580919C0890919D08DC01ED91FC9187
:101850000190F081E02D6FE6199580919C089091A0
:101860009D08DC01ED91FC910190F081E02D612F4C
:10187000199522E030E0AE014F5F5F4F62E070E00B
:101880008CE998E00E94510B80919C0890919D08F2
:10189000DC01ED91FC910190F081E02D67EF19954D
:1018A000C8CFCF92DF92EF92FF920F931F93CF9307
:1018B000DF93FC01E058FF4FE080EE2009F45CC0AC
:1018C000EC01C05CDF4FA881B981109709F454C0C6
:1018D000FC01EF57FF4FC080D180F60111810081DC
:1018E000ED91FC9111970190F081E02D60EFCD0119
:1018F000199588819981DC01ED91FC910190F0812D
:10190000E02D69E7199588819981DC01ED91FC91C1
:101910000190F081E02D602F199588819981DC017B
:10192000ED91FC910190F081E02D612F1995F12C42
:1019300001E010E00F5F1F4FE016F10659F030E0B4
:1019400020E0A601400F511F61E070E0CE010E942F
:10195000510BF0CF88819981DC01ED91FC910190D0
:10196000F081E02D67EFDF91CF911F910F91FF90F4
:10197000EF90DF90CF901994DF91CF911F910F914D
:10198000FF90EF90DF90CF900895009711F00C94A6
:10199000510C0895CF92DF92EF92FF92CF93DF9395
:1019A000EC01603282E07807CCF5653B710514F0FC
:1019B00064EB70E0898128E830E0281B310987FD5D
:1019C0003395220F331F220F331F6901330FEE08A7
:1019D000FF088A8128E532E0281B310987FD33950D
:1019E000220F331F220F331F032E000C440B550B05
:1019F0002C193D094E095F09DB0177FF02C0B0E0F9
:101A0000A0E00E94833D24EB30E040E050E00E94E3
:101A1000593DC20ED31EE41EF51EB601E881E03327
:101A200070F5298188E890E0821B910927FD939544
:101A3000880F991F880F991F681779077CF02A81F2
:101A400088E592E0821B910927FD9395880F991FE5
:101A5000880F991F681779070CF4CB010297880F3C
:101A6000991F4FB7F8942E2F30E0F901EE0FFF1FAA
:101A7000E20FF31FEA5BF54F928381834FBFDF9143
:101A8000CF91FF90EF90DF90CF900895DF92EF928B
:101A9000FF920F931F93CF93DF93EC01D62E7A0121
:101AA00089018881803308F067C061E08D2D0E9434
:101AB000DD058881282F30E0F901EE0FFF1FE20FCE
:101AC000F31FEA5BF54F9D2D9F736081607C692B4E
:101AD000608320E232E02E193F0937FF02C02D5FFC
:101AE0003F4F3595279535952795298320E639E091
:101AF000201B310B37FF02C02D5F3F4F35952795D7
:101B0000359527952A832CE0622F0E94FF40829F03
:101B1000B001112430E020E0AB01420F531FFA0165
:101B2000EE0FFF1FE40FF51FEA5BF54F908196FD66
:101B300016C02F5F3F4F2C30310571F7813029F5EA
:101B40001092800082E080938100109285001092B4
:101B50008400B19A80916F00826080936F00E88169
:101B60008E2F90E0FC01EE0FFF1FE80FF91FEA5BDC
:101B7000F54F8081806480838881DF91CF911F91B0
:101B80000F91FF90EF90DF900895823061F41092F2
:101B9000900080939100109295001092940088BB61
:101BA00080937100DCCF833069F41092A00082E052
:101BB0008093A1001092A5001092A40089BB80938D
:101BC0007200CDCF8111CBCF1092200182E08093A3
:101BD000210110922501109224018ABB8093730089
:101BE000BECFAF92BF92CF92DF92EF92FF920F9350
:101BF0001F93CF93DF936B017A01EC01CB5CDB4F3A
:101C000028813CE0389F8001399F100D1124A0905D
:101C1000D60AB12C27FF1FC0FB01118210828881D8
:101C20008F5F888388819801280F311D87FD3A9541
:101C3000F6012A153B051CF488818C30C4F18081A3
:101C40009181049680349C4908F473C0F601808128
:101C50009181049670C088819801280F311D87FDFD
:101C60003A952A153B05DCF68881A801480F511DDD
:101C700087FD5A95FA01EE0FFF1FE40FF51FEA5B8F
:101C8000F54F808186FFCBCF8881F801E80FF11DE9
:101C900087FDFA95CF01EE0FFF1FE80FF91FEA5BF2
:101CA000F54F808160E08F730E94AF05B8CF8081CF
:101CB00091812881A801420F511D27FD5A959A0153
:101CC000FA01EE0FFF1FE20FF31FEA5BF54F2181D0
:101CD0003281820F931FF70191838083888198015D
:101CE000280F311D87FD3A95F901EE0FFF1FE20F16
:101CF000F31FEA5BF54F808186FF22C08881080FC1
:101D0000111D87FD1A95F801EE0FFF1FE00FF11F5F
:101D1000EA5BF54F808161E08F73DF91CF911F9176
:101D20000F91FF90EF90DF90CF90BF90AF900C9409
:101D3000AF0580E49CE9F701918380838FEF88836E
:101D4000DF91CF911F910F91FF90EF90DF90CF9097
:101D5000BF90AF900895FC01892B69F09481907831
:101D60006115710519F4948381E00895946094835A
:101D700071836083F9CF80E00895CF93DF93EC0106
:101D800088819981DC01ED91FC910190F081E02D39
:101D900019952A813B81820F931F9B838A83DF9150
:101DA000CF910895CF93DF93EC0188819981DC0175
:101DB000ED91FC910280F381E02D19952A813B8100
:101DC000820F931F9B838A83DF91CF910895EF92B7
:101DD000FF920F931F93CF93DF93CDB7DEB7669734
:101DE0000FB6F894DEBF0FBECDBF8C01CB01FE0154
:101DF00077969F014AE0E42EF12CB7010E940B4137
:101E0000805D8293CB010097C1F7A9014E1B5F0B48
:101E1000BF01C8010E94D20E66960FB6F894DEBFCD
:101E20000FBECDBFDF91CF911F910F91FF90EF902B
:101E300008958F929F92AF92BF92CF92DF92EF92CE
:101E4000FF920F931F93CF93DF93CDB7DEB76697C3
:101E50000FB6F894DEBF0FBECDBF6C018E01095ED8
:101E60001F4F78018AE0882E912CA12CB12CCB0138
:101E7000BA01A50194010E948B3D942F852F605DCE
:101E8000F80162938F01A901692F782F411551053F
:101E90006105710561F7A7014E1B5F0BBF01C6010C
:101EA0000E94D20E66960FB6F894DEBF0FBECDBF6D
:101EB000DF91CF911F910F91FF90EF90DF90CF9026
:101EC000BF90AF909F908F900895EF92FF920F93E5
:101ED0001F93CF93DF93EC017B0162E20E94BD0E62
:101EE0008701F80161918F01662391F0E7E3F2E049
:101EF000F280FF2049F0329681816813F9CF6CE5BA
:101F0000CE010E94BD0E6F2DCE010E94BD0EE9CF05
:101F100062E2CE01DF91CF911F910F91FF90EF9080
:101F20000C94BD0EFC019B01892BD1F0AB01770F06
:101F3000660B770B9481907837FD08C09860948386
:101F4000408351836283738381E008959A60948310
:101F500070956095509541955F4F6F4F7F4FF0CFD3
:101F600080E00895FC010E969183808393838283A1
:101F700088539F4F958384839783868310868585B6
:101F8000807885870895CF938131B0F421E030E0E7
:101F9000082E02C0220F331F0A94E2F740916C050D
:101FA00050916D05672B51F42095309524233523EE
:101FB00030936D0520936C05CF910895242B352B1C
:101FC00030936D0520936C05909127049111F4CF07
:101FD000C82F0E941906BC018C2FCF910C94F00BD6
:101FE0004F925F926F927F928F929F92AF92BF9229
:101FF000CF92DF92EF92FF920F931F93CF93DF93D5
:10200000893008F0A7C08F5FC82FCC0FCC0FCC0F42
:102010004C2EC73410F056E4452ED62F38EF532EF1
:102020005C0E852C912CC401880F991F9C01245AA9
:10203000374F5901052DD12CC12C10E07724739412
:102040000415C8F58EEF800F8434F8F4F601E80D1E
:10205000F91DE152F74F90819230B8F4872D8D230E
:1020600066246394811101C0612C7601EE0CFF1C83
:10207000913089F4172939ECE30EF11CF501EE0DCE
:10208000FF1D862D90E091838083770C0F5F8FEF8B
:10209000C81AD80AD5CF882371F3F701E753FF4F49
:1020A000EA0DFB1D80819181019729F362E0802F69
:1020B0000E94DD05E0CF10FF05C06D2F6170852DFA
:1020C0000E94AF0511FF06C06D2F627089EF8C0F63
:1020D0000E94AF0512FF06C06D2F64708AEF8C0F4F
:1020E0000E94AF0513FF06C06D2F68708BEF8C0F39
:1020F0000E94AF0514FF06C06D2F60718CEF8C0F2E
:102100000E94AF0515FF06C06D2F60728DEF8C0F1A
:102110000E94AF0516FF06C06D2F60748EEF8C0F06
:102120000E94AF0517FF16C06D2F60788FEF8C0FE0
:10213000DF91CF911F910F91FF90EF90DF90CF90A3
:10214000BF90AF909F908F907F906F905F904F90D7
:102150000C94AF05DF91CF911F910F91FF90EF90FD
:10216000DF90CF90BF90AF909F908F907F906F90B7
:102170005F904F900895FF920F931F93CF93DF933B
:10218000863418F5EB01F82E082F10E0F801E15223
:10219000F74F80818330F9F08430B9F48EEF8F0DE2
:1021A000843460F4F801E852FC4F808123E0829F80
:1021B000C00111248952954F0E94CA0C000F111FB3
:1021C000F801EB5DF64FD183C083DF91CF911F9172
:1021D0000F91FF9008958EEF8F0D8C3020F084EDDD
:1021E0008F0D833058F761E08F2D0E94DD05209719
:1021F00029F460E08F2D0E94AF05E0CFCF3FD105DD
:1022000011F461E0F7CFF801E057FC4FE491E150A1
:10221000E23108F0B0C0F0E08827EE5EFE4E8F4F4E
:102220000C941F41241129112E1138114211BB1198
:102230004C1154115C11661170117A1189119311AE
:10224000BB119D11A711B11184B5806884BDC7BDB4
:10225000B5CF84B5806284BDC8BDB0CF8091800009
:10226000806880938000D0938900C0938800A6CFB7
:1022700080918000806280938000D0938B00C09317
:102280008A009CCF80918000886080938000D093EA
:102290008D00C0938C0092CF8091B00080688093B5
:1022A000B000C093B3008ACF8091B0008062809369
:1022B000B000C093B40082CF80919000806880937A
:1022C0009000D0939900C093980078CF80919000AF
:1022D000806280939000D0939B00C0939A006ECF51
:1022E00080919000886080939000D0939D00C0936F
:1022F0009C0064CF8091A00080688093A0008091B2
:10230000A0008F7B8093A000D093A900C093A80069
:1023100055CF8091A00080628093A000D093AB0045
:10232000C093AA004BCF8091A00088608093A0004A
:10233000D093AD00C093AC0041CF80912001806864
:1023400080932001D0932901C093280137CF809139
:102350002001806280932001D0932B01C0932A0139
:102360002DCF80912001886080932001D0932D0192
:10237000C0932C0123CFC038D1050CF042CF39CF08
:102380009EEF980F943480F4E82FF0E0DF01A15223
:10239000B74F9C91913041F4EE0FFF1FEB5DF64F6C
:1023A000608371830C94AF050895FF920F931F9380
:1023B000CF93DF931F921F92CDB7DEB7082F10E0A7
:1023C000F801ED5AFA4F9081F62EF922025E1B4F6A
:1023D000411104C0F80190819F1511F12F2D30E0BB
:1023E0003A832983A0919C08B0919D081097B1F081
:1023F000682F6F706069ED91FC9111970190F081E9
:10240000E02DCD01199522E030E0AE014F5F5F4F26
:1024100062E070E08CE998E00E94510BF801F082D4
:102420000F900F90DF91CF911F910F91FF90089522
:102430000F931F93CF93DF93893008F071C0282F3B
:1024400030E0F901E45AFA4F6083672B09F468C061
:10245000082F2D5A3A4FF9011081D82FDD0FDD0FCB
:10246000DD0F8EEF8D0F843450F4C12FC17010FF3B
:1024700007C08D2F0E948605C1E0892B09F4C0E0BA
:102480008FEF8D0F843448F411FF07C081E08D0F6A
:102490000E948605892B09F0C26012FF07C082E006
:1024A0008D0F0E948605892B09F0C46013FF07C0B9
:1024B00083E08D0F0E948605892B09F0C86014FF08
:1024C00007C084E08D0F0E948605892B09F0C0614A
:1024D00015FF07C085E08D0F0E948605892B09F046
:1024E000C062D034A1F016FF07C086E08D0F0E94B5
:1024F0008605892B09F0C064DF3349F017FF07C058
:1025000087E08D0F0E948605892B09F0C06841E0A5
:102510006C2F802FDF91CF911F910F910C94D511CB
:10252000DF91CF911F910F910895A82FB0E0A8528D
:10253000BC4F9C91292F30E0F901EE0FFF1FE20FF5
:10254000F31FE952F54FE0812E2F30E0F901EE0F35
:10255000FF1FE20FF31FEA5BF54F80818F7B8083C3
:102560008091D603981308C0992319F09150909345
:10257000D6038FEF8C9308958823D9F3E091D70386
:10258000EF5FE093D703F0E0EB55FC4F9083F1CF82
:10259000FC01892B51F0948190789C609483408356
:1025A00051836283738381E0089580E00895FC0184
:1025B0002581222339F0F8E02F0290011124820FA7
:1025C000931F089590E080E00895CF93DF93DC019E
:1025D000EA01EC81FD818A819B810896E817F90761
:1025E00040F481E08887F0E0E0E0CF01DF91CF9117
:1025F00008953897FD83EC833097B9F31296CD9107
:10260000DC911397209791F0CF018C1B9D0B23E059
:10261000959587952A95E1F78D831396FC93EE9314
:1026200012971582148277836683DFCF1196FC930D
:10263000EE93F3CFEF92FF920F931F93CF93DF931D
:10264000FC0101900020E9F731977F01E81AF90AAF
:10265000A0919C08B0919D081097D1F18C01ED914B
:10266000FC9111970190F081E02D60EFCD0119955B
:1026700080919C0890919D08DC01ED91FC91019066
:10268000F081E02D61E71995D0E0C0E0EC16FD0681
:1026900069F0A8014C0F5D1F30E020E061E070E0C0
:1026A0008CE998E00E94510B2196F0CF80919C0814
:1026B00090919D08DC01ED91FC910190F081E02D5D
:1026C00067EFDF91CF911F910F91FF90EF901994D9
:1026D000DF91CF911F910F91FF90EF9008950C948F
:1026E0001A13CF93DF93DB019091D603903378F5E3
:1026F0003091D703682F70E0FB01E852FC4F332381
:10270000E1F0C32FD0E0CB55DC4F8881808331507E
:102710003093D703808123E0829FC0011124895226
:10272000954F1A161B0674F4141615065CF49A01DC
:10273000AD01DF91CF910C94460D90839F5F9093F4
:10274000D603E8CF20E639E040E252E0F2CF88E459
:1027500092E0DF91CF910C941A13FC0101900020BC
:10276000E9F73197AF01481B590BBC018FEB97E09C
:102770000C94BB038F929F92AF92BF920F931F93C3
:10278000CF93DF93CDB7DEB7A1970FB6F894DEBF36
:102790000FBECDBF19A2423008F44AE08E010F5D92
:1027A0001F4F842E912CB12CA12CA50194010E94C5
:1027B0008B3DE62FB901CA01EA30F4F4E05DD8019F
:1027C000EE938D01232B242B252B79F790E080E0CD
:1027D000109719F0CD010E94AD13A1960FB6F89491
:1027E000DEBF0FBECDBFDF91CF911F910F91BF9084
:1027F000AF909F908F900895E95CE1CF0C94AD135A
:10280000CF93DF930E94AD13EC018CE592E00E9420
:10281000AD138C0F9D1FDF91CF910895FB010190A7
:102820000020E9F73197AF01461B570B0C94D20EED
:102830002F923F924F925F926F927F928F929F92D0
:10284000AF92BF92CF92DF92EF92FF920F931F93BE
:10285000CF93DF93CDB7DEB766970FB6F894DEBFA0
:102860000FBECDBF8C011B01DC0114968C91149717
:102870008F77863009F463C278F48230B0F0843008
:1028800008F044C212964D915C9113976D917C9122
:10289000C1010E94D20E36C28C3069F160F48830DA
:1028A00009F448C28A3009F437C26FE572E0C10109
:1028B0000E940E1427C2803209F4FCC18034A9F7AB
:1028C0006BE5C1010E94BD0EF80100811181011567
:1028D000110509F4EAC1B101C8010E941814C80128
:1028E0000E94D7128C01892B09F4DFC16CE2C1016F
:1028F0000E94BD0EECCFF801C080D180E280F38051
:10290000A7019601C701B6010E949B3E882331F0C2
:102910006FE572E0C1010E940E149FC120E030E01B
:10292000A901C701B6010E949B3E882371F0A7014F
:102930009601C701B6010E94BD3D9B01AC01C701D4
:10294000B6010E949B3E882319F320E030E0A901E4
:10295000C701B6010E949B3E87FF08C06DE2C1011E
:102960000E94BD0EF7FAF094F7F8F09420E836E9EB
:1029700048E15BE4C701B6010E94214087FD81C0A8
:1029800064E1A62EB12C00E210E01A8A198AF50142
:10299000E258FD4F2591359145915491C701B601FB
:1029A0000E94214087FD13C0F501E25BFD4F259198
:1029B000359145915491C701B6010E942E406B019B
:1029C0007C0129893A89200F311F3A8B298B159573
:1029D000079534E0A31AB1088CEFA8168FEFB8065C
:1029E000B1F655245A9420E030E0A901C701B601A0
:1029F0000E94214018160CF04BC02CEA35EC47E23F
:102A000057E3C701B6010E949B3E18160CF440C064
:102A1000A52DB4E0AB02C0011124B12CA12CFC0106
:102A2000EA59FD4F3F019C0122583D4F49013FEFBC
:102A3000531671F1F301EA0DFB1D659175918591B6
:102A40009491A70196010E94214018169CF4F4016C
:102A5000EA0DFB1D2591359145915491C701B601B1
:102A60000E942E406B017C0189899A89801B910B01
:102A70009A8B898B159507955A9494E0A91AB108F9
:102A8000D6CF00E210E045E0542E1A8A198AABCF67
:102A9000C701B6010E94193F4B015C012B013C01AB
:102AA00006E080E492E4AFE0B0E08B8B9C8BAD8BD2
:102AB000BE8B102F01509AE0491651046104710435
:102AC000C8F06B897C898D899E892AE030E040E0DE
:102AD00050E00E948B3D2B8B3C8B4D8B5E8BC3015A
:102AE000B2012AE030E040E050E00E948B3D290135
:102AF0003A01DFCFC501B4010E94483F9B01AC0100
:102B0000C701B6010E94BC3D6B017C016B897C89C9
:102B10008D899E890E94483F9B01AC01C701B60187
:102B20000E942E402B013C010E94193F6B017C0149
:102B30000E94483F9B01AC01C301B2010E94BC3D11
:102B40009B01AC010E94BD3D0E94193FC60ED71EDD
:102B5000E81EF91E8B899C89AD89BE89C816D906E5
:102B6000EA06FB06D8F09FEF891A990AA90AB90A62
:102B7000A989BA89AB2B39F1BAE08B169104A1046B
:102B8000B10408F1E989FA893196FA8BE98BC12CF5
:102B9000D12C7601812C912C540183949AE0492EFA
:102BA000512C612C712CC701B601A30192010E9426
:102BB0008B3D672B682B692B51F4111644F4690186
:102BC0007A011150F0CFC12CD12C7601E7CFB5019D
:102BD000A401C1010E94190F112371F14E01F1E10D
:102BE0008F0E911C012F54018AE0482E512C612C2C
:102BF000712C015068F0C701B601A30192010E9437
:102C00008B3D605DD4016E934D0169017A01F1CF76
:102C1000812F90E0BC0160957095F501E81BF90BE0
:102C200031978EE2808344275527461B570B6A0D48
:102C30007B1DC1010E94D20EE989FA89F7FF2AC0E3
:102C400064E672E0C1010E940E1469897A89719567
:102C500061957109C1010E94E70ED10112968D9113
:102C60009C9166960FB6F894DEBF0FBECDBFDF9184
:102C7000CF911F910F91FF90EF90DF90CF90BF9079
:102C8000AF909F908F907F906F905F904F903F900C
:102C90002F90089529893A89232BF9F265E6C1011D
:102CA0000E94BD0E69897A89D5CF6DE5C1010E9468
:102CB000BD0ED3CF6BE7C1010E94BD0EF8010081AC
:102CC000118101151105D1F0D80116966D917C91F5
:102CD000C1010E94650F6AE3C1010E94BD0EB101EE
:102CE000C8010E941814C8010E94D7128C01892BB8
:102CF00029F06CE2C1010E94BD0EE3CF6DE7C10176
:102D00000E94BD0EF10182819381ABCF6D917C91C8
:102D1000C1010E94650FF6CFCD90DD90ED90FC9043
:102D20006DE2C1010E94BD0EB701A601C1010E9462
:102D3000190FE8CF4D915D916D917C91F7CFF8011E
:102D400080819181A281B38167E672E0892B8A2B11
:102D50008B2B09F0DFCD6CE672E0DCCDCF93DF93F7
:102D600000D000D0CDB7DEB72FEB37E03A83298310
:102D70001C821B82BE016F5F7F4F09960E94181450
:102D800026960FB6F894DEBF0FBECDBFDF91CF9170
:102D900008950F931F93CF93DF938B010E948809AF
:102DA000C82F8823A1F061E089E30E941B08D82F77
:102DB000109277058093760580917705D81739F0C2
:102DC00087E69BE00E94FA08F8018083F5CF8C2FFC
:102DD000DF91CF911F910F9108950F931F93CF9380
:102DE000DF931F92CDB7DEB7082F162FBE016F5F9E
:102DF0007F4F80E80E94C9168823A1F0298180E0D6
:102E00002F3F81F00730C1F081E090E001C0880FD2
:102E10000A95EAF7112361F0122F182B612F80E831
:102E20000E9469090F90DF91CF911F910F91089532
:102E3000182F10951223F2CF112381F31FE7EECF45
:102E4000CF93DF931F92CDB7DEB7BE016F5F7F4F89
:102E50008FEA0E94C916882331F0898181700F9012
:102E6000DF91CF91089581E0FACFCF92DF92EF9278
:102E7000FF92CF93DF936C01990FEE08FF08F7FEE6
:102E800019C06DE28FEB97E00E948804EC01662781
:102E90007727CB016C197D098E099F094AE00E94B2
:102EA000BA138C0F9D1FDF91CF91FF90EF90DF90B1
:102EB000CF9008954AE0C701B601DF91CF91FF900E
:102EC000EF90DF90CF900C94BA13682F70E090E0F1
:102ED00080E04AE00C94BA138F929F92AF92BF9217
:102EE000CF92DF92EF92FF920F931F93CF93DF93D6
:102EF000CDB7DEB72E970FB6F894DEBF0FBECDBFAD
:102F00008091740B9091750B2091760B31E030938A
:102F1000C4052093E6051092C5051092E705DC0173
:102F2000ED91FC910190F081E02D6BE3199580E02B
:102F30000E9400076EE08091760B0E941B081092A1
:102F40007705809376058E010F5F1F4F6E01BFE0FE
:102F5000CB0ED11C8091740B9091750BDC01ED911F
:102F6000FC910284F385E02D1995B82E8091740BA5
:102F70009091750BDC01ED91FC910284F385E02DBD
:102F80001995E12C8E299B29F801819391938F014A
:102F9000CE16DF06F9F6C0907B0BD0907C0BE0904C
:102FA0007D0BF0907E0B69817A81072E000C880BD7
:102FB000990B0E944A3FA70196010E94A03E2091D2
:102FC0008B0B30918C0B40918D0B50918E0B0E948E
:102FD000BC3D60939B0B70939C0B80939D0B9093D7
:102FE0009E0B6B817C81072E000C880B990B0E9435
:102FF0004A3FA70196010E94A03E20918F0B30917D
:10300000900B4091910B5091920B0E94BC3D6093AC
:103010009F0B7093A00B8093A10B9093A20B8091B8
:10302000730B61E06827681B770B072E000C880B79
:10303000990B0E944A3F4B015C016D817E81072EF6
:10304000000C880B990B0E944A3F9B01AC01C50103
:10305000B4010E942E40A70196010E94A03E20913B
:10306000930B3091940B4091950B5091960B0E94CD
:10307000BC3D6093A30B7093A40B8093A50B90931E
:10308000A60B6F817885072E000C880B990B0E9488
:103090004A3F20E030EF41E456E40E94BD3D20E08D
:1030A00030E04AEA53E40E94A03E6093970B70938D
:1030B000980B8093990B90939A0BC090770BD090BC
:1030C000780BE090790BF0907A0B69857A85072E62
:1030D000000C880B990B0E944A3FA70196010E94A1
:1030E000A03E20917F0B3091800B4091810B50913D
:1030F000820B0E94BC3D6093A70B7093A80B80933A
:10310000A90B9093AA0B6B857C85072E000C880B6E
:10311000990B0E944A3FA70196010E94A03E209170
:10312000830B3091840B4091850B5091860B0E944C
:10313000BC3D6093AB0B7093AC0B8093AD0B909345
:10314000AE0B6D857E85072E000C880B990B0E94B7
:103150004A3FA70196010E94A03E2091870B309123
:10316000880B4091890B50918A0B0E94BC3D609363
:10317000AF0B7093B00B8093B10B9093B20B2E9664
:103180000FB6F894DEBF0FBECDBFDF91CF911F9178
:103190000F91FF90EF90DF90CF90BF90AF909F90F6
:1031A0008F9008956F927F928F929F92AF92BF926D
:1031B000CF92DF92EF92FF920F931F93CF93DF9303
:1031C000CDB7DEB76F970FB6F894DEBF0FBECDBF99
:1031D0008C0160E00E94DD051127F801E65BFC4FE1
:1031E000E491E983F801EC5FFC4FE491F0E0EE0F2D
:1031F000FF1FE651FD4F859194919B838A831C8626
:103200001E861D861B861A86198618861F821E82B8
:103210001D821C82CE0101960E94190B40E06CECCD
:10322000CE0101960E94E50A40E064E4CE010196D9
:103230000E94E50A0E948E066B017C01CE01019678
:103240000E94920A813059F00E948E066C197D0905
:103250008E099F096E3E72408105910578F31C86A8
:103260001E861D861B861A86198618861F821E8258
:103270001D821C82CE0101960E94190B882309F43D
:1032800085C040E060EFCE0101960E94E50AFF2470
:10329000F394E12CD12C01E0CE0101960E94920A18
:1032A000182FCE0101960E94920A113009F072C0C7
:1032B000813009F092C0013408F468C0DC86D11076
:1032C00002C081E08E878C81882309F45FC0FE01F3
:1032D00034968E01085E1F4FCE01809678016801FA
:1032E0002191D7012D937D01A817B907C9F767E090
:1032F000C8010E947B0A9F8D891348C0CE010196A8
:103300000E94190B882309F441C040E065E5CE0115
:1033100001960E94E50AF80161918F0140E0CE011B
:1033200001960E94E50AE016F106A9F740E06EEB6F
:10333000CE0101960E94E50A8E01015F1F4F7801C0
:103340003801F8E08F2E912CB12CAA24A394CE0141
:1033500001960E94920A8111BA28AA0CF1E08F1AF4
:103360009108A9F7D701BD927D01AC15BD0549F7BC
:10337000CE0101960E94190B813041F4F801819130
:103380008F01811144C0EE16FF06C1F7C12CD12C6C
:10339000760197C0EE2DF0E0181311C08C85081748
:1033A000D0F4A4E0B0E0AC0FBD1FAE0FBF1F8C91F6
:1033B0008F2199F410E0093008F40D87D02E44E0F5
:1033C00050E04C0F5D1FE40FF51F80819F2D9095FD
:1033D000892380830CC08013EDCFE4E0F0E0EC0F94
:1033E000FD1FEE0DF11D80818F29808311E0612F7B
:1033F000CE0101960E94B60A0F5FFF0C19F4E39408
:10340000FF24F39457E05E1508F046CF54CF68E0F0
:10341000C3010E947B0A9F898913B8CF688970E035
:10342000762F6627770F770F770F2F85F8E02F9F7E
:1034300090011124262B372B888D8031E1F46E8981
:103440006623C9F070E08D89AB01481B5109CA01A0
:103450009695982F8827979587950E940B41CB01C9
:103460008097B90153E0660F771F5A95E1F76078AE
:103470009C01260F371F213854EE35070CF486CFF8
:10348000B901330F880B990B0E944A3F20E030E0CE
:1034900040E05CE30E942E406B017C0120E030E0C4
:1034A0004CE552EC0E949B3E87FD70CF20E030E05F
:1034B00040E253E4C701B6010E94214018160CF403
:1034C00065CFC701B6016F960FB6F894DEBF0FBE89
:1034D000CDBFDF91CF911F910F91FF90EF90DF90C3
:1034E000CF90BF90AF909F908F907F906F900895F6
:1034F0008F929F92BF92CF92DF92EF92FF920F93A3
:103500001F93CF93DF93C82ED12CE601C45AD74F17
:10351000FE01ED57FF4F90819F3709F493C07B0167
:10352000182F0EEF080F043408F564307105F1F020
:10353000F601E852FC4F80818033C0F490E0FC013A
:10354000EE0FFF1FE80FF91FE952F54FE0818E2FB4
:1035500090E0FC01EE0FFF1FE80FF91FEA5BF54F4B
:10356000808186FF03C08C2D0E9495125AECB52EE7
:10357000B10E8FE08B1558F061E070E032E0E31699
:10358000F10411F070E060E08B2D0E94C30F043451
:10359000C8F4E12FE695E695E695F0E0ED5AFA4F8E
:1035A0002081312F377081E090E001C0880F3A957B
:1035B000EAF7E114F10421F03BE0E316F10411F520
:1035C000822B80834601880C991CF401EB5DF64F39
:1035D000118210828CE0E816F10408F0BCC0F701FB
:1035E0008827EA50F54E8F4F0C941F41161B431B42
:1035F000051B5A1B741BAB1BAB1BAB1BAB1BAB1BC9
:10360000221B2E1B80958223DCCF3FE03B15D0F0A0
:10361000043420F460E0812F0E94DD05CD57DF4F98
:1036200088818F3779F082E088830CC0043450F4AD
:1036300060E0812F0E94DD05CD57DF4F88818F37F5
:1036400009F01882DF91CF911F910F91FF90EF90B9
:10365000DF90CF90BF909F908F900895043490F7A3
:1036600062E0812F0E94DD05CD57DF4F88818F37C3
:1036700011F08BE08883F401EB5DF64F81E090E080
:1036800091838083DFCF0434E8F6FE01ED57FF4FCE
:103690008081833021F460E0812F0E94AF0561E0DA
:1036A000812F0E94DD05CD57DF4F88818F3751F282
:1036B00081E0BACF0C3020F084ED810F833010F61A
:1036C00061E0812F0E94DD0561E0812F0E94DD0510
:1036D00060E0812F0E94AF05CD57DF4F88818F3783
:1036E00009F4B0CF83E0A0CF043408F0ABCFCD57BE
:1036F000DF4F88818F3711F084E08883F601E8522C
:10370000FC4F80818F3FA9F090E0FC01EE0FFF1F7E
:10371000E80FF91FE952F54FE0818E2F90E0FC0190
:10372000EE0FFF1FE80FF91FEA5BF54F808186FD62
:1037300089CF4FEF5FEF6FEF7FEF812FDF91CF9159
:103740001F910F91FF90EF90DF90CF90BF909F90CF
:103750008F900C94711382E792E0DF91CF911F91CB
:103760000F91FF90EF90DF90CF90BF909F908F9040
:103770000C941A130F931F93CF93DF9381E08093E0
:103780002704ECE5F5E0C3E5D5E0AEE1B4E0119245
:1037900019921D9285E0E536F807C9F708ED13E0A8
:1037A000C0E0DFEF8AEC8C0F62E070E0803130F037
:1037B0008EEF8C0F843428F470E060E08C2F0E9430
:1037C000781AF801D1938F01CF5FC63459F7109260
:1037D0006D0510926C051092D7031092D6031092CB
:1037E0002704DF91CF911F910F9108954F925F921F
:1037F0006F927F928F929F92AF92BF92CF92DF9201
:10380000EF92FF920F931F93CF93DF93CDB7DEB765
:103810002C970FB6F894DEBF0FBECDBF0E946C1779
:10382000C090A30BD090A40BE090A50BF090A60B3A
:1038300021E030E03A83298320E030E0A901C7018C
:10384000B6010E94214087FF02C01A82198201E05E
:1038500010E020E030E0A901C701B6010E949B3EC4
:1038600087FD02C010E000E069817A81601B710B66
:10387000072E000C880B990B0E944A3F6D837E83B4
:103880008F839887A7019601C701B6010E942E4039
:103890002B013C01C0909B0BD0909C0BE0909D0BAA
:1038A000F0909E0BA7019601C701B6010E942E4021
:1038B000A30192010E94BD3D0E94A1409B01AC0169
:1038C00080909F0B9090A00BA090A10BB090A20BAA
:1038D0006D817E818F8198850E942E409B01AC0175
:1038E000C501B4010E943C3E21EE3EE245E652E4B1
:1038F0000E942E406093B30B7093B40B8093B50B72
:103900009093B60BA5019401C501B4010E942E400D
:10391000A30192010E94BD3D0E94A1409B01AC0108
:10392000C701B6010E943C3E905821EE3EE245E6BA
:1039300052E40E942E406093B70B7093B80B8093B3
:10394000B90B9093BA0B0E948E066B017C0180919B
:10395000C70B9091C80BA091C90BB091CA0BA701DE
:103960009601281B390B4A0B5B0BCA01B9010E9457
:10397000483F2FE632E143E85AE30E942E404B01D4
:103980005C01C092C70BD092C80BE092C90BF092B9
:10399000CA0B8091CB0B9091CC0BA091CD0BB09129
:1039A000CE0B89839A83AB83BC834090B30B50903A
:1039B000B40B6090B50B7090B60B2091A70B3091B3
:1039C000A80B4091A90B5091AA0BC501B4010E940C
:1039D0002E402091BB0B3091BC0B4091BD0B509100
:1039E000BE0B0E94BD3DA30192010E94BC3D6B0134
:1039F0007C0120E030E044E353E40E9421401816AB
:103A00003CF420E030E044EB53E4C701B601EDCFD5
:103A100020E030E044E353ECC701B6010E949B3E36
:103A200087FF0BC020E030E044EB53E4C701B60150
:103A30000E94BD3D6B017C01EBCF29813A814B8116
:103A40005C8160E070E080E89FE30E94BC3D698794
:103A50007A878B879C87A7019601C301B2010E94D8
:103A6000BD3D29813A814B815C810E942E406B01D2
:103A70007C0129853A854B855C85C301B2010E9492
:103A80002E409B01AC01C701B6010E94BD3D6B01F8
:103A90007C0120E030E044E353E40E94214018160A
:103AA0004CF420E030E044EB53E4C701B6010E943F
:103AB000BC3DEDCF20E030E044E353ECC701B6015C
:103AC0000E949B3E87FF0BC020E030E044EB53E4B4
:103AD000C701B6010E94BD3D6B017C01EBCFC092D6
:103AE000BB0BD092BC0BE092BD0BF092BE0B409092
:103AF000B70B5090B80B6090B90B7090BA0B209137
:103B0000AB0B3091AC0B4091AD0B5091AE0B6D8176
:103B10007E818F8198850E942E40A50194010E948C
:103B20002E402091BF0B3091C00B4091C10B5091A2
:103B3000C20B0E94BD3DA30192010E94BC3D6B01DE
:103B40007C0120E030E044EB52E40E942140181652
:103B50003CF420E030E044E353E4C701B601EDCF8C
:103B600020E030E044EB52ECC701B6010E949B3EDE
:103B700087FF0BC020E030E044E353E4C701B60107
:103B80000E94BD3D6B017C01EBCFA7019601C301F3
:103B9000B2010E94BD3D29813A814B815C810E9426
:103BA0002E406B017C01A301920169857A858B858A
:103BB0009C850E942E409B01AC01C701B6010E946A
:103BC000BD3D6B017C0120E030E044EB52E40E94FB
:103BD000214018164CF420E030E044E353E4C701E0
:103BE000B6010E94BC3DEDCF20E030E044EB52EC4A
:103BF000C701B6010E949B3E87FF0BC020E030E06A
:103C000044E353E4C701B6010E94BD3D6B017C0152
:103C1000EBCFC092BF0BD092C00BE092C10BF092E1
:103C2000C20B2091AF0B3091B00B4091B10B509172
:103C3000B20BC501B4010E942E402091C30B3091FC
:103C4000C40B4091C50B5091C60B0E94BD3D6093C3
:103C5000C30B7093C40B8093C50B9093C60B2C962B
:103C60000FB6F894DEBF0FBECDBFDF91CF911F918D
:103C70000F91FF90EF90DF90CF90BF90AF909F900B
:103C80008F907F906F905F904F90089585ED809317
:103C9000BC008091C0059091C105A091C205B09172
:103CA000C3050796A11DB11D23E0B695A79597956D
:103CB00087952A95D1F72091BC0024FD03C010926E
:103CC000BE0508954091C0055091C1056091C2059F
:103CD0007091C305452B462B472B69F30097A1052F
:103CE000B10541F025E32A95F1F700000197A109FC
:103CF000B109E1CF8091BF050C94DF060F931F93AC
:103D0000CF93DF938B01EC01892BA1F06E817F8132
:103D10006017710779F00115110541F06115710502
:103D200029F0C8010E946742892B21F0CE010E9430
:103D3000D712E9CFCE01DF91CF911F910F91089556
:103D4000EF92FF920F931F93CF93DF93EC018C813F
:103D5000982F9F7739F4807880628C83198218823B
:103D60001B821A828C8185FF16C06115710599F03E
:103D70007A018B01888199810E947E1E009769F4E7
:103D8000A701B801CE01DF91CF911F910F91FF9054
:103D9000EF900C94E51280E090E0DF91CF911F91BD
:103DA0000F91FF90EF900895CF93DF93EC01AC015A
:103DB00009960E94A01EFC01892B41F08481807825
:103DC000806284831182108213821282BF01CE012D
:103DD000DF91CF910895EF92FF920F931F93CF93AE
:103DE000DF930097B9F061157105A1F07A018B019D
:103DF000EC01888199810E947E1E009769F4A701D9
:103E0000B801CE01DF91CF911F910F91FF90EF90FC
:103E10000C94E51280E090E0DF91CF911F910F911B
:103E2000FF90EF9008952F923F924F925F926F9282
:103E30007F928F929F92AF92BF92CF92DF92EF923A
:103E4000FF920F931F93CF93DF93CDB7DEB7C85583
:103E5000D1400FB6F894DEBF0FBECDBF80EF90E02B
:103E60000E94D50481E790E00E94D504CE0101961E
:103E70000E94B20FAE014F5F5F4F63E872E0CE0168
:103E80000A960E94A01E68E872E00E94AB0E809124
:103E90003404882309F4BFC061E972E0CE010196C1
:103EA0000E94D41E6B017C011092300410922F04EA
:103EB000BE0169527F4F86E90E94C916882321F10D
:103EC000C952DF4F8881C75DD04090E090933004A5
:103ED00080932F04BE0169527F4F87E90E94C91663
:103EE000882391F0C952DF4F8881C75DD04090E0B0
:103EF000982F882720912F0430913004820F931F30
:103F00009093300480932F0400912F04109130047B
:103F1000A70167E972E0C6010E94EB1EB8010E948A
:103F2000920F10922E0410922D04BE0169527F4F01
:103F300088E90E94C916882321F1C952DF4F888180
:103F4000C75DD04090E090932E0480932D04BE0175
:103F500069527F4F89E90E94C916882391F0C9529E
:103F6000DF4F8881C75DD04090E0982F882720914F
:103F70002D0430912E04820F931F90932E04809372
:103F80002D0400912D0410912E04A7016BE972E01D
:103F9000C6010E94EB1EB8010E94920F10922C04E1
:103FA00010922B04BE0169527F4F8AE90E94C91604
:103FB000882321F1C952DF4F8881C75DD04090E04E
:103FC00090932C0480932B04BE0169527F4F8BE9A0
:103FD0000E94C916882391F0C952DF4F8881C75DBE
:103FE000D04090E0982F882720912B0430912C040A
:103FF000820F931F90932C0480932B0400912B0429
:1040000010912C04A70161EA72E0C6010E94EB1E28
:10401000B8010E94920F80913304882309F440C0B4
:1040200010922A0410922904BE0169527F4F84E93C
:104030000E94C916882321F1C952DF4F8881C75DCC
:10404000D04090E090932A0480932904BE016952E5
:104050007F4F85E90E94C916882391F0C952DF4F2E
:104060008881C75DD04090E0982F8827209129044F
:1040700030912A04820F931F90932A04809329047D
:104080000091290410912A04AE014F5F5F4F66EA48
:1040900072E0CE010A960E94A01EB8010E94920F03
:1040A00080913204882309F44CC20E94201788238F
:1040B00009F447C2C85ADE4F1882C855D1400E9441
:1040C0002017882309F43DC28E0109521F4FB80101
:1040D00080E80E94C916882309F468C0D8018C9131
:1040E000817409F42EC222242A94322CEE24E39403
:1040F000F12C6EE170E080E090E00E945B06BE0172
:10410000695A7E4F8FEA0E94C916882309F419C2A2
:10411000C95ADE4F8881C755D14080FFD2C1BE0148
:10412000685A7E4F8EEA0E94C916882309F409C294
:10413000C85ADE4FC880C855D140CC20D1F2B4E077
:10414000CB9E600111248CEF0E948809811130C040
:104150008FEF9FEF3091320A2091330AD801E32F7D
:104160005C01BB2441E04E0FCD01801B910B8A15F1
:104170009B050CF043C0F0E0BF016E54764F8C916C
:10418000FB01808311968C91119780A3CB01805CF9
:104190009F4F12965C911297FC015083B096139634
:1041A0008C91139780831496E42FDCCF8FEF98CFF8
:1041B0006C2D613208F060E289E30E941B08882EB2
:1041C0001092770580937605912C80917705A92C24
:1041D000B12C881671F0AC14BD0408F0B9CF87E695
:1041E0009BE00E94FA08F801EA0DFB1D808393947E
:1041F000ECCFC501843008F47CCFACCFF3E0AF0E38
:10420000B11CB694A794B694A7942A0DA30EA092BD
:10421000320A2093330A253008F44EC18FEF820F03
:10422000803208F0EAC0E2EBF9E0C22ED12CCF01D7
:10423000825B99408C159D050CF03EC171917B30DD
:10424000B0F3578D5B3098F337AD3B3080F3CF013F
:10425000815A9F4FDC019C919B3048F3D601AE54AC
:10426000B64F4E914B3078F090966C9190976B30A2
:1042700050F0FD01E05CFF4F20812B3020F0B09624
:1042800080818B3048F4E2EBF9E0EA17FB0749F74D
:1042900080E020E060E040E0C72ED12CE52FF0E088
:1042A000632E712C492E512C50E070E030E0A82E86
:1042B000B12CDA01A61BB70B84E6982E9A9EC0019A
:1042C0009B9E900D1124640F751F0E940B414B01A2
:1042D000A6014E1B5F0B64E6649FC001659F900DB5
:1042E0001124B6016E0F7F1F0E940B41861A970A98
:1042F000A9014A195B09A4E6A49FC001A59F900DDE
:104300001124B9016A0D7B1D0E940B419B01A30181
:1043100044195509B4E6B49FC001B59F900D11240E
:10432000B301640D751D0E940B41261B370B409194
:10433000360A5091370A480D591D5093370A409359
:10434000360A8091380A9091390A820F931F909310
:10435000390A8093380A423351050CF457C0F09261
:104360003B0AE0923A0A823391050CF45CC0F09269
:104370003D0AE0923C0AC401439640913A0A5091AA
:104380003B0A452B09F06FC040913C0A50913D0A11
:10439000452B09F068C0879708F08EC0C901439685
:1043A000879708F089C080913E0A90913F0A811456
:1043B000910409F045C02115310509F041C001966D
:1043C00090933F0A80933E0A80913E0A90913F0A63
:1043D0000A970CF471C08091400A9091410A0297AB
:1043E0000CF46AC08928B1F5232B21F4F092430A1A
:1043F000E092420A0E94B5025FC080E020E060E0E7
:1044000040E090E030E050E070E046CF4F3C5F4F3E
:104410002CF430923B0A20923A0AA5CF10923B0A24
:1044200010923A0AA0CF8F3C9F4F2CF430923D0A55
:1044300020923C0AA0CF10923D0A10923C0A9BCFDA
:104440008091400A9091410A01969093410A80938D
:10445000400ABACF232B71F282E090E09093430A96
:104460008093420AC7CF879738F5C901439687974B
:1044700018F580913E0A90913F0A892839F4232B40
:1044800029F4019690933F0A80933E0A80913E0A58
:1044900090913F0A0A9784F010923B0A10923A0AD0
:1044A00010923D0A10923C0A1092370A1092360A76
:1044B0001092390A1092380A1092320A1092330A76
:1044C00018CE6EE170E080E090E00E945B060E94F2
:1044D000B5028091440A9091450A1092320A1092D6
:1044E000330A1092370A1092360A1092390A109243
:1044F000380A10923B0A10923A0A10923D0A109222
:104500003C0A10923F0A10923E0A1092410A109201
:10451000400A1092430A1092420A1092450A1092E1
:10452000440A8F3F980769F08330910509F459C018
:104530000CF043C08130910509F46DC0029709F475
:1045400076C0809131048823B1F01092280468E28B
:1045500074E08CE90E94C9160091280410E0AE01B5
:104560004F5F5F4F63ED72E0CE010A960E94A01E7E
:10457000B8010E94920FCE0101960E94AE1687EFFD
:1045800090E00E94D504C85ADE4F0FB6F894DEBF03
:104590000FBECDBFDF91CF911F910F91FF90EF9094
:1045A000DF90CF90BF90AF909F908F907F906F9053
:1045B0005F904F903F902F9008958530910509F4BA
:1045C00042C0ECF0069709F0BCCFAE014F5F5F4FE1
:1045D0006FEA72E0CE010A960E94A01E6FEC72E0B4
:1045E0000BC0AE014F5F5F4F6FEA72E0CE010A96DB
:1045F0000E94A01E67EB72E00E94AB0EA2CFAE013C
:104600004F5F5F4F6FEA72E0CE010A960E94A01ED4
:104610006AEB72E0F1CFAE014F5F5F4F6FEA72E07D
:10462000CE010A960E94A01E6FEB72E0E5CFAE01AC
:104630004F5F5F4F6FEA72E0CE010A960E94A01EA4
:1046400064EC72E0D9CFAE014F5F5F4F6FEA72E06A
:10465000CE010A960E94A01E6AEC72E0CDCF4F9266
:104660005F926F927F928F929F92AF92BF92CF9202
:10467000DF92EF92FF920F931F93CF93DF93CDB70B
:10468000DEB7C65DD1090FB6F894DEBF0FBECDBF51
:104690000E94F61B80EF90E00E94D50481E790E035
:1046A0000E94D504CE0101960E94B20FAE014F5F69
:1046B0005F4F63E872E0CE010A960E94A01E6DED86
:1046C00072E00E94AB0E65EE72E0CE0101960E9490
:1046D000D41E4B015C016BEE72E0CE0101960E948C
:1046E000D41E6B017C0103E71BE0F80140A451A438
:1046F00062A473A4A50160EF72E0C4010E94EB1EE6
:10470000B301A2010E94C812F80144A455A466A4F2
:1047100077A4A50165E973E0C4010E94EB1EB30113
:10472000A2010E94C812F80140A851A862A873A86B
:10473000A50162EF72E0C4010E94EB1EB301A20169
:104740000E94C812F80184A895A8A6A8B7A8A70136
:1047500060EF72E0C6010E94EB1EB501A4010E9449
:10476000C812F80180AC91ACA2ACB3ACA70165E96A
:1047700073E0C6010E94EB1EB501A4010E94C8129D
:10478000F80184AC95ACA6ACB7ACA70162EF72E0BF
:10479000C6010E94EB1EB501A4010E94C812F801D7
:1047A000C4A0D5A0E6A0F7A0AE014F5F5F4F64EFB5
:1047B00072E0CE010A960E94A01EB701A6010E94D7
:1047C000C812CE0101960E94AE1687EF90E00E94BB
:1047D000D504CA52DF4F0FB6F894DEBF0FBECDBF6F
:1047E000DF91CF911F910F91FF90EF90DF90CF90CD
:1047F000BF90AF909F908F907F906F905F904F9001
:1048000008952F923F924F925F926F927F928F9274
:104810009F92AF92BF92CF92DF92EF92FF920F934F
:104820001F93CF93DF93CDB7DEB7E6970FB6F8941B
:10483000DEBF0FBECDBF962F7A01883109F45FC36A
:1048400008F042C0813109F4FDC2D0F4893009F486
:10485000BFC1803109F475C28830E9F4DA011196DC
:104860009C9111971C91EBE9F4E0AFEF80E020817F
:1048700017FF66C127FFA8C1AF3F09F068C166C135
:10488000833109F431C608F428C5863109F42AC3F6
:10489000873109F447C3E6960FB6F894DEBF0FBE22
:1048A000CDBFDF91CF911F910F91FF90EF90DF90DF
:1048B000CF90BF90AF909F908F907F906F905F90C0
:1048C0004F903F902F9008958B3609F4F4C0D8F4A0
:1048D0008A3109F47FC608F436C3813209F461C312
:1048E0008936C9F680EF0E947E028AE60E947E0227
:1048F0001AEC8FE7103108F4812F0E947E021F5FAF
:104900001031B9F7FBC08F3609F4B2C008F047C0C8
:104910008D3609F6662309F4BECFFA01008180EFD7
:104920000E947E028EE60E947E02802F0E947E02FE
:10493000063408F0E3C010E0F801E152F74F80813F
:104940000E947E02000F111FC8018B5D964F7C01F3
:10495000DC018C918F770E947E02F701808191812A
:104960009C012078232B39F0880F892F881F990B01
:104970008F770E947E02F801EB5DF64F8081918176
:104980009C012227307C232B09F4B8C0990F880B97
:10499000990F982F881F8F770E947E02AFC08037B3
:1049A000D9F08A3709F077CF623008F474CFDA0192
:1049B00011968C91B0E88B9F90011124FA018081AF
:1049C000820F932F911D833191050CF44EC090936B
:1049D0000202809301025FCF653008F45CCFDA01F8
:1049E0001C918EEF810F843408F055CF11960C91F5
:1049F00011971296CC9012971396DC9013971496F9
:104A0000FC90E12FF0E0E852FC4F80818033C0F44D
:104A100090E0FC01EE0FFF1FE80FF91FE952F54F80
:104A2000E0818E2F90E0FC01EE0FFF1FE80FF91FD1
:104A3000EA5BF54F808186FF03C0812F0E949512AB
:104A4000B0E8FB9EA00111244D0D511DE0E8CE9E63
:104A5000B0011124600F711D812F0E94711364E059
:104A600070E0812F0E94781A16CF83E190E0AFCFDB
:104A7000623008F410CFDA0111966C91119770E052
:104A80009230A1F012962C91B0E82B9F9001112446
:104A9000622B732B933051F0FA01838190E090E404
:104AA000899F902D88271124682B792BD7018C9111
:104AB0000E94BB10F0CE80EF0E947E028CE60E9426
:104AC0007E021EEF8CEC810F803188F582E00E941F
:104AD0007E028AE00E947E0286ED810F833048F1DB
:104AE000143430F484E00E947E028EE00E947E0244
:104AF0008FE70E947E021F5F143421F487EF0E942B
:104B00007E02C9CE1434F0F680E00E947E0281E07D
:104B10000E947E028BE00E947E0281E00E947E0263
:104B200081E00E947E0281E00E947E02CBCF1C3099
:104B300098F683E00E947E0288E00E947E02D0CF39
:104B4000121709F441C0AF3F11F427FDA82F8F5F62
:104B50003996843109F08BCE17FD9DCEAF3F09F415
:104B60009ACEE9E0AE02D0011124A556BB4F1C93AA
:104B700080919A0411968C931197212F012E000C8D
:104B8000330BF901EC5FFC4FE491F0E0EE0FFF1FF7
:104B9000E053FD4F4591549113965C934E931297B9
:104BA000F901E65BFC4FE4911496EC93149715968B
:104BB0009C9360E0811161E0812F0E94AF0561E06C
:104BC000812F0E94DD0567CE958317FDBCCF63CE94
:104BD00081E08093670580EF90E00E94D50481E733
:104BE00090E00E94D50489EF92E00E94FE13D70165
:104BF0008C9190E00E94D2184B015C01AC019B01AA
:104C00000E94E540882359F08EEF92E00E94AD1398
:104C100080E293E00E94FE13F70180810CC1240121
:104C20003501E89477F82FEF3FEF4FE75FE7C301D7
:104C3000B2010E94E54081110DC02FEF3FEF4FE719
:104C40005FE7C301B2010E949B3E18161CF482E08C
:104C500093E0DCCF2FEF3FEF4FE75FE4C501B401F6
:104C60000E94214018161CF486E093E0CFCF2FEF6E
:104C70003FEF4FE75FECC501B4010E949B3E87FD0B
:104C8000F3CF20E030E0A901C501B4010E949B3EB2
:104C900087FF09C06DE28FEB97E00E948804B7FAA6
:104CA000B094B7F8B0942AE037ED43EA5BE3C5016E
:104CB000B4010E94BD3D2B013C010E94193F4B01F4
:104CC0005C010E94483F9B01AC01C301B2010E94FC
:104CD000BC3D2B013C014AE0C501B4010E94BA135E
:104CE0006EE28FEB97E00E94880420E030E040E223
:104CF00051E4C301B2010E942E402B013C010E94ED
:104D0000193F4B01B12CA12C4AE0C501B4010E940E
:104D1000BA13C501B4010E94483F9B01AC01C30115
:104D2000B2010E94BC3D20E030E040E251E40E942C
:104D30002E400E94193F90E080E04AE00E94BA13A2
:104D400067CF80EF90E00E94D50481E790E00E9459
:104D5000D5048AE093E00E94FE13D7018C91815024
:104D6000990B11E001E08530910540F4FC01E25F10
:104D7000FD4F0081875F9D4FFC01108161E0802F16
:104D80000E94DD0560E0802F0E94AF0583E090E087
:104D90000197F1F761E0802F0E94AF0583E290E078
:104DA0000197F1F760E0802F0E94AF0560E0812F4E
:104DB0000E94DD05812F90E0FC01E65BFC4F6491D1
:104DC000FC01EC5FFC4FE491F0E0EE0FFF1FE651B9
:104DD000FD4F8591949100E412E42FE030E0462FDE
:104DE0000E94E42F4B015C0181149104A104B104E1
:104DF00039F0FFEF8F1A9F0AAF0ABF0A8FE0B8227F
:104E00006EE170E080E090E00E945B06C501B401B5
:104E10002AE330E040E050E00E948B3DB901330FBF
:104E2000880B990B4AE00E94BA1380E293E00E943B
:104E3000FE13D7018C910E94651787EF90E00E94C6
:104E4000D50429CDFA018380C280D12C018110E0E4
:104E5000608170E08091E10B9091E20BA091E30BF7
:104E600089839A83AB8320E639E040E252E0CE01A9
:104E700001960E94460D0C151D0594F4912CB12C41
:104E8000A12CC016D10604F1B801CE0101960E94F2
:104E9000CA0CC501B4010E945B060F5F1F4FF1CF22
:104EA000C016D1068CF4912CB12CA12CB801CE01E6
:104EB00001960E94CA0CC501B4010E945B06015014
:104EC00011090C151D0594F7E9818E2F90E0FC0166
:104ED000EE0FFF1FE80FF91FEA5BF54F80818F7B14
:104EE0008083D9CC80EF90E00E94D50481E790E0E8
:104EF0000E94D5048EE093E00E94FE139ECF80EFC7
:104F000090E00E94D50481E790E00E94D50489E1F9
:104F100093E00E94FE13D7018C910E9486050E94A7
:104F2000351776CE80EF90E00E94D50481E790E0BF
:104F30000E94D5048DE193E00E94FE13D7018C916D
:104F40000E941906ECCF80EF90E00E94D50481E723
:104F500090E00E94D50482E293E00E94FE13D70104
:104F60001C9160E0812F0E94DD05812F0E94860543
:104F70000197B9F70E948E064B0160E0812F0E94D5
:104F8000DD05812F0E9486050197B9F70E948E06E4
:104F9000CB01881999096CE370E00E940B41CB01A9
:104FA000BECF80EF90E00E94D50481E790E00E94A0
:104FB000D50487E293E00E94FE13D70113965C901C
:104FC0001397E52DF0E0FAABE9AB12968C911297AE
:104FD00090E011962C91119730E04C9150E0198E91
:104FE0001A8E1B8E1C8E1D8E1E8E1F8E18A219A24D
:104FF0001AA21BA21CA21D861E861F86188A198A49
:105000001A8A1B8A1C8A1D8A1E8A1F8A188E198278
:105010001A821B821C821D821E821F82188619869C
:105020001A861B861C865EA34DA338A72FA39AA7BA
:1050300089A768E873E180E090E00E945B061E01AA
:10504000F5E22F0E311CCE010D969CA78BA73E01D9
:105050009BE2690E711CABA4BCA48101A5E08A2E61
:10506000912CD8014C900E5F1F4F61E0842D0E945F
:10507000AF0564E670E080E090E00E945B06F5E03A
:10508000CF2ED12CF12CE12C852D0E941906E80E93
:10509000F91E6AE070E080E090E00E945B06B1E0FB
:1050A000CB1AD10889F7C701B4010E940B41072E22
:1050B000000C880B990B0E944A3FF5016193719394
:1050C000819391935F0160E0842D0E94AF0564E6B7
:1050D00070E080E090E00E945B066016710609F0C7
:1050E000C0CF68E873E180E090E00E945B06CE01EB
:1050F00001969EA78DA76C013101E5E0AE2EB12C83
:10510000D3014C90B2E06B0E711C61E0842D0E94C3
:10511000AF0564E670E080E090E00E945B0675E019
:10512000872E912CF12CE12C852D0E941906E80E7A
:10513000F91E6AE070E080E090E00E945B06E1E02A
:105140008E1A910889F7C701B5010E940B41072EFD
:10515000000C880B990B0E944A3FD6016D937D93FA
:105160008D939D936D0160E0842D0E94AF0564E6F0
:1051700070E080E090E00E945B066016710609F026
:10518000BFCF68E873E180E090E00E945B06FE011B
:105190007996F8ABEFA7D1014C90B2E02B0E311C01
:1051A00061E0842D0E94AF0564E670E080E090E04D
:1051B0000E945B0665E0C62ED12C10E000E0852D34
:1051C0000E941906080F191F6AE070E080E090E065
:1051D0000E945B06E1E0CE1AD10889F7EBA5FCA599
:1051E00081919191A191B191FCA7EBA78BAB9CAB65
:1051F000ADABBEABADA5BEA58D909D90AD90BD9065
:10520000BEA7ADA7C80165E070E00E940B41072E64
:10521000000C880B990B0E944A3FA50194010E9443
:10522000BC3D6B017C01A50194016BA97CA98DA9F2
:105230009EA90E94BC3D9B01AC01C701B6010E9422
:10524000A03E20E030E04FE753E40E942E40EFA55F
:10525000F8A96193719381939193F8ABEFA760E004
:10526000842D0E94AF0564E670E080E090E00E942B
:105270005B062614370409F08ECF8CE293E00E947F
:10528000FE13698D7A8D8B8D9C8D0E94123FCB0110
:105290000E9435178BE193E00E94FE136D8D7E8D89
:1052A0008F8D98A10E94123FCB010E9435178EE28C
:1052B00093E00E94FE1369A17AA18BA19CA10E9498
:1052C000123FCB010E94351780E293E00E94FE134B
:1052D00089A99AA90E943517B0CDDA011196CC9010
:1052E0001197D12C8C91813001F108F4BBC0823030
:1052F00009F4F2C0833009F0CECA8601000F111FF5
:105300000C0D1D1D0153144FD801ED91FC914481EA
:10531000558170E060E0818592850E946042F801CD
:10532000808191810E94A209B6CAFA0192806380AD
:105330005601AA0CBB1CF501EC0DFD1DE153F44F09
:10534000008111810115110589F0D80119968D91FF
:105350009C910E94D741F8018681978197FD03C0F7
:1053600060E00E94DD05C8010E94D74186E190E01F
:105370000E943B418C01E62CF12CDC0111961C9221
:10538000119718961C921897FC011786108A118A9B
:10539000128A81E086878387148692E095878083CE
:1053A000F3E06F9E3001112415967C926E92149753
:1053B000C3010E943B41F80192878187009709F45D
:1053C0004CC0A30170E060E00E946042D8011396D7
:1053D000FC92EE921297E92CF12CD8011796FC92D0
:1053E000EE92169711968C91882341F061E0892DF9
:1053F0000E94DD0560E0892D0E94AF05F701EC5F9A
:10540000FC4FE491F0E0EE0FFF1FE053FD4F85915C
:105410009491F801948B838BF701E65BFC4FE49148
:10542000D8015596EC935597F501EC0DFD1DE15310
:10543000F44F1183008316968D919C9197FD08C0BF
:1054400061E00E94DD0560E0F80186810E94AF0501
:1054500081E0D80111968C931ECA158214821382A2
:105460001282B9CF7601EE0CFF1C87010C0D1D1DB9
:105470000153144FD801ED91FC91309709F40BCAF8
:105480004481558170E060E0818592850E94604290
:10549000F801808191810E94A209D8010D911C918F
:1054A0000115110589F0F801818592850E94D74187
:1054B000D80116968D919C9197FD03C060E00E94E3
:1054C000DD05C8010E94D741F701EC0DFD1DE15338
:1054D000F44F11821082DFC9F601EE0FFF1FEC0DB1
:1054E000FD1DE153F44F1CCFDA014C9150E01296B0
:1054F0001C9112979A01220F331FF901E40FF51F37
:10550000E153F44F0190F081E02D612F70E0828132
:1055100093816817790708F04EC013960C91139782
:1055200014968C9190E0B0E0A0E0BA2FA92F982FAC
:1055300088274C015D01A02AD70115960C91D50151
:10554000C401802B4D01AA24BB24492E5A2E6B2E58
:105550007724F42CE82E0085002391F0C02ED12C66
:10556000C89C7001C99CF00CD89CF00C11248F2CA5
:10557000049D20011124F52C089FC0011124E92E5F
:10558000A68581859285B385AB1319C0BC01B3E0B4
:105590001B9F600D711D1124A385A60FB72FB11D90
:1055A0008C92A485A60FB72FB11DFC928585680F3C
:1055B000711DFB01E082240F351FF90192CF660FA8
:1055C000771F660F771F680F791FA60FB72FB11DC2
:1055D0001C92E2CFDA018C918C31A9F1863209F06C
:1055E0005AC911961C9180EF90E00E94D50481E782
:1055F00090E00E94D5048DED92E00E94FE1387EFAB
:1056000090E00E94D504112381F0113009F043C9C4
:105610001092650580EF90E00E94D50481E790E04C
:105620000E94D5048AE393E067CC81E0809365050E
:1056300080EF90E00E94D50481E790E00E94D504BD
:1056400080E393E059CCFA0181818823A9F0853069
:1056500009F021C9633008F01EC910926605109246
:10566000320410923304109231040E94B5300E942B
:1056700073300E944B300FC981E08093660512960B
:105680008C91813009F062C01092320A1092330A74
:105690001092370A1092360A1092390A1092380A7C
:1056A00010923B0A10923A0A10923D0A10923C0A5C
:1056B00010923F0A10923E0A1092410A1092400A3C
:1056C0001092430A1092420A1092450A1092440A1C
:1056D0006FEF83E80E9469098823A1F169E88EE8E9
:1056E0000E946909882371F1BE016F5F7F4F80E9D5
:1056F0000E94C916882331F169816063698380E95A
:105700000E9469098823F1F080E00E949930882383
:10571000C9F081E00E947E308823A1F00E942930E8
:10572000882381F061E083E00E94ED16882351F028
:1057300061E082E00E94ED16882321F061E086E0BE
:105740000E94ED1681E080933204A5C89EEF980F69
:105750009230B8F40E941D31882369F080E00E94E5
:105760005630882341F00E942930882321F061E0DF
:1057700081E00E94ED1681E080933404809333042D
:105780008AC8843009F087C881E00E94E93082E04D
:105790000E94E930882389F00E940631882369F04D
:1057A00080E00E942D30882341F00E942930882318
:1057B00021F061E082E00E94ED1681E080933104E7
:1057C0006AC81F920F920FB60F9211240BB60F9258
:1057D0002F933F934F935F936F937F938F939F93F9
:1057E000AF93BF93EF93FF9388EE95E00E9466041A
:1057F000FF91EF91BF91AF919F918F917F916F91A9
:105800005F914F913F912F910F900BBE0F900FBE64
:105810000F901F9018951F920F920FB60F921124A0
:105820000BB60F922F933F934F935F936F937F939A
:105830008F939F93AF93BF93EF93FF9388EE95E081
:105840000E94E803FF91EF91BF91AF919F918F91DB
:105850007F916F915F914F913F912F910F900BBE70
:105860000F900FBE0F901F9018951F920F920FB6BA
:105870000F9211240BB60F922F933F934F935F9388
:105880006F937F938F939F93AF93BF93EF93FF9308
:1058900085E896E00E946604FF91EF91BF91AF9179
:1058A0009F918F917F916F915F914F913F912F9138
:1058B0000F900BBE0F900FBE0F901F9018951F9268
:1058C0000F920FB60F9211240BB60F922F933F93A6
:1058D0004F935F936F937F938F939F93AF93BF93F8
:1058E000EF93FF9385E896E00E94E803FF91EF9124
:1058F000BF91AF919F918F917F916F915F914F91E8
:105900003F912F910F900BBE0F900FBE0F901F90E5
:1059100018951F920F920FB60F9211240BB60F928B
:105920002F933F934F935F936F937F938F939F93A7
:10593000AF93BF93EF93FF9382E297E00E946604D8
:10594000FF91EF91BF91AF919F918F917F916F9157
:105950005F914F913F912F910F900BBE0F900FBE13
:105960000F901F9018951F920F920FB60F9211244F
:105970000BB60F922F933F934F935F936F937F9349
:105980008F939F93AF93BF93EF93FF9382E297E040
:105990000E94E803FF91EF91BF91AF919F918F918A
:1059A0007F916F915F914F913F912F910F900BBE1F
:1059B0000F900FBE0F901F9018951F920F920FB669
:1059C0000F9211240BB60F922F933F934F935F9337
:1059D0006F937F938F939F93AF93BF93EF93FF93B7
:1059E0008FEB97E00E946604FF91EF91BF91AF911A
:1059F0009F918F917F916F915F914F913F912F91E7
:105A00000F900BBE0F900FBE0F901F9018951F9216
:105A10000F920FB60F9211240BB60F922F933F9354
:105A20004F935F936F937F938F939F93AF93BF93A6
:105A3000EF93FF938FEB97E00E94E803FF91EF91C4
:105A4000BF91AF919F918F917F916F915F914F9196
:105A50003F912F910F900BBE0F900FBE0F901F9094
:105A600018951F920F920FB60F9211242F933F9308
:105A70008F939F93AF93BF93809180049091810403
:105A8000A0918204B091830430917F0423E0230F1E
:105A90002D3758F50196A11DB11D20937F048093E9
:105AA000800490938104A0938204B0938304809136
:105AB000840490918504A0918604B0918704019696
:105AC000A11DB11D8093840490938504A093860446
:105AD000B0938704BF91AF919F918F913F912F9188
